{
    "_format": "hh-sol-artifact-1",
    "contractName": "NonfungiblePositionManager",
    "sourceName": "contracts/PangolinV3-periphery/NonfungiblePositionManager.sol",
    "abi": [
        {
            "inputs": [
                {
                    "internalType": "address",
                    "name": "_factory",
                    "type": "address"
                },
                {
                    "internalType": "address",
                    "name": "_WETH9",
                    "type": "address"
                },
                {
                    "internalType": "address",
                    "name": "_tokenDescriptor_",
                    "type": "address"
                },
                {
                    "internalType": "address",
                    "name": "_pangolinRewarder_",
                    "type": "address"
                }
            ],
            "stateMutability": "nonpayable",
            "type": "constructor"
        },
        {
            "anonymous": false,
            "inputs": [
                {
                    "indexed": true,
                    "internalType": "address",
                    "name": "owner",
                    "type": "address"
                },
                {
                    "indexed": true,
                    "internalType": "address",
                    "name": "approved",
                    "type": "address"
                },
                {
                    "indexed": true,
                    "internalType": "uint256",
                    "name": "tokenId",
                    "type": "uint256"
                }
            ],
            "name": "Approval",
            "type": "event"
        },
        {
            "anonymous": false,
            "inputs": [
                {
                    "indexed": true,
                    "internalType": "address",
                    "name": "owner",
                    "type": "address"
                },
                {
                    "indexed": true,
                    "internalType": "address",
                    "name": "operator",
                    "type": "address"
                },
                {
                    "indexed": false,
                    "internalType": "bool",
                    "name": "approved",
                    "type": "bool"
                }
            ],
            "name": "ApprovalForAll",
            "type": "event"
        },
        {
            "anonymous": false,
            "inputs": [
                {
                    "indexed": true,
                    "internalType": "uint256",
                    "name": "tokenId",
                    "type": "uint256"
                },
                {
                    "indexed": false,
                    "internalType": "address",
                    "name": "recipient",
                    "type": "address"
                }
            ],
            "name": "ClaimReward",
            "type": "event"
        },
        {
            "anonymous": false,
            "inputs": [
                {
                    "indexed": true,
                    "internalType": "uint256",
                    "name": "tokenId",
                    "type": "uint256"
                },
                {
                    "indexed": false,
                    "internalType": "address",
                    "name": "recipient",
                    "type": "address"
                },
                {
                    "indexed": false,
                    "internalType": "uint256",
                    "name": "amount0",
                    "type": "uint256"
                },
                {
                    "indexed": false,
                    "internalType": "uint256",
                    "name": "amount1",
                    "type": "uint256"
                }
            ],
            "name": "Collect",
            "type": "event"
        },
        {
            "anonymous": false,
            "inputs": [
                {
                    "indexed": true,
                    "internalType": "uint256",
                    "name": "tokenId",
                    "type": "uint256"
                },
                {
                    "indexed": false,
                    "internalType": "uint128",
                    "name": "liquidity",
                    "type": "uint128"
                },
                {
                    "indexed": false,
                    "internalType": "uint256",
                    "name": "amount0",
                    "type": "uint256"
                },
                {
                    "indexed": false,
                    "internalType": "uint256",
                    "name": "amount1",
                    "type": "uint256"
                }
            ],
            "name": "DecreaseLiquidity",
            "type": "event"
        },
        {
            "anonymous": false,
            "inputs": [
                {
                    "indexed": true,
                    "internalType": "uint256",
                    "name": "tokenId",
                    "type": "uint256"
                },
                {
                    "indexed": false,
                    "internalType": "uint128",
                    "name": "liquidity",
                    "type": "uint128"
                },
                {
                    "indexed": false,
                    "internalType": "uint256",
                    "name": "amount0",
                    "type": "uint256"
                },
                {
                    "indexed": false,
                    "internalType": "uint256",
                    "name": "amount1",
                    "type": "uint256"
                }
            ],
            "name": "IncreaseLiquidity",
            "type": "event"
        },
        {
            "anonymous": false,
            "inputs": [
                {
                    "indexed": true,
                    "internalType": "address",
                    "name": "pool",
                    "type": "address"
                },
                {
                    "indexed": false,
                    "internalType": "uint24",
                    "name": "fee",
                    "type": "uint24"
                }
            ],
            "name": "SetPoolFee",
            "type": "event"
        },
        {
            "anonymous": false,
            "inputs": [
                {
                    "indexed": true,
                    "internalType": "address",
                    "name": "from",
                    "type": "address"
                },
                {
                    "indexed": true,
                    "internalType": "address",
                    "name": "to",
                    "type": "address"
                },
                {
                    "indexed": true,
                    "internalType": "uint256",
                    "name": "tokenId",
                    "type": "uint256"
                }
            ],
            "name": "Transfer",
            "type": "event"
        },
        {
            "inputs": [],
            "name": "DOMAIN_SEPARATOR",
            "outputs": [
                {
                    "internalType": "bytes32",
                    "name": "",
                    "type": "bytes32"
                }
            ],
            "stateMutability": "view",
            "type": "function"
        },
        {
            "inputs": [],
            "name": "PERMIT_TYPEHASH",
            "outputs": [
                {
                    "internalType": "bytes32",
                    "name": "",
                    "type": "bytes32"
                }
            ],
            "stateMutability": "view",
            "type": "function"
        },
        {
            "inputs": [],
            "name": "WETH9",
            "outputs": [
                {
                    "internalType": "address",
                    "name": "",
                    "type": "address"
                }
            ],
            "stateMutability": "view",
            "type": "function"
        },
        {
            "inputs": [
                {
                    "internalType": "address",
                    "name": "to",
                    "type": "address"
                },
                {
                    "internalType": "uint256",
                    "name": "tokenId",
                    "type": "uint256"
                }
            ],
            "name": "approve",
            "outputs": [],
            "stateMutability": "nonpayable",
            "type": "function"
        },
        {
            "inputs": [
                {
                    "internalType": "address",
                    "name": "owner",
                    "type": "address"
                }
            ],
            "name": "balanceOf",
            "outputs": [
                {
                    "internalType": "uint256",
                    "name": "",
                    "type": "uint256"
                }
            ],
            "stateMutability": "view",
            "type": "function"
        },
        {
            "inputs": [],
            "name": "baseURI",
            "outputs": [
                {
                    "internalType": "string",
                    "name": "",
                    "type": "string"
                }
            ],
            "stateMutability": "pure",
            "type": "function"
        },
        {
            "inputs": [
                {
                    "internalType": "uint256",
                    "name": "tokenId",
                    "type": "uint256"
                }
            ],
            "name": "burn",
            "outputs": [],
            "stateMutability": "payable",
            "type": "function"
        },
        {
            "inputs": [
                {
                    "internalType": "uint256",
                    "name": "tokenId",
                    "type": "uint256"
                },
                {
                    "internalType": "address",
                    "name": "recipient",
                    "type": "address"
                }
            ],
            "name": "claimReward",
            "outputs": [],
            "stateMutability": "payable",
            "type": "function"
        },
        {
            "inputs": [
                {
                    "components": [
                        {
                            "internalType": "uint256",
                            "name": "tokenId",
                            "type": "uint256"
                        },
                        {
                            "internalType": "address",
                            "name": "recipient",
                            "type": "address"
                        },
                        {
                            "internalType": "uint128",
                            "name": "amount0Max",
                            "type": "uint128"
                        },
                        {
                            "internalType": "uint128",
                            "name": "amount1Max",
                            "type": "uint128"
                        }
                    ],
                    "internalType": "struct INonfungiblePositionManager.CollectParams",
                    "name": "params",
                    "type": "tuple"
                }
            ],
            "name": "collect",
            "outputs": [
                {
                    "internalType": "uint256",
                    "name": "amount0",
                    "type": "uint256"
                },
                {
                    "internalType": "uint256",
                    "name": "amount1",
                    "type": "uint256"
                }
            ],
            "stateMutability": "payable",
            "type": "function"
        },
        {
            "inputs": [
                {
                    "internalType": "address",
                    "name": "token0",
                    "type": "address"
                },
                {
                    "internalType": "address",
                    "name": "token1",
                    "type": "address"
                },
                {
                    "internalType": "uint24",
                    "name": "fee",
                    "type": "uint24"
                },
                {
                    "internalType": "uint160",
                    "name": "sqrtPriceX96",
                    "type": "uint160"
                }
            ],
            "name": "createAndInitializePoolIfNecessary",
            "outputs": [
                {
                    "internalType": "address",
                    "name": "pool",
                    "type": "address"
                }
            ],
            "stateMutability": "payable",
            "type": "function"
        },
        {
            "inputs": [
                {
                    "components": [
                        {
                            "internalType": "uint256",
                            "name": "tokenId",
                            "type": "uint256"
                        },
                        {
                            "internalType": "uint128",
                            "name": "liquidity",
                            "type": "uint128"
                        },
                        {
                            "internalType": "uint256",
                            "name": "amount0Min",
                            "type": "uint256"
                        },
                        {
                            "internalType": "uint256",
                            "name": "amount1Min",
                            "type": "uint256"
                        },
                        {
                            "internalType": "uint256",
                            "name": "deadline",
                            "type": "uint256"
                        }
                    ],
                    "internalType": "struct INonfungiblePositionManager.DecreaseLiquidityParams",
                    "name": "params",
                    "type": "tuple"
                }
            ],
            "name": "decreaseLiquidity",
            "outputs": [
                {
                    "internalType": "uint256",
                    "name": "amount0",
                    "type": "uint256"
                },
                {
                    "internalType": "uint256",
                    "name": "amount1",
                    "type": "uint256"
                }
            ],
            "stateMutability": "payable",
            "type": "function"
        },
        {
            "inputs": [],
            "name": "factory",
            "outputs": [
                {
                    "internalType": "address",
                    "name": "",
                    "type": "address"
                }
            ],
            "stateMutability": "view",
            "type": "function"
        },
        {
            "inputs": [
                {
                    "internalType": "uint256",
                    "name": "tokenId",
                    "type": "uint256"
                }
            ],
            "name": "getApproved",
            "outputs": [
                {
                    "internalType": "address",
                    "name": "",
                    "type": "address"
                }
            ],
            "stateMutability": "view",
            "type": "function"
        },
        {
            "inputs": [
                {
                    "components": [
                        {
                            "internalType": "uint256",
                            "name": "tokenId",
                            "type": "uint256"
                        },
                        {
                            "internalType": "uint256",
                            "name": "amount0Desired",
                            "type": "uint256"
                        },
                        {
                            "internalType": "uint256",
                            "name": "amount1Desired",
                            "type": "uint256"
                        },
                        {
                            "internalType": "uint256",
                            "name": "amount0Min",
                            "type": "uint256"
                        },
                        {
                            "internalType": "uint256",
                            "name": "amount1Min",
                            "type": "uint256"
                        },
                        {
                            "internalType": "uint256",
                            "name": "deadline",
                            "type": "uint256"
                        }
                    ],
                    "internalType": "struct INonfungiblePositionManager.IncreaseLiquidityParams",
                    "name": "params",
                    "type": "tuple"
                }
            ],
            "name": "increaseLiquidity",
            "outputs": [
                {
                    "internalType": "uint128",
                    "name": "liquidity",
                    "type": "uint128"
                },
                {
                    "internalType": "uint256",
                    "name": "amount0",
                    "type": "uint256"
                },
                {
                    "internalType": "uint256",
                    "name": "amount1",
                    "type": "uint256"
                }
            ],
            "stateMutability": "payable",
            "type": "function"
        },
        {
            "inputs": [
                {
                    "internalType": "address",
                    "name": "owner",
                    "type": "address"
                },
                {
                    "internalType": "address",
                    "name": "operator",
                    "type": "address"
                }
            ],
            "name": "isApprovedForAll",
            "outputs": [
                {
                    "internalType": "bool",
                    "name": "",
                    "type": "bool"
                }
            ],
            "stateMutability": "view",
            "type": "function"
        },
        {
            "inputs": [
                {
                    "components": [
                        {
                            "internalType": "address",
                            "name": "token0",
                            "type": "address"
                        },
                        {
                            "internalType": "address",
                            "name": "token1",
                            "type": "address"
                        },
                        {
                            "internalType": "uint24",
                            "name": "fee",
                            "type": "uint24"
                        },
                        {
                            "internalType": "int24",
                            "name": "tickLower",
                            "type": "int24"
                        },
                        {
                            "internalType": "int24",
                            "name": "tickUpper",
                            "type": "int24"
                        },
                        {
                            "internalType": "uint256",
                            "name": "amount0Desired",
                            "type": "uint256"
                        },
                        {
                            "internalType": "uint256",
                            "name": "amount1Desired",
                            "type": "uint256"
                        },
                        {
                            "internalType": "uint256",
                            "name": "amount0Min",
                            "type": "uint256"
                        },
                        {
                            "internalType": "uint256",
                            "name": "amount1Min",
                            "type": "uint256"
                        },
                        {
                            "internalType": "address",
                            "name": "recipient",
                            "type": "address"
                        },
                        {
                            "internalType": "uint256",
                            "name": "deadline",
                            "type": "uint256"
                        }
                    ],
                    "internalType": "struct INonfungiblePositionManager.MintParams",
                    "name": "params",
                    "type": "tuple"
                }
            ],
            "name": "mint",
            "outputs": [
                {
                    "internalType": "uint256",
                    "name": "tokenId",
                    "type": "uint256"
                },
                {
                    "internalType": "uint128",
                    "name": "liquidity",
                    "type": "uint128"
                },
                {
                    "internalType": "uint256",
                    "name": "amount0",
                    "type": "uint256"
                },
                {
                    "internalType": "uint256",
                    "name": "amount1",
                    "type": "uint256"
                }
            ],
            "stateMutability": "payable",
            "type": "function"
        },
        {
            "inputs": [
                {
                    "internalType": "bytes[]",
                    "name": "data",
                    "type": "bytes[]"
                }
            ],
            "name": "multicall",
            "outputs": [
                {
                    "internalType": "bytes[]",
                    "name": "results",
                    "type": "bytes[]"
                }
            ],
            "stateMutability": "payable",
            "type": "function"
        },
        {
            "inputs": [],
            "name": "name",
            "outputs": [
                {
                    "internalType": "string",
                    "name": "",
                    "type": "string"
                }
            ],
            "stateMutability": "view",
            "type": "function"
        },
        {
            "inputs": [
                {
                    "internalType": "uint256",
                    "name": "tokenId",
                    "type": "uint256"
                }
            ],
            "name": "ownerOf",
            "outputs": [
                {
                    "internalType": "address",
                    "name": "",
                    "type": "address"
                }
            ],
            "stateMutability": "view",
            "type": "function"
        },
        {
            "inputs": [
                {
                    "internalType": "uint256",
                    "name": "amount0Owed",
                    "type": "uint256"
                },
                {
                    "internalType": "uint256",
                    "name": "amount1Owed",
                    "type": "uint256"
                },
                {
                    "internalType": "bytes",
                    "name": "data",
                    "type": "bytes"
                }
            ],
            "name": "pangolinv3MintCallback",
            "outputs": [],
            "stateMutability": "nonpayable",
            "type": "function"
        },
        {
            "inputs": [
                {
                    "internalType": "address",
                    "name": "spender",
                    "type": "address"
                },
                {
                    "internalType": "uint256",
                    "name": "tokenId",
                    "type": "uint256"
                },
                {
                    "internalType": "uint256",
                    "name": "deadline",
                    "type": "uint256"
                },
                {
                    "internalType": "uint8",
                    "name": "v",
                    "type": "uint8"
                },
                {
                    "internalType": "bytes32",
                    "name": "r",
                    "type": "bytes32"
                },
                {
                    "internalType": "bytes32",
                    "name": "s",
                    "type": "bytes32"
                }
            ],
            "name": "permit",
            "outputs": [],
            "stateMutability": "payable",
            "type": "function"
        },
        {
            "inputs": [
                {
                    "internalType": "uint256",
                    "name": "tokenId",
                    "type": "uint256"
                }
            ],
            "name": "positionReward",
            "outputs": [
                {
                    "internalType": "uint192",
                    "name": "rewardPerLiquidityInsideLastX64",
                    "type": "uint192"
                },
                {
                    "internalType": "uint32",
                    "name": "rewardLastUpdated",
                    "type": "uint32"
                },
                {
                    "internalType": "uint32",
                    "name": "rewardLastCollected",
                    "type": "uint32"
                },
                {
                    "internalType": "uint256",
                    "name": "totalReward",
                    "type": "uint256"
                }
            ],
            "stateMutability": "view",
            "type": "function"
        },
        {
            "inputs": [
                {
                    "internalType": "uint256",
                    "name": "tokenId",
                    "type": "uint256"
                }
            ],
            "name": "positions",
            "outputs": [
                {
                    "internalType": "uint96",
                    "name": "nonce",
                    "type": "uint96"
                },
                {
                    "internalType": "address",
                    "name": "operator",
                    "type": "address"
                },
                {
                    "internalType": "address",
                    "name": "token0",
                    "type": "address"
                },
                {
                    "internalType": "address",
                    "name": "token1",
                    "type": "address"
                },
                {
                    "internalType": "uint24",
                    "name": "fee",
                    "type": "uint24"
                },
                {
                    "internalType": "int24",
                    "name": "tickLower",
                    "type": "int24"
                },
                {
                    "internalType": "int24",
                    "name": "tickUpper",
                    "type": "int24"
                },
                {
                    "internalType": "uint128",
                    "name": "liquidity",
                    "type": "uint128"
                },
                {
                    "internalType": "uint256",
                    "name": "feeGrowthInside0LastX128",
                    "type": "uint256"
                },
                {
                    "internalType": "uint256",
                    "name": "feeGrowthInside1LastX128",
                    "type": "uint256"
                },
                {
                    "internalType": "uint128",
                    "name": "tokensOwed0",
                    "type": "uint128"
                },
                {
                    "internalType": "uint128",
                    "name": "tokensOwed1",
                    "type": "uint128"
                }
            ],
            "stateMutability": "view",
            "type": "function"
        },
        {
            "inputs": [],
            "name": "refundETH",
            "outputs": [],
            "stateMutability": "payable",
            "type": "function"
        },
        {
            "inputs": [
                {
                    "internalType": "address",
                    "name": "from",
                    "type": "address"
                },
                {
                    "internalType": "address",
                    "name": "to",
                    "type": "address"
                },
                {
                    "internalType": "uint256",
                    "name": "tokenId",
                    "type": "uint256"
                }
            ],
            "name": "safeTransferFrom",
            "outputs": [],
            "stateMutability": "nonpayable",
            "type": "function"
        },
        {
            "inputs": [
                {
                    "internalType": "address",
                    "name": "from",
                    "type": "address"
                },
                {
                    "internalType": "address",
                    "name": "to",
                    "type": "address"
                },
                {
                    "internalType": "uint256",
                    "name": "tokenId",
                    "type": "uint256"
                },
                {
                    "internalType": "bytes",
                    "name": "_data",
                    "type": "bytes"
                }
            ],
            "name": "safeTransferFrom",
            "outputs": [],
            "stateMutability": "nonpayable",
            "type": "function"
        },
        {
            "inputs": [
                {
                    "internalType": "address",
                    "name": "token",
                    "type": "address"
                },
                {
                    "internalType": "uint256",
                    "name": "value",
                    "type": "uint256"
                },
                {
                    "internalType": "uint256",
                    "name": "deadline",
                    "type": "uint256"
                },
                {
                    "internalType": "uint8",
                    "name": "v",
                    "type": "uint8"
                },
                {
                    "internalType": "bytes32",
                    "name": "r",
                    "type": "bytes32"
                },
                {
                    "internalType": "bytes32",
                    "name": "s",
                    "type": "bytes32"
                }
            ],
            "name": "selfPermit",
            "outputs": [],
            "stateMutability": "payable",
            "type": "function"
        },
        {
            "inputs": [
                {
                    "internalType": "address",
                    "name": "token",
                    "type": "address"
                },
                {
                    "internalType": "uint256",
                    "name": "nonce",
                    "type": "uint256"
                },
                {
                    "internalType": "uint256",
                    "name": "expiry",
                    "type": "uint256"
                },
                {
                    "internalType": "uint8",
                    "name": "v",
                    "type": "uint8"
                },
                {
                    "internalType": "bytes32",
                    "name": "r",
                    "type": "bytes32"
                },
                {
                    "internalType": "bytes32",
                    "name": "s",
                    "type": "bytes32"
                }
            ],
            "name": "selfPermitAllowed",
            "outputs": [],
            "stateMutability": "payable",
            "type": "function"
        },
        {
            "inputs": [
                {
                    "internalType": "address",
                    "name": "token",
                    "type": "address"
                },
                {
                    "internalType": "uint256",
                    "name": "nonce",
                    "type": "uint256"
                },
                {
                    "internalType": "uint256",
                    "name": "expiry",
                    "type": "uint256"
                },
                {
                    "internalType": "uint8",
                    "name": "v",
                    "type": "uint8"
                },
                {
                    "internalType": "bytes32",
                    "name": "r",
                    "type": "bytes32"
                },
                {
                    "internalType": "bytes32",
                    "name": "s",
                    "type": "bytes32"
                }
            ],
            "name": "selfPermitAllowedIfNecessary",
            "outputs": [],
            "stateMutability": "payable",
            "type": "function"
        },
        {
            "inputs": [
                {
                    "internalType": "address",
                    "name": "token",
                    "type": "address"
                },
                {
                    "internalType": "uint256",
                    "name": "value",
                    "type": "uint256"
                },
                {
                    "internalType": "uint256",
                    "name": "deadline",
                    "type": "uint256"
                },
                {
                    "internalType": "uint8",
                    "name": "v",
                    "type": "uint8"
                },
                {
                    "internalType": "bytes32",
                    "name": "r",
                    "type": "bytes32"
                },
                {
                    "internalType": "bytes32",
                    "name": "s",
                    "type": "bytes32"
                }
            ],
            "name": "selfPermitIfNecessary",
            "outputs": [],
            "stateMutability": "payable",
            "type": "function"
        },
        {
            "inputs": [
                {
                    "internalType": "address",
                    "name": "operator",
                    "type": "address"
                },
                {
                    "internalType": "bool",
                    "name": "approved",
                    "type": "bool"
                }
            ],
            "name": "setApprovalForAll",
            "outputs": [],
            "stateMutability": "nonpayable",
            "type": "function"
        },
        {
            "inputs": [
                {
                    "internalType": "bytes4",
                    "name": "interfaceId",
                    "type": "bytes4"
                }
            ],
            "name": "supportsInterface",
            "outputs": [
                {
                    "internalType": "bool",
                    "name": "",
                    "type": "bool"
                }
            ],
            "stateMutability": "view",
            "type": "function"
        },
        {
            "inputs": [
                {
                    "internalType": "address",
                    "name": "token",
                    "type": "address"
                },
                {
                    "internalType": "uint256",
                    "name": "amountMinimum",
                    "type": "uint256"
                },
                {
                    "internalType": "address",
                    "name": "recipient",
                    "type": "address"
                }
            ],
            "name": "sweepToken",
            "outputs": [],
            "stateMutability": "payable",
            "type": "function"
        },
        {
            "inputs": [],
            "name": "symbol",
            "outputs": [
                {
                    "internalType": "string",
                    "name": "",
                    "type": "string"
                }
            ],
            "stateMutability": "view",
            "type": "function"
        },
        {
            "inputs": [
                {
                    "internalType": "uint256",
                    "name": "index",
                    "type": "uint256"
                }
            ],
            "name": "tokenByIndex",
            "outputs": [
                {
                    "internalType": "uint256",
                    "name": "",
                    "type": "uint256"
                }
            ],
            "stateMutability": "view",
            "type": "function"
        },
        {
            "inputs": [
                {
                    "internalType": "address",
                    "name": "owner",
                    "type": "address"
                },
                {
                    "internalType": "uint256",
                    "name": "index",
                    "type": "uint256"
                }
            ],
            "name": "tokenOfOwnerByIndex",
            "outputs": [
                {
                    "internalType": "uint256",
                    "name": "",
                    "type": "uint256"
                }
            ],
            "stateMutability": "view",
            "type": "function"
        },
        {
            "inputs": [
                {
                    "internalType": "uint256",
                    "name": "tokenId",
                    "type": "uint256"
                }
            ],
            "name": "tokenURI",
            "outputs": [
                {
                    "internalType": "string",
                    "name": "",
                    "type": "string"
                }
            ],
            "stateMutability": "view",
            "type": "function"
        },
        {
            "inputs": [],
            "name": "totalSupply",
            "outputs": [
                {
                    "internalType": "uint256",
                    "name": "",
                    "type": "uint256"
                }
            ],
            "stateMutability": "view",
            "type": "function"
        },
        {
            "inputs": [
                {
                    "internalType": "address",
                    "name": "from",
                    "type": "address"
                },
                {
                    "internalType": "address",
                    "name": "to",
                    "type": "address"
                },
                {
                    "internalType": "uint256",
                    "name": "tokenId",
                    "type": "uint256"
                }
            ],
            "name": "transferFrom",
            "outputs": [],
            "stateMutability": "nonpayable",
            "type": "function"
        },
        {
            "inputs": [
                {
                    "internalType": "uint256",
                    "name": "amountMinimum",
                    "type": "uint256"
                },
                {
                    "internalType": "address",
                    "name": "recipient",
                    "type": "address"
                }
            ],
            "name": "unwrapWETH9",
            "outputs": [],
            "stateMutability": "payable",
            "type": "function"
        },
        {
            "inputs": [
                {
                    "internalType": "address",
                    "name": "_pangolinRewarder_",
                    "type": "address"
                }
            ],
            "name": "updateRewardManager",
            "outputs": [],
            "stateMutability": "payable",
            "type": "function"
        },
        {
            "stateMutability": "payable",
            "type": "receive"
        }
    ],
    "bytecode": "0x610100604052600d80546001600160b01b0319166001176001600160b01b0316600160b01b1790553480156200003457600080fd5b50604051620063d1380380620063d18339810160408190526200005791620002fb565b83836040518060400160405280601981526020017f50616e676f6c696e20563320506f736974696f6e73204e46540000000000000081525060405180604001604052806008815260200167504e56332d504f5360c01b815250604051806040016040528060018152602001603160f81b8152508282620000e46301ffc9a760e01b620001ad60201b60201c565b8151620000f990600690602085019062000232565b5080516200010f90600790602084019062000232565b50620001226380ac58cd60e01b620001ad565b62000134635b5e139f60e01b620001ad565b6200014663780e9d6360e01b620001ad565b50508251602093840120608052805192019190912060a052506001600160601b0319606092831b811660c052911b1660e052600e80546001600160a01b039384166001600160a01b031991821617909155600f805492909316911617905550620003579050565b6001600160e01b031980821614156200020d576040805162461bcd60e51b815260206004820152601c60248201527f4552433136353a20696e76616c696420696e7465726661636520696400000000604482015290519081900360640190fd5b6001600160e01b0319166000908152602081905260409020805460ff19166001179055565b828054600181600116156101000203166002900490600052602060002090601f0160209004810192826200026a5760008555620002b5565b82601f106200028557805160ff1916838001178555620002b5565b82800160010185558215620002b5579182015b82811115620002b557825182559160200191906001019062000298565b50620002c3929150620002c7565b5090565b5b80821115620002c35760008155600101620002c8565b80516001600160a01b0381168114620002f657600080fd5b919050565b6000806000806080858703121562000311578384fd5b6200031c85620002de565b93506200032c60208601620002de565b92506200033c60408601620002de565b91506200034c60608601620002de565b905092959194509250565b60805160a05160c05160601c60e05160601c615fee620003e3600039806101fa5280611568528061165352806116db52806141d6528061421c52806142905250806109c45280610cd25280610d99528061191752806129d55280612b5b5280612c355280612d845280612ee9528061329d528061381e52508061137c52508061135b5250615fee6000f3fe6080604052600436106101ea5760003560e01c80636352211e116101095780636352211e1461048f5780636c0360eb146104af57806370a08231146104c457806375e39cec146104e45780637ac2ff7b14610514578063883164561461052757806395d89b411461054a57806399fbab881461055f578063a22cb46514610597578063a4a78f0c146105b7578063ac9650d8146105ca578063b88d4fde146105ea578063c2e3140a1461060a578063c45a01551461061d578063c87b56dd14610632578063df2ab5bb14610652578063e70eb39214610665578063e985e9c514610678578063f3995c6714610698578063f68d1662146106ab578063fc6f7865146106cb5761025a565b806301ffc9a71461025f578063050eb2eb1461029557806306fdde03146102a8578063081812fc146102ca578063095ea7b3146102f75780630c49ccbe1461031757806312210e8a1461033857806313ead5621461034057806318160ddd14610353578063219f5d171461037557806323b872dd146103975780632f745c59146103b757806330adf81f146103d75780633644e515146103ec57806342842e0e1461040157806342966c68146104215780634659a4941461043457806349404b7c146104475780634aa4a4fc1461045a5780634f6ccce71461046f5761025a565b3661025a57336001600160a01b037f00000000000000000000000000000000000000000000000000000000000000001614610258576040805162461bcd60e51b81526020600482015260096024820152684e6f7420574554483960b81b604482015290519081900360640190fd5b005b600080fd5b34801561026b57600080fd5b5061027f61027a3660046154ac565b6106de565b60405161028c9190615a97565b60405180910390f35b6102586102a336600461519b565b610701565b3480156102b457600080fd5b506102bd61072b565b60405161028c9190615ae5565b3480156102d657600080fd5b506102ea6102e536600461580f565b6107c1565b60405161028c9190615938565b34801561030357600080fd5b50610258610312366004615377565b6107f8565b61032a6103253660046155db565b6108ce565b60405161028c929190615bf4565b610258610ca6565b6102ea61034e36600461520b565b610cb0565b34801561035f57600080fd5b50610368610fa4565b60405161028c9190615aa2565b6103886103833660046155ec565b610fb5565b60405161028c93929190615b82565b3480156103a357600080fd5b506102586103b2366004615264565b611290565b3480156103c357600080fd5b506103686103d2366004615377565b6112e7565b3480156103e357600080fd5b50610368611312565b3480156103f857600080fd5b50610368611336565b34801561040d57600080fd5b5061025861041c366004615264565b6113f4565b61025861042f36600461580f565b61140f565b6102586104423660046153e3565b6114ca565b610258610455366004615827565b611564565b34801561046657600080fd5b506102ea6116d9565b34801561047b57600080fd5b5061036861048a36600461580f565b6116fd565b34801561049b57600080fd5b506102ea6104aa36600461580f565b611713565b3480156104bb57600080fd5b506102bd61173b565b3480156104d057600080fd5b506103686104df36600461519b565b611740565b3480156104f057600080fd5b506105046104ff36600461580f565b6117a8565b60405161028c9493929190615ba3565b6102586105223660046153e3565b611a26565b61053a6105353660046156a7565b611db6565b60405161028c9493929190615bd0565b34801561055657600080fd5b506102bd612361565b34801561056b57600080fd5b5061057f61057a36600461580f565b6123c2565b60405161028c9c9b9a99989796959493929190615c02565b3480156105a357600080fd5b506102586105b236600461534a565b612604565b6102586105c53660046153e3565b612705565b6105dd6105d836600461543e565b61279e565b60405161028c9190615a37565b3480156105f657600080fd5b506102586106053660046152a4565b6128e6565b6102586106183660046153e3565b612944565b34801561062957600080fd5b506102ea6129d3565b34801561063e57600080fd5b506102bd61064d36600461580f565b6129f7565b6102586106603660046153a2565b6129fd565b610258610673366004615827565b612ad5565b34801561068457600080fd5b5061027f6106933660046151d3565b612ccf565b6102586106a63660046153e3565b612cfd565b3480156106b757600080fd5b506102586106c636600461586e565b612d6f565b61032a6106d93660046155c4565b612ded565b6001600160e01b0319811660009081526020819052604090205460ff165b919050565b61070961329b565b600f80546001600160a01b0319166001600160a01b0392909216919091179055565b60068054604080516020601f60026000196101006001881615020190951694909404938401819004810282018101909252828152606093909290918301828280156107b75780601f1061078c576101008083540402835291602001916107b7565b820191906000526020600020905b81548152906001019060200180831161079a57829003601f168201915b5050505050905090565b60006107cc82613349565b6107d557600080fd5b506000908152600c6020526040902054600160601b90046001600160a01b031690565b600061080382611713565b9050806001600160a01b0316836001600160a01b031614156108565760405162461bcd60e51b8152600401808060200182810382526021815260200180615f676021913960400191505060405180910390fd5b806001600160a01b0316610868613356565b6001600160a01b03161480610884575061088481610693613356565b6108bf5760405162461bcd60e51b8152600401808060200182810382526038815260200180615e716038913960400191505060405180910390fd5b6108c9838361335a565b505050565b60008082356108dc816133d0565b83608001356108ea816133f9565b60006108fc60408701602088016156b9565b6001600160801b03161161090f57600080fd5b84356000908152600c602090815260409182902060018101549092600160801b9091046001600160801b03169161094a9189019089016156b9565b6001600160801b0316816001600160801b0316101561096857600080fd5b6001828101546001600160501b03166000908152600b60209081526040808320815160608101835281546001600160a01b039081168252919095015490811692850192909252600160a01b90910462ffffff16908301526109e97f000000000000000000000000000000000000000000000000000000000000000083613444565b90506109f58482613523565b60018401546001600160a01b0382169063a34123a790600160501b8104600290810b91600160681b9004900b610a3160408e0160208f016156b9565b6040518463ffffffff1660e01b8152600401610a4f93929190615abf565b6040805180830381600087803b158015610a6857600080fd5b505af1158015610a7c573d6000803e3d6000fd5b505050506040513d601f19601f82011682018060405250810190610aa0919061584b565b909850965060408901358810801590610abd575088606001358710155b610ac657600080fd5b6001840154600090610aef903090600160501b8104600290810b91600160681b9004900b6136b2565b9050600080836001600160a01b031663514ea4bf846040518263ffffffff1660e01b8152600401610b209190615aa2565b60a06040518083038186803b158015610b3857600080fd5b505afa158015610b4c573d6000803e3d6000fd5b505050506040513d601f19601f82011682018060405250810190610b709190615703565b50509250925050610b9587600201548303876001600160801b0316600160801b613707565b6004880180546001600160801b03198116928e016001600160801b039182160181169290921790556003880154610bd691908303908816600160801b613707565b6004880180546001600160801b03808216938e01600160801b9283900482160116029190911790556002870182905560038701819055610c1c60408d0160208e016156b9565b86038760010160106101000a8154816001600160801b0302191690836001600160801b031602179055508b600001357f26f6a048ee9138f2c0ce266f322cb99228e8d619ae2bff30c67f8dcf9d2377b48d6020016020810190610c7f91906156b9565b8d8d604051610c9093929190615b82565b60405180910390a2505050505050505050915091565b610cae6137b6565b565b6000836001600160a01b0316856001600160a01b031610610cd057600080fd5b7f00000000000000000000000000000000000000000000000000000000000000006001600160a01b0316631698ee828686866040518463ffffffff1660e01b815260040180846001600160a01b03168152602001836001600160a01b031681526020018262ffffff168152602001935050505060206040518083038186803b158015610d5b57600080fd5b505afa158015610d6f573d6000803e3d6000fd5b505050506040513d6020811015610d8557600080fd5b505190506001600160a01b038116610ebb577f00000000000000000000000000000000000000000000000000000000000000006001600160a01b031663a16712958686866040518463ffffffff1660e01b815260040180846001600160a01b03168152602001836001600160a01b031681526020018262ffffff1681526020019350505050602060405180830381600087803b158015610e2457600080fd5b505af1158015610e38573d6000803e3d6000fd5b505050506040513d6020811015610e4e57600080fd5b50516040805163f637731d60e01b81526001600160a01b03858116600483015291519293509083169163f637731d9160248082019260009290919082900301818387803b158015610e9e57600080fd5b505af1158015610eb2573d6000803e3d6000fd5b50505050610f9c565b6000816001600160a01b0316633850c7bd6040518163ffffffff1660e01b815260040160e06040518083038186803b158015610ef657600080fd5b505afa158015610f0a573d6000803e3d6000fd5b505050506040513d60e0811015610f2057600080fd5b505190506001600160a01b038116610f9a57816001600160a01b031663f637731d846040518263ffffffff1660e01b815260040180826001600160a01b03168152602001915050600060405180830381600087803b158015610f8157600080fd5b505af1158015610f95573d6000803e3d6000fd5b505050505b505b949350505050565b6000610fb060026137c6565b905090565b60008060008360a00135610fc8816133f9565b84356000908152600c602090815260408083206001808201546001600160501b0381168652600b855283862084516060808201875282546001600160a01b039081168352929094015480831682890190815262ffffff600160a01b9092048216838901908152885161014081018a528451861681529151909416818a0152925116828701523082850152600160501b8304600290810b810b608080850191909152600160681b909404810b900b60a0830152958c013560c0820152938b013560e0850152908a013561010084015289013561012083015292906110aa906137d1565b6001870154939a50919850965091506000906110dd903090600160501b8104600290810b91600160681b9004900b6136b2565b9050600080836001600160a01b031663514ea4bf846040518263ffffffff1660e01b815260040161110e9190615aa2565b60a06040518083038186803b15801561112657600080fd5b505afa15801561113a573d6000803e3d6000fd5b505050506040513d601f19601f8201168201806040525081019061115e9190615703565b5050925092505061119a866002015483038760010160109054906101000a90046001600160801b03166001600160801b0316600160801b613707565b6004870180546001600160801b0380821690930183166001600160801b0319909116179055600387015460018801546111e19291840391600160801b918290041690613707565b6004870180546001600160801b03600160801b8083048216909401811690930292169190911790556112138685613523565b60028601829055600386018190556001860180546001600160801b03600160801b80830482168e0182160291161790556040518b35907f3067048beee31b25b2f1681f88dac838c8bba36af25bfb2b7cf7473a5847e35f9061127a908d908d908d90615b82565b60405180910390a2505050505050509193909250565b6112a161129b613356565b82613a0c565b6112dc5760405162461bcd60e51b8152600401808060200182810382526031815260200180615f886031913960400191505060405180910390fd5b6108c9838383613aa8565b6001600160a01b03821660009081526001602052604081206113099083613be2565b90505b92915050565b7f49ecf333e5b8c95c40fdafc95c1ad136e8914a8fb55e9dc8bb01eaa83a2df9ad81565b60007f8b73c3c69bb8fe3d512ecc4cf759cc79239f7b179b0ffacaa9a75d522b39400f7f00000000000000000000000000000000000000000000000000000000000000007f00000000000000000000000000000000000000000000000000000000000000006113a3613bee565b3060405160200180868152602001858152602001848152602001838152602001826001600160a01b031681526020019550505050505060405160208183030381529060405280519060200120905090565b6108c9838383604051806020016040528060008152506128e6565b80611419816133d0565b6000828152600c602052604090206001810154600160801b90046001600160801b0316158015611454575060048101546001600160801b0316155b801561147257506004810154600160801b90046001600160801b0316155b801561148057506006810154155b61148957600080fd5b6000838152600c602052604081208181556001810182905560028101829055600381018290556004810182905560058101829055600601556108c983613bf2565b604080516323f2ebc360e21b815233600482015230602482015260448101879052606481018690526001608482015260ff851660a482015260c4810184905260e4810183905290516001600160a01b03881691638fcbaf0c9161010480830192600092919082900301818387803b15801561154457600080fd5b505af1158015611558573d6000803e3d6000fd5b50505050505050505050565b60007f00000000000000000000000000000000000000000000000000000000000000006001600160a01b03166370a08231306040518263ffffffff1660e01b815260040180826001600160a01b0316815260200191505060206040518083038186803b1580156115d357600080fd5b505afa1580156115e7573d6000803e3d6000fd5b505050506040513d60208110156115fd57600080fd5b505190508281101561164b576040805162461bcd60e51b8152602060048201526012602482015271496e73756666696369656e7420574554483960701b604482015290519081900360640190fd5b80156108c9577f00000000000000000000000000000000000000000000000000000000000000006001600160a01b0316632e1a7d4d826040518263ffffffff1660e01b815260040180828152602001915050600060405180830381600087803b1580156116b757600080fd5b505af11580156116cb573d6000803e3d6000fd5b505050506108c98282613cad565b7f000000000000000000000000000000000000000000000000000000000000000081565b60008061170b600284613d9c565b509392505050565b600061130c82604051806060016040528060298152602001615ed36029913960029190613dba565b606090565b60006001600160a01b0382166117875760405162461bcd60e51b815260040180806020018281038252602a815260200180615ea9602a913960400191505060405180910390fd5b6001600160a01b038216600090815260016020526040902061130c906137c6565b6000818152600c6020908152604080832081516101c08101835281546001600160601b03811682526001600160a01b03600160601b909104169381019390935260018101546001600160501b038116928401839052600160501b8104600290810b810b810b6060860152600160681b8204810b810b810b60808601526001600160801b03600160801b92839004811660a08701529083015460c0860152600383015460e08601526004830154808216610100870152919091041661012084015260058101546001600160c01b03811661014085015263ffffffff600160c01b82048116610160860152600160e01b90910416610180840152600601546101a0830152829182918291906118ba57600080fd5b6040818101516001600160501b03166000908152600b6020908152828220835160608101855281546001600160a01b03908116825260019092015491821692810192909252600160a01b900462ffffff169281019290925261193c7f000000000000000000000000000000000000000000000000000000000000000083613444565b606084015160808501516040516351c403f960e11b81529293506000926001600160a01b0385169263a38807f29261197692600401615aab565b60806040518083038186803b15801561198e57600080fd5b505afa1580156119a2573d6000803e3d6000fd5b505050506040513d601f19601f820116820180604052508101906119c691906154f0565b935050505060006119f985610140015183036001600160c01b03168660a001516001600160801b0316600160401b613707565b6101a086015161014087015161016088015161018090980151909d979c509a500197509395505050505050565b83611a30816133f9565b6000611a3a611336565b7f49ecf333e5b8c95c40fdafc95c1ad136e8914a8fb55e9dc8bb01eaa83a2df9ad8989611a6681613dc7565b604080516020808201969096526001600160a01b03909416848201526060840192909252608083015260a08083018b90528151808403909101815260c08301825280519084012061190160f01b60e084015260e283019490945261010280830194909452805180830390940184526101229091019052815191012090506000611aee88611713565b9050806001600160a01b0316896001600160a01b03161415611b57576040805162461bcd60e51b815260206004820152601f60248201527f4552433732315065726d69743a20617070726f76616c20746f206f776e657200604482015290519081900360640190fd5b611b6081613dfc565b15611cc8576040805160208082018890528183018790526001600160f81b031960f88a901b1660608301528251604181840301815260618301808552630b135d3f60e11b90526065830186815260858401948552815160a585015281516001600160a01b03871695631626ba7e958995919260c59091019185019080838360005b83811015611bf9578181015183820152602001611be1565b50505050905090810190601f168015611c265780820380516001836020036101000a031916815260200191505b50935050505060206040518083038186803b158015611c4457600080fd5b505afa158015611c58573d6000803e3d6000fd5b505050506040513d6020811015611c6e57600080fd5b50516001600160e01b031916630b135d3f60e11b14611cc3576040805162461bcd60e51b815260206004820152600c60248201526b155b985d5d1a1bdc9a5e995960a21b604482015290519081900360640190fd5b611da1565b600060018388888860405160008152602001604052604051808581526020018460ff1681526020018381526020018281526020019450505050506020604051602081039080840390855afa158015611d24573d6000803e3d6000fd5b5050604051601f1901519150506001600160a01b03811615801590611d5a5750816001600160a01b0316816001600160a01b0316145b611d9f576040805162461bcd60e51b8152602060048201526011602482015270496e76616c6964207369676e617475726560781b604482015290519081900360640190fd5b505b611dab898961335a565b505050505050505050565b600080600080846101400135611dcb816133f9565b604080516101408101909152600090611e979080611dec60208b018b61519b565b6001600160a01b03168152602001896020016020810190611e0d919061519b565b6001600160a01b03168152602001611e2b60608b0160408c016157f5565b62ffffff168152306020820152604001611e4b60808b0160608c016154d4565b60020b8152602001611e6360a08b0160808c016154d4565b60020b81526020018960a0013581526020018960c0013581526020018960e0013581526020018961010001358152506137d1565b92975090955093509050611ee4611eb661014089016101208a0161519b565b600d80546001600160b01b0319811660016001600160b01b0392831690810190921617909155975087613e02565b6000611f0f30611efa60808b0160608c016154d4565b611f0a60a08c0160808d016154d4565b6136b2565b9050600080836001600160a01b031663514ea4bf846040518263ffffffff1660e01b8152600401611f409190615aa2565b60a06040518083038186803b158015611f5857600080fd5b505afa158015611f6c573d6000803e3d6000fd5b505050506040513d601f19601f82011682018060405250810190611f909190615703565b5050925092505060006120098560405180606001604052808e6000016020810190611fbb919061519b565b6001600160a01b031681526020018e6020016020810190611fdc919061519b565b6001600160a01b031681526020018e6040016020810190611ffd91906157f5565b62ffffff169052613f1d565b9050604051806101c0016040528060006001600160601b0316815260200160006001600160a01b03168152602001826001600160501b031681526020018c606001602081019061205991906154d4565b60020b815260200161207160a08e0160808f016154d4565b60020b81526020018a6001600160801b0316815260200184815260200183815260200160006001600160801b0316815260200160006001600160801b0316815260200160006001600160c01b03168152602001600063ffffffff168152602001600063ffffffff1681526020016000815250600c60008c815260200190815260200160002060008201518160000160006101000a8154816001600160601b0302191690836001600160601b03160217905550602082015181600001600c6101000a8154816001600160a01b0302191690836001600160a01b0316021790555060408201518160010160006101000a8154816001600160501b0302191690836001600160501b03160217905550606082015181600101600a6101000a81548162ffffff021916908360020b62ffffff160217905550608082015181600101600d6101000a81548162ffffff021916908360020b62ffffff16021790555060a08201518160010160106101000a8154816001600160801b0302191690836001600160801b0316021790555060c0820151816002015560e082015181600301556101008201518160040160006101000a8154816001600160801b0302191690836001600160801b031602179055506101208201518160040160106101000a8154816001600160801b0302191690836001600160801b031602179055506101408201518160050160006101000a8154816001600160c01b0302191690836001600160c01b031602179055506101608201518160050160186101000a81548163ffffffff021916908363ffffffff16021790555061018082015181600501601c6101000a81548163ffffffff021916908363ffffffff1602179055506101a082015181600601559050506000600c60008c815260200190815260200160002090506123178187613523565b8a7f3067048beee31b25b2f1681f88dac838c8bba36af25bfb2b7cf7473a5847e35f8b8b8b60405161234b93929190615b82565b60405180910390a2505050505050509193509193565b60078054604080516020601f60026000196101006001881615020190951694909404938401819004810282018101909252828152606093909290918301828280156107b75780601f1061078c576101008083540402835291602001916107b7565b6000818152600c6020908152604080832081516101c08101835281546001600160601b03811682526001600160a01b03600160601b909104169381019390935260018101546001600160501b038116928401839052600160501b8104600290810b810b810b6060860152600160681b8204810b810b810b60808601526001600160801b03600160801b92839004811660a08701529083015460c0860152600383015460e08601526004830154808216610100870152919091041661012084015260058101546001600160c01b03811661014085015263ffffffff600160c01b82048116610160860152600160e01b90910416610180840152600601546101a083015282918291829182918291829182918291829182918291906124e457600080fd5b6000600b600083604001516001600160501b03166001600160501b031681526020019081526020016000206040518060600160405290816000820160009054906101000a90046001600160a01b03166001600160a01b03166001600160a01b031681526020016001820160009054906101000a90046001600160a01b03166001600160a01b03166001600160a01b031681526020016001820160149054906101000a900462ffffff1662ffffff1662ffffff1681525050905081600001518260200151826000015183602001518460400151866060015187608001518860a001518960c001518a60e001518b61010001518c61012001519d509d509d509d509d509d509d509d509d509d509d509d50505091939597999b5091939597999b565b61260c613356565b6001600160a01b0316826001600160a01b0316141561266e576040805162461bcd60e51b815260206004820152601960248201527822a9219b99189d1030b8383937bb32903a379031b0b63632b960391b604482015290519081900360640190fd5b806005600061267b613356565b6001600160a01b03908116825260208083019390935260409182016000908120918716808252919093529120805460ff1916921515929092179091556126bf613356565b6001600160a01b03167f17307eab39ab6107e8899845ad3d59bd9653f200f220920489ca2b5937696c318360405180821515815260200191505060405180910390a35050565b60408051636eb1769f60e11b81523360048201523060248201529051600019916001600160a01b0389169163dd62ed3e91604480820192602092909190829003018186803b15801561275657600080fd5b505afa15801561276a573d6000803e3d6000fd5b505050506040513d602081101561278057600080fd5b50511015612796576127968686868686866114ca565b505050505050565b6060816001600160401b03811180156127b657600080fd5b506040519080825280602002602001820160405280156127ea57816020015b60608152602001906001900390816127d55790505b50905060005b828110156128df576000803086868581811061280857fe5b905060200281019061281a9190615c9c565b604051612828929190615928565b600060405180830381855af49150503d8060008114612863576040519150601f19603f3d011682016040523d82523d6000602084013e612868565b606091505b5091509150816128bd5760448151101561288157600080fd5b6004810190508080602001905181019061289b919061555b565b60405162461bcd60e51b81526004016128b49190615ae5565b60405180910390fd5b808484815181106128ca57fe5b602090810291909101015250506001016127f0565b5092915050565b6128f76128f1613356565b83613a0c565b6129325760405162461bcd60e51b8152600401808060200182810382526031815260200180615f886031913960400191505060405180910390fd5b61293e84848484613ffc565b50505050565b60408051636eb1769f60e11b8152336004820152306024820152905186916001600160a01b0389169163dd62ed3e91604480820192602092909190829003018186803b15801561299357600080fd5b505afa1580156129a7573d6000803e3d6000fd5b505050506040513d60208110156129bd57600080fd5b5051101561279657612796868686868686612cfd565b7f000000000000000000000000000000000000000000000000000000000000000081565b50606090565b6000836001600160a01b03166370a08231306040518263ffffffff1660e01b815260040180826001600160a01b0316815260200191505060206040518083038186803b158015612a4c57600080fd5b505afa158015612a60573d6000803e3d6000fd5b505050506040513d6020811015612a7657600080fd5b5051905082811015612ac4576040805162461bcd60e51b815260206004820152601260248201527124b739bab33334b1b4b2b73a103a37b5b2b760711b604482015290519081900360640190fd5b801561293e5761293e84838361404e565b81612adf816133d0565b6001600160a01b038216612af257600080fd5b6000838152600c602090815260408083206001808201546001600160501b03168552600b8452828520835160608101855281546001600160a01b039081168252919092015490811694820194909452600160a01b90930462ffffff169183019190915291612b807f000000000000000000000000000000000000000000000000000000000000000083613444565b9050612b8c8382613523565b60068301546000612b9b614195565b6000600687018190556005870180546001600160e01b0316600160e01b63ffffffff851602179055600f546001808901546001600160501b03168352600b6020908152604093849020845160608101865281546001600160a01b039081168252919093015480821692840192909252600160a01b90910462ffffff169382019390935292935016906332d5eeaf90899085908c90612c5a907f000000000000000000000000000000000000000000000000000000000000000090613444565b60058b015460405160e087901b6001600160e01b0319168152612c939594939291600160c01b900463ffffffff169089906004016159f8565b600060405180830381600087803b158015612cad57600080fd5b505af1158015612cc1573d6000803e3d6000fd5b505050505050505050505050565b6001600160a01b03918216600090815260056020908152604080832093909416825291909152205460ff1690565b6040805163d505accf60e01b8152336004820152306024820152604481018790526064810186905260ff8516608482015260a4810184905260c4810183905290516001600160a01b0388169163d505accf9160e480830192600092919082900301818387803b15801561154457600080fd5b6000612d7d828401846155fd565b9050612dad7f000000000000000000000000000000000000000000000000000000000000000082600001516141b1565b508415612dc8578051516020820151612dc8919033886141d4565b8315612de657612de6816000015160200151826020015133876141d4565b5050505050565b6000808235612dfb816133d0565b6000612e0d60608601604087016156b9565b6001600160801b03161180612e3a57506000612e2f60808601606087016156b9565b6001600160801b0316115b612e4357600080fd5b600080612e56604087016020880161519b565b6001600160a01b031614612e7957612e74604086016020870161519b565b612e7b565b305b85356000908152600c602090815260408083206001808201546001600160501b03168552600b8452828520835160608101855281546001600160a01b039081168252919092015490811694820194909452600160a01b90930462ffffff169183019190915292935090612f0e7f000000000000000000000000000000000000000000000000000000000000000083613444565b600484015460018501549192506001600160801b0380821692600160801b928390048216929004161561310457600185015460405163a34123a760e01b81526001600160a01b0385169163a34123a791612f8591600160501b8104600290810b92600160681b909204900b90600090600401615abf565b6040805180830381600087803b158015612f9e57600080fd5b505af1158015612fb2573d6000803e3d6000fd5b505050506040513d601f19601f82011682018060405250810190612fd6919061584b565b5050600185015460009081906001600160a01b0386169063514ea4bf90613014903090600160501b8104600290810b91600160681b9004900b6136b2565b6040518263ffffffff1660e01b81526004016130309190615aa2565b60a06040518083038186803b15801561304857600080fd5b505afa15801561305c573d6000803e3d6000fd5b505050506040513d601f19601f820116820180604052508101906130809190615703565b505092509250506130bc876002015483038860010160109054906101000a90046001600160801b03166001600160801b0316600160801b613707565b840193506130f5876003015482038860010160109054906101000a90046001600160801b03166001600160801b0316600160801b613707565b60028801929092556003870155015b6000806001600160801b03841661312160608e0160408f016156b9565b6001600160801b0316116131445761313f60608d0160408e016156b9565b613146565b835b836001600160801b03168d606001602081019061316391906156b9565b6001600160801b0316116131865761318160808e0160608f016156b9565b613188565b835b60018901546040516309e3d67b60e31b81529294509092506001600160a01b03871691634f1eb3d8916131db918c91600160501b8104600290810b92600160681b909204900b9088908890600401615991565b6040805180830381600087803b1580156131f457600080fd5b505af1158015613208573d6000803e3d6000fd5b505050506040513d601f19601f8201168201806040525081019061322c91906156d5565b6004890180546001600160801b03196001600160801b03918216600160801b878a0384160217168689038216179091556040519281169d50169a508c35907f40d0efd1a53d60ecbf40971b9daf7dc90178c3aadc7aab1765632738fa8b8f0190610c90908b90869086906159ce565b7f00000000000000000000000000000000000000000000000000000000000000006001600160a01b0316638da5cb5b6040518163ffffffff1660e01b815260040160206040518083038186803b1580156132f457600080fd5b505afa158015613308573d6000803e3d6000fd5b505050506040513d601f19601f8201168201806040525081019061332c91906151b7565b6001600160a01b0316336001600160a01b031614610cae57600080fd5b600061130c600283614364565b3390565b6000818152600c6020526040902080546001600160601b0316600160601b6001600160a01b03851690810291909117909155819061339782611713565b6001600160a01b03167f8c5be1e5ebec7d5bd14f71427d1e84f3dd0314c0f7b2291e5b200ac8c7c3b92560405160405180910390a45050565b6133da3382613a0c565b6133f65760405162461bcd60e51b81526004016128b490615b26565b50565b804211156133f6576040805162461bcd60e51b8152602060048201526013602482015272151c985b9cd858dd1a5bdb881d1bdbc81bdb19606a1b604482015290519081900360640190fd5b600081602001516001600160a01b031682600001516001600160a01b03161061346c57600080fd5b50805160208083015160409384015184516001600160a01b0394851681850152939091168385015262ffffff166060808401919091528351808403820181526080840185528051908301206001600160f81b031960a085015294901b6001600160601b03191660a183015260b58201939093527fa9bb1321d78097b23af97a9c07d5ec13e1adc404334585171c54ecccb5ad93b260d5808301919091528251808303909101815260f5909101909152805191012090565b60018201546040516351c403f960e11b81526000916001600160a01b0384169163a38807f29161356c91600160501b8204600290810b92600160681b9004900b90600401615aab565b60806040518083038186803b15801561358457600080fd5b505afa158015613598573d6000803e3d6000fd5b505050506040513d601f19601f820116820180604052508101906135bc91906154f0565b60058701549094506001600160c01b03808616911610925061360b915050576135e3614195565b8360050160186101000a81548163ffffffff021916908363ffffffff160217905550506136ae565b6005830154600160c01b900463ffffffff16156136655760058301546001840154613659916001600160c01b0390811684031690600160801b90046001600160801b0316600160401b613707565b60068401805490910190555b6005830180546001600160c01b0319166001600160c01b03831617905561368a614195565b8360050160186101000a81548163ffffffff021916908363ffffffff160217905550505b5050565b604080516001600160601b0319606086901b16602080830191909152600285810b60e890811b60348501529085900b901b60378301528251601a818403018152603a90920190925280519101205b9392505050565b600080806000198587098686029250828110908390030390508061373d576000841161373257600080fd5b508290049050613700565b80841161374957600080fd5b6000848688096000868103871696879004966002600389028118808a02820302808a02820302808a02820302808a02820302808a02820302808a02909103029181900381900460010186841190950394909402919094039290920491909117919091029150509392505050565b4715610cae57610cae3347613cad565b600061130c82614370565b6000806000806000604051806060016040528087600001516001600160a01b0316815260200187602001516001600160a01b03168152602001876040015162ffffff1681525090506138437f000000000000000000000000000000000000000000000000000000000000000082613444565b91506000826001600160a01b0316633850c7bd6040518163ffffffff1660e01b815260040160e06040518083038186803b15801561388057600080fd5b505afa158015613894573d6000803e3d6000fd5b505050506040513d601f19601f820116820180604052508101906138b89190615764565b505050505050905060006138cf8860800151614374565b905060006138e08960a00151614374565b90506138f78383838c60c001518d60e0015161469b565b9750505050816001600160a01b0316633c8a7d8d876060015188608001518960a00151896040518060400160405280888152602001336001600160a01b03168152506040516020016139499190615b42565b6040516020818303038152906040526040518663ffffffff1660e01b815260040161397895949392919061594c565b6040805180830381600087803b15801561399157600080fd5b505af11580156139a5573d6000803e3d6000fd5b505050506040513d601f19601f820116820180604052508101906139c9919061584b565b610100880151919550935084108015906139e857508561012001518310155b613a045760405162461bcd60e51b81526004016128b490615af8565b509193509193565b6000613a1782613349565b613a525760405162461bcd60e51b815260040180806020018281038252602c815260200180615e45602c913960400191505060405180910390fd5b6000613a5d83611713565b9050806001600160a01b0316846001600160a01b03161480613a985750836001600160a01b0316613a8d846107c1565b6001600160a01b0316145b80610f9c5750610f9c8185612ccf565b826001600160a01b0316613abb82611713565b6001600160a01b031614613b005760405162461bcd60e51b8152600401808060200182810382526029815260200180615f1e6029913960400191505060405180910390fd5b6001600160a01b038216613b455760405162461bcd60e51b8152600401808060200182810382526024815260200180615dfb6024913960400191505060405180910390fd5b613b508383836108c9565b613b5b60008261335a565b6001600160a01b0383166000908152600160205260409020613b7d908261475f565b506001600160a01b0382166000908152600160205260409020613ba0908261476b565b50613bad60028284614777565b5080826001600160a01b0316846001600160a01b0316600080516020615f4783398151915260405160405180910390a4505050565b6000611309838361478d565b4690565b6000613bfd82611713565b9050613c0b816000846108c9565b613c1660008361335a565b6000828152600860205260409020546002600019610100600184161502019091160415613c54576000828152600860205260408120613c5491615113565b6001600160a01b0381166000908152600160205260409020613c76908361475f565b50613c826002836147f1565b5060405182906000906001600160a01b03841690600080516020615f47833981519152908390a45050565b604080516000808252602082019092526001600160a01b0384169083906040518082805190602001908083835b60208310613cf95780518252601f199092019160209182019101613cda565b6001836020036101000a03801982511681845116808217855250505050505090500191505060006040518083038185875af1925050503d8060008114613d5b576040519150601f19603f3d011682016040523d82523d6000602084013e613d60565b606091505b50509050806108c9576040805162461bcd60e51b815260206004820152600360248201526253544560e81b604482015290519081900360640190fd5b6000808080613dab86866147fd565b909450925050505b9250929050565b6000610f9c848484614878565b6000908152600c6020526040902080546001600160601b0319811660016001600160601b039283169081019092161790915590565b3b151590565b6001600160a01b038216613e5d576040805162461bcd60e51b815260206004820181905260248201527f4552433732313a206d696e7420746f20746865207a65726f2061646472657373604482015290519081900360640190fd5b613e6681613349565b15613eb7576040805162461bcd60e51b815260206004820152601c60248201527b115490cdcc8c4e881d1bdad95b88185b1c9958591e481b5a5b9d195960221b604482015290519081900360640190fd5b613ec3600083836108c9565b6001600160a01b0382166000908152600160205260409020613ee5908261476b565b50613ef260028284614777565b5060405181906001600160a01b03841690600090600080516020615f47833981519152908290a45050565b6001600160a01b0382166000908152600a60205260409020546001600160501b03168061130c5750600d805460016001600160501b03600160b01b8084048216838101909216026001600160b01b03909316929092179092556001600160a01b038085166000908152600a6020908152604080832080546001600160501b03191686179055848352600b825291829020865181549085166001600160a01b031991821617825591870151950180549287015162ffffff16600160a01b0262ffffff60a01b19969094169290911691909117939093161790915592915050565b614007848484613aa8565b61401384848484614942565b61293e5760405162461bcd60e51b8152600401808060200182810382526032815260200180615dc96032913960400191505060405180910390fd5b604080516001600160a01b038481166024830152604480830185905283518084039091018152606490920183526020820180516001600160e01b031663a9059cbb60e01b1781529251825160009485949389169392918291908083835b602083106140ca5780518252601f1990920191602091820191016140ab565b6001836020036101000a0380198251168184511680821785525050505050509050019150506000604051808303816000865af19150503d806000811461412c576040519150601f19603f3d011682016040523d82523d6000602084013e614131565b606091505b509150915081801561415f57508051158061415f575080806020019051602081101561415c57600080fd5b50515b612de6576040805162461bcd60e51b815260206004820152600260248201526114d560f21b604482015290519081900360640190fd5b600063ffffffff42116141a85742610fb0565b5063ffffffff90565b60006141bd8383613444565b9050336001600160a01b0382161461130c57600080fd5b7f00000000000000000000000000000000000000000000000000000000000000006001600160a01b0316846001600160a01b03161480156142155750804710155b15614337577f00000000000000000000000000000000000000000000000000000000000000006001600160a01b031663d0e30db0826040518263ffffffff1660e01b81526004016000604051808303818588803b15801561427557600080fd5b505af1158015614289573d6000803e3d6000fd5b50505050507f00000000000000000000000000000000000000000000000000000000000000006001600160a01b031663a9059cbb83836040518363ffffffff1660e01b815260040180836001600160a01b0316815260200182815260200192505050602060405180830381600087803b15801561430557600080fd5b505af1158015614319573d6000803e3d6000fd5b505050506040513d602081101561432f57600080fd5b5061293e9050565b6001600160a01b0383163014156143585761435384838361404e565b61293e565b61293e84848484614aaa565b60006113098383614bfa565b5490565b60008060008360020b1261438b578260020b614393565b8260020b6000035b9050620d89e88111156143d1576040805162461bcd60e51b81526020600482015260016024820152601560fa1b604482015290519081900360640190fd5b6000600182166143e557600160801b6143f7565b6ffffcb933bd6fad37aa2d162d1a5940015b6001600160881b031690506002821615614421576ffff97272373d413259a46990580e213a0260801c5b6004821615614440576ffff2e50f5f656932ef12357cf3c7fdcc0260801c5b600882161561445f576fffe5caca7e10e4e61c3624eaa0941cd00260801c5b601082161561447e576fffcb9843d60f6159c9db58835c9266440260801c5b602082161561449d576fff973b41fa98c081472e6896dfb254c00260801c5b60408216156144bc576fff2ea16466c96a3843ec78b326b528610260801c5b60808216156144db576ffe5dee046a99a2a811c461f1969c30530260801c5b6101008216156144fb576ffcbe86c7900a88aedcffc83b479aa3a40260801c5b61020082161561451b576ff987a7253ac413176f2b074cf7815e540260801c5b61040082161561453b576ff3392b0822b70005940c7a398e4b70f30260801c5b61080082161561455b576fe7159475a2c29b7443b29c7fa6e889d90260801c5b61100082161561457b576fd097f3bdfd2022b8845ad8f792aa58250260801c5b61200082161561459b576fa9f746462d870fdf8a65dc1f90e061e50260801c5b6140008216156145bb576f70d869a156d2a1b890bb3df62baf32f70260801c5b6180008216156145db576f31be135f97d08fd981231505542fcfa60260801c5b620100008216156145fc576f09aa508b5b7a84e1c677de54f3e99bc90260801c5b6202000082161561461c576e5d6af8dedb81196699c329225ee6040260801c5b6204000082161561463b576d2216e584f5fa1ea926041bedfe980260801c5b62080000821615614658576b048a170391f7dc42444e8fa20260801c5b60008460020b131561467357806000198161466f57fe5b0490505b600160201b810615614686576001614689565b60005b60ff16602082901c0192505050919050565b6000836001600160a01b0316856001600160a01b031611156146bb579293925b846001600160a01b0316866001600160a01b0316116146e6576146df858585614c12565b9050614756565b836001600160a01b0316866001600160a01b0316101561474857600061470d878686614c12565b9050600061471c878986614c75565b9050806001600160801b0316826001600160801b03161061473d578061473f565b815b92505050614756565b614753858584614c75565b90505b95945050505050565b60006113098383614cb2565b60006113098383614d78565b6000610f9c84846001600160a01b038516614dc2565b815460009082106147cf5760405162461bcd60e51b8152600401808060200182810382526022815260200180615da76022913960400191505060405180910390fd5b8260000182815481106147de57fe5b9060005260206000200154905092915050565b60006113098383614e59565b8154600090819083106148415760405162461bcd60e51b8152600401808060200182810382526022815260200180615efc6022913960400191505060405180910390fd5b600084600001848154811061485257fe5b906000526020600020906002020190508060000154816001015492509250509250929050565b600082815260018401602052604081205482816149135760405162461bcd60e51b81526004018080602001828103825283818151815260200191508051906020019080838360005b838110156148d85781810151838201526020016148c0565b50505050905090810190601f1680156149055780820380516001836020036101000a031916815260200191505b509250505060405180910390fd5b5084600001600182038154811061492657fe5b9060005260206000209060020201600101549150509392505050565b6000614956846001600160a01b0316613dfc565b61496257506001610f9c565b6000614a70630a85bd0160e11b614977613356565b88878760405160240180856001600160a01b03168152602001846001600160a01b0316815260200183815260200180602001828103825283818151815260200191508051906020019080838360005b838110156149de5781810151838201526020016149c6565b50505050905090810190601f168015614a0b5780820380516001836020036101000a031916815260200191505b5095505050505050604051602081830303815290604052906001600160e01b0319166020820180516001600160e01b038381831617835250505050604051806060016040528060328152602001615dc9603291396001600160a01b0388169190614f2d565b90506000818060200190516020811015614a8957600080fd5b50516001600160e01b031916630a85bd0160e11b1492505050949350505050565b604080516001600160a01b0385811660248301528481166044830152606480830185905283518084039091018152608490920183526020820180516001600160e01b03166323b872dd60e01b178152925182516000948594938a169392918291908083835b60208310614b2e5780518252601f199092019160209182019101614b0f565b6001836020036101000a0380198251168184511680821785525050505050509050019150506000604051808303816000865af19150503d8060008114614b90576040519150601f19603f3d011682016040523d82523d6000602084013e614b95565b606091505b5091509150818015614bc3575080511580614bc35750808060200190516020811015614bc057600080fd5b50515b612796576040805162461bcd60e51b815260206004820152600360248201526229aa2360e91b604482015290519081900360640190fd5b60009081526001919091016020526040902054151590565b6000826001600160a01b0316846001600160a01b03161115614c32579192915b6000614c55856001600160a01b0316856001600160a01b0316600160601b613707565b9050614756614c7084838888036001600160a01b0316613707565b614f3c565b6000826001600160a01b0316846001600160a01b03161115614c95579192915b610f9c614c7083600160601b8787036001600160a01b0316613707565b60008181526001830160205260408120548015614d6e5783546000198083019190810190600090879083908110614ce557fe5b9060005260206000200154905080876000018481548110614d0257fe5b600091825260208083209091019290925582815260018981019092526040902090840190558654879080614d3257fe5b6001900381819060005260206000200160009055905586600101600087815260200190815260200160002060009055600194505050505061130c565b600091505061130c565b6000614d848383614bfa565b614dba5750815460018181018455600084815260208082209093018490558454848252828601909352604090209190915561130c565b50600061130c565b600082815260018401602052604081205480614e27575050604080518082018252838152602080820184815286546001818101895560008981528481209551600290930290950191825591519082015586548684528188019092529290912055613700565b82856000016001830381548110614e3a57fe5b9060005260206000209060020201600101819055506000915050613700565b60008181526001830160205260408120548015614d6e5783546000198083019190810190600090879083908110614e8c57fe5b9060005260206000209060020201905080876000018481548110614eac57fe5b600091825260208083208454600290930201918255600193840154918401919091558354825289830190526040902090840190558654879080614eeb57fe5b600082815260208082206002600019909401938402018281556001908101839055929093558881528982019092526040822091909155945061130c9350505050565b6060610f9c8484600085614f52565b806001600160801b03811681146106fc57600080fd5b606082471015614f935760405162461bcd60e51b8152600401808060200182810382526026815260200180615e1f6026913960400191505060405180910390fd5b614f9c85613dfc565b614fed576040805162461bcd60e51b815260206004820152601d60248201527f416464726573733a2063616c6c20746f206e6f6e2d636f6e7472616374000000604482015290519081900360640190fd5b600080866001600160a01b031685876040518082805190602001908083835b6020831061502b5780518252601f19909201916020918201910161500c565b6001836020036101000a03801982511681845116808217855250505050505090500191505060006040518083038185875af1925050503d806000811461508d576040519150601f19603f3d011682016040523d82523d6000602084013e615092565b606091505b50915091506150a28282866150ad565b979650505050505050565b606083156150bc575081613700565b8251156150cc5782518084602001fd5b60405162461bcd60e51b81526020600482018181528451602484015284518593919283926044019190850190808383600083156148d85781810151838201526020016148c0565b50805460018160011615610100020316600290046000825580601f1061513957506133f6565b601f0160209004906000526020600020908101906133f691905b808211156151675760008155600101615153565b5090565b80356106fc81615d50565b805161ffff811681146106fc57600080fd5b803562ffffff811681146106fc57600080fd5b6000602082840312156151ac578081fd5b813561370081615d50565b6000602082840312156151c8578081fd5b815161370081615d50565b600080604083850312156151e5578081fd5b82356151f081615d50565b9150602083013561520081615d50565b809150509250929050565b60008060008060808587031215615220578182fd5b843561522b81615d50565b9350602085013561523b81615d50565b925061524960408601615188565b9150606085013561525981615d50565b939692955090935050565b600080600060608486031215615278578081fd5b833561528381615d50565b9250602084013561529381615d50565b929592945050506040919091013590565b600080600080608085870312156152b9578182fd5b84356152c481615d50565b935060208501356152d481615d50565b92506040850135915060608501356001600160401b038111156152f5578182fd5b8501601f81018713615305578182fd5b803561531861531382615d03565b615ce0565b81815288602083850101111561532c578384fd5b81602084016020830137908101602001929092525092959194509250565b6000806040838503121561535c578182fd5b823561536781615d50565b9150602083013561520081615d65565b60008060408385031215615389578182fd5b823561539481615d50565b946020939093013593505050565b6000806000606084860312156153b6578081fd5b83356153c181615d50565b92506020840135915060408401356153d881615d50565b809150509250925092565b60008060008060008060c087890312156153fb578384fd5b863561540681615d50565b95506020870135945060408701359350606087013561542481615d97565b9598949750929560808101359460a0909101359350915050565b60008060208385031215615450578182fd5b82356001600160401b0380821115615466578384fd5b818501915085601f830112615479578384fd5b813581811115615487578485fd5b866020808302850101111561549a578485fd5b60209290920196919550909350505050565b6000602082840312156154bd578081fd5b81356001600160e01b031981168114613700578182fd5b6000602082840312156154e5578081fd5b813561370081615d73565b60008060008060808587031215615505578182fd5b84518060060b8114615515578283fd5b602086015190945061552681615d50565b604086015190935063ffffffff8116811461553f578283fd5b60608601519092506001600160c01b0381168114615259578182fd5b60006020828403121561556c578081fd5b81516001600160401b03811115615581578182fd5b8201601f81018413615591578182fd5b805161559f61531382615d03565b8181528560208385010111156155b3578384fd5b614756826020830160208601615d24565b6000608082840312156155d5578081fd5b50919050565b600060a082840312156155d5578081fd5b600060c082840312156155d5578081fd5b6000818303608081121561560f578182fd5b604051604081016001600160401b03828210818311171561562c57fe5b81604052606084121561563d578485fd5b60a083019350818410818511171561565157fe5b50826040528435925061566383615d50565b91825260208401359161567583615d50565b82606083015261568760408601615188565b6080830152815261569a6060850161516b565b6020820152949350505050565b600061016082840312156155d5578081fd5b6000602082840312156156ca578081fd5b813561370081615d82565b600080604083850312156156e7578182fd5b82516156f281615d82565b602084015190925061520081615d82565b600080600080600060a0868803121561571a578283fd5b855161572581615d82565b809550506020860151935060408601519250606086015161574581615d82565b608087015190925061575681615d82565b809150509295509295909350565b600080600080600080600060e0888a03121561577e578485fd5b875161578981615d50565b602089015190975061579a81615d73565b95506157a860408901615176565b94506157b660608901615176565b93506157c460808901615176565b925060a08801516157d481615d97565b60c08901519092506157e581615d65565b8091505092959891949750929550565b600060208284031215615806578081fd5b61130982615188565b600060208284031215615820578081fd5b5035919050565b60008060408385031215615839578182fd5b82359150602083013561520081615d50565b6000806040838503121561585d578182fd5b505080516020909101519092909150565b60008060008060608587031215615883578182fd5b843593506020850135925060408501356001600160401b03808211156158a7578384fd5b818701915087601f8301126158ba578384fd5b8135818111156158c8578485fd5b8860208285010111156158d9578485fd5b95989497505060200194505050565b60008151808452615900816020860160208601615d24565b601f01601f19169290920160200192915050565b60020b9052565b6001600160801b03169052565b6000828483379101908152919050565b6001600160a01b0391909116815260200190565b6001600160a01b0386168152600285810b602083015284900b60408201526001600160801b038316606082015260a0608082018190526000906150a2908301846158e8565b6001600160a01b03959095168552600293840b60208601529190920b60408401526001600160801b03918216606084015216608082015260a00190565b6001600160a01b039390931683526001600160801b03918216602084015216604082015260600190565b6001600160a01b039687168152602081019590955260408501939093529316606083015263ffffffff928316608083015290911660a082015260c00190565b6000602080830181845280855180835260408601915060408482028701019250838701855b82811015615a8a57603f19888603018452615a788583516158e8565b94509285019290850190600101615a5c565b5092979650505050505050565b901515815260200190565b90815260200190565b600292830b8152910b602082015260400190565b600293840b81529190920b60208201526001600160801b03909116604082015260600190565b60006020825261130960208301846158e8565b602080825260149082015273507269636520736c69707061676520636865636b60601b604082015260600190565b6020808252600290820152614e6160f01b604082015260600190565b815180516001600160a01b03908116835260208083015182168185015260409283015162ffffff1692840192909252920151909116606082015260800190565b6001600160801b039390931683526020830191909152604082015260600190565b6001600160c01b0394909416845263ffffffff928316602085015291166040830152606082015260800190565b9384526001600160801b039290921660208401526040830152606082015260800190565b918252602082015260400190565b6001600160601b038d1681526001600160a01b038c811660208301528b811660408301528a16606082015262ffffff89166080820152600288900b60a08201526101808101615c5460c0830189615914565b615c6160e083018861591b565b8561010083015284610120830152615c7d61014083018561591b565b615c8b61016083018461591b565b9d9c50505050505050505050505050565b6000808335601e19843603018112615cb2578283fd5b8301803591506001600160401b03821115615ccb578283fd5b602001915036819003821315613db357600080fd5b6040518181016001600160401b0381118282101715615cfb57fe5b604052919050565b60006001600160401b03821115615d1657fe5b50601f01601f191660200190565b60005b83811015615d3f578181015183820152602001615d27565b8381111561293e5750506000910152565b6001600160a01b03811681146133f657600080fd5b80151581146133f657600080fd5b8060020b81146133f657600080fd5b6001600160801b03811681146133f657600080fd5b60ff811681146133f657600080fdfe456e756d657261626c655365743a20696e646578206f7574206f6620626f756e64734552433732313a207472616e7366657220746f206e6f6e20455243373231526563656976657220696d706c656d656e7465724552433732313a207472616e7366657220746f20746865207a65726f2061646472657373416464726573733a20696e73756666696369656e742062616c616e636520666f722063616c6c4552433732313a206f70657261746f7220717565727920666f72206e6f6e6578697374656e7420746f6b656e4552433732313a20617070726f76652063616c6c6572206973206e6f74206f776e6572206e6f7220617070726f76656420666f7220616c6c4552433732313a2062616c616e636520717565727920666f7220746865207a65726f20616464726573734552433732313a206f776e657220717565727920666f72206e6f6e6578697374656e7420746f6b656e456e756d657261626c654d61703a20696e646578206f7574206f6620626f756e64734552433732313a207472616e73666572206f6620746f6b656e2074686174206973206e6f74206f776eddf252ad1be2c89b69c2b068fc378daa952ba7f163c4a11628f55a4df523b3ef4552433732313a20617070726f76616c20746f2063757272656e74206f776e65724552433732313a207472616e736665722063616c6c6572206973206e6f74206f776e6572206e6f7220617070726f766564a264697066735822122034da057dce845b3f1486c70e4c2bf4a2f9db25f8ef3665abfbaa7a42fef4f79a64736f6c63430007060033",
    "linkReferences": {},
    "deployedLinkReferences": {}
}