{
    "_format": "hh-sol-artifact-1",
    "contractName": "PangolinV3Pool",
    "sourceName": "contracts/PangolinV3-core/PangolinV3Pool.sol",
    "abi": [
        {
            "anonymous": false,
            "inputs": [
                {
                    "indexed": true,
                    "internalType": "address",
                    "name": "owner",
                    "type": "address"
                },
                {
                    "indexed": true,
                    "internalType": "int24",
                    "name": "tickLower",
                    "type": "int24"
                },
                {
                    "indexed": true,
                    "internalType": "int24",
                    "name": "tickUpper",
                    "type": "int24"
                },
                {
                    "indexed": false,
                    "internalType": "uint128",
                    "name": "amount",
                    "type": "uint128"
                },
                {
                    "indexed": false,
                    "internalType": "uint256",
                    "name": "amount0",
                    "type": "uint256"
                },
                {
                    "indexed": false,
                    "internalType": "uint256",
                    "name": "amount1",
                    "type": "uint256"
                }
            ],
            "name": "Burn",
            "type": "event"
        },
        {
            "anonymous": false,
            "inputs": [
                {
                    "indexed": true,
                    "internalType": "address",
                    "name": "owner",
                    "type": "address"
                },
                {
                    "indexed": false,
                    "internalType": "address",
                    "name": "recipient",
                    "type": "address"
                },
                {
                    "indexed": true,
                    "internalType": "int24",
                    "name": "tickLower",
                    "type": "int24"
                },
                {
                    "indexed": true,
                    "internalType": "int24",
                    "name": "tickUpper",
                    "type": "int24"
                },
                {
                    "indexed": false,
                    "internalType": "uint128",
                    "name": "amount0",
                    "type": "uint128"
                },
                {
                    "indexed": false,
                    "internalType": "uint128",
                    "name": "amount1",
                    "type": "uint128"
                }
            ],
            "name": "Collect",
            "type": "event"
        },
        {
            "anonymous": false,
            "inputs": [
                {
                    "indexed": true,
                    "internalType": "address",
                    "name": "sender",
                    "type": "address"
                },
                {
                    "indexed": true,
                    "internalType": "address",
                    "name": "recipient",
                    "type": "address"
                },
                {
                    "indexed": false,
                    "internalType": "uint128",
                    "name": "amount0",
                    "type": "uint128"
                },
                {
                    "indexed": false,
                    "internalType": "uint128",
                    "name": "amount1",
                    "type": "uint128"
                }
            ],
            "name": "CollectProtocol",
            "type": "event"
        },
        {
            "anonymous": false,
            "inputs": [
                {
                    "indexed": true,
                    "internalType": "address",
                    "name": "sender",
                    "type": "address"
                },
                {
                    "indexed": true,
                    "internalType": "address",
                    "name": "recipient",
                    "type": "address"
                },
                {
                    "indexed": false,
                    "internalType": "uint256",
                    "name": "amount0",
                    "type": "uint256"
                },
                {
                    "indexed": false,
                    "internalType": "uint256",
                    "name": "amount1",
                    "type": "uint256"
                },
                {
                    "indexed": false,
                    "internalType": "uint256",
                    "name": "paid0",
                    "type": "uint256"
                },
                {
                    "indexed": false,
                    "internalType": "uint256",
                    "name": "paid1",
                    "type": "uint256"
                }
            ],
            "name": "Flash",
            "type": "event"
        },
        {
            "anonymous": false,
            "inputs": [
                {
                    "indexed": false,
                    "internalType": "uint16",
                    "name": "observationCardinalityNextOld",
                    "type": "uint16"
                },
                {
                    "indexed": false,
                    "internalType": "uint16",
                    "name": "observationCardinalityNextNew",
                    "type": "uint16"
                }
            ],
            "name": "IncreaseObservationCardinalityNext",
            "type": "event"
        },
        {
            "anonymous": false,
            "inputs": [
                {
                    "indexed": false,
                    "internalType": "uint160",
                    "name": "sqrtPriceX96",
                    "type": "uint160"
                },
                {
                    "indexed": false,
                    "internalType": "int24",
                    "name": "tick",
                    "type": "int24"
                }
            ],
            "name": "Initialize",
            "type": "event"
        },
        {
            "anonymous": false,
            "inputs": [
                {
                    "indexed": false,
                    "internalType": "address",
                    "name": "sender",
                    "type": "address"
                },
                {
                    "indexed": true,
                    "internalType": "address",
                    "name": "owner",
                    "type": "address"
                },
                {
                    "indexed": true,
                    "internalType": "int24",
                    "name": "tickLower",
                    "type": "int24"
                },
                {
                    "indexed": true,
                    "internalType": "int24",
                    "name": "tickUpper",
                    "type": "int24"
                },
                {
                    "indexed": false,
                    "internalType": "uint128",
                    "name": "amount",
                    "type": "uint128"
                },
                {
                    "indexed": false,
                    "internalType": "uint256",
                    "name": "amount0",
                    "type": "uint256"
                },
                {
                    "indexed": false,
                    "internalType": "uint256",
                    "name": "amount1",
                    "type": "uint256"
                }
            ],
            "name": "Mint",
            "type": "event"
        },
        {
            "anonymous": false,
            "inputs": [
                {
                    "indexed": false,
                    "internalType": "uint24",
                    "name": "oldfee",
                    "type": "uint24"
                },
                {
                    "indexed": false,
                    "internalType": "uint24",
                    "name": "fee",
                    "type": "uint24"
                },
                {
                    "indexed": false,
                    "internalType": "int24",
                    "name": "oldtickspacing",
                    "type": "int24"
                },
                {
                    "indexed": false,
                    "internalType": "int24",
                    "name": "tickspacing",
                    "type": "int24"
                }
            ],
            "name": "SetFee",
            "type": "event"
        },
        {
            "anonymous": false,
            "inputs": [
                {
                    "indexed": false,
                    "internalType": "uint8",
                    "name": "feeProtocol0Old",
                    "type": "uint8"
                },
                {
                    "indexed": false,
                    "internalType": "uint8",
                    "name": "feeProtocol1Old",
                    "type": "uint8"
                },
                {
                    "indexed": false,
                    "internalType": "uint8",
                    "name": "feeProtocol0New",
                    "type": "uint8"
                },
                {
                    "indexed": false,
                    "internalType": "uint8",
                    "name": "feeProtocol1New",
                    "type": "uint8"
                }
            ],
            "name": "SetFeeProtocol",
            "type": "event"
        },
        {
            "anonymous": false,
            "inputs": [
                {
                    "indexed": false,
                    "internalType": "uint144",
                    "name": "rewardPerSecondX48",
                    "type": "uint144"
                },
                {
                    "indexed": false,
                    "internalType": "uint32",
                    "name": "rewardRateEffectiveUntil",
                    "type": "uint32"
                }
            ],
            "name": "SetRewardRate",
            "type": "event"
        },
        {
            "anonymous": false,
            "inputs": [
                {
                    "indexed": true,
                    "internalType": "address",
                    "name": "sender",
                    "type": "address"
                },
                {
                    "indexed": true,
                    "internalType": "address",
                    "name": "recipient",
                    "type": "address"
                },
                {
                    "indexed": false,
                    "internalType": "int256",
                    "name": "amount0",
                    "type": "int256"
                },
                {
                    "indexed": false,
                    "internalType": "int256",
                    "name": "amount1",
                    "type": "int256"
                },
                {
                    "indexed": false,
                    "internalType": "uint160",
                    "name": "sqrtPriceX96",
                    "type": "uint160"
                },
                {
                    "indexed": false,
                    "internalType": "uint128",
                    "name": "liquidity",
                    "type": "uint128"
                },
                {
                    "indexed": false,
                    "internalType": "int24",
                    "name": "tick",
                    "type": "int24"
                }
            ],
            "name": "Swap",
            "type": "event"
        },
        {
            "inputs": [
                {
                    "internalType": "int24",
                    "name": "tickLower",
                    "type": "int24"
                },
                {
                    "internalType": "int24",
                    "name": "tickUpper",
                    "type": "int24"
                },
                {
                    "internalType": "uint128",
                    "name": "amount",
                    "type": "uint128"
                }
            ],
            "name": "burn",
            "outputs": [
                {
                    "internalType": "uint256",
                    "name": "amount0",
                    "type": "uint256"
                },
                {
                    "internalType": "uint256",
                    "name": "amount1",
                    "type": "uint256"
                }
            ],
            "stateMutability": "nonpayable",
            "type": "function"
        },
        {
            "inputs": [
                {
                    "internalType": "address",
                    "name": "recipient",
                    "type": "address"
                },
                {
                    "internalType": "int24",
                    "name": "tickLower",
                    "type": "int24"
                },
                {
                    "internalType": "int24",
                    "name": "tickUpper",
                    "type": "int24"
                },
                {
                    "internalType": "uint128",
                    "name": "amount0Requested",
                    "type": "uint128"
                },
                {
                    "internalType": "uint128",
                    "name": "amount1Requested",
                    "type": "uint128"
                }
            ],
            "name": "collect",
            "outputs": [
                {
                    "internalType": "uint128",
                    "name": "amount0",
                    "type": "uint128"
                },
                {
                    "internalType": "uint128",
                    "name": "amount1",
                    "type": "uint128"
                }
            ],
            "stateMutability": "nonpayable",
            "type": "function"
        },
        {
            "inputs": [
                {
                    "internalType": "address",
                    "name": "recipient",
                    "type": "address"
                },
                {
                    "internalType": "uint128",
                    "name": "amount0Requested",
                    "type": "uint128"
                },
                {
                    "internalType": "uint128",
                    "name": "amount1Requested",
                    "type": "uint128"
                }
            ],
            "name": "collectProtocol",
            "outputs": [
                {
                    "internalType": "uint128",
                    "name": "amount0",
                    "type": "uint128"
                },
                {
                    "internalType": "uint128",
                    "name": "amount1",
                    "type": "uint128"
                }
            ],
            "stateMutability": "nonpayable",
            "type": "function"
        },
        {
            "inputs": [],
            "name": "factory",
            "outputs": [
                {
                    "internalType": "address",
                    "name": "",
                    "type": "address"
                }
            ],
            "stateMutability": "view",
            "type": "function"
        },
        {
            "inputs": [],
            "name": "fee",
            "outputs": [
                {
                    "internalType": "uint24",
                    "name": "",
                    "type": "uint24"
                }
            ],
            "stateMutability": "view",
            "type": "function"
        },
        {
            "inputs": [],
            "name": "feeGrowthGlobal0X128",
            "outputs": [
                {
                    "internalType": "uint256",
                    "name": "",
                    "type": "uint256"
                }
            ],
            "stateMutability": "view",
            "type": "function"
        },
        {
            "inputs": [],
            "name": "feeGrowthGlobal1X128",
            "outputs": [
                {
                    "internalType": "uint256",
                    "name": "",
                    "type": "uint256"
                }
            ],
            "stateMutability": "view",
            "type": "function"
        },
        {
            "inputs": [
                {
                    "internalType": "address",
                    "name": "recipient",
                    "type": "address"
                },
                {
                    "internalType": "uint256",
                    "name": "amount0",
                    "type": "uint256"
                },
                {
                    "internalType": "uint256",
                    "name": "amount1",
                    "type": "uint256"
                },
                {
                    "internalType": "bytes",
                    "name": "data",
                    "type": "bytes"
                }
            ],
            "name": "flash",
            "outputs": [],
            "stateMutability": "nonpayable",
            "type": "function"
        },
        {
            "inputs": [
                {
                    "internalType": "uint16",
                    "name": "observationCardinalityNext",
                    "type": "uint16"
                }
            ],
            "name": "increaseObservationCardinalityNext",
            "outputs": [],
            "stateMutability": "nonpayable",
            "type": "function"
        },
        {
            "inputs": [],
            "name": "initialFee",
            "outputs": [
                {
                    "internalType": "uint24",
                    "name": "",
                    "type": "uint24"
                }
            ],
            "stateMutability": "view",
            "type": "function"
        },
        {
            "inputs": [
                {
                    "internalType": "address",
                    "name": "_token0",
                    "type": "address"
                },
                {
                    "internalType": "address",
                    "name": "_token1",
                    "type": "address"
                },
                {
                    "internalType": "uint24",
                    "name": "_fee",
                    "type": "uint24"
                },
                {
                    "internalType": "int24",
                    "name": "_tickSpacing",
                    "type": "int24"
                }
            ],
            "name": "initialize",
            "outputs": [],
            "stateMutability": "nonpayable",
            "type": "function"
        },
        {
            "inputs": [
                {
                    "internalType": "uint160",
                    "name": "sqrtPriceX96",
                    "type": "uint160"
                }
            ],
            "name": "initialize",
            "outputs": [],
            "stateMutability": "nonpayable",
            "type": "function"
        },
        {
            "inputs": [],
            "name": "liquidity",
            "outputs": [
                {
                    "internalType": "uint128",
                    "name": "",
                    "type": "uint128"
                }
            ],
            "stateMutability": "view",
            "type": "function"
        },
        {
            "inputs": [],
            "name": "maxLiquidityPerTick",
            "outputs": [
                {
                    "internalType": "uint128",
                    "name": "",
                    "type": "uint128"
                }
            ],
            "stateMutability": "view",
            "type": "function"
        },
        {
            "inputs": [
                {
                    "internalType": "address",
                    "name": "recipient",
                    "type": "address"
                },
                {
                    "internalType": "int24",
                    "name": "tickLower",
                    "type": "int24"
                },
                {
                    "internalType": "int24",
                    "name": "tickUpper",
                    "type": "int24"
                },
                {
                    "internalType": "uint128",
                    "name": "amount",
                    "type": "uint128"
                },
                {
                    "internalType": "bytes",
                    "name": "data",
                    "type": "bytes"
                }
            ],
            "name": "mint",
            "outputs": [
                {
                    "internalType": "uint256",
                    "name": "amount0",
                    "type": "uint256"
                },
                {
                    "internalType": "uint256",
                    "name": "amount1",
                    "type": "uint256"
                }
            ],
            "stateMutability": "nonpayable",
            "type": "function"
        },
        {
            "inputs": [
                {
                    "internalType": "uint256",
                    "name": "",
                    "type": "uint256"
                }
            ],
            "name": "observations",
            "outputs": [
                {
                    "internalType": "uint32",
                    "name": "blockTimestamp",
                    "type": "uint32"
                },
                {
                    "internalType": "int56",
                    "name": "tickCumulative",
                    "type": "int56"
                },
                {
                    "internalType": "uint160",
                    "name": "secondsPerLiquidityCumulativeX128",
                    "type": "uint160"
                },
                {
                    "internalType": "bool",
                    "name": "initialized",
                    "type": "bool"
                },
                {
                    "internalType": "uint192",
                    "name": "rewardPerLiquidityCumulativeX64",
                    "type": "uint192"
                }
            ],
            "stateMutability": "view",
            "type": "function"
        },
        {
            "inputs": [
                {
                    "internalType": "uint32[]",
                    "name": "secondsAgos",
                    "type": "uint32[]"
                }
            ],
            "name": "observe",
            "outputs": [
                {
                    "internalType": "int56[]",
                    "name": "tickCumulatives",
                    "type": "int56[]"
                },
                {
                    "internalType": "uint160[]",
                    "name": "secondsPerLiquidityCumulativeX128s",
                    "type": "uint160[]"
                },
                {
                    "internalType": "uint192[]",
                    "name": "rewardPerLiquidityCumulativeX64s",
                    "type": "uint192[]"
                }
            ],
            "stateMutability": "view",
            "type": "function"
        },
        {
            "inputs": [
                {
                    "internalType": "bytes32",
                    "name": "",
                    "type": "bytes32"
                }
            ],
            "name": "positions",
            "outputs": [
                {
                    "internalType": "uint128",
                    "name": "liquidity",
                    "type": "uint128"
                },
                {
                    "internalType": "uint256",
                    "name": "feeGrowthInside0LastX128",
                    "type": "uint256"
                },
                {
                    "internalType": "uint256",
                    "name": "feeGrowthInside1LastX128",
                    "type": "uint256"
                },
                {
                    "internalType": "uint128",
                    "name": "tokensOwed0",
                    "type": "uint128"
                },
                {
                    "internalType": "uint128",
                    "name": "tokensOwed1",
                    "type": "uint128"
                }
            ],
            "stateMutability": "view",
            "type": "function"
        },
        {
            "inputs": [],
            "name": "protocolFees",
            "outputs": [
                {
                    "internalType": "uint128",
                    "name": "token0",
                    "type": "uint128"
                },
                {
                    "internalType": "uint128",
                    "name": "token1",
                    "type": "uint128"
                }
            ],
            "stateMutability": "view",
            "type": "function"
        },
        {
            "inputs": [],
            "name": "rewardSlot",
            "outputs": [
                {
                    "internalType": "uint144",
                    "name": "rewardPerSecondX48",
                    "type": "uint144"
                },
                {
                    "internalType": "uint32",
                    "name": "rewardRateEffectiveUntil",
                    "type": "uint32"
                }
            ],
            "stateMutability": "view",
            "type": "function"
        },
        {
            "inputs": [
                {
                    "internalType": "uint24",
                    "name": "_fee",
                    "type": "uint24"
                },
                {
                    "internalType": "int24",
                    "name": "_tickSpacing",
                    "type": "int24"
                }
            ],
            "name": "setFee",
            "outputs": [],
            "stateMutability": "nonpayable",
            "type": "function"
        },
        {
            "inputs": [
                {
                    "internalType": "uint8",
                    "name": "feeProtocol0",
                    "type": "uint8"
                },
                {
                    "internalType": "uint8",
                    "name": "feeProtocol1",
                    "type": "uint8"
                }
            ],
            "name": "setFeeProtocol",
            "outputs": [],
            "stateMutability": "nonpayable",
            "type": "function"
        },
        {
            "inputs": [
                {
                    "internalType": "uint144",
                    "name": "rewardPerSecondX48",
                    "type": "uint144"
                },
                {
                    "internalType": "uint32",
                    "name": "rewardRateEffectiveUntil",
                    "type": "uint32"
                }
            ],
            "name": "setRewardRate",
            "outputs": [],
            "stateMutability": "nonpayable",
            "type": "function"
        },
        {
            "inputs": [],
            "name": "slot0",
            "outputs": [
                {
                    "internalType": "uint160",
                    "name": "sqrtPriceX96",
                    "type": "uint160"
                },
                {
                    "internalType": "int24",
                    "name": "tick",
                    "type": "int24"
                },
                {
                    "internalType": "uint16",
                    "name": "observationIndex",
                    "type": "uint16"
                },
                {
                    "internalType": "uint16",
                    "name": "observationCardinality",
                    "type": "uint16"
                },
                {
                    "internalType": "uint16",
                    "name": "observationCardinalityNext",
                    "type": "uint16"
                },
                {
                    "internalType": "uint8",
                    "name": "feeProtocol",
                    "type": "uint8"
                },
                {
                    "internalType": "bool",
                    "name": "unlocked",
                    "type": "bool"
                }
            ],
            "stateMutability": "view",
            "type": "function"
        },
        {
            "inputs": [
                {
                    "internalType": "int24",
                    "name": "tickLower",
                    "type": "int24"
                },
                {
                    "internalType": "int24",
                    "name": "tickUpper",
                    "type": "int24"
                }
            ],
            "name": "snapshotCumulativesInside",
            "outputs": [
                {
                    "internalType": "int56",
                    "name": "tickCumulativeInside",
                    "type": "int56"
                },
                {
                    "internalType": "uint160",
                    "name": "secondsPerLiquidityInsideX128",
                    "type": "uint160"
                },
                {
                    "internalType": "uint32",
                    "name": "secondsInside",
                    "type": "uint32"
                },
                {
                    "internalType": "uint192",
                    "name": "rewardPerLiquidityInsideX64",
                    "type": "uint192"
                }
            ],
            "stateMutability": "view",
            "type": "function"
        },
        {
            "inputs": [
                {
                    "internalType": "address",
                    "name": "recipient",
                    "type": "address"
                },
                {
                    "internalType": "bool",
                    "name": "zeroForOne",
                    "type": "bool"
                },
                {
                    "internalType": "int256",
                    "name": "amountSpecified",
                    "type": "int256"
                },
                {
                    "internalType": "uint160",
                    "name": "sqrtPriceLimitX96",
                    "type": "uint160"
                },
                {
                    "internalType": "bytes",
                    "name": "data",
                    "type": "bytes"
                }
            ],
            "name": "swap",
            "outputs": [
                {
                    "internalType": "int256",
                    "name": "amount0",
                    "type": "int256"
                },
                {
                    "internalType": "int256",
                    "name": "amount1",
                    "type": "int256"
                }
            ],
            "stateMutability": "nonpayable",
            "type": "function"
        },
        {
            "inputs": [
                {
                    "internalType": "int16",
                    "name": "",
                    "type": "int16"
                }
            ],
            "name": "tickBitmap",
            "outputs": [
                {
                    "internalType": "uint256",
                    "name": "",
                    "type": "uint256"
                }
            ],
            "stateMutability": "view",
            "type": "function"
        },
        {
            "inputs": [],
            "name": "tickSpacing",
            "outputs": [
                {
                    "internalType": "int24",
                    "name": "",
                    "type": "int24"
                }
            ],
            "stateMutability": "view",
            "type": "function"
        },
        {
            "inputs": [
                {
                    "internalType": "int24",
                    "name": "",
                    "type": "int24"
                }
            ],
            "name": "ticks",
            "outputs": [
                {
                    "internalType": "uint128",
                    "name": "liquidityGross",
                    "type": "uint128"
                },
                {
                    "internalType": "int128",
                    "name": "liquidityNet",
                    "type": "int128"
                },
                {
                    "internalType": "uint256",
                    "name": "feeGrowthOutside0X128",
                    "type": "uint256"
                },
                {
                    "internalType": "uint256",
                    "name": "feeGrowthOutside1X128",
                    "type": "uint256"
                },
                {
                    "internalType": "int56",
                    "name": "tickCumulativeOutside",
                    "type": "int56"
                },
                {
                    "internalType": "uint160",
                    "name": "secondsPerLiquidityOutsideX128",
                    "type": "uint160"
                },
                {
                    "internalType": "uint32",
                    "name": "secondsOutside",
                    "type": "uint32"
                },
                {
                    "internalType": "bool",
                    "name": "initialized",
                    "type": "bool"
                },
                {
                    "internalType": "uint192",
                    "name": "rewardPerLiquidityOutsideX64",
                    "type": "uint192"
                }
            ],
            "stateMutability": "view",
            "type": "function"
        },
        {
            "inputs": [],
            "name": "token0",
            "outputs": [
                {
                    "internalType": "address",
                    "name": "",
                    "type": "address"
                }
            ],
            "stateMutability": "view",
            "type": "function"
        },
        {
            "inputs": [],
            "name": "token1",
            "outputs": [
                {
                    "internalType": "address",
                    "name": "",
                    "type": "address"
                }
            ],
            "stateMutability": "view",
            "type": "function"
        }
    ],
    "bytecode": "0x608060405234801561001057600080fd5b50615fe380620000216000396000f3fe608060405234801561001057600080fd5b50600436106101e55760003560e01c80635339c2961161010f578063a38807f2116100a2578063ddca3f4311610071578063ddca3f431461098b578063f305839914610993578063f30dba931461099b578063f637731d14610a2c576101e5565b8063a38807f2146108f1578063c45a01551461095c578063d0c93a7c14610964578063d21220a714610983576101e5565b8063883bdbfd116100de578063883bdbfd1461071957806394fd4a3e146108675780639c00316e14610897578063a34123a7146108b7576101e5565b80635339c2961461068c57806370cf754a146106ac5780638206a4d1146106b457806385b66729146106dc576101e5565b806332148f6711610187578063480c66c011610156578063480c66c01461052b578063490e6cbc146105565780634f1eb3d8146105e2578063514ea4bf14610633576101e5565b806332148f67146103f55780633850c7bd146104165780633c8a7d8d1461046f5780634614131914610511576101e5565b80631a686502116101c35780631a686502146103035780631ad8b03b14610327578063218064e51461035e578063252c09d714610390576101e5565b80630dfe1681146101ea578063128acb081461020e57806314f2705c146102bd575b600080fd5b6101f2610a52565b604080516001600160a01b039092168252519081900360200190f35b6102a4600480360360a081101561022457600080fd5b6001600160a01b0382358116926020810135151592604082013592606083013516919081019060a08101608082013564010000000081111561026557600080fd5b82018360208201111561027757600080fd5b8035906020019184600183028401116401000000008311171561029957600080fd5b509092509050610a61565b6040805192835260208301919091528051918290030190f35b610301600480360360808110156102d357600080fd5b506001600160a01b03813581169160208101359091169062ffffff604082013516906060013560020b61167e565b005b61030b61175f565b604080516001600160801b039092168252519081900360200190f35b61032f61176e565b60405180836001600160801b03168152602001826001600160801b031681526020019250505060405180910390f35b6103016004803603604081101561037457600080fd5b5080356001600160901b0316906020013563ffffffff16611788565b6103ad600480360360208110156103a657600080fd5b50356119ed565b6040805163ffffffff909616865260069490940b60208601526001600160a01b0390921684840152151560608401526001600160c01b03166080830152519081900360a00190f35b6103016004803603602081101561040b57600080fd5b503561ffff16611a48565b61041e611b39565b604080516001600160a01b03909816885260029690960b602088015261ffff9485168787015292841660608701529216608085015260ff90911660a0840152151560c0830152519081900360e00190f35b6102a4600480360360a081101561048557600080fd5b6001600160a01b03823516916020810135600290810b92604083013590910b916001600160801b036060820135169181019060a0810160808201356401000000008111156104d257600080fd5b8201836020820111156104e457600080fd5b8035906020019184600183028401116401000000008311171561050657600080fd5b509092509050611b89565b610519611e62565b60408051918252519081900360200190f35b6103016004803603604081101561054157600080fd5b5062ffffff813516906020013560020b611e68565b6103016004803603608081101561056c57600080fd5b6001600160a01b0382351691602081013591604082013591908101906080810160608201356401000000008111156105a357600080fd5b8201836020820111156105b557600080fd5b803590602001918460018302840111640100000000831117156105d757600080fd5b509092509050611fab565b61032f600480360360a08110156105f857600080fd5b506001600160a01b03813516906020810135600290810b91604081013590910b906001600160801b03606082013581169160800135166123f3565b6106506004803603602081101561064957600080fd5b50356125eb565b604080516001600160801b0396871681526020810195909552848101939093529084166060840152909216608082015290519081900360a00190f35b610519600480360360208110156106a257600080fd5b503560010b612628565b61030b61263a565b610301600480360360408110156106ca57600080fd5b5060ff81358116916020013516612649565b61032f600480360360608110156106f257600080fd5b506001600160a01b03813516906001600160801b0360208201358116916040013516612842565b6107896004803603602081101561072f57600080fd5b81019060208101813564010000000081111561074a57600080fd5b82018360208201111561075c57600080fd5b8035906020019184602083028401116401000000008311171561077e57600080fd5b509092509050612aec565b60405180806020018060200180602001848103845287818151815260200191508051906020019060200280838360005b838110156107d15781810151838201526020016107b9565b50505050905001848103835286818151815260200191508051906020019060200280838360005b838110156108105781810151838201526020016107f8565b50505050905001848103825285818151815260200191508051906020019060200280838360005b8381101561084f578181015183820152602001610837565b50505050905001965050505050505060405180910390f35b61086f612b9b565b604080516001600160901b03909316835263ffffffff90911660208301528051918290030190f35b61089f612bb9565b6040805162ffffff9092168252519081900360200190f35b6102a4600480360360608110156108cd57600080fd5b508035600290810b91602081013590910b90604001356001600160801b0316612bcb565b61091b6004803603604081101561090757600080fd5b508035600290810b9160200135900b612d47565b6040805160069590950b85526001600160a01b03909316602085015263ffffffff909116838301526001600160c01b03166060830152519081900360800190f35b6101f2613039565b61096c613048565b6040805160029290920b8252519081900360200190f35b6101f2613058565b61089f613067565b610519613079565b6109bb600480360360208110156109b157600080fd5b503560020b61307f565b604080516001600160801b03909a168a52600f9890980b60208a015288880196909652606088019490945260069290920b60808701526001600160a01b031660a086015263ffffffff1660c0850152151560e08401526001600160c01b031661010083015251908190036101200190f35b61030160048036036020811015610a4257600080fd5b50356001600160a01b03166130fc565b6001546001600160a01b031681565b60008085610a9b576040805162461bcd60e51b8152602060048201526002602482015261415360f01b604482015290519081900360640190fd5b6040805160e0810182526004546001600160a01b0381168252600160a01b8104600290810b810b900b602083015261ffff600160b81b8204811693830193909352600160c81b810483166060830152600160d81b8104909216608082015260ff600160e81b8304811660a0830152600160f01b909204909116151560c08201819052610b54576040805162461bcd60e51b81526020600482015260036024820152624c4f4b60e81b604482015290519081900360640190fd5b87610b9f5780600001516001600160a01b0316866001600160a01b0316118015610b9a575073fffd8963efd1fc6a506488495d951d5263988d266001600160a01b038716105b610bd1565b80600001516001600160a01b0316866001600160a01b0316108015610bd157506401000276a36001600160a01b038716115b610c08576040805162461bcd60e51b815260206004820152600360248201526214d41360ea1b604482015290519081900360640190fd5b6004805460ff60f01b19169055604080516101608101909152600090808a610c3b5760048460a0015160ff16901c610c4e565b60108460a0015160ff1681610c4c57fe5b065b60ff1681526009546001600160801b03166020820152604001610c6f61329b565b63ffffffff168152602001600060060b815260200160006001600160a01b0316815260200160001515815260200160006001600160c01b03168152602001600260149054906101000a900462ffffff1662ffffff1681526020016002601a9054906101000a900460020b60020b8152602001600160009054906101000a90046001600160a01b03166001600160a01b03168152602001600260009054906101000a90046001600160a01b03166001600160a01b031681525090506000808913905060006040518060e001604052808b81526020016000815260200185600001516001600160a01b03168152602001856020015160020b81526020018c610d7757600754610d7b565b6006545b815260200160006001600160801b0316815260200184602001516001600160801b031681525090505b805115801590610dca5750886001600160a01b031681604001516001600160a01b031614155b1561118b57610dd7615f43565b60408201516001600160a01b031681526060820151610100850151610dff91600b918f61329f565b15156040830152600290810b810b60208301819052620d89e719910b1215610e3057620d89e7196020820152610e4f565b6020810151620d89e860029190910b1315610e4f57620d89e860208201525b610e5c81602001516133e1565b6001600160a01b031660608201526040820151610ed1908d610e96578b6001600160a01b031683606001516001600160a01b031611610eb0565b8b6001600160a01b031683606001516001600160a01b0316105b610ebe578260600151610ec0565b8b5b60c0850151855160e0890151613713565b60c085015260a084015260808301526001600160a01b031660408301528215610f3357610f078160c00151826080015101613905565b825103825260a0810151610f2990610f1e90613905565b60208401519061391b565b6020830152610f6e565b610f408160a00151613905565b825101825260c08101516080820151610f6891610f5d9101613905565b602084015190613937565b60208301525b835160ff1615610fb4576000846000015160ff168260c0015181610f8e57fe5b60c0840180519290910491829003905260a0840180519091016001600160801b03169052505b60c08201516001600160801b031615610ff357610fe78160c00151600160801b8460c001516001600160801b031661394d565b60808301805190910190525b80606001516001600160a01b031682604001516001600160a01b0316141561114a57806040015115611121578360a001516110a557604080850151602080880151928801519087015160055460608a015161107595600d9594600094919390926001600160901b0382169163ffffffff600160901b909104811691906139fd16565b6001600160c01b031660c08701526001600160a01b03166080860152600690810b900b6060850152600160a08501525b60006110f782602001518e6110bc576006546110c2565b84608001515b8f6110d15785608001516110d5565b6007545b608089015160608a015160408b015160c08c0151600a96959493929190613bfb565b90508c15611103576000035b6111118360c0015182613d11565b6001600160801b031660c0840152505b8b611130578060200151611139565b60018160200151035b600290810b900b6060830152611185565b80600001516001600160a01b031682604001516001600160a01b031614611185576111788260400151613dc7565b600290810b900b60608301525b50610da4565b836020015160020b816060015160020b14611276576040808501519084015160208087015190860151600554606089015160808a015160009687966111f696600d969295919490936001600160901b0383169263ffffffff600160901b90910481169291906140f316565b604085015160608601516004805461ffff60c81b1916600160c81b61ffff958616021761ffff60b81b1916600160b81b95909416949094029290921762ffffff60a01b1916600160a01b62ffffff60029490940b9390931692909202919091176001600160a01b0319166001600160a01b039091161790555061129b9050565b6040810151600480546001600160a01b0319166001600160a01b039092169190911790555b8060c001516001600160801b031683602001516001600160801b0316146112e15760c0810151600980546001600160801b0319166001600160801b039092169190911790555b8a1561133157608081015160065560a08101516001600160801b03161561132c5760a0810151600880546001600160801b031981166001600160801b03918216909301169190911790555b611377565b608081015160075560a08101516001600160801b0316156113775760a0810151600880546001600160801b03808216600160801b92839004821690940116029190911790555b8115158b15151461139057602081015181518b0361139d565b80600001518a0381602001515b90965094508a156114c75760008512156113c4576113c48361014001518d876000036142fe565b60006113d4846101200151614461565b9050336001600160a01b0316634179b66488888c8c6040518563ffffffff1660e01b815260040180858152602001848152602001806020018281038252848482818152602001925080828437600081840152601f19601f82011690508083019250505095505050505050600060405180830381600087803b15801561145857600080fd5b505af115801561146c573d6000803e3d6000fd5b5050505061147e846101200151614461565b6114888289614592565b11156114c1576040805162461bcd60e51b815260206004820152600360248201526249494160e81b604482015290519081900360640190fd5b506115e2565b60008612156114e3576114e38361012001518d886000036142fe565b60006114f3846101400151614461565b9050336001600160a01b0316634179b66488888c8c6040518563ffffffff1660e01b815260040180858152602001848152602001806020018281038252848482818152602001925080828437600081840152601f19601f82011690508083019250505095505050505050600060405180830381600087803b15801561157757600080fd5b505af115801561158b573d6000803e3d6000fd5b5050505061159d846101400151614461565b6115a78288614592565b11156115e0576040805162461bcd60e51b815260206004820152600360248201526249494160e81b604482015290519081900360640190fd5b505b60408082015160c083015160608085015184518b8152602081018b90526001600160a01b03948516818701526001600160801b039093169183019190915260020b60808201529151908e169133917fc42079f94a6350d7e6235f29174924f928cc2ac818eb64fed8004e115fbcca679181900360a00190a350506004805460ff60f01b1916600160f01b17905550919890975095505050505050565b6000546001600160a01b03161561169457600080fd5b60008054336001600160a01b0319918216179091556001805482166001600160a01b0387811691909117909155600280549092169085161762ffffff60a01b1916600160a01b62ffffff858116918202929092177fffffffffffff000000ffffffffffffffffffffffffffffffffffffffffffffff16600160b81b919091021762ffffff60d01b1916600160d01b84840b9290921691909102179055611739816145a2565b600380546001600160801b0319166001600160801b039290921691909117905550505050565b6009546001600160801b031681565b6008546001600160801b0380821691600160801b90041682565b600454600160f01b900460ff166117cc576040805162461bcd60e51b81526020600482015260036024820152624c4f4b60e81b604482015290519081900360640190fd5b6004805460ff60f01b191690556000546001600160a01b0316331480611871575060008054906101000a90046001600160a01b03166001600160a01b0316638da5cb5b6040518163ffffffff1660e01b815260040160206040518083038186803b15801561183957600080fd5b505afa15801561184d573d6000803e3d6000fd5b505050506040513d602081101561186357600080fd5b50516001600160a01b031633145b61187a57600080fd5b428163ffffffff16101561188d57600080fd5b60045461190190600160b81b900461ffff166118a761329b565b600454600954600554600d949392600160a01b810460020b926001600160801b0316916001600160901b0381169163ffffffff600160901b90920482169161ffff600160c81b8304811692600160d81b900416906140f316565b6004805461ffff60c81b1916600160c81b61ffff938416021761ffff60b81b1916600160b81b93909216929092021790556040805180820182526001600160901b03841680825263ffffffff841660209283018190526005805471ffffffffffffffffffffffffffffffffffff191683177fffffffffffffffffffff00000000ffffffffffffffffffffffffffffffffffff16600160901b830217905583519182529181019190915281517e8866b45af6018e497020f8d16e58c1be320850f245ebdf9d304666bee15e35929181900390910190a150506004805460ff60f01b1916600160f01b179055565b600d8161ffff81106119fe57600080fd5b60020201805460019091015463ffffffff82169250640100000000820460060b91600160581b81046001600160a01b031691600160f81b90910460ff16906001600160c01b031685565b600454600160f01b900460ff16611a8c576040805162461bcd60e51b81526020600482015260036024820152624c4f4b60e81b604482015290519081900360640190fd5b6004805460ff60f01b191690819055600160d81b900461ffff166000611ab4600d838561460c565b6004805461ffff808416600160d81b810261ffff60d81b1990931692909217909255919250831614611b21576040805161ffff80851682528316602082015281517fac49e518f90a358f652e4400164f05a5d8f7e35e7747279bc3a93dbf584e125a929181900390910190a15b50506004805460ff60f01b1916600160f01b17905550565b6004546001600160a01b03811690600160a01b810460020b9061ffff600160b81b8204811691600160c81b8104821691600160d81b8204169060ff600160e81b8204811691600160f01b90041687565b6004546000908190600160f01b900460ff16611bd2576040805162461bcd60e51b81526020600482015260036024820152624c4f4b60e81b604482015290519081900360640190fd5b6004805460ff60f01b191690556001600160801b038516611bf257600080fd5b600080611c4060405180608001604052808c6001600160a01b031681526020018b60020b81526020018a60020b8152602001611c368a6001600160801b03166146b2565b600f0b90526146c3565b6001546002549297509095508694508593506000925082916001600160a01b0391821691168515611c7757611c7482614461565b93505b8615611c8957611c8681614461565b92505b336001600160a01b031663f68d166289898d8d6040518563ffffffff1660e01b815260040180858152602001848152602001806020018281038252848482818152602001925080828437600081840152601f19601f82011690508083019250505095505050505050600060405180830381600087803b158015611d0b57600080fd5b505af1158015611d1f573d6000803e3d6000fd5b505050506000881115611d7757611d3582614461565b611d3f858a614592565b1115611d77576040805162461bcd60e51b815260206004820152600260248201526104d360f41b604482015290519081900360640190fd5b8615611dc857611d8681614461565b611d908489614592565b1115611dc8576040805162461bcd60e51b81526020600482015260026024820152614d3160f01b604482015290519081900360640190fd5b8b60020b8d60020b8f6001600160a01b03167f7a53080ba414158be7ec69b987b5fb7d07dee101fe85488f0853ae16239d0bde338f8d8d60405180856001600160a01b03168152602001846001600160801b0316815260200183815260200182815260200194505050505060405180910390a450506004805460ff60f01b1916600160f01b17905550939a92995091975050505050505050565b60075481565b6000546001600160a01b0316331480611f00575060008054906101000a90046001600160a01b03166001600160a01b0316638da5cb5b6040518163ffffffff1660e01b815260040160206040518083038186803b158015611ec857600080fd5b505afa158015611edc573d6000803e3d6000fd5b505050506040513d6020811015611ef257600080fd5b50516001600160a01b031633145b611f0957600080fd5b6002805482820b62ffffff908116600160d01b90810262ffffff60d01b19878416600160a01b90810262ffffff60a01b198716179190911691909117808655604080518387048616808252938304909516602086015294839004860b80870b85870152929004850b90940b606083015291517f23adca8c52af167943d8d95902e7ebd814e2c09e214dfd9b5245a988db80e6029181900360800190a150505050565b600454600160f01b900460ff16611fef576040805162461bcd60e51b81526020600482015260036024820152624c4f4b60e81b604482015290519081900360640190fd5b6004805460ff60f01b191690556009546001600160801b03168061203e576040805162461bcd60e51b81526020600482015260016024820152601360fa1b604482015290519081900360640190fd5b6040805160a0810182526001546001600160a01b0390811682526002549081166020830152600160a01b900462ffffff16918101829052600060608201819052608082015290612093908790620f424061491a565b606082015260408101516120b190869062ffffff16620f424061491a565b608082015280516000906120c490614461565b905060006120d58360200151614461565b905087156120ea5782516120ea908a8a6142fe565b86156120ff576120ff83602001518a896142fe565b336001600160a01b031663bff5d7968460600151856080015189896040518563ffffffff1660e01b815260040180858152602001848152602001806020018281038252848482818152602001925080828437600081840152601f19601f82011690508083019250505095505050505050600060405180830381600087803b15801561218957600080fd5b505af115801561219d573d6000803e3d6000fd5b5050505060006121b08460000151614461565b905060006121c18560200151614461565b9050816121db86606001518661459290919063ffffffff16565b1115612213576040805162461bcd60e51b8152602060048201526002602482015261046360f41b604482015290519081900360640190fd5b8061222b86608001518561459290919063ffffffff16565b1115612263576040805162461bcd60e51b8152602060048201526002602482015261463160f01b604482015290519081900360640190fd5b83820383820381156122f257600454600160e81b9004600f1660008115612296578160ff16848161229057fe5b04612299565b60005b90506001600160801b038116156122cc57600880546001600160801b038082168401166001600160801b03199091161790555b6122e6818503600160801b8c6001600160801b031661394d565b60068054909101905550505b801561237d5760048054600160e81b9004901c600f1660008115612322578160ff16838161231c57fe5b04612325565b60005b90506001600160801b0381161561235757600880546001600160801b03600160801b8083048216850182160291161790555b612371818403600160801b8c6001600160801b031661394d565b60078054909101905550505b604080518d8152602081018d90528082018490526060810183905290516001600160a01b038f169133917fbdbdb71d7860376ba52b25a5028beea23581364a40522f6bcfb86bb1f2dca6339181900360800190a350506004805460ff60f01b1916600160f01b1790555050505050505050505050565b6004546000908190600160f01b900460ff1661243c576040805162461bcd60e51b81526020600482015260036024820152624c4f4b60e81b604482015290519081900360640190fd5b6004805460ff60f01b191690556000612458600c338989614954565b60038101549091506001600160801b03908116908616116124795784612488565b60038101546001600160801b03165b60038201549093506001600160801b03600160801b9091048116908516116124b057836124c6565b6003810154600160801b90046001600160801b03165b91506001600160801b03831615612518576003810180546001600160801b031981166001600160801b03918216869003821617909155600154612518916001600160a01b03909116908a9086166142fe565b6001600160801b0382161561256b576003810180546001600160801b03600160801b80830482168690038216029181169190911790915560025461256b916001600160a01b03909116908a9085166142fe565b604080516001600160a01b038a1681526001600160801b0380861660208301528416818301529051600288810b92908a900b9133917f70935338e69775456a85ddef226c395fb668b63fa0115f5f20610b388e6ca9c0919081900360600190a4506004805460ff60f01b1916600160f01b17905590969095509350505050565b600c6020526000908152604090208054600182015460028301546003909301546001600160801b0392831693919281811691600160801b90041685565b600b6020526000908152604090205481565b6003546001600160801b031681565b600454600160f01b900460ff1661268d576040805162461bcd60e51b81526020600482015260036024820152624c4f4b60e81b604482015290519081900360640190fd5b6004805460ff60f01b191690556000546001600160a01b0316331480612732575060008054906101000a90046001600160a01b03166001600160a01b0316638da5cb5b6040518163ffffffff1660e01b815260040160206040518083038186803b1580156126fa57600080fd5b505afa15801561270e573d6000803e3d6000fd5b505050506040513d602081101561272457600080fd5b50516001600160a01b031633145b61273b57600080fd5b60ff8216158061275e575060048260ff161015801561275e5750600a8260ff1611155b8015612788575060ff81161580612788575060048160ff16101580156127885750600a8160ff1611155b61279157600080fd5b60048054610ff083831b16840160ff908116600160e81b9081027fffff00ffffffffffffffffffffffffffffffffffffffffffffffffffffffffff84161784556040805191909304600f81811683529481901c909416602082015285821681840152848216606082015291519216917f973d8d92bb299f4af6ce49b52a8adb85ae46b9f214c4c4fc06ac77401237b1339181900360800190a150506004805460ff60f01b1916600160f01b17905550565b6004546000908190600160f01b900460ff1661288b576040805162461bcd60e51b81526020600482015260036024820152624c4f4b60e81b604482015290519081900360640190fd5b6004805460ff60f01b191690556000546001600160a01b0316331480612930575060008054906101000a90046001600160a01b03166001600160a01b0316638da5cb5b6040518163ffffffff1660e01b815260040160206040518083038186803b1580156128f857600080fd5b505afa15801561290c573d6000803e3d6000fd5b505050506040513d602081101561292257600080fd5b50516001600160a01b031633145b61293957600080fd5b6008546001600160801b03908116908516116129555783612962565b6008546001600160801b03165b6008549092506001600160801b03600160801b909104811690841611612988578261299c565b600854600160801b90046001600160801b03165b90506001600160801b03821615612a0a576008546001600160801b03838116911614156129cb57600019909101905b600880546001600160801b031981166001600160801b03918216859003821617909155600154612a0a916001600160a01b0390911690879085166142fe565b6001600160801b03811615612a7d576008546001600160801b03828116600160801b909204161415612a3b57600019015b600880546001600160801b03600160801b808304821685900382160291811691909117909155600254612a7d916001600160a01b0390911690879084166142fe565b604080516001600160801b0380851682528316602082015281516001600160a01b0388169233927f596b573906218d3411850b26a6b437d6c4522fdb43d2d2386263f86d50b8b151929081900390910190a36004805460ff60f01b1916600160f01b1790559094909350915050565b6060806060612b8e612afc61329b565b86868080602002602001604051908101604052809392919081815260200183836020028082843760009201919091525050600454600954600554600d96959450600160a01b830460020b935061ffff600160b81b84048116936001600160801b03909316926001600160901b0383169263ffffffff600160901b909104811692600160c81b909204909116906149b816565b9250925092509250925092565b6005546001600160901b03811690600160901b900463ffffffff1682565b600254600160b81b900462ffffff1681565b6004546000908190600160f01b900460ff16612c14576040805162461bcd60e51b81526020600482015260036024820152624c4f4b60e81b604482015290519081900360640190fd5b6004805460ff60f01b1916905560408051608081018252338152600287810b602083015286900b9181019190915260009081908190612c709060608101612c636001600160801b038a166146b2565b600003600f0b90526146c3565b9250925092508160000394508060000393506000851180612c915750600084115b15612cd0576003830180546001600160801b038082168089018216600160801b93849004831689019092169092029091176001600160801b0319161790555b604080516001600160801b0388168152602081018790528082018690529051600289810b92908b900b9133917f0c396cd989a39f4459b5fa1aed6a9a8dcdbc45908acfd67e028cd568da98982c919081900360600190a450506004805460ff60f01b1916600160f01b179055509094909350915050565b600080600080612d578686614b75565b612d5f615f7f565b612d67615f7f565b600288810b810b6000908152600a602090815260408083208b850b90940b8352918290206003840154600485015460ff600160f81b8304161515608089018190526001600160c01b03909116606089015263ffffffff600160d81b830416948801949094526001600160a01b0367010000000000000082041692870192909252600691820b820b90910b855290612dfd57600080fd5b6003810154600482015460ff600160f81b8304161515608086018190526001600160c01b03909116606086015263ffffffff600160d81b83041660408601526001600160a01b036701000000000000008304166020860152600691820b820b90910b8452612e6a57600080fd5b50506040805160e0810182526004546001600160a01b0381168252600160a01b8104600290810b810b810b6020840181905261ffff600160b81b8404811695850195909552600160c81b830485166060850152600160d81b8304909416608084015260ff600160e81b8304811660a0850152600160f01b909204909116151560c083015290918a820b910b1215612f375781600001518360000151038260200151846020015103836040015185604001510384606001518660600151039650965096509650505050613030565b8760020b816020015160020b1215612ff8576000612f5361329b565b60208301516040840151600954600554606087015194955060009485948594612faa94600d948a94889493926001600160801b0316916001600160901b0381169163ffffffff600160901b9092048216916139fd16565b92509250925085600001518760000151840303866020015188602001518403038760400151896040015187030388606001518a606001518503039a509a509a509a5050505050505050613030565b826000015182600001510383602001518360200151038460400151846040015103856060015185606001510396509650965096505050505b92959194509250565b6000546001600160a01b031681565b60028054600160d01b9004900b81565b6002546001600160a01b031681565b600254600160a01b900462ffffff1681565b60065481565b600a60205260009081526040902080546001820154600283015460038401546004909401546001600160801b03841694600160801b909404600f0b93600681900b9167010000000000000082046001600160a01b031691600160d81b810463ffffffff1691600160f81b90910460ff16906001600160c01b031689565b6004546001600160a01b03161561313f576040805162461bcd60e51b8152602060048201526002602482015261414960f01b604482015290519081900360640190fd5b600061314a82613dc7565b905060008061316261315a61329b565b600d90614c3e565b6040805160e0810182526001600160a01b038816808252600288810b6020808501829052600085870181905261ffff898116606088018190529089166080880181905260a0880192909252600160c09097019690965260048054600160f01b6001600160a01b0319909116871762ffffff60a01b1916600160a01b62ffffff9787900b9790971696909602959095177fffffffffff00000000ffffffffffffffffffffffffffffffffffffffffffffff16600160c81b9097029690961761ffff60d81b1916600160d81b909102177fff0000ffffffffffffffffffffffffffffffffffffffffffffffffffffffffff1692909217909355835191825281019190915281519395509193507f98636036cb66a9c19a37435efc1e90142190214e8abeb821bdba3f2990dd4c9592918290030190a150505050565b4290565b60008060008460020b8660020b816132b357fe5b05905060008660020b1280156132da57508460020b8660020b816132d357fe5b0760020b15155b156132e457600019015b8315613359576000806132f683614ca1565b600182810b810b600090815260208d9052604090205460ff83169190911b8001600019019081168015159750929450909250908561333b57888360ff1686030261334e565b8861334582614cb3565b840360ff168603025b9650505050506133d7565b60008061336883600101614ca1565b91509150600060018260ff166001901b031990506000818b60008660010b60010b81526020019081526020016000205416905080600014159550856133ba57888360ff0360ff168660010101026133d0565b88836133c583614d53565b0360ff168660010101025b9650505050505b5094509492505050565b60008060008360020b126133f8578260020b613400565b8260020b6000035b9050620d89e881111561343e576040805162461bcd60e51b81526020600482015260016024820152601560fa1b604482015290519081900360640190fd5b60006001821661345257600160801b613464565b6ffffcb933bd6fad37aa2d162d1a5940015b70ffffffffffffffffffffffffffffffffff1690506002821615613498576ffff97272373d413259a46990580e213a0260801c5b60048216156134b7576ffff2e50f5f656932ef12357cf3c7fdcc0260801c5b60088216156134d6576fffe5caca7e10e4e61c3624eaa0941cd00260801c5b60108216156134f5576fffcb9843d60f6159c9db58835c9266440260801c5b6020821615613514576fff973b41fa98c081472e6896dfb254c00260801c5b6040821615613533576fff2ea16466c96a3843ec78b326b528610260801c5b6080821615613552576ffe5dee046a99a2a811c461f1969c30530260801c5b610100821615613572576ffcbe86c7900a88aedcffc83b479aa3a40260801c5b610200821615613592576ff987a7253ac413176f2b074cf7815e540260801c5b6104008216156135b2576ff3392b0822b70005940c7a398e4b70f30260801c5b6108008216156135d2576fe7159475a2c29b7443b29c7fa6e889d90260801c5b6110008216156135f2576fd097f3bdfd2022b8845ad8f792aa58250260801c5b612000821615613612576fa9f746462d870fdf8a65dc1f90e061e50260801c5b614000821615613632576f70d869a156d2a1b890bb3df62baf32f70260801c5b618000821615613652576f31be135f97d08fd981231505542fcfa60260801c5b62010000821615613673576f09aa508b5b7a84e1c677de54f3e99bc90260801c5b62020000821615613693576e5d6af8dedb81196699c329225ee6040260801c5b620400008216156136b2576d2216e584f5fa1ea926041bedfe980260801c5b620800008216156136cf576b048a170391f7dc42444e8fa20260801c5b60008460020b13156136ea5780600019816136e657fe5b0490505b6401000000008106156136fe576001613701565b60005b60ff16602082901c0192505050919050565b60008080806001600160a01b03808916908a16101581871280159061379857600061374c8989620f42400362ffffff16620f424061394d565b905082613765576137608c8c8c6001614e3d565b613772565b6137728b8d8c6001614eb8565b9550858110613783578a9650613792565b61378f8c8b8386614f75565b96505b506137e2565b816137af576137aa8b8b8b6000614eb8565b6137bc565b6137bc8a8c8b6000614e3d565b93508388600003106137d0578995506137e2565b6137df8b8a8a60000385614fc1565b95505b6001600160a01b038a8116908716148215613845578080156138015750815b61381757613812878d8c6001614eb8565b613819565b855b9550808015613826575081155b61383c57613837878d8c6000614e3d565b61383e565b845b945061388f565b80801561384f5750815b613865576138608c888c6001614e3d565b613867565b855b9550808015613874575081155b61388a576138858c888c6000614eb8565b61388c565b845b94505b8115801561389f57508860000385115b156138ab578860000394505b8180156138ca57508a6001600160a01b0316876001600160a01b031614155b156138d95785890393506138f6565b6138f3868962ffffff168a620f42400362ffffff1661491a565b93505b50505095509550955095915050565b6000600160ff1b821061391757600080fd5b5090565b8082038281131560008312151461393157600080fd5b92915050565b8181018281121560008312151461393157600080fd5b6000808060001985870986860292508281109083900303905080613983576000841161397857600080fd5b5082900490506139f6565b80841161398f57600080fd5b6000848688096000868103871696879004966002600389028118808a02820302808a02820302808a02820302808a02820302808a02820302808a02909103029181900381900460010186841190950394909402919094039290920491909117919091029150505b9392505050565b6000808063ffffffff8a16613ac95760008c8961ffff1661ffff8110613a1f57fe5b6040805160a08101825260029290920292909201805463ffffffff8082168085526401000000008304600690810b810b900b6020860152600160581b83046001600160a01b031695850195909552600160f81b90910460ff16151560608401526001909101546001600160c01b031660808301529092508d1614613aae57613aab818d8c8b8b8b61500d565b90505b80602001518160400151826080015193509350935050613bec565b898b03600080613ae08f8f858f8f8f8f8f8f615157565b91509150816000015163ffffffff168363ffffffff161415613b1957816020015182604001518360800151955095509550505050613bec565b805163ffffffff84811691161415613b4857806020015181604001518260800151955095509550505050613bec565b8151815160208085015190840151918390039286039163ffffffff80841692908516910360060b81613b7657fe5b05028460200151018263ffffffff168263ffffffff1686604001518660400151036001600160a01b03160281613ba857fe5b048560400151018263ffffffff168463ffffffff1687608001518760800151036001600160c01b031681613bd857fe5b040286608001510197509750975050505050505b99509950999650505050505050565b600296870b870b60009081526020989098526040909720600181018054909603909555948401805490930390925560038301805463ffffffff600160d81b6001600160a01b036701000000000000008085048216909603169094027fffffffffff0000000000000000000000000000000000000000ffffffffffffff90921691909117600681810b90950390940b66ffffffffffffff1666ffffffffffffff19909416939093178281048416909503909216027fff00000000ffffffffffffffffffffffffffffffffffffffffffffffffffffff909316929092179091556004810180546001600160c01b038082169094039093166001600160c01b03199093169290921790915554600160801b9004600f0b90565b60008082600f0b1215613d7657826001600160801b03168260000384039150816001600160801b031610613d71576040805162461bcd60e51b81526020600482015260026024820152614c5360f01b604482015290519081900360640190fd5b613931565b826001600160801b03168284019150816001600160801b03161015613931576040805162461bcd60e51b81526020600482015260026024820152614c4160f01b604482015290519081900360640190fd5b60006401000276a36001600160a01b03831610801590613e03575073fffd8963efd1fc6a506488495d951d5263988d266001600160a01b038316105b613e38576040805162461bcd60e51b81526020600482015260016024820152602960f91b604482015290519081900360640190fd5b77ffffffffffffffffffffffffffffffffffffffff00000000602083901b166001600160801b03811160071b81811c67ffffffffffffffff811160061b90811c63ffffffff811160051b90811c61ffff811160041b90811c60ff8111600390811b91821c600f811160021b90811c918211600190811b92831c97908811961790941790921717909117171760808110613ed957607f810383901c9150613ee3565b80607f0383901b91505b908002607f81811c60ff83811c9190911c800280831c81831c1c800280841c81841c1c800280851c81851c1c800280861c81861c1c800280871c81871c1c800280881c81881c1c800280891c81891c1c8002808a1c818a1c1c8002808b1c818b1c1c8002808c1c818c1c1c8002808d1c818d1c1c8002808e1c9c81901c9c909c1c80029c8d901c9e9d607f198f0160401b60c09190911c678000000000000000161760c19b909b1c674000000000000000169a909a1760c29990991c672000000000000000169890981760c39790971c671000000000000000169690961760c49590951c670800000000000000169490941760c59390931c670400000000000000169290921760c69190911c670200000000000000161760c79190911c670100000000000000161760c89190911c6680000000000000161760c99190911c6640000000000000161760ca9190911c6620000000000000161760cb9190911c6610000000000000161760cc9190911c6608000000000000161760cd9190911c66040000000000001617693627a301d71055774c8581026f028f6481ab7f045a5af012a19d003aa9198101608090811d906fdb2df09e81959a81455e260799a0632f8301901d600281810b9083900b146140e457886001600160a01b03166140c8826133e1565b6001600160a01b031611156140dd57816140df565b805b6140e6565b815b9998505050505050505050565b60008060008b8b61ffff1661ffff811061410957fe5b6040805160a08101825260029290920292909201805463ffffffff8082168085526401000000008304600690810b810b900b6020860152600160581b83046001600160a01b031695850195909552600160f81b90910460ff16151560608401526001909101546001600160c01b031660808301529092508b161415614194578a8592509250506142f0565b8461ffff168461ffff161180156141b557506001850361ffff168b61ffff16145b156141c2578391506141c6565b8491505b8161ffff168b60010161ffff16816141da57fe5b0692506141eb818b8b8b8b8b61500d565b8c8461ffff1661ffff81106141fc57fe5b825160029190910291909101805460208401516040850151606086015163ffffffff1990931663ffffffff909516949094176affffffffffffff00000000191664010000000066ffffffffffffff60069390930b9290921691909102177fff0000000000000000000000000000000000000000ffffffffffffffffffffff16600160581b6001600160a01b0390941693909302929092177effffffffffffffffffffffffffffffffffffffffffffffffffffffffffffff16600160f81b92151592909202919091178155608090910151600190910180546001600160c01b0319166001600160c01b03909216919091179055505b995099975050505050505050565b604080516001600160a01b038481166024830152604480830185905283518084039091018152606490920183526020820180517bffffffffffffffffffffffffffffffffffffffffffffffffffffffff1663a9059cbb60e01b1781529251825160009485949389169392918291908083835b6020831061438f5780518252601f199092019160209182019101614370565b6001836020036101000a0380198251168184511680821785525050505050509050019150506000604051808303816000865af19150503d80600081146143f1576040519150601f19603f3d011682016040523d82523d6000602084013e6143f6565b606091505b5091509150818015614424575080511580614424575080806020019051602081101561442157600080fd5b50515b61445a576040805162461bcd60e51b81526020600482015260026024820152612a2360f11b604482015290519081900360640190fd5b5050505050565b604080513060248083019190915282518083039091018152604490910182526020810180517bffffffffffffffffffffffffffffffffffffffffffffffffffffffff166370a0823160e01b17815291518151600093849384936001600160a01b03881693919290918291908083835b602083106144ef5780518252601f1990920191602091820191016144d0565b6001836020036101000a038019825116818451168082178552505050505050905001915050600060405180830381855afa9150503d806000811461454f576040519150601f19603f3d011682016040523d82523d6000602084013e614554565b606091505b509150915081801561456857506020815110155b61457157600080fd5b80806020019051602081101561458657600080fd5b5051925050505b919050565b8082018281101561393157600080fd5b60008082600281900b620d89e719816145b757fe5b05029050600083600281900b620d89e8816145ce57fe5b0502905060008460020b83830360020b816145e557fe5b0560010190508062ffffff166001600160801b0380168161460257fe5b0495945050505050565b6000808361ffff161161464a576040805162461bcd60e51b81526020600482015260016024820152604960f81b604482015290519081900360640190fd5b8261ffff168261ffff16116146605750816139f6565b825b8261ffff168161ffff1610156146a9576001858261ffff1661ffff811061468557fe5b60020201805463ffffffff191663ffffffff92909216919091179055600101614662565b50909392505050565b80600f81900b811461458d57600080fd5b60008060006146da84602001518560400151614b75565b6040805160e0810182526004546001600160a01b0381168252600160a01b8104600290810b810b900b602080840182905261ffff600160b81b8404811685870152600160c81b84048116606080870191909152600160d81b8504909116608086015260ff600160e81b8504811660a0870152600160f01b909404909316151560c08501528851908901519489015192890151939461477e949193909290919061539e565b93508460600151600f0b60001461491257846020015160020b816020015160020b12156147d3576147cc6147b586602001516133e1565b6147c287604001516133e1565b8760600151615521565b9250614912565b846040015160020b816020015160020b12156148e85760095460408201516001600160801b03909116906148449061480961329b565b602085015160055460608701516080880151600d9594939288926001600160901b0382169263ffffffff600160901b9093048316926140f316565b6004805461ffff60c81b1916600160c81b61ffff938416021761ffff60b81b1916600160b81b939092169290920217905581516040870151614894919061488a906133e1565b8860600151615521565b93506148b26148a687602001516133e1565b83516060890151615565565b92506148c2818760600151613d11565b600980546001600160801b0319166001600160801b039290921691909117905550614912565b61490f6148f886602001516133e1565b61490587604001516133e1565b8760600151615565565b91505b509193909250565b600061492784848461394d565b90506000828061493357fe5b84860911156139f657600019811061494a57600080fd5b6001019392505050565b6040805160609490941b6bffffffffffffffffffffffff1916602080860191909152600293840b60e890811b60348701529290930b90911b60378401528051808403601a018152603a90930181528251928201929092206000908152929052902090565b606080606060008461ffff16116149fa576040805162461bcd60e51b81526020600482015260016024820152604960f81b604482015290519081900360640190fd5b895167ffffffffffffffff81118015614a1257600080fd5b50604051908082528060200260200182016040528015614a3c578160200160208202803683370190505b509250895167ffffffffffffffff81118015614a5757600080fd5b50604051908082528060200260200182016040528015614a81578160200160208202803683370190505b509150895167ffffffffffffffff81118015614a9c57600080fd5b50604051908082528060200260200182016040528015614ac6578160200160208202803683370190505b50905060005b8a51811015614b6557614af98d8d8d8481518110614ae657fe5b60200260200101518d8d8d8d8d8d6139fd565b868481518110614b0557fe5b60200260200101868581518110614b1857fe5b60200260200101868681518110614b2b57fe5b6001600160c01b03909416602094850291909101909301929092526001600160a01b039092169052600691820b90910b9052600101614acc565b5099509950999650505050505050565b8060020b8260020b12614bb5576040805162461bcd60e51b8152602060048201526003602482015262544c5560e81b604482015290519081900360640190fd5b620d89e719600283900b1215614bf8576040805162461bcd60e51b8152602060048201526003602482015262544c4d60e81b604482015290519081900360640190fd5b620d89e8600282900b1315614c3a576040805162461bcd60e51b815260206004820152600360248201526254554d60e81b604482015290519081900360640190fd5b5050565b6040805160a08101825263ffffffff928316808252600060208301819052928201839052600160608301819052608090920192909252835463ffffffff1916909117909116600160f81b17825590810180546001600160c01b0319169055908190565b60020b600881901d9161010090910790565b6000808211614cc157600080fd5b600160801b8210614cd457608091821c91015b680100000000000000008210614cec57604091821c91015b6401000000008210614d0057602091821c91015b620100008210614d1257601091821c91015b6101008210614d2357600891821c91015b60108210614d3357600491821c91015b60048210614d4357600291821c91015b6002821061458d57600101919050565b6000808211614d6157600080fd5b5060ff6001600160801b03821615614d7c57607f1901614d84565b608082901c91505b67ffffffffffffffff821615614d9d57603f1901614da5565b604082901c91505b63ffffffff821615614dba57601f1901614dc2565b602082901c91505b61ffff821615614dd557600f1901614ddd565b601082901c91505b60ff821615614def5760071901614df7565b600882901c91505b600f821615614e095760031901614e11565b600482901c91505b6003821615614e235760011901614e2b565b600282901c91505b600182161561458d5760001901919050565b6000836001600160a01b0316856001600160a01b03161115614e5d579293925b81614e8a57614e85836001600160801b03168686036001600160a01b0316600160601b61394d565b614ead565b614ead836001600160801b03168686036001600160a01b0316600160601b61491a565b90505b949350505050565b6000836001600160a01b0316856001600160a01b03161115614ed8579293925b7bffffffffffffffffffffffffffffffff000000000000000000000000606084901b166001600160a01b038686038116908716614f1457600080fd5b83614f4457866001600160a01b0316614f378383896001600160a01b031661394d565b81614f3e57fe5b04614f6a565b614f6a614f5b8383896001600160a01b031661491a565b886001600160a01b0316615594565b979650505050505050565b600080856001600160a01b031611614f8c57600080fd5b6000846001600160801b031611614fa257600080fd5b81614fb457614e85858585600161559f565b614ead8585856001615680565b600080856001600160a01b031611614fd857600080fd5b6000846001600160801b031611614fee57600080fd5b8161500057614e858585856000615680565b614ead858585600061559f565b615015615f7f565b865186036001600160801b03851661502e576001615030565b845b9450600063ffffffff421161507b57428463ffffffff16106150525781615076565b886000015163ffffffff168463ffffffff1611156150735788518403615076565b60005b61507e565b60005b90506040518060a001604052808963ffffffff1681526020018363ffffffff168960020b028b602001510160060b8152602001876001600160801b031660808563ffffffff166001600160a01b0316901b6001600160a01b0316816150df57fe5b048b60400151016001600160a01b03168152602001600115158152602001876001600160801b03168363ffffffff166010896001600160901b03166001600160c01b0316901b026001600160c01b03168161513657fe5b048b60800151016001600160c01b0316815250925050509695505050505050565b61515f615f7f565b615167615f7f565b8a8761ffff1661ffff811061517857fe5b6040805160a08101825260029290920292909201805463ffffffff81168084526401000000008204600690810b810b900b6020850152600160581b82046001600160a01b031694840194909452600160f81b900460ff1615156060830152600101546001600160c01b0316608082015292506151f6908b908b615775565b15615230578863ffffffff16826000015163ffffffff161415615218576142f0565b81615227838b8b8a8a8a61500d565b915091506142f0565b8a8361ffff168860010161ffff168161524557fe5b0661ffff1661ffff811061525557fe5b6040805160a08101825260029290920292909201805463ffffffff811683526401000000008104600690810b810b900b6020840152600160581b81046001600160a01b031693830193909352600160f81b90920460ff161515606082018190526001909201546001600160c01b031660808201529250615339576040805160a0810182528c5463ffffffff811682526401000000008104600690810b810b900b6020830152600160581b81046001600160a01b031692820192909252600160f81b90910460ff161515606082015260018c01546001600160c01b0316608082015291505b6153488a83600001518b615775565b61537f576040805162461bcd60e51b815260206004820152600360248201526213d31160ea1b604482015290519081900360640190fd5b61538c8b8b8b8a87615838565b91509150995099975050505050505050565b60006153ad600c878787614954565b60065460075491925090600080600f87900b156154c15760006153ce61329b565b6004546009546005549293506000928392839261543992600d9288928692600160a01b830460020b9261ffff600160b81b82048116936001600160801b0316926001600160901b0381169263ffffffff600160901b909204821692600160c81b90910416906139fd16565b60035492955090935091506001600160801b0316615463600a8f8d8f8d8d898b8d60008b8d615a0d565b965061547b600a8e8d8f8d8d898b8d60018b8d615a0d565b60028054919750600160d01b909104900b87156154a8576154a88f82600b615c459092919063ffffffff16565b86156154ba576154ba600b8f83615c45565b5050505050505b6000806154d3600a8c8c8b8a8a615cab565b90925090506154e4878a8484615d57565b600089600f0b121561551257831561550157615501600a8c615eec565b821561551257615512600a8b615eec565b50505050505095945050505050565b60008082600f0b126155475761554261553d8585856001614eb8565b613905565b614eb0565b61555a61553d8585856000036000614eb8565b600003949350505050565b60008082600f0b126155815761554261553d8585856001614e3d565b61555a61553d8585856000036000614e3d565b808204910615150190565b600081156156125760006001600160a01b038411156155d5576155d084600160601b876001600160801b031661394d565b6155ed565b6001600160801b038516606085901b816155eb57fe5b045b905061560a6156056001600160a01b03881683614592565b615f2d565b915050614eb0565b60006001600160a01b038411156156405761563b84600160601b876001600160801b031661491a565b615657565b615657606085901b6001600160801b038716615594565b905080866001600160a01b03161161566e57600080fd5b6001600160a01b038616039050614eb0565b60008261568e575083614eb0565b7bffffffffffffffffffffffffffffffff000000000000000000000000606085901b16821561572e576001600160a01b038616848102908582816156ce57fe5b0414156156ff578181018281106156fd576156f383896001600160a01b03168361491a565b9350505050614eb0565b505b61572582615720878a6001600160a01b0316868161571957fe5b0490614592565b615594565b92505050614eb0565b6001600160a01b0386168481029085828161574557fe5b0414801561575257508082115b61575b57600080fd5b8082036156f3615605846001600160a01b038b168461491a565b60008363ffffffff168363ffffffff161115801561579f57508363ffffffff168263ffffffff1611155b156157bb578163ffffffff168363ffffffff16111590506139f6565b60008463ffffffff168463ffffffff16116157e3578363ffffffff16640100000000016157eb565b8363ffffffff165b64ffffffffff16905060008563ffffffff168463ffffffff161161581c578363ffffffff1664010000000001615824565b8363ffffffff165b64ffffffffff169091111595945050505050565b615840615f7f565b615848615f7f565b60008361ffff168560010161ffff168161585e57fe5b0661ffff169050600060018561ffff16830103905060005b506002818301048961ffff8716828161588b57fe5b0661ffff811061589757fe5b6040805160a08101825260029290920292909201805463ffffffff811683526401000000008104600690810b810b900b6020840152600160581b81046001600160a01b031693830193909352600160f81b90920460ff161515606082018190526001909201546001600160c01b03166080820152955061591c57806001019250615876565b898661ffff16826001018161592d57fe5b0661ffff811061593957fe5b6040805160a08101825260029290920292909201805463ffffffff811683526401000000008104600690810b810b900b6020840152600160581b81046001600160a01b031693830193909352600160f81b90920460ff16151560608201526001909101546001600160c01b0316608082015285519094506000906159bf908b908b615775565b90508080156159d857506159d88a8a8760000151615775565b156159e35750615a00565b806159f3576001820392506159fa565b8160010193505b50615876565b5050509550959350505050565b60028b810b900b600090815260208d90526040812080546001600160801b031682615a38828e613d11565b9050856001600160801b0316816001600160801b03161115615a86576040805162461bcd60e51b81526020600482015260026024820152614c4f60f01b604482015290519081900360640190fd5b6001600160801b038281161590821615811415945015615b91578d60020b8f60020b13615b61578b83600101819055508a8360020181905550898360030160076101000a8154816001600160a01b0302191690836001600160a01b03160217905550888360030160006101000a81548166ffffffffffffff021916908360060b66ffffffffffffff1602179055508783600301601b6101000a81548163ffffffff021916908363ffffffff160217905550848360040160006101000a8154816001600160c01b0302191690836001600160c01b031602179055505b6003830180547effffffffffffffffffffffffffffffffffffffffffffffffffffffffffffff16600160f81b1790555b82546001600160801b0319166001600160801b03821617835586615be657615be1615bdc8e600f0b8560000160109054906101000a9004600f0b600f0b61393790919063ffffffff16565b6146b2565b615c13565b615c13615bdc8e600f0b8560000160109054906101000a9004600f0b600f0b61391b90919063ffffffff16565b8354600f9190910b6001600160801b03908116600160801b0291161790925550909d9c50505050505050505050505050565b8060020b8260020b81615c5457fe5b0760020b15615c6257600080fd5b600080615c7d8360020b8560020b81615c7757fe5b05614ca1565b600191820b820b60009081526020979097526040909620805460ff9097169190911b90951890945550505050565b600285810b80820b60009081526020899052604080822088850b850b83529082209193849391929184918291908a900b12615cf157505060018201546002830154615d04565b8360010154880391508360020154870390505b6000808b60020b8b60020b1215615d2657505060018301546002840154615d39565b84600101548a0391508460020154890390505b92909803979097039b96909503949094039850939650505050505050565b6040805160a08101825285546001600160801b0390811682526001870154602083015260028701549282019290925260038601548083166060830152600160801b900490911660808201526000600f85900b615df65781516001600160801b0316615dee576040805162461bcd60e51b815260206004820152600260248201526104e560f41b604482015290519081900360640190fd5b508051615e05565b8151615e029086613d11565b90505b6000615e298360200151860384600001516001600160801b0316600160801b61394d565b90506000615e4f8460400151860385600001516001600160801b0316600160801b61394d565b905086600f0b600014615e765787546001600160801b0319166001600160801b0384161788555b60018801869055600288018590556001600160801b038216151580615ea457506000816001600160801b0316115b15615ee2576003880180546001600160801b031981166001600160801b039182168501821617808216600160801b9182900483168501909216021790555b5050505050505050565b600290810b810b60009081526020929092526040822082815560018101839055908101829055600381019190915560040180546001600160c01b0319169055565b806001600160a01b038116811461458d57600080fd5b6040805160e081018252600080825260208201819052918101829052606081018290526080810182905260a0810182905260c081019190915290565b6040805160a0810182526000808252602082018190529181018290526060810182905260808101919091529056fea2646970667358221220599e8865b80ce19a7530921563741843321113f80dbba39f4a03106cf255d3a064736f6c63430007060033",
    "linkReferences": {},
    "deployedLinkReferences": {}
}