{
  "_format": "hh-sol-artifact-1",
  "contractName": "StakingDoubleRewards",
  "sourceName": "contracts/StakingDoubleRewards.sol",
  "abi": [
    {
      "inputs": [
        {
          "internalType": "uint256",
          "name": "_pangolinPid",
          "type": "uint256"
        },
        {
          "internalType": "address",
          "name": "_rewardsToken",
          "type": "address"
        },
        {
          "internalType": "address",
          "name": "_stakingToken",
          "type": "address"
        },
        {
          "internalType": "address",
          "name": "_liqPoolManager",
          "type": "address"
        }
      ],
      "stateMutability": "nonpayable",
      "type": "constructor"
    },
    {
      "anonymous": false,
      "inputs": [
        {
          "indexed": true,
          "internalType": "address",
          "name": "user",
          "type": "address"
        },
        {
          "indexed": false,
          "internalType": "uint256",
          "name": "harvestedAmount",
          "type": "uint256"
        }
      ],
      "name": "Harvest",
      "type": "event"
    },
    {
      "anonymous": false,
      "inputs": [
        {
          "indexed": true,
          "internalType": "address",
          "name": "previousOwner",
          "type": "address"
        },
        {
          "indexed": true,
          "internalType": "address",
          "name": "newOwner",
          "type": "address"
        }
      ],
      "name": "OwnershipTransferred",
      "type": "event"
    },
    {
      "anonymous": false,
      "inputs": [
        {
          "indexed": false,
          "internalType": "address",
          "name": "token",
          "type": "address"
        },
        {
          "indexed": false,
          "internalType": "uint256",
          "name": "amount",
          "type": "uint256"
        }
      ],
      "name": "Recovered",
      "type": "event"
    },
    {
      "anonymous": false,
      "inputs": [
        {
          "indexed": false,
          "internalType": "uint256",
          "name": "reward",
          "type": "uint256"
        }
      ],
      "name": "RewardAdded",
      "type": "event"
    },
    {
      "anonymous": false,
      "inputs": [
        {
          "indexed": true,
          "internalType": "address",
          "name": "user",
          "type": "address"
        },
        {
          "indexed": false,
          "internalType": "uint256",
          "name": "reward",
          "type": "uint256"
        }
      ],
      "name": "RewardPaid",
      "type": "event"
    },
    {
      "anonymous": false,
      "inputs": [
        {
          "indexed": false,
          "internalType": "uint256",
          "name": "newDuration",
          "type": "uint256"
        }
      ],
      "name": "RewardsDurationUpdated",
      "type": "event"
    },
    {
      "anonymous": false,
      "inputs": [
        {
          "indexed": true,
          "internalType": "address",
          "name": "user",
          "type": "address"
        },
        {
          "indexed": false,
          "internalType": "uint256",
          "name": "amount",
          "type": "uint256"
        }
      ],
      "name": "Staked",
      "type": "event"
    },
    {
      "anonymous": false,
      "inputs": [
        {
          "indexed": true,
          "internalType": "address",
          "name": "user",
          "type": "address"
        },
        {
          "indexed": false,
          "internalType": "uint256",
          "name": "amount",
          "type": "uint256"
        }
      ],
      "name": "Withdrawn",
      "type": "event"
    },
    {
      "inputs": [
        {
          "internalType": "address",
          "name": "",
          "type": "address"
        }
      ],
      "name": "approvedContracts",
      "outputs": [
        {
          "internalType": "bool",
          "name": "",
          "type": "bool"
        }
      ],
      "stateMutability": "view",
      "type": "function"
    },
    {
      "inputs": [
        {
          "internalType": "address",
          "name": "account",
          "type": "address"
        }
      ],
      "name": "balanceOf",
      "outputs": [
        {
          "internalType": "uint256",
          "name": "",
          "type": "uint256"
        }
      ],
      "stateMutability": "view",
      "type": "function"
    },
    {
      "inputs": [],
      "name": "checkReward",
      "outputs": [
        {
          "internalType": "uint256",
          "name": "",
          "type": "uint256"
        }
      ],
      "stateMutability": "view",
      "type": "function"
    },
    {
      "inputs": [
        {
          "internalType": "address",
          "name": "",
          "type": "address"
        }
      ],
      "name": "deposits",
      "outputs": [
        {
          "internalType": "uint256",
          "name": "",
          "type": "uint256"
        }
      ],
      "stateMutability": "view",
      "type": "function"
    },
    {
      "inputs": [
        {
          "internalType": "address",
          "name": "account",
          "type": "address"
        }
      ],
      "name": "earned",
      "outputs": [
        {
          "internalType": "uint256",
          "name": "",
          "type": "uint256"
        }
      ],
      "stateMutability": "view",
      "type": "function"
    },
    {
      "inputs": [],
      "name": "getRewardForDuration",
      "outputs": [
        {
          "internalType": "uint256",
          "name": "",
          "type": "uint256"
        }
      ],
      "stateMutability": "view",
      "type": "function"
    },
    {
      "inputs": [],
      "name": "harvest",
      "outputs": [],
      "stateMutability": "nonpayable",
      "type": "function"
    },
    {
      "inputs": [],
      "name": "getReward",
      "outputs": [],
      "stateMutability": "nonpayable",
      "type": "function"
    },
    {
      "inputs": [
        {
          "internalType": "address",
          "name": "",
          "type": "address"
        },
        {
          "internalType": "address",
          "name": "",
          "type": "address"
        }
      ],
      "name": "harvested",
      "outputs": [
        {
          "internalType": "uint256",
          "name": "",
          "type": "uint256"
        }
      ],
      "stateMutability": "view",
      "type": "function"
    },
    {
      "inputs": [],
      "name": "lastTimeRewardApplicable",
      "outputs": [
        {
          "internalType": "uint256",
          "name": "",
          "type": "uint256"
        }
      ],
      "stateMutability": "view",
      "type": "function"
    },
    {
      "inputs": [],
      "name": "lastUpdateTime",
      "outputs": [
        {
          "internalType": "uint256",
          "name": "",
          "type": "uint256"
        }
      ],
      "stateMutability": "view",
      "type": "function"
    },
    {
      "inputs": [],
      "name": "liqPoolManager",
      "outputs": [
        {
          "internalType": "address",
          "name": "",
          "type": "address"
        }
      ],
      "stateMutability": "view",
      "type": "function"
    },
    {
      "inputs": [],
      "name": "lpPerShare",
      "outputs": [
        {
          "internalType": "uint256",
          "name": "",
          "type": "uint256"
        }
      ],
      "stateMutability": "view",
      "type": "function"
    },
    {
      "inputs": [
        {
          "internalType": "address[]",
          "name": "contracts",
          "type": "address[]"
        },
        {
          "internalType": "bool[]",
          "name": "statuses",
          "type": "bool[]"
        }
      ],
      "name": "modifyApprovedContracts",
      "outputs": [],
      "stateMutability": "nonpayable",
      "type": "function"
    },
    {
      "inputs": [
        {
          "internalType": "uint256",
          "name": "reward",
          "type": "uint256"
        }
      ],
      "name": "notifyRewardAmount",
      "outputs": [],
      "stateMutability": "nonpayable",
      "type": "function"
    },
    {
      "inputs": [],
      "name": "onlyApprovedContractOrEOAStatus",
      "outputs": [
        {
          "internalType": "bool",
          "name": "",
          "type": "bool"
        }
      ],
      "stateMutability": "view",
      "type": "function"
    },
    {
      "inputs": [],
      "name": "owner",
      "outputs": [
        {
          "internalType": "address",
          "name": "",
          "type": "address"
        }
      ],
      "stateMutability": "view",
      "type": "function"
    },
    {
      "inputs": [],
      "name": "pangolinMiniChef",
      "outputs": [
        {
          "internalType": "contract IPangolinMiniChef",
          "name": "",
          "type": "address"
        }
      ],
      "stateMutability": "view",
      "type": "function"
    },
    {
      "inputs": [],
      "name": "pangolinPid",
      "outputs": [
        {
          "internalType": "uint256",
          "name": "",
          "type": "uint256"
        }
      ],
      "stateMutability": "view",
      "type": "function"
    },
    {
      "inputs": [
        {
          "internalType": "address",
          "name": "user",
          "type": "address"
        }
      ],
      "name": "pendingRewardPng",
      "outputs": [
        {
          "internalType": "uint256",
          "name": "",
          "type": "uint256"
        }
      ],
      "stateMutability": "view",
      "type": "function"
    },
    {
      "inputs": [
        {
          "internalType": "address",
          "name": "user",
          "type": "address"
        }
      ],
      "name": "pendingRewards",
      "outputs": [
        {
          "internalType": "uint256",
          "name": "",
          "type": "uint256"
        },
        {
          "internalType": "uint256",
          "name": "",
          "type": "uint256"
        }
      ],
      "stateMutability": "view",
      "type": "function"
    },
    {
      "inputs": [],
      "name": "performanceFeeAddress",
      "outputs": [
        {
          "internalType": "address",
          "name": "",
          "type": "address"
        }
      ],
      "stateMutability": "view",
      "type": "function"
    },
    {
      "inputs": [],
      "name": "performanceFeeBips",
      "outputs": [
        {
          "internalType": "uint256",
          "name": "",
          "type": "uint256"
        }
      ],
      "stateMutability": "view",
      "type": "function"
    },
    {
      "inputs": [],
      "name": "periodFinish",
      "outputs": [
        {
          "internalType": "uint256",
          "name": "",
          "type": "uint256"
        }
      ],
      "stateMutability": "view",
      "type": "function"
    },
    {
      "inputs": [
        {
          "internalType": "address",
          "name": "tokenAddress",
          "type": "address"
        },
        {
          "internalType": "uint256",
          "name": "tokenAmount",
          "type": "uint256"
        }
      ],
      "name": "recoverERC20",
      "outputs": [],
      "stateMutability": "nonpayable",
      "type": "function"
    },
    {
      "inputs": [],
      "name": "renounceOwnership",
      "outputs": [],
      "stateMutability": "nonpayable",
      "type": "function"
    },
    {
      "inputs": [
        {
          "internalType": "address",
          "name": "",
          "type": "address"
        },
        {
          "internalType": "address",
          "name": "",
          "type": "address"
        }
      ],
      "name": "rewardDebt",
      "outputs": [
        {
          "internalType": "uint256",
          "name": "",
          "type": "uint256"
        }
      ],
      "stateMutability": "view",
      "type": "function"
    },
    {
      "inputs": [],
      "name": "rewardPerToken",
      "outputs": [
        {
          "internalType": "uint256",
          "name": "",
          "type": "uint256"
        }
      ],
      "stateMutability": "view",
      "type": "function"
    },
    {
      "inputs": [],
      "name": "rewardPerTokenStored",
      "outputs": [
        {
          "internalType": "uint256",
          "name": "",
          "type": "uint256"
        }
      ],
      "stateMutability": "view",
      "type": "function"
    },
    {
      "inputs": [],
      "name": "rewardRate",
      "outputs": [
        {
          "internalType": "uint256",
          "name": "",
          "type": "uint256"
        }
      ],
      "stateMutability": "view",
      "type": "function"
    },
    {
      "inputs": [],
      "name": "rewardTokenPNG",
      "outputs": [
        {
          "internalType": "address",
          "name": "",
          "type": "address"
        }
      ],
      "stateMutability": "view",
      "type": "function"
    },
    {
      "inputs": [
        {
          "internalType": "address",
          "name": "",
          "type": "address"
        }
      ],
      "name": "rewardTokensPerShare",
      "outputs": [
        {
          "internalType": "uint256",
          "name": "",
          "type": "uint256"
        }
      ],
      "stateMutability": "view",
      "type": "function"
    },
    {
      "inputs": [
        {
          "internalType": "address",
          "name": "",
          "type": "address"
        }
      ],
      "name": "rewards",
      "outputs": [
        {
          "internalType": "uint256",
          "name": "",
          "type": "uint256"
        }
      ],
      "stateMutability": "view",
      "type": "function"
    },
    {
      "inputs": [],
      "name": "rewardsDuration",
      "outputs": [
        {
          "internalType": "uint256",
          "name": "",
          "type": "uint256"
        }
      ],
      "stateMutability": "view",
      "type": "function"
    },
    {
      "inputs": [],
      "name": "rewardsToken",
      "outputs": [
        {
          "internalType": "contract IERC20",
          "name": "",
          "type": "address"
        }
      ],
      "stateMutability": "view",
      "type": "function"
    },
    {
      "inputs": [
        {
          "internalType": "address",
          "name": "_liqPoolManager",
          "type": "address"
        }
      ],
      "name": "setLiqPoolManager",
      "outputs": [],
      "stateMutability": "nonpayable",
      "type": "function"
    },
    {
      "inputs": [
        {
          "internalType": "bool",
          "name": "newStatus",
          "type": "bool"
        }
      ],
      "name": "setOnlyApprovedContractOrEOAStatus",
      "outputs": [],
      "stateMutability": "nonpayable",
      "type": "function"
    },
    {
      "inputs": [
        {
          "internalType": "address",
          "name": "_performanceFeeAddress",
          "type": "address"
        }
      ],
      "name": "setPerfomanceFeeAddress",
      "outputs": [],
      "stateMutability": "nonpayable",
      "type": "function"
    },
    {
      "inputs": [
        {
          "internalType": "uint256",
          "name": "newPerformanceFeeBips",
          "type": "uint256"
        }
      ],
      "name": "setPerformanceFeeBips",
      "outputs": [],
      "stateMutability": "nonpayable",
      "type": "function"
    },
    {
      "inputs": [
        {
          "internalType": "uint256",
          "name": "_rewardsDuration",
          "type": "uint256"
        }
      ],
      "name": "setRewardsDuration",
      "outputs": [],
      "stateMutability": "nonpayable",
      "type": "function"
    },
    {
      "inputs": [
        {
          "internalType": "uint256",
          "name": "amount",
          "type": "uint256"
        }
      ],
      "name": "stake",
      "outputs": [],
      "stateMutability": "nonpayable",
      "type": "function"
    },
    {
      "inputs": [],
      "name": "stakingToken",
      "outputs": [
        {
          "internalType": "contract IERC20",
          "name": "",
          "type": "address"
        }
      ],
      "stateMutability": "view",
      "type": "function"
    },
    {
      "inputs": [
        {
          "internalType": "address",
          "name": "",
          "type": "address"
        }
      ],
      "name": "totalHarvested",
      "outputs": [
        {
          "internalType": "uint256",
          "name": "",
          "type": "uint256"
        }
      ],
      "stateMutability": "view",
      "type": "function"
    },
    {
      "inputs": [],
      "name": "totalShares",
      "outputs": [
        {
          "internalType": "uint256",
          "name": "",
          "type": "uint256"
        }
      ],
      "stateMutability": "view",
      "type": "function"
    },
    {
      "inputs": [],
      "name": "totalSupply",
      "outputs": [
        {
          "internalType": "uint256",
          "name": "",
          "type": "uint256"
        }
      ],
      "stateMutability": "view",
      "type": "function"
    },
    {
      "inputs": [
        {
          "internalType": "address",
          "name": "newOwner",
          "type": "address"
        }
      ],
      "name": "transferOwnership",
      "outputs": [],
      "stateMutability": "nonpayable",
      "type": "function"
    },
    {
      "inputs": [
        {
          "internalType": "address",
          "name": "",
          "type": "address"
        }
      ],
      "name": "userAmount",
      "outputs": [
        {
          "internalType": "uint256",
          "name": "",
          "type": "uint256"
        }
      ],
      "stateMutability": "view",
      "type": "function"
    },
    {
      "inputs": [
        {
          "internalType": "address",
          "name": "",
          "type": "address"
        }
      ],
      "name": "userRewardDebt",
      "outputs": [
        {
          "internalType": "uint256",
          "name": "",
          "type": "uint256"
        }
      ],
      "stateMutability": "view",
      "type": "function"
    },
    {
      "inputs": [
        {
          "internalType": "address",
          "name": "",
          "type": "address"
        }
      ],
      "name": "userRewardPerTokenPaid",
      "outputs": [
        {
          "internalType": "uint256",
          "name": "",
          "type": "uint256"
        }
      ],
      "stateMutability": "view",
      "type": "function"
    },
    {
      "inputs": [
        {
          "internalType": "uint256",
          "name": "amountShares",
          "type": "uint256"
        }
      ],
      "name": "withdraw",
      "outputs": [],
      "stateMutability": "nonpayable",
      "type": "function"
    },
    {
      "inputs": [
        {
          "internalType": "uint256",
          "name": "",
          "type": "uint256"
        },
        {
          "internalType": "address",
          "name": "",
          "type": "address"
        }
      ],
      "name": "withdrawals",
      "outputs": [
        {
          "internalType": "uint256",
          "name": "",
          "type": "uint256"
        }
      ],
      "stateMutability": "view",
      "type": "function"
    }
  ],
  "bytecode": "0x60806040526000600455600060055562069780600655670de0b6b3a7640000600d556103e8600f553480156200003457600080fd5b5060405162002b4d38038062002b4d83398101604081905262000057916200016c565b6200006233620000ff565b600e93909355600280546001600160a01b039384166001600160a01b03199182161790915560038054928416928216929092179091556009805493909216928116929092179055600b805482167360781c2586d68229fde47564546784ab3faca982179055600a805490911673c17634466ec32f66ebbffd0e927d492406377b5f1790556000805460ff60a01b1916600160a01b179055620001c0565b600080546001600160a01b038381166001600160a01b0319831681178455604051919092169283917f8be0079c531659141344cd1fd0a4f28419497f9722a3daafe3b4186f6b6457e09190a35050565b80516001600160a01b03811681146200016757600080fd5b919050565b600080600080608085870312156200018357600080fd5b8451935062000195602086016200014f565b9250620001a5604086016200014f565b9150620001b5606086016200014f565b905092959194509250565b61297d80620001d06000396000f3fe608060405234801561001057600080fd5b50600436106103355760003560e01c80637b4717a4116101b2578063c9101036116100f9578063dfd0c09d116100a2578063ebe2b12b1161007c578063ebe2b12b14610726578063f2fde38b1461072f578063f922412d14610742578063fc7e286d1461074b57600080fd5b8063dfd0c09d146106ea578063e1ad418e146106f3578063ea3cffd21461071357600080fd5b8063cd3daf9d116100d3578063cd3daf9d146106c6578063d1af0c7d146106ce578063df136d65146106e157600080fd5b8063c910103614610685578063c97d02f014610698578063cc1a378f146106b357600080fd5b80639c4ea8691161015b578063b80a51f911610135578063b80a51f914610649578063c4b24a4614610674578063c8f33c911461067c57600080fd5b80639c4ea86914610603578063a694fc3a14610623578063a9fdc9811461063657600080fd5b80638980f11f1161018c5780638980f11f146105bf5780638b876347146105d25780638da5cb5b146105f257600080fd5b80637b4717a41461057957806380faa57d146105a45780638471692a146105ac57600080fd5b80633c6b16ab116102815780636119e5911161022a578063715018a611610204578063715018a61461054257806372bca28c1461054a57806372f702f31461055d5780637b0a47ee1461057057600080fd5b80636119e591146104e5578063691c6d83146104ee57806370a082311461051957600080fd5b80634641257d1161025b5780634641257d146104a95780634bf6f9e7146104b1578063560889b5146104d157600080fd5b80633c6b16ab146104705780633da5fdf4146104835780634428b8dd1461049657600080fd5b806326749ad7116102e3578063386a9525116102bd578063386a95251461044b5780633a98ef39146104545780633c3315371461045d57600080fd5b806326749ad7146103db5780632e1a7d4d1461040e57806331d7a2621461042357600080fd5b80631c1f78eb116103145780631c1f78eb14610388578063201e417c146103905780632232c6da146103b057600080fd5b80628cc2621461033a5780630700037d1461036057806318160ddd14610380575b600080fd5b61034d610348366004612648565b61076b565b6040519081526020015b60405180910390f35b61034d61036e366004612648565b60196020526000908152604090205481565b601a5461034d565b61034d6107e9565b61034d61039e366004612648565b60136020526000908152604090205481565b600b546103c3906001600160a01b031681565b6040516001600160a01b039091168152602001610357565b6103fe6103e9366004612648565b60016020526000908152604090205460ff1681565b6040519015158152602001610357565b61042161041c366004612663565b610807565b005b610436610431366004612648565b610b95565b60408051928352602083019190915201610357565b61034d60065481565b61034d600c5481565b61042161046b366004612648565b610bb3565b61042161047e366004612663565b610c4f565b610421610491366004612648565b610ed4565b6104216104a436600461268a565b610ffa565b61042161108d565b61034d6104bf366004612648565b60116020526000908152604090205481565b6000546103fe90600160a01b900460ff1681565b61034d600e5481565b61034d6104fc3660046126a7565b601560209081526000928352604080842090915290825290205481565b61034d610527366004612648565b6001600160a01b03166000908152601b602052604090205490565b610421611196565b61042161055836600461271f565b6111fc565b6003546103c3906001600160a01b031681565b61034d60055481565b61034d61058736600461278b565b601460209081526000928352604080842090915290825290205481565b61034d611343565b600a546103c3906001600160a01b031681565b6104216105cd3660046127b5565b611351565b61034d6105e0366004612648565b60186020526000908152604090205481565b6000546001600160a01b03166103c3565b61034d610611366004612648565b60176020526000908152604090205481565b610421610631366004612663565b61149b565b61034d610644366004612648565b6117ff565b61034d61065736600461278b565b601660209081526000928352604080842090915290825290205481565b61034d611908565b61034d60075481565b610421610693366004612663565b6119b4565b6103c3731f806f7c8ded893fd3cae279191ad7aa3798e92881565b6104216106c1366004612663565b611a13565b61034d611b45565b6002546103c3906001600160a01b031681565b61034d60085481565b61034d600f5481565b61034d610701366004612648565b60106020526000908152604090205481565b6009546103c3906001600160a01b031681565b61034d60045481565b61042161073d366004612648565b611b91565b61034d600d5481565b61034d610759366004612648565b60126020526000908152604090205481565b6001600160a01b03811660009081526019602090815260408083205460189092528220546107e391906107dd90670de0b6b3a7640000906107d7906107b8906107b2611b45565b90611c70565b6001600160a01b0388166000908152601b602052604090205490611c83565b90611c8f565b90611c9b565b92915050565b6000610802600654600554611c8390919063ffffffff16565b905090565b600054600160a01b900460ff161561089f573233148061083657503360009081526001602052604090205460ff165b61089f5760405162461bcd60e51b815260206004820152602f60248201527f5374616b696e67446f75626c65526577617264733a3a6f6e6c79417070726f7660448201526e6564436f6e74726163744f72454f4160881b60648201526084015b60405180910390fd5b336108a8611b45565b6008556108b3611343565b6007556001600160a01b038116156108fa576108ce8161076b565b6001600160a01b0382166000908152601960209081526040808320939093556008546018909152919020555b336000908152601060205260409020548211156109595760405162461bcd60e51b815260206004820152601260248201527f77697468647261773a206e6f7420676f6f6400000000000000000000000000006044820152606401610896565b8115610b91576000670de0b6b3a7640000600d548461097891906127f5565b6109829190612814565b600e5460009081526015602090815260408083203384529091528120805492935083929091906109b3908490612836565b909155506109c19050611ca7565b6109c9611ddc565b6109d1611f6b565b8015610a6757600e546040517f0ad58d2f000000000000000000000000000000000000000000000000000000008152600481019190915260248101829052336044820152731f806f7c8ded893fd3cae279191ad7aa3798e92890630ad58d2f90606401600060405180830381600087803b158015610a4e57600080fd5b505af1158015610a62573d6000803e3d6000fd5b505050505b8215610a8557600b54610a859033906001600160a01b031685611fe2565b601a54610a929084611c70565b601a55336000908152601b6020526040902054610aaf9084611c70565b336000908152601b6020908152604080832093909355601090522054610ad690849061284e565b33600090815260106020526040812091909155600854670de0b6b3a764000090610b0090866127f5565b610b0a9190612814565b3360009081526011602052604090205490915081811015610b2c576000610b36565b610b36828261284e565b33600090815260116020526040902055600c54610b5490869061284e565b600c5560405185815233907f7084f5476618d8e60b11ef0d7d3f06914655adb8793e28ff7f018d4c76d505d5906020015b60405180910390a25050505b5050565b600080610ba18361076b565b610baa846117ff565b91509150915091565b6000546001600160a01b03163314610c0d5760405162461bcd60e51b815260206004820181905260248201527f4f776e61626c653a2063616c6c6572206973206e6f7420746865206f776e65726044820152606401610896565b6001600160a01b038116610c2057600080fd5b600a805473ffffffffffffffffffffffffffffffffffffffff19166001600160a01b0392909216919091179055565b6000610c59611b45565b600855610c64611343565b6007556001600160a01b03811615610cab57610c7f8161076b565b6001600160a01b0382166000908152601960209081526040808320939093556008546018909152919020555b6000546001600160a01b0316331480610cce57506009546001600160a01b031633145b610d405760405162461bcd60e51b815260206004820152602760248201527f4c6971706f6c6c204d616e61676572206f72204f776e65722063616e2063616c60448201527f6c20746869732e000000000000000000000000000000000000000000000000006064820152608401610896565b6004544210610d5f57600654610d57908390611c8f565b600555610da2565b600454600090610d6f9042611c70565b90506000610d8860055483611c8390919063ffffffff16565b600654909150610d9c906107d78684611c9b565b60055550505b6002546040516370a0823160e01b81523060048201526000916001600160a01b0316906370a082319060240160206040518083038186803b158015610de657600080fd5b505afa158015610dfa573d6000803e3d6000fd5b505050506040513d601f19601f82011682018060405250810190610e1e9190612865565b9050610e3560065482611c8f90919063ffffffff16565b6005541115610e865760405162461bcd60e51b815260206004820152601860248201527f50726f76696465642072657761726420746f6f206869676800000000000000006044820152606401610896565b426007819055600654610e999190611c9b565b6004556040518381527fde88a922e0d3b88b24e9623efeb464919c6bf9f66857a65e2bfcf2ce87a9433d9060200160405180910390a1505050565b6000546001600160a01b03163314610f2e5760405162461bcd60e51b815260206004820181905260248201527f4f776e61626c653a2063616c6c6572206973206e6f7420746865206f776e65726044820152606401610896565b6004544211610fcb5760405162461bcd60e51b815260206004820152605e60248201527f50726576696f7573207265776172647320706572696f64206d7573742062652060448201527f636f6d706c657465206265666f7265206368616e67696e6720746865206c697160648201527f506f6f6c4d616e6167657220666f7220746865206e657720706572696f640000608482015260a401610896565b6009805473ffffffffffffffffffffffffffffffffffffffff19166001600160a01b0392909216919091179055565b6000546001600160a01b031633146110545760405162461bcd60e51b815260206004820181905260248201527f4f776e61626c653a2063616c6c6572206973206e6f7420746865206f776e65726044820152606401610896565b60008054911515600160a01b027fffffffffffffffffffffff00ffffffffffffffffffffffffffffffffffffffff909216919091179055565b600054600160a01b900460ff161561112057323314806110bc57503360009081526001602052604090205460ff165b6111205760405162461bcd60e51b815260206004820152602f60248201527f5374616b696e67446f75626c65526577617264733a3a6f6e6c79417070726f7660448201526e6564436f6e74726163744f72454f4160881b6064820152608401610896565b33611129611b45565b600855611134611343565b6007556001600160a01b0381161561117b5761114f8161076b565b6001600160a01b0382166000908152601960209081526040808320939093556008546018909152919020555b611183611ca7565b61118b611ddc565b611193611f6b565b50565b6000546001600160a01b031633146111f05760405162461bcd60e51b815260206004820181905260248201527f4f776e61626c653a2063616c6c6572206973206e6f7420746865206f776e65726044820152606401610896565b6111fa600061205b565b565b6000546001600160a01b031633146112565760405162461bcd60e51b815260206004820181905260248201527f4f776e61626c653a2063616c6c6572206973206e6f7420746865206f776e65726044820152606401610896565b8281146112a55760405162461bcd60e51b815260206004820152601560248201527f696e707574206c656e677468206d69736d6174636800000000000000000000006044820152606401610896565b60005b8381101561133c578282828181106112c2576112c261287e565b90506020020160208101906112d7919061268a565b600160008787858181106112ed576112ed61287e565b90506020020160208101906113029190612648565b6001600160a01b031681526020810191909152604001600020805460ff19169115159190911790558061133481612894565b9150506112a8565b5050505050565b6000610802426004546120b8565b6000546001600160a01b031633146113ab5760405162461bcd60e51b815260206004820181905260248201527f4f776e61626c653a2063616c6c6572206973206e6f7420746865206f776e65726044820152606401610896565b6003546001600160a01b038381169116141561142f5760405162461bcd60e51b815260206004820152602160248201527f43616e6e6f7420776974686472617720746865207374616b696e6720746f6b6560448201527f6e000000000000000000000000000000000000000000000000000000000000006064820152608401610896565b6114556114446000546001600160a01b031690565b6001600160a01b03841690836120ce565b604080516001600160a01b0384168152602081018390527f8c1256b8896378cd5044f80c202f9772b9d77dc85c8a6eb51967210b09bfaa28910160405180910390a15050565b600054600160a01b900460ff161561152e57323314806114ca57503360009081526001602052604090205460ff165b61152e5760405162461bcd60e51b815260206004820152602f60248201527f5374616b696e67446f75626c65526577617264733a3a6f6e6c79417070726f7660448201526e6564436f6e74726163744f72454f4160881b6064820152608401610896565b33611537611b45565b600855611542611343565b6007556001600160a01b038116156115895761155d8161076b565b6001600160a01b0382166000908152601960209081526040808320939093556008546018909152919020555b600082116115d95760405162461bcd60e51b815260206004820152600e60248201527f43616e6e6f74207374616b6520300000000000000000000000000000000000006044820152606401610896565b600d546000906115f1670de0b6b3a7640000856127f5565b6115fb9190612814565b600354909150611616906001600160a01b031633308661217c565b61161e611ca7565b611626611ddc565b61162e611f6b565b82156116c457600e546040517f8dbdbe6d000000000000000000000000000000000000000000000000000000008152600481019190915260248101849052306044820152731f806f7c8ded893fd3cae279191ad7aa3798e92890638dbdbe6d90606401600060405180830381600087803b1580156116ab57600080fd5b505af11580156116bf573d6000803e3d6000fd5b505050505b80156116e257600b546116e29033906001600160a01b0316836121cd565b601a546116ef9084611c9b565b601a55336000908152601b602052604090205461170c9084611c9b565b336000908152601b6020526040902055600c5461172a908290612836565b600c5533600090815260106020526040902054611748908290612836565b33600090815260106020526040902055600854670de0b6b3a76400009061176f90836127f5565b6117799190612814565b336000908152601160205260409020546117939190612836565b336000908152601160209081526040808320939093556012905290812080548592906117c0908490612836565b909155505060405183815233907f9e71bc8eea02a63969f509818f2dafb9254532904319f9dbda79b67bd34a5f3d9060200160405180910390a2505050565b6001600160a01b03808216600090815260106020526040812054600b5491929091168261182a611908565b6001600160a01b038087166000908152601460209081526040808320938716835292815282822054601390915291902054600c5492935090911561189457600c5461187d670de0b6b3a7640000856127f5565b6118879190612814565b6118919082612836565b90505b6000670de0b6b3a76400006118a983886127f5565b6118b39190612814565b905060008382116118c55760006118cf565b6118cf848361284e565b90506000612710600f546127106118e6919061284e565b6118f090846127f5565b6118fa9190612814565b9a9950505050505050505050565b600e546040517f98969e8200000000000000000000000000000000000000000000000000000000815260048101919091523060248201526000908190731f806f7c8ded893fd3cae279191ad7aa3798e928906398969e82906044015b60206040518083038186803b15801561197c57600080fd5b505afa158015611990573d6000803e3d6000fd5b505050506040513d601f19601f820116820180604052508101906107e39190612865565b6000546001600160a01b03163314611a0e5760405162461bcd60e51b815260206004820181905260248201527f4f776e61626c653a2063616c6c6572206973206e6f7420746865206f776e65726044820152606401610896565b600f55565b6000546001600160a01b03163314611a6d5760405162461bcd60e51b815260206004820181905260248201527f4f776e61626c653a2063616c6c6572206973206e6f7420746865206f776e65726044820152606401610896565b6004544211611b0a5760405162461bcd60e51b815260206004820152605860248201527f50726576696f7573207265776172647320706572696f64206d7573742062652060448201527f636f6d706c657465206265666f7265206368616e67696e67207468652064757260648201527f6174696f6e20666f7220746865206e657720706572696f640000000000000000608482015260a401610896565b60068190556040518181527ffb46ca5a5e06d4540d6387b930a7c978bce0db5f449ec6b3f5d07c6e1d44f2d39060200160405180910390a150565b6000601a5460001415611b59575060085490565b610802611b88601a546107d7670de0b6b3a7640000611b82600554611b826007546107b2611343565b90611c83565b60085490611c9b565b6000546001600160a01b03163314611beb5760405162461bcd60e51b815260206004820181905260248201527f4f776e61626c653a2063616c6c6572206973206e6f7420746865206f776e65726044820152606401610896565b6001600160a01b038116611c675760405162461bcd60e51b815260206004820152602660248201527f4f776e61626c653a206e6577206f776e657220697320746865207a65726f206160448201527f64647265737300000000000000000000000000000000000000000000000000006064820152608401610896565b6111938161205b565b6000611c7c828461284e565b9392505050565b6000611c7c82846127f5565b6000611c7c8284612814565b6000611c7c8284612836565b600080611cb2611908565b91508115611cbe575060015b808015611ccd57506000600c54115b15610b9157600b54600090611cea906001600160a01b031661223c565b600e546040517f18fccc760000000000000000000000000000000000000000000000000000000081526004810191909152306024820152909150731f806f7c8ded893fd3cae279191ad7aa3798e928906318fccc7690604401600060405180830381600087803b158015611d5d57600080fd5b505af1158015611d71573d6000803e3d6000fd5b5050600b5460009250839150611d8f906001600160a01b031661223c565b611d99919061284e565b90508015611dd657600b54600c54611dd6916001600160a01b031690611dc7670de0b6b3a7640000856127f5565b611dd19190612814565b61226b565b50505050565b33600090815260106020908152604080832054600b546001600160a01b0316808552601390935290832054909290670de0b6b3a764000090611e1e90856127f5565b611e289190612814565b3360009081526014602090815260408083206001600160a01b0387168452909152812054919250818311611e5d576000611e67565b611e67828461284e565b9050611e7433858761229c565b801561133c576001600160a01b03841660009081526017602052604081208054839290611ea2908490612836565b9091555050600f5415611ef5576000612710600f5483611ec291906127f5565b611ecc9190612814565b600a54909150611ee79086906001600160a01b031683612305565b611ef1818361284e565b9150505b3360009081526016602090815260408083206001600160a01b038816845290915281208054839290611f28908490612836565b90915550611f399050843383612305565b60405181815233907fc9695243a805adb74c91f28311176c65b417e842d5699893cef56d18bfa48cba90602001610b85565b3360009081526019602052604090205480156111935733600081815260196020526040812055600254611faa916001600160a01b0390911690836120ce565b60405181815233907fe2403640ba68fed3a2f88b7557551d1993f84b99bb10ff833f0cf8db0c5e04869060200160405180910390a250565b6001600160a01b038216600090815260136020526040902054670de0b6b3a7640000906120109083906127f5565b61201a9190612814565b6001600160a01b0380851660009081526014602090815260408083209387168352929052908120805490919061205190849061284e565b9091555050505050565b600080546001600160a01b0383811673ffffffffffffffffffffffffffffffffffffffff19831681178455604051919092169283917f8be0079c531659141344cd1fd0a4f28419497f9722a3daafe3b4186f6b6457e09190a35050565b60008183106120c75781611c7c565b5090919050565b6040516001600160a01b0383166024820152604481018290526121779084907fa9059cbb00000000000000000000000000000000000000000000000000000000906064015b60408051601f198184030181529190526020810180517bffffffffffffffffffffffffffffffffffffffffffffffffffffffff167fffffffff00000000000000000000000000000000000000000000000000000000909316929092179091526123b8565b505050565b6040516001600160a01b0380851660248301528316604482015260648101829052611dd69085907f23b872dd0000000000000000000000000000000000000000000000000000000090608401612113565b6001600160a01b038216600090815260136020526040902054670de0b6b3a7640000906121fb9083906127f5565b6122059190612814565b6001600160a01b03808516600090815260146020908152604080832093871683529290529081208054909190612051908490612836565b6040516370a0823160e01b81523060048201526000906001600160a01b038316906370a0823190602401611964565b6001600160a01b03821660009081526013602052604081208054839290612293908490612836565b90915550505050565b6001600160a01b038216600090815260136020526040902054670de0b6b3a7640000906122ca9083906127f5565b6122d49190612814565b6001600160a01b03938416600090815260146020908152604080832095909616825293909352929091209190915550565b6040516370a0823160e01b815230600482015283906000906001600160a01b038316906370a082319060240160206040518083038186803b15801561234957600080fd5b505afa15801561235d573d6000803e3d6000fd5b505050506040513d601f19601f820116820180604052508101906123819190612865565b9050808311156123a45761239f6001600160a01b03831685836120ce565b61133c565b61133c6001600160a01b03831685856120ce565b600061240d826040518060400160405280602081526020017f5361666545524332303a206c6f772d6c6576656c2063616c6c206661696c6564815250856001600160a01b031661249d9092919063ffffffff16565b805190915015612177578080602001905181019061242b91906128af565b6121775760405162461bcd60e51b815260206004820152602a60248201527f5361666545524332303a204552433230206f7065726174696f6e20646964206e60448201527f6f742073756363656564000000000000000000000000000000000000000000006064820152608401610896565b60606124ac84846000856124b4565b949350505050565b60608247101561252c5760405162461bcd60e51b815260206004820152602660248201527f416464726573733a20696e73756666696369656e742062616c616e636520666f60448201527f722063616c6c00000000000000000000000000000000000000000000000000006064820152608401610896565b843b61257a5760405162461bcd60e51b815260206004820152601d60248201527f416464726573733a2063616c6c20746f206e6f6e2d636f6e74726163740000006044820152606401610896565b600080866001600160a01b0316858760405161259691906128f8565b60006040518083038185875af1925050503d80600081146125d3576040519150601f19603f3d011682016040523d82523d6000602084013e6125d8565b606091505b50915091506125e88282866125f3565b979650505050505050565b60608315612602575081611c7c565b8251156126125782518084602001fd5b8160405162461bcd60e51b81526004016108969190612914565b80356001600160a01b038116811461264357600080fd5b919050565b60006020828403121561265a57600080fd5b611c7c8261262c565b60006020828403121561267557600080fd5b5035919050565b801515811461119357600080fd5b60006020828403121561269c57600080fd5b8135611c7c8161267c565b600080604083850312156126ba57600080fd5b823591506126ca6020840161262c565b90509250929050565b60008083601f8401126126e557600080fd5b50813567ffffffffffffffff8111156126fd57600080fd5b6020830191508360208260051b850101111561271857600080fd5b9250929050565b6000806000806040858703121561273557600080fd5b843567ffffffffffffffff8082111561274d57600080fd5b612759888389016126d3565b9096509450602087013591508082111561277257600080fd5b5061277f878288016126d3565b95989497509550505050565b6000806040838503121561279e57600080fd5b6127a78361262c565b91506126ca6020840161262c565b600080604083850312156127c857600080fd5b6127d18361262c565b946020939093013593505050565b634e487b7160e01b600052601160045260246000fd5b600081600019048311821515161561280f5761280f6127df565b500290565b60008261283157634e487b7160e01b600052601260045260246000fd5b500490565b60008219821115612849576128496127df565b500190565b600082821015612860576128606127df565b500390565b60006020828403121561287757600080fd5b5051919050565b634e487b7160e01b600052603260045260246000fd5b60006000198214156128a8576128a86127df565b5060010190565b6000602082840312156128c157600080fd5b8151611c7c8161267c565b60005b838110156128e75781810151838201526020016128cf565b83811115611dd65750506000910152565b6000825161290a8184602087016128cc565b9190910192915050565b60208152600082518060208401526129338160408501602087016128cc565b601f01601f1916919091016040019291505056fea26469706673582212200d6cbb9e9ca8deaa95925b2fd5c8f3ea6c9a9b126d1ab2a2dd5e3afe477071d264736f6c63430008090033",
  "linkReferences": {},
  "deployedLinkReferences": {}
}