{
  "_format": "hh-sol-artifact-1",
  "contractName": "LiquidityPoolManagerV2",
  "sourceName": "contracts/LiquidityPoolManagerV2.sol",
  "abi": [
    {
      "inputs": [
        {
          "internalType": "address",
          "name": "cnr_",
          "type": "address"
        },
        {
          "internalType": "address",
          "name": "treasuryVester_",
          "type": "address"
        },
        {
          "internalType": "address",
          "name": "cnrfactory_",
          "type": "address"
        },
        {
          "internalType": "address",
          "name": "charger_",
          "type": "address"
        }
      ],
      "stateMutability": "nonpayable",
      "type": "constructor"
    },
    {
      "anonymous": false,
      "inputs": [
        {
          "indexed": true,
          "internalType": "address",
          "name": "previousOwner",
          "type": "address"
        },
        {
          "indexed": true,
          "internalType": "address",
          "name": "newOwner",
          "type": "address"
        }
      ],
      "name": "OwnershipTransferred",
      "type": "event"
    },
    {
      "inputs": [
        {
          "internalType": "address",
          "name": "tokenA",
          "type": "address"
        },
        {
          "internalType": "address",
          "name": "tokenB",
          "type": "address"
        },
        {
          "internalType": "address",
          "name": "stakeContract",
          "type": "address"
        },
        {
          "internalType": "uint256",
          "name": "_rewardAmount",
          "type": "uint256"
        }
      ],
      "name": "addWhitelistedPool",
      "outputs": [],
      "stateMutability": "nonpayable",
      "type": "function"
    },
    {
      "inputs": [
        {
          "internalType": "address",
          "name": "token",
          "type": "address"
        },
        {
          "internalType": "address",
          "name": "stakeContract",
          "type": "address"
        },
        {
          "internalType": "uint256",
          "name": "_rewardAmount",
          "type": "uint256"
        }
      ],
      "name": "addWhitelistedStakePool",
      "outputs": [],
      "stateMutability": "nonpayable",
      "type": "function"
    },
    {
      "inputs": [],
      "name": "canaryFactory",
      "outputs": [
        {
          "internalType": "address",
          "name": "",
          "type": "address"
        }
      ],
      "stateMutability": "view",
      "type": "function"
    },
    {
      "inputs": [],
      "name": "charger",
      "outputs": [
        {
          "internalType": "address",
          "name": "",
          "type": "address"
        }
      ],
      "stateMutability": "view",
      "type": "function"
    },
    {
      "inputs": [],
      "name": "cnr",
      "outputs": [
        {
          "internalType": "address",
          "name": "",
          "type": "address"
        }
      ],
      "stateMutability": "view",
      "type": "function"
    },
    {
      "inputs": [],
      "name": "distributeTokens",
      "outputs": [],
      "stateMutability": "nonpayable",
      "type": "function"
    },
    {
      "inputs": [
        {
          "internalType": "uint256",
          "name": "pairIndex",
          "type": "uint256"
        }
      ],
      "name": "distributeTokensSinglePool",
      "outputs": [],
      "stateMutability": "nonpayable",
      "type": "function"
    },
    {
      "inputs": [
        {
          "internalType": "uint256",
          "name": "index",
          "type": "uint256"
        }
      ],
      "name": "getPool",
      "outputs": [
        {
          "internalType": "address",
          "name": "",
          "type": "address"
        }
      ],
      "stateMutability": "view",
      "type": "function"
    },
    {
      "inputs": [
        {
          "internalType": "address",
          "name": "stakeContract",
          "type": "address"
        }
      ],
      "name": "isWhitelisted",
      "outputs": [
        {
          "internalType": "bool",
          "name": "",
          "type": "bool"
        }
      ],
      "stateMutability": "view",
      "type": "function"
    },
    {
      "inputs": [],
      "name": "numPools",
      "outputs": [
        {
          "internalType": "uint256",
          "name": "",
          "type": "uint256"
        }
      ],
      "stateMutability": "view",
      "type": "function"
    },
    {
      "inputs": [],
      "name": "owner",
      "outputs": [
        {
          "internalType": "address",
          "name": "",
          "type": "address"
        }
      ],
      "stateMutability": "view",
      "type": "function"
    },
    {
      "inputs": [
        {
          "internalType": "address",
          "name": "stakeContract",
          "type": "address"
        }
      ],
      "name": "removeWhitelistedPool",
      "outputs": [],
      "stateMutability": "nonpayable",
      "type": "function"
    },
    {
      "inputs": [],
      "name": "renounceOwnership",
      "outputs": [],
      "stateMutability": "nonpayable",
      "type": "function"
    },
    {
      "inputs": [
        {
          "internalType": "address",
          "name": "",
          "type": "address"
        }
      ],
      "name": "rewardAmount",
      "outputs": [
        {
          "internalType": "uint256",
          "name": "",
          "type": "uint256"
        }
      ],
      "stateMutability": "view",
      "type": "function"
    },
    {
      "inputs": [
        {
          "internalType": "address",
          "name": "charger_",
          "type": "address"
        }
      ],
      "name": "setCharger",
      "outputs": [],
      "stateMutability": "nonpayable",
      "type": "function"
    },
    {
      "inputs": [
        {
          "internalType": "address",
          "name": "newOwner",
          "type": "address"
        }
      ],
      "name": "transferOwnership",
      "outputs": [],
      "stateMutability": "nonpayable",
      "type": "function"
    },
    {
      "inputs": [],
      "name": "treasuryVester",
      "outputs": [
        {
          "internalType": "address",
          "name": "",
          "type": "address"
        }
      ],
      "stateMutability": "view",
      "type": "function"
    },
    {
      "inputs": [
        {
          "internalType": "address",
          "name": "stakeContract",
          "type": "address"
        },
        {
          "internalType": "uint256",
          "name": "amount",
          "type": "uint256"
        }
      ],
      "name": "updateAmount",
      "outputs": [],
      "stateMutability": "nonpayable",
      "type": "function"
    },
    {
      "inputs": [],
      "name": "vestAllocation",
      "outputs": [],
      "stateMutability": "nonpayable",
      "type": "function"
    }
  ],
  "bytecode": "0x6080604052600060095534801561001557600080fd5b50604051611ce0380380611ce08339818101604052608081101561003857600080fd5b508051602082015160408301516060909301519192909160006100596100fa565b600080546001600160a01b0319166001600160a01b0383169081178255604051929350917f8be0079c531659141344cd1fd0a4f28419497f9722a3daafe3b4186f6b6457e0908290a35060018055600580546001600160a01b03199081166001600160a01b039485161790915560068054821694841694909417909355600780548416948316949094179093556008805490921692169190911790556100fe565b3390565b611bd38061010d6000396000f3fe608060405234801561001057600080fd5b50600436106101515760003560e01c8063715018a6116100cd5780639ab1b48411610081578063a8cb13df11610066578063a8cb13df14610306578063d5525c801461032c578063f2fde38b1461035257610151565b80639ab1b484146102c8578063a454dcc4146102d057610151565b8063796cd9ba116100b2578063796cd9ba1461029b5780638da5cb5b146102b857806392b2efbd146102c057610151565b8063715018a61461028b5780637752020b1461029357610151565b806335c62bc2116101245780634287aa1e116101095780634287aa1e146102215780635278f89c1461025d578063645a8a561461026557610151565b806335c62bc2146101cd5780633af32abf146101e757610151565b8063068bcd8d14610156578063150895db1461018f57806327568f3b146101975780632dbe8cf41461019f575b600080fd5b6101736004803603602081101561016c57600080fd5b5035610378565b604080516001600160a01b039092168252519081900360200190f35b61017361038b565b61017361039a565b6101cb600480360360408110156101b557600080fd5b506001600160a01b0381351690602001356103a9565b005b6101d56104bc565b60408051918252519081900360200190f35b61020d600480360360208110156101fd57600080fd5b50356001600160a01b03166104c2565b604080519115158252519081900360200190f35b6101cb6004803603608081101561023757600080fd5b506001600160a01b038135811691602081013582169160408201351690606001356104cf565b6101cb610855565b6101d56004803603602081101561027b57600080fd5b50356001600160a01b031661091c565b6101cb61092e565b6101736109f9565b6101cb600480360360208110156102b157600080fd5b5035610a08565b610173610be1565b610173610bf0565b6101cb610bff565b6101cb600480360360608110156102e657600080fd5b506001600160a01b03813581169160208101359091169060400135610db2565b6101cb6004803603602081101561031c57600080fd5b50356001600160a01b03166110c2565b6101cb6004803603602081101561034257600080fd5b50356001600160a01b03166111b3565b6101cb6004803603602081101561036857600080fd5b50356001600160a01b0316611256565b6000610385600283611377565b92915050565b6006546001600160a01b031681565b6007546001600160a01b031681565b6103b161138a565b6001600160a01b03166103c2610be1565b6001600160a01b03161461041d576040805162461bcd60e51b815260206004820181905260248201527f4f776e61626c653a2063616c6c6572206973206e6f7420746865206f776e6572604482015290519081900360640190fd5b610426826104c2565b6104615760405162461bcd60e51b81526004018080602001828103825260388152602001806119426038913960400191505060405180910390fd5b600081116104a05760405162461bcd60e51b815260040180806020018281038252604081526020018061174a6040913960400191505060405180910390fd5b6001600160a01b03909116600090815260046020526040902055565b60095481565b600061038560028361138e565b6104d761138a565b6001600160a01b03166104e8610be1565b6001600160a01b031614610543576040805162461bcd60e51b815260206004820181905260248201527f4f776e61626c653a2063616c6c6572206973206e6f7420746865206f776e6572604482015290519081900360640190fd5b6001600160a01b0382166105885760405162461bcd60e51b81526004018080602001828103825260528152602001806119fc6052913960600191505060405180910390fd5b610591826104c2565b156105cd5760405162461bcd60e51b815260040180806020018281038252604b815260200180611642604b913960600191505060405180910390fd5b6000811161060c5760405162461bcd60e51b8152600401808060200182810382526045815260200180611b1d6045913960600191505060405180910390fd5b826001600160a01b0316846001600160a01b0316141561065d5760405162461bcd60e51b815260040180806020018281038252603d81526020018061197a603d913960400191505060405180910390fd5b600080846001600160a01b0316866001600160a01b031610610680578486610683565b85855b90925090506001600160a01b0382166106cd5760405162461bcd60e51b81526004018080602001828103825260368152602001806118106036913960400191505060405180910390fd5b836001600160a01b03166372f702f36040518163ffffffff1660e01b815260040160206040518083038186803b15801561070657600080fd5b505afa15801561071a573d6000803e3d6000fd5b505050506040513d602081101561073057600080fd5b5051600554604080517fe6a439050000000000000000000000000000000000000000000000000000000081526001600160a01b0386811660048301528581166024830152915193821693919092169163e6a43905916044808301926020929190829003018186803b1580156107a457600080fd5b505afa1580156107b8573d6000803e3d6000fd5b505050506040513d60208110156107ce57600080fd5b50516001600160a01b0316146108155760405162461bcd60e51b815260040180806020018281038252603c8152602001806117d4603c913960400191505060405180910390fd5b6108206002856113a3565b506001600160a01b038416600090815260046020526040902083905560095461084a9060016113b8565b600955505050505050565b6008546001600160a01b0316331461089e5760405162461bcd60e51b815260040180806020018281038252603c815260200180611b62603c913960400191505060405180910390fd5b600660009054906101000a90046001600160a01b03166001600160a01b0316634e71d92d6040518163ffffffff1660e01b8152600401602060405180830381600087803b1580156108ee57600080fd5b505af1158015610902573d6000803e3d6000fd5b505050506040513d602081101561091857600080fd5b5050565b60046020526000908152604090205481565b61093661138a565b6001600160a01b0316610947610be1565b6001600160a01b0316146109a2576040805162461bcd60e51b815260206004820181905260248201527f4f776e61626c653a2063616c6c6572206973206e6f7420746865206f776e6572604482015290519081900360640190fd5b600080546040516001600160a01b03909116907f8be0079c531659141344cd1fd0a4f28419497f9722a3daafe3b4186f6b6457e0908390a36000805473ffffffffffffffffffffffffffffffffffffffff19169055565b6008546001600160a01b031681565b6008546001600160a01b03163314610a515760405162461bcd60e51b8152600401808060200182810382526048815260200180611a9e6048913960600191505060405180910390fd5b6009548110610a915760405162461bcd60e51b81526004018080602001828103825260458152602001806119b76045913960600191505060405180910390fd5b6000610a9e600283611377565b6001600160a01b0381166000908152600460205260409020549091508015610bdc576007546040805163a9059cbb60e01b81526001600160a01b038581166004830152602482018590529151919092169163a9059cbb9160448083019260209291908290030181600087803b158015610b1657600080fd5b505af1158015610b2a573d6000803e3d6000fd5b505050506040513d6020811015610b4057600080fd5b5051610b7d5760405162461bcd60e51b8152600401808060200182810382526037815260200180611ae66037913960400191505060405180910390fd5b816001600160a01b0316633c6b16ab826040518263ffffffff1660e01b815260040180828152602001915050600060405180830381600087803b158015610bc357600080fd5b505af1158015610bd7573d6000803e3d6000fd5b505050505b505050565b6000546001600160a01b031690565b6005546001600160a01b031681565b6008546001600160a01b03163314610c485760405162461bcd60e51b815260040180806020018281038252603e815260200180611904603e913960400191505060405180910390fd5b60008060005b610c586002611412565b811015610bdc57610c6a600282611377565b6001600160a01b03811660009081526004602052604090205490935091508115610daa576007546040805163a9059cbb60e01b81526001600160a01b038681166004830152602482018690529151919092169163a9059cbb9160448083019260209291908290030181600087803b158015610ce457600080fd5b505af1158015610cf8573d6000803e3d6000fd5b505050506040513d6020811015610d0e57600080fd5b5051610d4b5760405162461bcd60e51b8152600401808060200182810382526037815260200180611ae66037913960400191505060405180910390fd5b826001600160a01b0316633c6b16ab836040518263ffffffff1660e01b815260040180828152602001915050600060405180830381600087803b158015610d9157600080fd5b505af1158015610da5573d6000803e3d6000fd5b505050505b600101610c4e565b610dba61138a565b6001600160a01b0316610dcb610be1565b6001600160a01b031614610e26576040805162461bcd60e51b815260206004820181905260248201527f4f776e61626c653a2063616c6c6572206973206e6f7420746865206f776e6572604482015290519081900360640190fd5b6001600160a01b038216610e6b5760405162461bcd60e51b815260040180806020018281038252605781526020018061168d6057913960600191505060405180910390fd5b610e74826104c2565b15610eb05760405162461bcd60e51b8152600401808060200182810382526050815260200180611a4e6050913960600191505060405180910390fd5b60008111610eef5760405162461bcd60e51b815260040180806020018281038252604a81526020018061178a604a913960600191505060405180910390fd5b6001600160a01b038316610f345760405162461bcd60e51b815260040180806020018281038252603b815260200180611887603b913960400191505060405180910390fd5b816001600160a01b03166372f702f36040518163ffffffff1660e01b815260040160206040518083038186803b158015610f6d57600080fd5b505afa158015610f81573d6000803e3d6000fd5b505050506040513d6020811015610f9757600080fd5b50516001600160a01b03848116911614610fe25760405162461bcd60e51b81526004018080602001828103825260428152602001806118c26042913960600191505060405180910390fd5b6000836001600160a01b03166318160ddd6040518163ffffffff1660e01b815260040160206040518083038186803b15801561101d57600080fd5b505afa158015611031573d6000803e3d6000fd5b505050506040513d602081101561104757600080fd5b5051116110855760405162461bcd60e51b815260040180806020018281038252604081526020018061170a6040913960400191505060405180910390fd5b6110906002836113a3565b506001600160a01b03821660009081526004602052604090208190556009546110ba9060016113b8565b600955505050565b6110ca61138a565b6001600160a01b03166110db610be1565b6001600160a01b031614611136576040805162461bcd60e51b815260206004820181905260248201527f4f776e61626c653a2063616c6c6572206973206e6f7420746865206f776e6572604482015290519081900360640190fd5b61113f816104c2565b61117a5760405162461bcd60e51b81526004018080602001828103825260418152602001806118466041913960600191505060405180910390fd5b61118560028261141d565b506001600160a01b0381166000908152600460205260408120556009546111ad906001611432565b60095550565b6111bb61138a565b6001600160a01b03166111cc610be1565b6001600160a01b031614611227576040805162461bcd60e51b815260206004820181905260248201527f4f776e61626c653a2063616c6c6572206973206e6f7420746865206f776e6572604482015290519081900360640190fd5b6008805473ffffffffffffffffffffffffffffffffffffffff19166001600160a01b0392909216919091179055565b61125e61138a565b6001600160a01b031661126f610be1565b6001600160a01b0316146112ca576040805162461bcd60e51b815260206004820181905260248201527f4f776e61626c653a2063616c6c6572206973206e6f7420746865206f776e6572604482015290519081900360640190fd5b6001600160a01b03811661130f5760405162461bcd60e51b81526004018080602001828103825260268152602001806116e46026913960400191505060405180910390fd5b600080546040516001600160a01b03808516939216917f8be0079c531659141344cd1fd0a4f28419497f9722a3daafe3b4186f6b6457e091a36000805473ffffffffffffffffffffffffffffffffffffffff19166001600160a01b0392909216919091179055565b6000611383838361148f565b9392505050565b3390565b6000611383836001600160a01b0384166114f3565b6000611383836001600160a01b03841661150b565b600082820183811015611383576040805162461bcd60e51b815260206004820152601b60248201527f536166654d6174683a206164646974696f6e206f766572666c6f770000000000604482015290519081900360640190fd5b600061038582611555565b6000611383836001600160a01b038416611559565b600082821115611489576040805162461bcd60e51b815260206004820152601e60248201527f536166654d6174683a207375627472616374696f6e206f766572666c6f770000604482015290519081900360640190fd5b50900390565b815460009082106114d15760405162461bcd60e51b81526004018080602001828103825260228152602001806116206022913960400191505060405180910390fd5b8260000182815481106114e057fe5b9060005260206000200154905092915050565b60009081526001919091016020526040902054151590565b600061151783836114f3565b61154d57508154600181810184556000848152602080822090930184905584548482528286019093526040902091909155610385565b506000610385565b5490565b60008181526001830160205260408120548015611615578354600019808301919081019060009087908390811061158c57fe5b90600052602060002001549050808760000184815481106115a957fe5b6000918252602080832090910192909255828152600189810190925260409020908401905586548790806115d957fe5b60019003818190600052602060002001600090559055866001016000878152602001908152602001600020600090556001945050505050610385565b600091505061038556fe456e756d657261626c655365743a20696e646578206f7574206f6620626f756e64734c6971756964697479506f6f6c4d616e616765723a3a61646457686974656c6973746564506f6f6c3a207374616b65436f6e747261637420616c72656164792077686974656c69737465644c6971756964697479506f6f6c4d616e616765723a3a61646457686974656c69737465645374616b65506f6f6c3a207374616b65436f6e74726163742063616e6e6f7420626520746865207a65726f20616464726573734f776e61626c653a206e6577206f776e657220697320746865207a65726f20616464726573734c6971756964697479506f6f6c4d616e616765723a3a61646457686974656c69737465645374616b65506f6f6c3a20746f6b656e5f4e4f545f415f544f4b454e4c6971756964697479506f6f6c4d616e616765723a3a757064617465416d6f756e743a20416d6f756e74206d75737420626520626967676572207468616e20304c6971756964697479506f6f6c4d616e616765723a3a61646457686974656c69737465645374616b65506f6f6c3a20726577617264416d6f756e742063616e6e6f74206265207a65726f4c6971756964697479506f6f6c4d616e616765723a3a61646457686974656c6973746564506f6f6c3a20504149525f444f45534e545f4558495354534c6971756964697479506f6f6c4d616e616765723a3a61646457686974656c6973746564506f6f6c3a205a45524f5f414444524553534c6971756964697479506f6f6c4d616e616765723a3a72656d6f766557686974656c6973746564506f6f6c3a20506f6f6c206e6f742077686974656c69737465644c6971756964697479506f6f6c4d616e616765723a3a61646457686974656c69737465645374616b65506f6f6c3a205a45524f5f414444524553534c6971756964697479506f6f6c4d616e616765723a3a61646457686974656c69737465645374616b65506f6f6c3a205354414b45414444525f4e4f545f455155414c4c6971756964697479506f6f6c4d616e616765723a3a64697374726962757465546f6b656e733a20636861726765722063616e2063616c6c20746869732e4c6971756964697479506f6f6c4d616e616765723a3a757064617465416d6f756e743a20506f6f6c206e6f742077686974656c69737465644c6971756964697479506f6f6c4d616e616765723a3a61646457686974656c6973746564506f6f6c3a204944454e544943414c5f4144445245535345534c6971756964697479506f6f6c4d616e616765723a3a64697374726962757465546f6b656e7353696e676c65506f6f6c3a20496e646578206f7574206f6620626f756e64734c6971756964697479506f6f6c4d616e616765723a3a61646457686974656c6973746564506f6f6c3a207374616b65436f6e74726163742063616e6e6f7420626520746865207a65726f20616464726573734c6971756964697479506f6f6c4d616e616765723a3a61646457686974656c69737465645374616b65506f6f6c3a207374616b65436f6e747261637420616c72656164792077686974656c69737465644c6971756964697479506f6f6c4d616e616765723a3a64697374726962757465546f6b656e7353696e676c65506f6f6c3a20636861726765722063616e2063616c6c20746869732e4c6971756964697479506f6f6c4d616e616765723a3a64697374726962757465546f6b656e733a205472616e73666572206661696c65644c6971756964697479506f6f6c4d616e616765723a3a61646457686974656c6973746564506f6f6c3a20726577617264416d6f756e742063616e6e6f74206265207a65726f4c6971756964697479506f6f6c4d616e616765723a3a76657374416c6c6f636174696f6e3a20636861726765722063616e2063616c6c20746869732ea2646970667358221220eab9cf8871858e996a5a55230b8f18a4bf00c5c55b5386651d62cba525eb514c64736f6c63430007060033",
  "linkReferences": {},
  "deployedLinkReferences": {}
}