{
  "_format": "hh-sol-artifact-1",
  "contractName": "LiquidityPoolManagerV3",
  "sourceName": "contracts/LiquidityPoolManagerV3.sol",
  "abi": [
    {
      "inputs": [
        {
          "internalType": "address",
          "name": "cnr_",
          "type": "address"
        },
        {
          "internalType": "address",
          "name": "treasuryVester_",
          "type": "address"
        },
        {
          "internalType": "address",
          "name": "cnrfactory_",
          "type": "address"
        },
        {
          "internalType": "address",
          "name": "charger_",
          "type": "address"
        }
      ],
      "stateMutability": "nonpayable",
      "type": "constructor"
    },
    {
      "anonymous": false,
      "inputs": [
        {
          "indexed": true,
          "internalType": "address",
          "name": "previousOwner",
          "type": "address"
        },
        {
          "indexed": true,
          "internalType": "address",
          "name": "newOwner",
          "type": "address"
        }
      ],
      "name": "OwnershipTransferred",
      "type": "event"
    },
    {
      "inputs": [
        {
          "internalType": "address",
          "name": "tokenA",
          "type": "address"
        },
        {
          "internalType": "address",
          "name": "tokenB",
          "type": "address"
        },
        {
          "internalType": "address",
          "name": "stakeContract",
          "type": "address"
        },
        {
          "internalType": "uint256",
          "name": "_rewardWeight",
          "type": "uint256"
        }
      ],
      "name": "addWhitelistedPool",
      "outputs": [],
      "stateMutability": "nonpayable",
      "type": "function"
    },
    {
      "inputs": [
        {
          "internalType": "address",
          "name": "token",
          "type": "address"
        },
        {
          "internalType": "address",
          "name": "stakeContract",
          "type": "address"
        },
        {
          "internalType": "uint256",
          "name": "_rewardWeight",
          "type": "uint256"
        }
      ],
      "name": "addWhitelistedStakePool",
      "outputs": [],
      "stateMutability": "nonpayable",
      "type": "function"
    },
    {
      "inputs": [],
      "name": "canaryFactory",
      "outputs": [
        {
          "internalType": "address",
          "name": "",
          "type": "address"
        }
      ],
      "stateMutability": "view",
      "type": "function"
    },
    {
      "inputs": [],
      "name": "charger",
      "outputs": [
        {
          "internalType": "address",
          "name": "",
          "type": "address"
        }
      ],
      "stateMutability": "view",
      "type": "function"
    },
    {
      "inputs": [],
      "name": "cnr",
      "outputs": [
        {
          "internalType": "address",
          "name": "",
          "type": "address"
        }
      ],
      "stateMutability": "view",
      "type": "function"
    },
    {
      "inputs": [],
      "name": "distributeTokens",
      "outputs": [],
      "stateMutability": "nonpayable",
      "type": "function"
    },
    {
      "inputs": [
        {
          "internalType": "uint256",
          "name": "pairIndex",
          "type": "uint256"
        }
      ],
      "name": "distributeTokensSinglePool",
      "outputs": [],
      "stateMutability": "nonpayable",
      "type": "function"
    },
    {
      "inputs": [
        {
          "internalType": "uint256",
          "name": "index",
          "type": "uint256"
        }
      ],
      "name": "getPool",
      "outputs": [
        {
          "internalType": "address",
          "name": "",
          "type": "address"
        }
      ],
      "stateMutability": "view",
      "type": "function"
    },
    {
      "inputs": [
        {
          "internalType": "address",
          "name": "stakeContract",
          "type": "address"
        }
      ],
      "name": "isWhitelisted",
      "outputs": [
        {
          "internalType": "bool",
          "name": "",
          "type": "bool"
        }
      ],
      "stateMutability": "view",
      "type": "function"
    },
    {
      "inputs": [],
      "name": "numPools",
      "outputs": [
        {
          "internalType": "uint256",
          "name": "",
          "type": "uint256"
        }
      ],
      "stateMutability": "view",
      "type": "function"
    },
    {
      "inputs": [],
      "name": "owner",
      "outputs": [
        {
          "internalType": "address",
          "name": "",
          "type": "address"
        }
      ],
      "stateMutability": "view",
      "type": "function"
    },
    {
      "inputs": [
        {
          "internalType": "address",
          "name": "stakeContract",
          "type": "address"
        }
      ],
      "name": "removeWhitelistedPool",
      "outputs": [],
      "stateMutability": "nonpayable",
      "type": "function"
    },
    {
      "inputs": [],
      "name": "renounceOwnership",
      "outputs": [],
      "stateMutability": "nonpayable",
      "type": "function"
    },
    {
      "inputs": [
        {
          "internalType": "address",
          "name": "",
          "type": "address"
        }
      ],
      "name": "rewardWeight",
      "outputs": [
        {
          "internalType": "uint256",
          "name": "",
          "type": "uint256"
        }
      ],
      "stateMutability": "view",
      "type": "function"
    },
    {
      "inputs": [
        {
          "internalType": "address",
          "name": "charger_",
          "type": "address"
        }
      ],
      "name": "setCharger",
      "outputs": [],
      "stateMutability": "nonpayable",
      "type": "function"
    },
    {
      "inputs": [
        {
          "internalType": "address",
          "name": "newOwner",
          "type": "address"
        }
      ],
      "name": "transferOwnership",
      "outputs": [],
      "stateMutability": "nonpayable",
      "type": "function"
    },
    {
      "inputs": [],
      "name": "treasuryVester",
      "outputs": [
        {
          "internalType": "address",
          "name": "",
          "type": "address"
        }
      ],
      "stateMutability": "view",
      "type": "function"
    },
    {
      "inputs": [],
      "name": "unallocatedCnr",
      "outputs": [
        {
          "internalType": "uint256",
          "name": "",
          "type": "uint256"
        }
      ],
      "stateMutability": "view",
      "type": "function"
    },
    {
      "inputs": [
        {
          "internalType": "address",
          "name": "stakeContract",
          "type": "address"
        },
        {
          "internalType": "uint256",
          "name": "weight",
          "type": "uint256"
        }
      ],
      "name": "updateWeight",
      "outputs": [],
      "stateMutability": "nonpayable",
      "type": "function"
    },
    {
      "inputs": [],
      "name": "vestAllocation",
      "outputs": [],
      "stateMutability": "nonpayable",
      "type": "function"
    }
  ],
  "bytecode": "0x608060405260006009556000600a5534801561001a57600080fd5b506040516120ee3803806120ee8339818101604052608081101561003d57600080fd5b5080516020820151604083015160609093015191929091600061005e6100ff565b600080546001600160a01b0319166001600160a01b0383169081178255604051929350917f8be0079c531659141344cd1fd0a4f28419497f9722a3daafe3b4186f6b6457e0908290a35060018055600580546001600160a01b03199081166001600160a01b03948516179091556006805482169484169490941790935560078054841694831694909417909355600880549092169216919091179055610103565b3390565b611fdc806101126000396000f3fe608060405234801561001057600080fd5b506004361061016c5760003560e01c80638da5cb5b116100cd578063a454dcc411610081578063ca9011ae11610066578063ca9011ae14610329578063d5525c801461034f578063f2fde38b146103755761016c565b8063a454dcc4146102cd578063a8cb13df146103035761016c565b80639776e94b116100b25780639776e94b146102915780639ab1b484146102bd5780639ea2aa9a146102c55761016c565b80638da5cb5b1461028157806392b2efbd146102895761016c565b80634287aa1e11610124578063715018a611610109578063715018a6146102545780637752020b1461025c578063796cd9ba146102645761016c565b80634287aa1e1461020e5780635278f89c1461024c5761016c565b806327568f3b1161015557806327568f3b146101b257806335c62bc2146101ba5780633af32abf146101d45761016c565b8063068bcd8d14610171578063150895db146101aa575b600080fd5b61018e6004803603602081101561018757600080fd5b503561039b565b604080516001600160a01b039092168252519081900360200190f35b61018e6103ae565b61018e6103bd565b6101c26103cc565b60408051918252519081900360200190f35b6101fa600480360360208110156101ea57600080fd5b50356001600160a01b03166103d2565b604080519115158252519081900360200190f35b61024a6004803603608081101561022457600080fd5b506001600160a01b038135811691602081013582169160408201351690606001356103df565b005b61024a610765565b61024a610982565b61018e610a4d565b61024a6004803603602081101561027a57600080fd5b5035610a5c565b61018e610ca6565b61018e610cb5565b61024a600480360360408110156102a757600080fd5b506001600160a01b038135169060200135610cc4565b61024a610dd7565b6101c2610fe3565b61024a600480360360608110156102e357600080fd5b506001600160a01b03813581169160208101359091169060400135610fe9565b61024a6004803603602081101561031957600080fd5b50356001600160a01b03166112f9565b6101c26004803603602081101561033f57600080fd5b50356001600160a01b03166113ea565b61024a6004803603602081101561036557600080fd5b50356001600160a01b03166113fc565b61024a6004803603602081101561038b57600080fd5b50356001600160a01b031661149f565b60006103a86002836115c0565b92915050565b6006546001600160a01b031681565b6007546001600160a01b031681565b60095481565b60006103a86002836115d3565b6103e76115e8565b6001600160a01b03166103f8610ca6565b6001600160a01b031614610453576040805162461bcd60e51b815260206004820181905260248201527f4f776e61626c653a2063616c6c6572206973206e6f7420746865206f776e6572604482015290519081900360640190fd5b6001600160a01b0382166104985760405162461bcd60e51b8152600401808060200182810382526052815260200180611db96052913960600191505060405180910390fd5b6104a1826103d2565b156104dd5760405162461bcd60e51b815260040180806020018281038252604b81526020018061198d604b913960600191505060405180910390fd5b6000811161051c5760405162461bcd60e51b81526004018080602001828103825260458152602001806119d86045913960600191505060405180910390fd5b826001600160a01b0316846001600160a01b0316141561056d5760405162461bcd60e51b815260040180806020018281038252603d815260200180611d37603d913960400191505060405180910390fd5b600080846001600160a01b0316866001600160a01b031610610590578486610593565b85855b90925090506001600160a01b0382166105dd5760405162461bcd60e51b8152600401808060200182810382526036815260200180611be46036913960400191505060405180910390fd5b836001600160a01b03166372f702f36040518163ffffffff1660e01b815260040160206040518083038186803b15801561061657600080fd5b505afa15801561062a573d6000803e3d6000fd5b505050506040513d602081101561064057600080fd5b5051600554604080517fe6a439050000000000000000000000000000000000000000000000000000000081526001600160a01b0386811660048301528581166024830152915193821693919092169163e6a43905916044808301926020929190829003018186803b1580156106b457600080fd5b505afa1580156106c8573d6000803e3d6000fd5b505050506040513d60208110156106de57600080fd5b50516001600160a01b0316146107255760405162461bcd60e51b815260040180806020018281038252603c815260200180611b52603c913960400191505060405180910390fd5b6107306002856115ec565b506001600160a01b038416600090815260046020526040902083905560095461075a906001611601565b600955505050505050565b600a54156107a45760405162461bcd60e51b8152600401808060200182810382526056815260200180611b8e6056913960600191505060405180910390fd5b6008546001600160a01b031633146107ed5760405162461bcd60e51b815260040180806020018281038252603c815260200180611f6b603c913960400191505060405180910390fd5b600660009054906101000a90046001600160a01b03166001600160a01b0316634e71d92d6040518163ffffffff1660e01b8152600401602060405180830381600087803b15801561083d57600080fd5b505af1158015610851573d6000803e3d6000fd5b505050506040513d602081101561086757600080fd5b5051600a8190556108a95760405162461bcd60e51b8152600401808060200182810382526047815260200180611ea56047913960600191505060405180910390fd5b600754604080517f70a0823100000000000000000000000000000000000000000000000000000000815230600482015290516000926001600160a01b0316916370a08231916024808301926020929190829003018186803b15801561090d57600080fd5b505afa158015610921573d6000803e3d6000fd5b505050506040513d602081101561093757600080fd5b5051600a5490915081101561097d5760405162461bcd60e51b815260040180806020018281038252604281526020018061194b6042913960600191505060405180910390fd5b600a55565b61098a6115e8565b6001600160a01b031661099b610ca6565b6001600160a01b0316146109f6576040805162461bcd60e51b815260206004820181905260248201527f4f776e61626c653a2063616c6c6572206973206e6f7420746865206f776e6572604482015290519081900360640190fd5b600080546040516001600160a01b03909116907f8be0079c531659141344cd1fd0a4f28419497f9722a3daafe3b4186f6b6457e0908390a36000805473ffffffffffffffffffffffffffffffffffffffff19169055565b6008546001600160a01b031681565b6008546001600160a01b03163314610aa55760405162461bcd60e51b8152600401808060200182810382526048815260200180611eec6048913960600191505060405180910390fd5b6009548110610ae55760405162461bcd60e51b8152600401808060200182810382526045815260200180611d746045913960600191505060405180910390fd5b60008080805b610af5600261165b565b811015610b3957610b2f60046000610b0e6002856115c0565b6001600160a01b031681526020810191909152604001600020548490611601565b9250600101610aeb565b50600a54610b479083611666565b9050610b546002856115c0565b6001600160a01b03811660009081526004602052604081205491945090610b7b90836116cd565b90508015610c9f576007546040805163a9059cbb60e01b81526001600160a01b038781166004830152602482018590529151919092169163a9059cbb9160448083019260209291908290030181600087803b158015610bd957600080fd5b505af1158015610bed573d6000803e3d6000fd5b505050506040513d6020811015610c0357600080fd5b5051610c405760405162461bcd60e51b8152600401808060200182810382526037815260200180611f346037913960400191505060405180910390fd5b836001600160a01b0316633c6b16ab826040518263ffffffff1660e01b815260040180828152602001915050600060405180830381600087803b158015610c8657600080fd5b505af1158015610c9a573d6000803e3d6000fd5b505050505b5050505050565b6000546001600160a01b031690565b6005546001600160a01b031681565b610ccc6115e8565b6001600160a01b0316610cdd610ca6565b6001600160a01b031614610d38576040805162461bcd60e51b815260206004820181905260248201527f4f776e61626c653a2063616c6c6572206973206e6f7420746865206f776e6572604482015290519081900360640190fd5b610d41826103d2565b610d7c5760405162461bcd60e51b8152600401808060200182810382526038815260200180611b1a6038913960400191505060405180910390fd5b60008111610dbb5760405162461bcd60e51b8152600401808060200182810382526040815260200180611a9a6040913960400191505060405180910390fd5b6001600160a01b03909116600090815260046020526040902055565b6008546001600160a01b03163314610e205760405162461bcd60e51b815260040180806020018281038252603e815260200180611cf9603e913960400191505060405180910390fd5b60008060008060005b610e33600261165b565b811015610e5657610e4c60046000610b0e6002856115c0565b9250600101610e29565b50600a54610e649083611666565b905060005b610e73600261165b565b811015610fd757610e856002826115c0565b6001600160a01b038116600090815260046020526040902054909550610eab90836116cd565b93508315610fcf576007546040805163a9059cbb60e01b81526001600160a01b038881166004830152602482018890529151919092169163a9059cbb9160448083019260209291908290030181600087803b158015610f0957600080fd5b505af1158015610f1d573d6000803e3d6000fd5b505050506040513d6020811015610f3357600080fd5b5051610f705760405162461bcd60e51b8152600401808060200182810382526037815260200180611f346037913960400191505060405180910390fd5b846001600160a01b0316633c6b16ab856040518263ffffffff1660e01b815260040180828152602001915050600060405180830381600087803b158015610fb657600080fd5b505af1158015610fca573d6000803e3d6000fd5b505050505b600101610e69565b50506000600a55505050565b600a5481565b610ff16115e8565b6001600160a01b0316611002610ca6565b6001600160a01b03161461105d576040805162461bcd60e51b815260206004820181905260248201527f4f776e61626c653a2063616c6c6572206973206e6f7420746865206f776e6572604482015290519081900360640190fd5b6001600160a01b0382166110a25760405162461bcd60e51b8152600401808060200182810382526057815260200180611a1d6057913960600191505060405180910390fd5b6110ab826103d2565b156110e75760405162461bcd60e51b8152600401808060200182810382526050815260200180611e0b6050913960600191505060405180910390fd5b600081116111265760405162461bcd60e51b815260040180806020018281038252604a815260200180611e5b604a913960600191505060405180910390fd5b6001600160a01b03831661116b5760405162461bcd60e51b815260040180806020018281038252603b815260200180611c7c603b913960400191505060405180910390fd5b816001600160a01b03166372f702f36040518163ffffffff1660e01b815260040160206040518083038186803b1580156111a457600080fd5b505afa1580156111b8573d6000803e3d6000fd5b505050506040513d60208110156111ce57600080fd5b50516001600160a01b038481169116146112195760405162461bcd60e51b8152600401808060200182810382526042815260200180611cb76042913960600191505060405180910390fd5b6000836001600160a01b03166318160ddd6040518163ffffffff1660e01b815260040160206040518083038186803b15801561125457600080fd5b505afa158015611268573d6000803e3d6000fd5b505050506040513d602081101561127e57600080fd5b5051116112bc5760405162461bcd60e51b8152600401808060200182810382526040815260200180611ada6040913960400191505060405180910390fd5b6112c76002836115ec565b506001600160a01b03821660009081526004602052604090208190556009546112f1906001611601565b600955505050565b6113016115e8565b6001600160a01b0316611312610ca6565b6001600160a01b03161461136d576040805162461bcd60e51b815260206004820181905260248201527f4f776e61626c653a2063616c6c6572206973206e6f7420746865206f776e6572604482015290519081900360640190fd5b611376816103d2565b6113b15760405162461bcd60e51b8152600401808060200182810382526041815260200180611c1a6041913960600191505060405180910390fd5b6113bc600282611726565b506001600160a01b0381166000908152600460205260408120556009546113e490600161173b565b60095550565b60046020526000908152604090205481565b6114046115e8565b6001600160a01b0316611415610ca6565b6001600160a01b031614611470576040805162461bcd60e51b815260206004820181905260248201527f4f776e61626c653a2063616c6c6572206973206e6f7420746865206f776e6572604482015290519081900360640190fd5b6008805473ffffffffffffffffffffffffffffffffffffffff19166001600160a01b0392909216919091179055565b6114a76115e8565b6001600160a01b03166114b8610ca6565b6001600160a01b031614611513576040805162461bcd60e51b815260206004820181905260248201527f4f776e61626c653a2063616c6c6572206973206e6f7420746865206f776e6572604482015290519081900360640190fd5b6001600160a01b0381166115585760405162461bcd60e51b8152600401808060200182810382526026815260200180611a746026913960400191505060405180910390fd5b600080546040516001600160a01b03808516939216917f8be0079c531659141344cd1fd0a4f28419497f9722a3daafe3b4186f6b6457e091a36000805473ffffffffffffffffffffffffffffffffffffffff19166001600160a01b0392909216919091179055565b60006115cc8383611798565b9392505050565b60006115cc836001600160a01b0384166117fc565b3390565b60006115cc836001600160a01b038416611814565b6000828201838110156115cc576040805162461bcd60e51b815260206004820152601b60248201527f536166654d6174683a206164646974696f6e206f766572666c6f770000000000604482015290519081900360640190fd5b60006103a88261185e565b60008082116116bc576040805162461bcd60e51b815260206004820152601a60248201527f536166654d6174683a206469766973696f6e206279207a65726f000000000000604482015290519081900360640190fd5b8183816116c557fe5b049392505050565b6000826116dc575060006103a8565b828202828482816116e957fe5b04146115cc5760405162461bcd60e51b8152600401808060200182810382526021815260200180611c5b6021913960400191505060405180910390fd5b60006115cc836001600160a01b038416611862565b600082821115611792576040805162461bcd60e51b815260206004820152601e60248201527f536166654d6174683a207375627472616374696f6e206f766572666c6f770000604482015290519081900360640190fd5b50900390565b815460009082106117da5760405162461bcd60e51b81526004018080602001828103825260228152602001806119296022913960400191505060405180910390fd5b8260000182815481106117e957fe5b9060005260206000200154905092915050565b60009081526001919091016020526040902054151590565b600061182083836117fc565b611856575081546001818101845560008481526020808220909301849055845484825282860190935260409020919091556103a8565b5060006103a8565b5490565b6000818152600183016020526040812054801561191e578354600019808301919081019060009087908390811061189557fe5b90600052602060002001549050808760000184815481106118b257fe5b6000918252602080832090910192909255828152600189810190925260409020908401905586548790806118e257fe5b600190038181906000526020600020016000905590558660010160008781526020019081526020016000206000905560019450505050506103a8565b60009150506103a856fe456e756d657261626c655365743a20696e646578206f7574206f6620626f756e64734c6971756964697479506f6f6c4d616e616765723a3a76657374416c6c6f636174696f6e3a20496e73756666696369656e7420434e52207472616e736665727265644c6971756964697479506f6f6c4d616e616765723a3a61646457686974656c6973746564506f6f6c3a207374616b65436f6e747261637420616c72656164792077686974656c69737465644c6971756964697479506f6f6c4d616e616765723a3a61646457686974656c6973746564506f6f6c3a207265776172645765696768742063616e6e6f74206265207a65726f4c6971756964697479506f6f6c4d616e616765723a3a61646457686974656c69737465645374616b65506f6f6c3a207374616b65436f6e74726163742063616e6e6f7420626520746865207a65726f20616464726573734f776e61626c653a206e6577206f776e657220697320746865207a65726f20616464726573734c6971756964697479506f6f6c4d616e616765723a3a7570646174655765696768743a20416d6f756e74206d75737420626520626967676572207468616e20304c6971756964697479506f6f6c4d616e616765723a3a61646457686974656c69737465645374616b65506f6f6c3a20746f6b656e5f4e4f545f415f544f4b454e4c6971756964697479506f6f6c4d616e616765723a3a7570646174655765696768743a20506f6f6c206e6f742077686974656c69737465644c6971756964697479506f6f6c4d616e616765723a3a61646457686974656c6973746564506f6f6c3a20504149525f444f45534e545f4558495354534c6971756964697479506f6f6c4d616e616765723a3a76657374416c6c6f636174696f6e3a204f6c6420434e5220697320756e616c6c6f63617465642e2043616c6c2064697374726962757465546f6b656e7328292e4c6971756964697479506f6f6c4d616e616765723a3a61646457686974656c6973746564506f6f6c3a205a45524f5f414444524553534c6971756964697479506f6f6c4d616e616765723a3a72656d6f766557686974656c6973746564506f6f6c3a20506f6f6c206e6f742077686974656c6973746564536166654d6174683a206d756c7469706c69636174696f6e206f766572666c6f774c6971756964697479506f6f6c4d616e616765723a3a61646457686974656c69737465645374616b65506f6f6c3a205a45524f5f414444524553534c6971756964697479506f6f6c4d616e616765723a3a61646457686974656c69737465645374616b65506f6f6c3a205354414b45414444525f4e4f545f455155414c4c6971756964697479506f6f6c4d616e616765723a3a64697374726962757465546f6b656e733a20636861726765722063616e2063616c6c20746869732e4c6971756964697479506f6f6c4d616e616765723a3a61646457686974656c6973746564506f6f6c3a204944454e544943414c5f4144445245535345534c6971756964697479506f6f6c4d616e616765723a3a64697374726962757465546f6b656e7353696e676c65506f6f6c3a20496e646578206f7574206f6620626f756e64734c6971756964697479506f6f6c4d616e616765723a3a61646457686974656c6973746564506f6f6c3a207374616b65436f6e74726163742063616e6e6f7420626520746865207a65726f20616464726573734c6971756964697479506f6f6c4d616e616765723a3a61646457686974656c69737465645374616b65506f6f6c3a207374616b65436f6e747261637420616c72656164792077686974656c69737465644c6971756964697479506f6f6c4d616e616765723a3a61646457686974656c69737465645374616b65506f6f6c3a207265776172645765696768742063616e6e6f74206265207a65726f4c6971756964697479506f6f6c4d616e616765723a3a76657374416c6c6f636174696f6e3a204e6f20434e5220746f20636c61696d2e20547279206166746572203120686f75724c6971756964697479506f6f6c4d616e616765723a3a64697374726962757465546f6b656e7353696e676c65506f6f6c3a20636861726765722063616e2063616c6c20746869732e4c6971756964697479506f6f6c4d616e616765723a3a64697374726962757465546f6b656e733a205472616e73666572206661696c65644c6971756964697479506f6f6c4d616e616765723a3a76657374416c6c6f636174696f6e3a20636861726765722063616e2063616c6c20746869732ea2646970667358221220c5ffb870047ca1f3c1e32cc579c76b47091d422763104ade100c56d8d730a5ad64736f6c63430007060033",
  "linkReferences": {},
  "deployedLinkReferences": {}
}