{
  "_format": "hh-sol-artifact-1",
  "contractName": "CNRAutocompound",
  "sourceName": "contracts/CNRAutocompound.sol",
  "abi": [
    {
      "inputs": [
        {
          "internalType": "address",
          "name": "_depositToken",
          "type": "address"
        },
        {
          "internalType": "address",
          "name": "_rewardToken",
          "type": "address"
        },
        {
          "internalType": "address",
          "name": "_stakingContract",
          "type": "address"
        },
        {
          "internalType": "uint256",
          "name": "_reinvestMinValue",
          "type": "uint256"
        },
        {
          "internalType": "uint256",
          "name": "_reinvestRewardPerc",
          "type": "uint256"
        },
        {
          "internalType": "uint256",
          "name": "_systemFeePerc",
          "type": "uint256"
        }
      ],
      "stateMutability": "nonpayable",
      "type": "constructor"
    },
    {
      "anonymous": false,
      "inputs": [
        {
          "indexed": true,
          "internalType": "address",
          "name": "account",
          "type": "address"
        },
        {
          "indexed": false,
          "internalType": "uint256",
          "name": "amount",
          "type": "uint256"
        }
      ],
      "name": "Deposit",
      "type": "event"
    },
    {
      "anonymous": false,
      "inputs": [
        {
          "indexed": true,
          "internalType": "address",
          "name": "previousOwner",
          "type": "address"
        },
        {
          "indexed": true,
          "internalType": "address",
          "name": "newOwner",
          "type": "address"
        }
      ],
      "name": "OwnershipTransferred",
      "type": "event"
    },
    {
      "anonymous": false,
      "inputs": [
        {
          "indexed": false,
          "internalType": "uint256",
          "name": "newTotalDeposits",
          "type": "uint256"
        },
        {
          "indexed": false,
          "internalType": "uint256",
          "name": "newTotalSupply",
          "type": "uint256"
        }
      ],
      "name": "Reinvest",
      "type": "event"
    },
    {
      "anonymous": false,
      "inputs": [
        {
          "indexed": true,
          "internalType": "address",
          "name": "account",
          "type": "address"
        },
        {
          "indexed": false,
          "internalType": "uint256",
          "name": "amount",
          "type": "uint256"
        }
      ],
      "name": "Withdraw",
      "type": "event"
    },
    {
      "inputs": [],
      "name": "ReinvestMinValue",
      "outputs": [
        {
          "internalType": "uint256",
          "name": "",
          "type": "uint256"
        }
      ],
      "stateMutability": "view",
      "type": "function"
    },
    {
      "inputs": [],
      "name": "ReinvestRewardPerc",
      "outputs": [
        {
          "internalType": "uint256",
          "name": "",
          "type": "uint256"
        }
      ],
      "stateMutability": "view",
      "type": "function"
    },
    {
      "inputs": [],
      "name": "SystemFeePerc",
      "outputs": [
        {
          "internalType": "uint256",
          "name": "",
          "type": "uint256"
        }
      ],
      "stateMutability": "view",
      "type": "function"
    },
    {
      "inputs": [],
      "name": "checkReward",
      "outputs": [
        {
          "internalType": "uint256",
          "name": "",
          "type": "uint256"
        }
      ],
      "stateMutability": "view",
      "type": "function"
    },
    {
      "inputs": [
        {
          "internalType": "uint256",
          "name": "amount",
          "type": "uint256"
        }
      ],
      "name": "deposit",
      "outputs": [],
      "stateMutability": "nonpayable",
      "type": "function"
    },
    {
      "inputs": [
        {
          "internalType": "address",
          "name": "account",
          "type": "address"
        },
        {
          "internalType": "uint256",
          "name": "amount",
          "type": "uint256"
        }
      ],
      "name": "depositFor",
      "outputs": [],
      "stateMutability": "nonpayable",
      "type": "function"
    },
    {
      "inputs": [],
      "name": "depositToken",
      "outputs": [
        {
          "internalType": "contract IERC20",
          "name": "",
          "type": "address"
        }
      ],
      "stateMutability": "view",
      "type": "function"
    },
    {
      "inputs": [
        {
          "internalType": "uint256",
          "name": "amount",
          "type": "uint256"
        },
        {
          "internalType": "uint256",
          "name": "deadline",
          "type": "uint256"
        },
        {
          "internalType": "uint8",
          "name": "v",
          "type": "uint8"
        },
        {
          "internalType": "bytes32",
          "name": "r",
          "type": "bytes32"
        },
        {
          "internalType": "bytes32",
          "name": "s",
          "type": "bytes32"
        }
      ],
      "name": "depositWithPermit",
      "outputs": [],
      "stateMutability": "nonpayable",
      "type": "function"
    },
    {
      "inputs": [],
      "name": "depositsEnabled",
      "outputs": [
        {
          "internalType": "bool",
          "name": "",
          "type": "bool"
        }
      ],
      "stateMutability": "view",
      "type": "function"
    },
    {
      "inputs": [],
      "name": "exit",
      "outputs": [],
      "stateMutability": "nonpayable",
      "type": "function"
    },
    {
      "inputs": [
        {
          "internalType": "address",
          "name": "account",
          "type": "address"
        }
      ],
      "name": "getBalance",
      "outputs": [
        {
          "internalType": "uint256",
          "name": "",
          "type": "uint256"
        }
      ],
      "stateMutability": "view",
      "type": "function"
    },
    {
      "inputs": [
        {
          "internalType": "uint256",
          "name": "amount",
          "type": "uint256"
        }
      ],
      "name": "getDepositTokensForShares",
      "outputs": [
        {
          "internalType": "uint256",
          "name": "",
          "type": "uint256"
        }
      ],
      "stateMutability": "view",
      "type": "function"
    },
    {
      "inputs": [
        {
          "internalType": "uint256",
          "name": "amount",
          "type": "uint256"
        }
      ],
      "name": "getSharesForDepositTokens",
      "outputs": [
        {
          "internalType": "uint256",
          "name": "",
          "type": "uint256"
        }
      ],
      "stateMutability": "view",
      "type": "function"
    },
    {
      "inputs": [],
      "name": "owner",
      "outputs": [
        {
          "internalType": "address",
          "name": "",
          "type": "address"
        }
      ],
      "stateMutability": "view",
      "type": "function"
    },
    {
      "inputs": [],
      "name": "reinvest",
      "outputs": [],
      "stateMutability": "nonpayable",
      "type": "function"
    },
    {
      "inputs": [],
      "name": "renounceOwnership",
      "outputs": [],
      "stateMutability": "nonpayable",
      "type": "function"
    },
    {
      "inputs": [
        {
          "internalType": "uint256",
          "name": "minReturnAmountAccepted",
          "type": "uint256"
        },
        {
          "internalType": "bool",
          "name": "disableDeposits",
          "type": "bool"
        }
      ],
      "name": "rescueDeployedFunds",
      "outputs": [],
      "stateMutability": "nonpayable",
      "type": "function"
    },
    {
      "inputs": [],
      "name": "rewardToken",
      "outputs": [
        {
          "internalType": "contract IERC20",
          "name": "",
          "type": "address"
        }
      ],
      "stateMutability": "view",
      "type": "function"
    },
    {
      "inputs": [],
      "name": "setAllowances",
      "outputs": [],
      "stateMutability": "nonpayable",
      "type": "function"
    },
    {
      "inputs": [
        {
          "internalType": "bool",
          "name": "value",
          "type": "bool"
        }
      ],
      "name": "setDepositsEnabled",
      "outputs": [],
      "stateMutability": "nonpayable",
      "type": "function"
    },
    {
      "inputs": [
        {
          "internalType": "uint256",
          "name": "value",
          "type": "uint256"
        }
      ],
      "name": "setReinvestMinValue",
      "outputs": [],
      "stateMutability": "nonpayable",
      "type": "function"
    },
    {
      "inputs": [
        {
          "internalType": "uint256",
          "name": "value",
          "type": "uint256"
        }
      ],
      "name": "setReinvestReward",
      "outputs": [],
      "stateMutability": "nonpayable",
      "type": "function"
    },
    {
      "inputs": [
        {
          "internalType": "address",
          "name": "value",
          "type": "address"
        }
      ],
      "name": "setSysAddr",
      "outputs": [],
      "stateMutability": "nonpayable",
      "type": "function"
    },
    {
      "inputs": [
        {
          "internalType": "uint256",
          "name": "value",
          "type": "uint256"
        }
      ],
      "name": "setSystemFee",
      "outputs": [],
      "stateMutability": "nonpayable",
      "type": "function"
    },
    {
      "inputs": [],
      "name": "stakingContract",
      "outputs": [
        {
          "internalType": "contract IStakingRewards",
          "name": "",
          "type": "address"
        }
      ],
      "stateMutability": "view",
      "type": "function"
    },
    {
      "inputs": [],
      "name": "sysAddr",
      "outputs": [
        {
          "internalType": "address",
          "name": "",
          "type": "address"
        }
      ],
      "stateMutability": "view",
      "type": "function"
    },
    {
      "inputs": [],
      "name": "totalDeposits",
      "outputs": [
        {
          "internalType": "uint256",
          "name": "",
          "type": "uint256"
        }
      ],
      "stateMutability": "view",
      "type": "function"
    },
    {
      "inputs": [],
      "name": "totalSupply",
      "outputs": [
        {
          "internalType": "uint256",
          "name": "",
          "type": "uint256"
        }
      ],
      "stateMutability": "view",
      "type": "function"
    },
    {
      "inputs": [
        {
          "internalType": "address",
          "name": "newOwner",
          "type": "address"
        }
      ],
      "name": "transferOwnership",
      "outputs": [],
      "stateMutability": "nonpayable",
      "type": "function"
    },
    {
      "inputs": [
        {
          "internalType": "uint256",
          "name": "amount",
          "type": "uint256"
        }
      ],
      "name": "withdraw",
      "outputs": [],
      "stateMutability": "nonpayable",
      "type": "function"
    }
  ],
  "bytecode": "0x60806040523480156200001157600080fd5b5060405162001cd638038062001cd6833981810160405260c08110156200003757600080fd5b508051602082015160408301516060840151608085015160a090950151939492939192909160006200006862000147565b600080546001600160a01b0319166001600160a01b0383169081178255604051929350917f8be0079c531659141344cd1fd0a4f28419497f9722a3daafe3b4186f6b6457e0908290a350600180546001600160a01b038089166001600160a01b031992831617835560028054898316908416179055600480549188169190921617905560078490556009839055600a8290556008805460ff191690911790556200011162000147565b600380546001600160a01b0319166001600160a01b03929092169190911790556200013b6200014b565b5050505050506200025f565b3390565b6200015562000147565b6001600160a01b03166200016862000250565b6001600160a01b031614620001c4576040805162461bcd60e51b815260206004820181905260248201527f4f776e61626c653a2063616c6c6572206973206e6f7420746865206f776e6572604482015290519081900360640190fd5b600154600480546040805163095ea7b360e01b81526001600160a01b039283169381019390935260001960248401525192169163095ea7b3916044808201926020929091908290030181600087803b1580156200022057600080fd5b505af115801562000235573d6000803e3d6000fd5b505050506040513d60208110156200024c57600080fd5b5050565b6000546001600160a01b031690565b611a67806200026f6000396000f3fe608060405234801561001057600080fd5b50600436106101da5760003560e01c8063b6b55f2511610104578063e6199df4116100a2578063f2fde38b11610071578063f2fde38b1461042c578063f7c618c114610452578063f8b2cb4f1461045a578063fdb5a03e14610480576101da565b8063e6199df4146103e2578063e9fad8ee146103ff578063eab89a5a14610407578063ee99205c14610424576101da565b8063d995f24b116100de578063d995f24b146103ad578063dbd9a4d4146103b5578063dd8ce4d6146103bd578063e53798d2146103da576101da565b8063b6b55f2514610380578063c4b24a461461039d578063c89039c5146103a5576101da565b80635392fd1c1161017c5780638da5cb5b1161014b5780638da5cb5b1461032c5780639ab7fa1c146103345780639f04586c1461033c578063ac0d31ff1461035b576101da565b80635392fd1c146102da578063647abe2e146102f6578063715018a61461031c5780637d88209714610324576101da565b806318160ddd116101b857806318160ddd1461023f5780632e1a7d4d146102595780632f4f21e2146102765780634a970be7146102a2576101da565b8063030c2bbf146101df57806314b0452b1461020357806316da822314610222575b600080fd5b6101e7610488565b604080516001600160a01b039092168252519081900360200190f35b6102206004803603602081101561021957600080fd5b5035610497565b005b6102206004803603602081101561023857600080fd5b5035610510565b610247610589565b60408051918252519081900360200190f35b6102206004803603602081101561026f57600080fd5b503561058f565b6102206004803603604081101561028c57600080fd5b506001600160a01b0381351690602001356107a1565b610220600480360360a08110156102b857600080fd5b5080359060208101359060ff60408201351690606081013590608001356107ab565b6102e2610864565b604080519115158252519081900360200190f35b6102206004803603602081101561030c57600080fd5b50356001600160a01b031661086d565b610220610910565b6102476109db565b6101e76109e1565b6102476109f0565b6102206004803603602081101561035257600080fd5b503515156109f6565b6102206004803603604081101561037157600080fd5b50803590602001351515610a93565b6102206004803603602081101561039657600080fd5b5035610d2a565b610247610d37565b6101e7610dce565b610247610ddd565b610220610de3565b610247600480360360208110156103d357600080fd5b5035610ef5565b610247610f42565b610220600480360360208110156103f857600080fd5b5035610f48565b610220610fc1565b6102476004803603602081101561041d57600080fd5b5035610fdc565b6101e761101c565b6102206004803603602081101561044257600080fd5b50356001600160a01b031661102b565b6101e761114c565b6102476004803603602081101561047057600080fd5b50356001600160a01b031661115b565b610220611176565b6003546001600160a01b031681565b61049f6111e2565b6001600160a01b03166104b06109e1565b6001600160a01b03161461050b576040805162461bcd60e51b815260206004820181905260248201527f4f776e61626c653a2063616c6c6572206973206e6f7420746865206f776e6572604482015290519081900360640190fd5b600a55565b6105186111e2565b6001600160a01b03166105296109e1565b6001600160a01b031614610584576040805162461bcd60e51b815260206004820181905260248201527f4f776e61626c653a2063616c6c6572206973206e6f7420746865206f776e6572604482015290519081900360640190fd5b600955565b60065481565b806105cb5760405162461bcd60e51b81526004018080602001828103825260238152602001806119eb6023913960400191505060405180910390fd5b336000908152600b602052604090205481111561062f576040805162461bcd60e51b815260206004820152601d60248201527f434e524175746f3a3a77697468647261773a206e6f2062616c616e6365000000604482015290519081900360640190fd5b600061063a82610fdc565b9050801561079d5761064b816111e6565b6001546040805163a9059cbb60e01b81523360048201526024810184905290516001600160a01b039092169163a9059cbb916044808201926020929091908290030181600087803b15801561069f57600080fd5b505af11580156106b3573d6000803e3d6000fd5b505050506040513d60208110156106c957600080fd5b505161071c576040805162461bcd60e51b815260206004820152601960248201527f434e524175746f636f6d706f756e643a3a776974686472617700000000000000604482015290519081900360640190fd5b336000908152600b6020526040902054610736908361129d565b336000908152600b6020526040902055600654610753908361129d565b600655600554610763908261129d565b60055560408051828152905133917f884edad9ce6fa2440d8a54cc123490eb96d2768479d49ff9c7366125a9424364919081900360200190a25b5050565b61079d82826112ff565b600154604080517fd505accf000000000000000000000000000000000000000000000000000000008152336004820152306024820152604481018890526064810187905260ff8616608482015260a4810185905260c4810184905290516001600160a01b039092169163d505accf9160e48082019260009290919082900301818387803b15801561083b57600080fd5b505af115801561084f573d6000803e3d6000fd5b5050505061085d33866112ff565b5050505050565b60085460ff1681565b6108756111e2565b6001600160a01b03166108866109e1565b6001600160a01b0316146108e1576040805162461bcd60e51b815260206004820181905260248201527f4f776e61626c653a2063616c6c6572206973206e6f7420746865206f776e6572604482015290519081900360640190fd5b6003805473ffffffffffffffffffffffffffffffffffffffff19166001600160a01b0392909216919091179055565b6109186111e2565b6001600160a01b03166109296109e1565b6001600160a01b031614610984576040805162461bcd60e51b815260206004820181905260248201527f4f776e61626c653a2063616c6c6572206973206e6f7420746865206f776e6572604482015290519081900360640190fd5b600080546040516001600160a01b03909116907f8be0079c531659141344cd1fd0a4f28419497f9722a3daafe3b4186f6b6457e0908390a36000805473ffffffffffffffffffffffffffffffffffffffff19169055565b60055481565b6000546001600160a01b031690565b60075481565b6109fe6111e2565b6001600160a01b0316610a0f6109e1565b6001600160a01b031614610a6a576040805162461bcd60e51b815260206004820181905260248201527f4f776e61626c653a2063616c6c6572206973206e6f7420746865206f776e6572604482015290519081900360640190fd5b60085460ff1615158115151415610a8057600080fd5b6008805460ff1916911515919091179055565b610a9b6111e2565b6001600160a01b0316610aac6109e1565b6001600160a01b031614610b07576040805162461bcd60e51b815260206004820181905260248201527f4f776e61626c653a2063616c6c6572206973206e6f7420746865206f776e6572604482015290519081900360640190fd5b600154604080516370a0823160e01b815230600482015290516000926001600160a01b0316916370a08231916024808301926020929190829003018186803b158015610b5257600080fd5b505afa158015610b66573d6000803e3d6000fd5b505050506040513d6020811015610b7c57600080fd5b505160048054604080517fe9fad8ee00000000000000000000000000000000000000000000000000000000815290519394506001600160a01b039091169263e9fad8ee9282810192600092919082900301818387803b158015610bde57600080fd5b505af1158015610bf2573d6000803e3d6000fd5b5050600154604080516370a0823160e01b81523060048201529051600094506001600160a01b0390921692506370a08231916024808301926020929190829003018186803b158015610c4357600080fd5b505afa158015610c57573d6000803e3d6000fd5b505050506040513d6020811015610c6d57600080fd5b5051905083610c7c828461129d565b1015610cb95760405162461bcd60e51b8152600401808060200182810382526024815260200180611a0e6024913960400191505060405180910390fd5b600581905560065460408051838152602081019290925280517fc7606d21ac05cd309191543e409f0845c016120563783d70e4f41419dc0ef2349281900390910190a160085460ff1615156001148015610d1557506001831515145b15610d2457610d2460006109f6565b50505050565b610d3433826112ff565b50565b60048054604080517e8cc2620000000000000000000000000000000000000000000000000000000081523093810193909352516000926001600160a01b0390921691628cc262916024808301926020929190829003018186803b158015610d9d57600080fd5b505afa158015610db1573d6000803e3d6000fd5b505050506040513d6020811015610dc757600080fd5b5051905090565b6001546001600160a01b031681565b60095481565b610deb6111e2565b6001600160a01b0316610dfc6109e1565b6001600160a01b031614610e57576040805162461bcd60e51b815260206004820181905260248201527f4f776e61626c653a2063616c6c6572206973206e6f7420746865206f776e6572604482015290519081900360640190fd5b60015460048054604080517f095ea7b30000000000000000000000000000000000000000000000000000000081526001600160a01b039283169381019390935260001960248401525192169163095ea7b3916044808201926020929091908290030181600087803b158015610ecb57600080fd5b505af1158015610edf573d6000803e3d6000fd5b505050506040513d602081101561079d57600080fd5b6000610f0e6005546006546114ba90919063ffffffff16565b610f19575080610f3d565b610f3a600554610f34600654856114ba90919063ffffffff16565b9061151a565b90505b919050565b600a5481565b610f506111e2565b6001600160a01b0316610f616109e1565b6001600160a01b031614610fbc576040805162461bcd60e51b815260206004820181905260248201527f4f776e61626c653a2063616c6c6572206973206e6f7420746865206f776e6572604482015290519081900360640190fd5b600755565b336000908152600b6020526040902054610fda9061058f565b565b6000610ff56005546006546114ba90919063ffffffff16565b61100157506000610f3d565b610f3a600654610f34600554856114ba90919063ffffffff16565b6004546001600160a01b031681565b6110336111e2565b6001600160a01b03166110446109e1565b6001600160a01b03161461109f576040805162461bcd60e51b815260206004820181905260248201527f4f776e61626c653a2063616c6c6572206973206e6f7420746865206f776e6572604482015290519081900360640190fd5b6001600160a01b0381166110e45760405162461bcd60e51b815260040180806020018281038252602681526020018061195b6026913960400191505060405180910390fd5b600080546040516001600160a01b03808516939216917f8be0079c531659141344cd1fd0a4f28419497f9722a3daafe3b4186f6b6457e091a36000805473ffffffffffffffffffffffffffffffffffffffff19166001600160a01b0392909216919091179055565b6002546001600160a01b031681565b6001600160a01b03166000908152600b602052604090205490565b6000611180610d37565b90506007548110156111d9576040805162461bcd60e51b815260206004820152601960248201527f434e524175746f636f6d706f756e643a3a7265696e7665737400000000000000604482015290519081900360640190fd5b610d3481611581565b3390565b600081116112255760405162461bcd60e51b81526004018080602001828103825260278152602001806119a36027913960400191505060405180910390fd5b60048054604080517f2e1a7d4d000000000000000000000000000000000000000000000000000000008152928301849052516001600160a01b0390911691632e1a7d4d91602480830192600092919082900301818387803b15801561128957600080fd5b505af115801561085d573d6000803e3d6000fd5b6000828211156112f4576040805162461bcd60e51b815260206004820152601e60248201527f536166654d6174683a207375627472616374696f6e206f766572666c6f770000604482015290519081900360640190fd5b508082035b92915050565b60085460ff16151560011461135b576040805162461bcd60e51b815260206004820152601e60248201527f434e524175746f636f6d706f756e643a3a6465706f7369742066616c73650000604482015290519081900360640190fd5b600154604080517f23b872dd0000000000000000000000000000000000000000000000000000000081523360048201523060248201526044810184905290516001600160a01b03909216916323b872dd916064808201926020929091908290030181600087803b1580156113ce57600080fd5b505af11580156113e2573d6000803e3d6000fd5b505050506040513d60208110156113f857600080fd5b505161140357600080fd5b61140c81611847565b600061141782610ef5565b6006549091506114279082611900565b6006556001600160a01b0383166000908152600b602052604090205461144d9082611900565b6001600160a01b0384166000908152600b60205260409020556005546114739083611900565b6005556040805183815290516001600160a01b038516917fe1fffcc4923d04b559f4d29a8bfc6cda04eb5b0d3c460751c2402c5c5cc9109c919081900360200190a2505050565b6000826114c9575060006112f9565b828202828482816114d657fe5b04146115135760405162461bcd60e51b81526004018080602001828103825260218152602001806119ca6021913960400191505060405180910390fd5b9392505050565b6000808211611570576040805162461bcd60e51b815260206004820152601a60248201527f536166654d6174683a206469766973696f6e206279207a65726f000000000000604482015290519081900360640190fd5b81838161157957fe5b049392505050565b60048054604080517f3d18b91200000000000000000000000000000000000000000000000000000000815290516001600160a01b0390921692633d18b91292828201926000929082900301818387803b1580156115dd57600080fd5b505af11580156115f1573d6000803e3d6000fd5b505050506000611612612710610f34600a54856114ba90919063ffffffff16565b905080156116f0576002546003546040805163a9059cbb60e01b81526001600160a01b039283166004820152602481018590529051919092169163a9059cbb9160448083019260209291908290030181600087803b15801561167357600080fd5b505af1158015611687573d6000803e3d6000fd5b505050506040513d602081101561169d57600080fd5b50516116f0576040805162461bcd60e51b815260206004820181905260248201527f434e524175746f636f6d706f756e643a3a5f73797374656d6665652c20666565604482015290519081900360640190fd5b600061170d612710610f34600954866114ba90919063ffffffff16565b905080156117d0576002546040805163a9059cbb60e01b81523360048201526024810184905290516001600160a01b039092169163a9059cbb916044808201926020929091908290030181600087803b15801561176957600080fd5b505af115801561177d573d6000803e3d6000fd5b505050506040513d602081101561179357600080fd5b50516117d05760405162461bcd60e51b81526004018080602001828103825260228152602001806119816022913960400191505060405180910390fd5b60006117e6826117e0868661129d565b9061129d565b90506117f181611847565b6005546117fe9082611900565b600581905560065460408051928352602083019190915280517fc7606d21ac05cd309191543e409f0845c016120563783d70e4f41419dc0ef2349281900390910190a150505050565b6000811161189c576040805162461bcd60e51b815260206004820152601f60248201527f434e524175746f636f6d706f756e643a3a5f7374616b65434e52546f6b656e00604482015290519081900360640190fd5b60048054604080517fa694fc3a000000000000000000000000000000000000000000000000000000008152928301849052516001600160a01b039091169163a694fc3a91602480830192600092919082900301818387803b15801561128957600080fd5b600082820183811015611513576040805162461bcd60e51b815260206004820152601b60248201527f536166654d6174683a206164646974696f6e206f766572666c6f770000000000604482015290519081900360640190fdfe4f776e61626c653a206e6577206f776e657220697320746865207a65726f2061646472657373434e524175746f636f6d706f756e643a3a5f7265696e766573742c20726577617264434e524175746f636f6d706f756e643a3a5f77697468647261774465706f736974546f6b656e73536166654d6174683a206d756c7469706c69636174696f6e206f766572666c6f77434e524175746f3a3a77697468647261773a20616d6f756e742063616e742062652030434e524175746f636f6d706f756e643a3a7265736375654465706c6f79656446756e6473a2646970667358221220d3a2805bd2cc82b2198e48284cb19d5770ace7605e537e5c5ae6cda592db640064736f6c63430007060033",
  "linkReferences": {},
  "deployedLinkReferences": {}
}