{
  "_format": "hh-sol-artifact-1",
  "contractName": "StakingDoubleRewardsJoe",
  "sourceName": "contracts/StakingDoubleRewardsJoe.sol",
  "abi": [
    {
      "inputs": [
        {
          "internalType": "uint256",
          "name": "_joePid",
          "type": "uint256"
        },
        {
          "internalType": "address",
          "name": "_rewardsToken",
          "type": "address"
        },
        {
          "internalType": "address",
          "name": "_stakingToken",
          "type": "address"
        },
        {
          "internalType": "address",
          "name": "_liqPoolManager",
          "type": "address"
        },
        {
          "internalType": "address",
          "name": "_rewarder",
          "type": "address"
        },
        {
          "internalType": "address[]",
          "name": "_rewardTokens",
          "type": "address[]"
        },
        {
          "internalType": "bool",
          "name": "_isSuper",
          "type": "bool"
        }
      ],
      "stateMutability": "nonpayable",
      "type": "constructor"
    },
    {
      "anonymous": false,
      "inputs": [
        {
          "indexed": true,
          "internalType": "address",
          "name": "user",
          "type": "address"
        },
        {
          "indexed": false,
          "internalType": "uint256",
          "name": "amount",
          "type": "uint256"
        }
      ],
      "name": "EmergencyWithdraw",
      "type": "event"
    },
    {
      "anonymous": false,
      "inputs": [
        {
          "indexed": true,
          "internalType": "address",
          "name": "user",
          "type": "address"
        },
        {
          "indexed": false,
          "internalType": "uint256",
          "name": "harvestedAmount",
          "type": "uint256"
        }
      ],
      "name": "Harvest",
      "type": "event"
    },
    {
      "anonymous": false,
      "inputs": [
        {
          "indexed": true,
          "internalType": "address",
          "name": "previousOwner",
          "type": "address"
        },
        {
          "indexed": true,
          "internalType": "address",
          "name": "newOwner",
          "type": "address"
        }
      ],
      "name": "OwnershipTransferred",
      "type": "event"
    },
    {
      "anonymous": false,
      "inputs": [
        {
          "indexed": false,
          "internalType": "address",
          "name": "token",
          "type": "address"
        },
        {
          "indexed": false,
          "internalType": "uint256",
          "name": "amount",
          "type": "uint256"
        }
      ],
      "name": "Recovered",
      "type": "event"
    },
    {
      "anonymous": false,
      "inputs": [
        {
          "indexed": false,
          "internalType": "uint256",
          "name": "reward",
          "type": "uint256"
        }
      ],
      "name": "RewardAdded",
      "type": "event"
    },
    {
      "anonymous": false,
      "inputs": [
        {
          "indexed": true,
          "internalType": "address",
          "name": "user",
          "type": "address"
        },
        {
          "indexed": false,
          "internalType": "uint256",
          "name": "reward",
          "type": "uint256"
        }
      ],
      "name": "RewardPaid",
      "type": "event"
    },
    {
      "anonymous": false,
      "inputs": [
        {
          "indexed": false,
          "internalType": "uint256",
          "name": "newDuration",
          "type": "uint256"
        }
      ],
      "name": "RewardsDurationUpdated",
      "type": "event"
    },
    {
      "anonymous": false,
      "inputs": [
        {
          "indexed": true,
          "internalType": "address",
          "name": "user",
          "type": "address"
        },
        {
          "indexed": false,
          "internalType": "uint256",
          "name": "amount",
          "type": "uint256"
        }
      ],
      "name": "Staked",
      "type": "event"
    },
    {
      "anonymous": false,
      "inputs": [
        {
          "indexed": true,
          "internalType": "address",
          "name": "user",
          "type": "address"
        },
        {
          "indexed": false,
          "internalType": "uint256",
          "name": "amount",
          "type": "uint256"
        }
      ],
      "name": "Withdrawn",
      "type": "event"
    },
    {
      "inputs": [
        {
          "internalType": "address",
          "name": "",
          "type": "address"
        }
      ],
      "name": "approvedContracts",
      "outputs": [
        {
          "internalType": "bool",
          "name": "",
          "type": "bool"
        }
      ],
      "stateMutability": "view",
      "type": "function"
    },
    {
      "inputs": [
        {
          "internalType": "address",
          "name": "account",
          "type": "address"
        }
      ],
      "name": "balanceOf",
      "outputs": [
        {
          "internalType": "uint256",
          "name": "",
          "type": "uint256"
        }
      ],
      "stateMutability": "view",
      "type": "function"
    },
    {
      "inputs": [
        {
          "internalType": "address",
          "name": "token",
          "type": "address"
        }
      ],
      "name": "checkBalance",
      "outputs": [
        {
          "internalType": "uint256",
          "name": "",
          "type": "uint256"
        }
      ],
      "stateMutability": "view",
      "type": "function"
    },
    {
      "inputs": [],
      "name": "checkReward",
      "outputs": [
        {
          "internalType": "uint256",
          "name": "",
          "type": "uint256"
        }
      ],
      "stateMutability": "view",
      "type": "function"
    },
    {
      "inputs": [],
      "name": "checkRewardSuper",
      "outputs": [
        {
          "internalType": "uint256",
          "name": "",
          "type": "uint256"
        }
      ],
      "stateMutability": "view",
      "type": "function"
    },
    {
      "inputs": [],
      "name": "checkRewards",
      "outputs": [
        {
          "internalType": "uint256",
          "name": "",
          "type": "uint256"
        },
        {
          "internalType": "address",
          "name": "",
          "type": "address"
        },
        {
          "internalType": "string",
          "name": "",
          "type": "string"
        },
        {
          "internalType": "uint256",
          "name": "",
          "type": "uint256"
        }
      ],
      "stateMutability": "view",
      "type": "function"
    },
    {
      "inputs": [
        {
          "internalType": "address",
          "name": "account",
          "type": "address"
        }
      ],
      "name": "earned",
      "outputs": [
        {
          "internalType": "uint256",
          "name": "",
          "type": "uint256"
        }
      ],
      "stateMutability": "view",
      "type": "function"
    },
    {
      "inputs": [],
      "name": "emergencyWithdraw",
      "outputs": [],
      "stateMutability": "nonpayable",
      "type": "function"
    },
    {
      "inputs": [],
      "name": "getRewardForDuration",
      "outputs": [
        {
          "internalType": "uint256",
          "name": "",
          "type": "uint256"
        }
      ],
      "stateMutability": "view",
      "type": "function"
    },
    {
      "inputs": [],
      "name": "harvest",
      "outputs": [],
      "stateMutability": "nonpayable",
      "type": "function"
    },
    {
      "inputs": [
        {
          "internalType": "address",
          "name": "",
          "type": "address"
        },
        {
          "internalType": "address",
          "name": "",
          "type": "address"
        }
      ],
      "name": "harvested",
      "outputs": [
        {
          "internalType": "uint256",
          "name": "",
          "type": "uint256"
        }
      ],
      "stateMutability": "view",
      "type": "function"
    },
    {
      "inputs": [],
      "name": "isSuper",
      "outputs": [
        {
          "internalType": "bool",
          "name": "",
          "type": "bool"
        }
      ],
      "stateMutability": "view",
      "type": "function"
    },
    {
      "inputs": [],
      "name": "joePid",
      "outputs": [
        {
          "internalType": "uint256",
          "name": "",
          "type": "uint256"
        }
      ],
      "stateMutability": "view",
      "type": "function"
    },
    {
      "inputs": [],
      "name": "lastTimeRewardApplicable",
      "outputs": [
        {
          "internalType": "uint256",
          "name": "",
          "type": "uint256"
        }
      ],
      "stateMutability": "view",
      "type": "function"
    },
    {
      "inputs": [],
      "name": "lastUpdateTime",
      "outputs": [
        {
          "internalType": "uint256",
          "name": "",
          "type": "uint256"
        }
      ],
      "stateMutability": "view",
      "type": "function"
    },
    {
      "inputs": [],
      "name": "liqPoolManager",
      "outputs": [
        {
          "internalType": "address",
          "name": "",
          "type": "address"
        }
      ],
      "stateMutability": "view",
      "type": "function"
    },
    {
      "inputs": [],
      "name": "lpPerShare",
      "outputs": [
        {
          "internalType": "uint256",
          "name": "",
          "type": "uint256"
        }
      ],
      "stateMutability": "view",
      "type": "function"
    },
    {
      "inputs": [],
      "name": "masterChefJoe",
      "outputs": [
        {
          "internalType": "contract IJoeChef",
          "name": "",
          "type": "address"
        }
      ],
      "stateMutability": "view",
      "type": "function"
    },
    {
      "inputs": [
        {
          "internalType": "address[]",
          "name": "contracts",
          "type": "address[]"
        },
        {
          "internalType": "bool[]",
          "name": "statuses",
          "type": "bool[]"
        }
      ],
      "name": "modifyApprovedContracts",
      "outputs": [],
      "stateMutability": "nonpayable",
      "type": "function"
    },
    {
      "inputs": [
        {
          "internalType": "uint256",
          "name": "reward",
          "type": "uint256"
        }
      ],
      "name": "notifyRewardAmount",
      "outputs": [],
      "stateMutability": "nonpayable",
      "type": "function"
    },
    {
      "inputs": [],
      "name": "onlyApprovedContractOrEOAStatus",
      "outputs": [
        {
          "internalType": "bool",
          "name": "",
          "type": "bool"
        }
      ],
      "stateMutability": "view",
      "type": "function"
    },
    {
      "inputs": [],
      "name": "owner",
      "outputs": [
        {
          "internalType": "address",
          "name": "",
          "type": "address"
        }
      ],
      "stateMutability": "view",
      "type": "function"
    },
    {
      "inputs": [
        {
          "internalType": "address",
          "name": "user",
          "type": "address"
        }
      ],
      "name": "pendingRewardJoe",
      "outputs": [
        {
          "internalType": "uint256",
          "name": "",
          "type": "uint256"
        }
      ],
      "stateMutability": "view",
      "type": "function"
    },
    {
      "inputs": [
        {
          "internalType": "address",
          "name": "user",
          "type": "address"
        }
      ],
      "name": "pendingRewardSuper",
      "outputs": [
        {
          "internalType": "uint256",
          "name": "",
          "type": "uint256"
        }
      ],
      "stateMutability": "view",
      "type": "function"
    },
    {
      "inputs": [
        {
          "internalType": "address",
          "name": "user",
          "type": "address"
        }
      ],
      "name": "pendingRewards",
      "outputs": [
        {
          "internalType": "uint256",
          "name": "",
          "type": "uint256"
        },
        {
          "internalType": "uint256",
          "name": "",
          "type": "uint256"
        },
        {
          "internalType": "uint256",
          "name": "",
          "type": "uint256"
        }
      ],
      "stateMutability": "view",
      "type": "function"
    },
    {
      "inputs": [],
      "name": "performanceFeeAddress",
      "outputs": [
        {
          "internalType": "address",
          "name": "",
          "type": "address"
        }
      ],
      "stateMutability": "view",
      "type": "function"
    },
    {
      "inputs": [],
      "name": "performanceFeeBips",
      "outputs": [
        {
          "internalType": "uint256",
          "name": "",
          "type": "uint256"
        }
      ],
      "stateMutability": "view",
      "type": "function"
    },
    {
      "inputs": [],
      "name": "periodFinish",
      "outputs": [
        {
          "internalType": "uint256",
          "name": "",
          "type": "uint256"
        }
      ],
      "stateMutability": "view",
      "type": "function"
    },
    {
      "inputs": [
        {
          "internalType": "address",
          "name": "tokenAddress",
          "type": "address"
        },
        {
          "internalType": "uint256",
          "name": "tokenAmount",
          "type": "uint256"
        }
      ],
      "name": "recoverERC20",
      "outputs": [],
      "stateMutability": "nonpayable",
      "type": "function"
    },
    {
      "inputs": [],
      "name": "renounceOwnership",
      "outputs": [],
      "stateMutability": "nonpayable",
      "type": "function"
    },
    {
      "inputs": [
        {
          "internalType": "address",
          "name": "",
          "type": "address"
        },
        {
          "internalType": "address",
          "name": "",
          "type": "address"
        }
      ],
      "name": "rewardDebt",
      "outputs": [
        {
          "internalType": "uint256",
          "name": "",
          "type": "uint256"
        }
      ],
      "stateMutability": "view",
      "type": "function"
    },
    {
      "inputs": [],
      "name": "rewardPerToken",
      "outputs": [
        {
          "internalType": "uint256",
          "name": "",
          "type": "uint256"
        }
      ],
      "stateMutability": "view",
      "type": "function"
    },
    {
      "inputs": [],
      "name": "rewardPerTokenStored",
      "outputs": [
        {
          "internalType": "uint256",
          "name": "",
          "type": "uint256"
        }
      ],
      "stateMutability": "view",
      "type": "function"
    },
    {
      "inputs": [],
      "name": "rewardRate",
      "outputs": [
        {
          "internalType": "uint256",
          "name": "",
          "type": "uint256"
        }
      ],
      "stateMutability": "view",
      "type": "function"
    },
    {
      "inputs": [
        {
          "internalType": "uint256",
          "name": "",
          "type": "uint256"
        }
      ],
      "name": "rewardSuperTokens",
      "outputs": [
        {
          "internalType": "address",
          "name": "",
          "type": "address"
        }
      ],
      "stateMutability": "view",
      "type": "function"
    },
    {
      "inputs": [],
      "name": "rewardTokenJOE",
      "outputs": [
        {
          "internalType": "address",
          "name": "",
          "type": "address"
        }
      ],
      "stateMutability": "view",
      "type": "function"
    },
    {
      "inputs": [
        {
          "internalType": "address",
          "name": "",
          "type": "address"
        }
      ],
      "name": "rewardTokensPerShare",
      "outputs": [
        {
          "internalType": "uint256",
          "name": "",
          "type": "uint256"
        }
      ],
      "stateMutability": "view",
      "type": "function"
    },
    {
      "inputs": [],
      "name": "rewarder",
      "outputs": [
        {
          "internalType": "contract IRewarder",
          "name": "",
          "type": "address"
        }
      ],
      "stateMutability": "view",
      "type": "function"
    },
    {
      "inputs": [
        {
          "internalType": "address",
          "name": "",
          "type": "address"
        }
      ],
      "name": "rewards",
      "outputs": [
        {
          "internalType": "uint256",
          "name": "",
          "type": "uint256"
        }
      ],
      "stateMutability": "view",
      "type": "function"
    },
    {
      "inputs": [],
      "name": "rewardsDuration",
      "outputs": [
        {
          "internalType": "uint256",
          "name": "",
          "type": "uint256"
        }
      ],
      "stateMutability": "view",
      "type": "function"
    },
    {
      "inputs": [],
      "name": "rewardsSuperTokens",
      "outputs": [
        {
          "internalType": "address[]",
          "name": "",
          "type": "address[]"
        }
      ],
      "stateMutability": "view",
      "type": "function"
    },
    {
      "inputs": [],
      "name": "rewardsSuperTokensCount",
      "outputs": [
        {
          "internalType": "uint256",
          "name": "",
          "type": "uint256"
        }
      ],
      "stateMutability": "view",
      "type": "function"
    },
    {
      "inputs": [],
      "name": "rewardsToken",
      "outputs": [
        {
          "internalType": "contract IERC20",
          "name": "",
          "type": "address"
        }
      ],
      "stateMutability": "view",
      "type": "function"
    },
    {
      "inputs": [
        {
          "internalType": "address",
          "name": "_liqPoolManager",
          "type": "address"
        }
      ],
      "name": "setLiqPoolManager",
      "outputs": [],
      "stateMutability": "nonpayable",
      "type": "function"
    },
    {
      "inputs": [
        {
          "internalType": "bool",
          "name": "newStatus",
          "type": "bool"
        }
      ],
      "name": "setOnlyApprovedContractOrEOAStatus",
      "outputs": [],
      "stateMutability": "nonpayable",
      "type": "function"
    },
    {
      "inputs": [
        {
          "internalType": "address",
          "name": "_performanceFeeAddress",
          "type": "address"
        }
      ],
      "name": "setPerfomanceFeeAddress",
      "outputs": [],
      "stateMutability": "nonpayable",
      "type": "function"
    },
    {
      "inputs": [
        {
          "internalType": "uint256",
          "name": "newPerformanceFeeBips",
          "type": "uint256"
        }
      ],
      "name": "setPerformanceFeeBips",
      "outputs": [],
      "stateMutability": "nonpayable",
      "type": "function"
    },
    {
      "inputs": [
        {
          "internalType": "uint256",
          "name": "_rewardsDuration",
          "type": "uint256"
        }
      ],
      "name": "setRewardsDuration",
      "outputs": [],
      "stateMutability": "nonpayable",
      "type": "function"
    },
    {
      "inputs": [
        {
          "internalType": "bool",
          "name": "_isSuper",
          "type": "bool"
        }
      ],
      "name": "setSuper",
      "outputs": [],
      "stateMutability": "nonpayable",
      "type": "function"
    },
    {
      "inputs": [
        {
          "internalType": "uint256",
          "name": "amount",
          "type": "uint256"
        }
      ],
      "name": "stake",
      "outputs": [],
      "stateMutability": "nonpayable",
      "type": "function"
    },
    {
      "inputs": [],
      "name": "stakingToken",
      "outputs": [
        {
          "internalType": "contract IERC20",
          "name": "",
          "type": "address"
        }
      ],
      "stateMutability": "view",
      "type": "function"
    },
    {
      "inputs": [
        {
          "internalType": "address",
          "name": "",
          "type": "address"
        }
      ],
      "name": "totalHarvested",
      "outputs": [
        {
          "internalType": "uint256",
          "name": "",
          "type": "uint256"
        }
      ],
      "stateMutability": "view",
      "type": "function"
    },
    {
      "inputs": [],
      "name": "totalShares",
      "outputs": [
        {
          "internalType": "uint256",
          "name": "",
          "type": "uint256"
        }
      ],
      "stateMutability": "view",
      "type": "function"
    },
    {
      "inputs": [],
      "name": "totalSupply",
      "outputs": [
        {
          "internalType": "uint256",
          "name": "",
          "type": "uint256"
        }
      ],
      "stateMutability": "view",
      "type": "function"
    },
    {
      "inputs": [
        {
          "internalType": "address",
          "name": "newOwner",
          "type": "address"
        }
      ],
      "name": "transferOwnership",
      "outputs": [],
      "stateMutability": "nonpayable",
      "type": "function"
    },
    {
      "inputs": [
        {
          "internalType": "address",
          "name": "",
          "type": "address"
        }
      ],
      "name": "userAmount",
      "outputs": [
        {
          "internalType": "uint256",
          "name": "",
          "type": "uint256"
        }
      ],
      "stateMutability": "view",
      "type": "function"
    },
    {
      "inputs": [
        {
          "internalType": "address",
          "name": "",
          "type": "address"
        }
      ],
      "name": "userRewardDebt",
      "outputs": [
        {
          "internalType": "uint256",
          "name": "",
          "type": "uint256"
        }
      ],
      "stateMutability": "view",
      "type": "function"
    },
    {
      "inputs": [
        {
          "internalType": "address",
          "name": "",
          "type": "address"
        }
      ],
      "name": "userRewardPerTokenPaid",
      "outputs": [
        {
          "internalType": "uint256",
          "name": "",
          "type": "uint256"
        }
      ],
      "stateMutability": "view",
      "type": "function"
    },
    {
      "inputs": [
        {
          "internalType": "uint256",
          "name": "amountShares",
          "type": "uint256"
        }
      ],
      "name": "withdraw",
      "outputs": [],
      "stateMutability": "nonpayable",
      "type": "function"
    }
  ],
  "bytecode": "0x60806040526000600455600060055562069780600655670de0b6b3a7640000600e556103e86010553480156200003457600080fd5b5060405162003d4038038062003d4083398101604081905262000057916200065d565b62000062336200017b565b600f879055600280546001600160a01b03199081166001600160a01b038981169190911790925560038054821688841690811790915560098054909216928716929092179055620000d79073188bed1968b795d5c9022f6a0bb5931ac4c18f00600019620001cb602090811b6200216017901c565b600c80546001600160a01b0319908116736e84a6216ea6dacc71ee8e6b0a5b7322eebc0fdd17909155600b8054821673c17634466ec32f66ebbffd0e927d492406377b5f1790556000805460ff60a01b1916600160a01b179055600a80546001600160a01b038616921691909117905581516200015c90601290602085019062000598565b506011805460ff19169115159190911790555062000857945050505050565b600080546001600160a01b038381166001600160a01b0319831681178455604051919092169283917f8be0079c531659141344cd1fd0a4f28419497f9722a3daafe3b4186f6b6457e09190a35050565b801580620002595750604051636eb1769f60e11b81523060048201526001600160a01b03838116602483015284169063dd62ed3e9060440160206040518083038186803b1580156200021c57600080fd5b505afa15801562000231573d6000803e3d6000fd5b505050506040513d601f19601f8201168201806040525081019062000257919062000799565b155b620002d15760405162461bcd60e51b815260206004820152603660248201527f5361666545524332303a20617070726f76652066726f6d206e6f6e2d7a65726f60448201527f20746f206e6f6e2d7a65726f20616c6c6f77616e63650000000000000000000060648201526084015b60405180910390fd5b604080516001600160a01b038416602482015260448082018490528251808303909101815260649091019091526020810180516001600160e01b0390811663095ea7b360e01b17909152620003299185916200032e16565b505050565b60006200038a826040518060400160405280602081526020017f5361666545524332303a206c6f772d6c6576656c2063616c6c206661696c6564815250856001600160a01b03166200040c60201b62002322179092919060201c565b805190915015620003295780806020019051810190620003ab9190620007b3565b620003295760405162461bcd60e51b815260206004820152602a60248201527f5361666545524332303a204552433230206f7065726174696f6e20646964206e6044820152691bdd081cdd58d8d9595960b21b6064820152608401620002c8565b60606200041d848460008562000427565b90505b9392505050565b6060824710156200048a5760405162461bcd60e51b815260206004820152602660248201527f416464726573733a20696e73756666696369656e742062616c616e636520666f6044820152651c8818d85b1b60d21b6064820152608401620002c8565b843b620004da5760405162461bcd60e51b815260206004820152601d60248201527f416464726573733a2063616c6c20746f206e6f6e2d636f6e74726163740000006044820152606401620002c8565b600080866001600160a01b03168587604051620004f8919062000804565b60006040518083038185875af1925050503d806000811462000537576040519150601f19603f3d011682016040523d82523d6000602084013e6200053c565b606091505b5090925090506200054f8282866200055a565b979650505050505050565b606083156200056b57508162000420565b8251156200057c5782518084602001fd5b8160405162461bcd60e51b8152600401620002c8919062000822565b828054828255906000526020600020908101928215620005f0579160200282015b82811115620005f057825182546001600160a01b0319166001600160a01b03909116178255602090920191600190910190620005b9565b50620005fe92915062000602565b5090565b5b80821115620005fe576000815560010162000603565b80516001600160a01b03811681146200063157600080fd5b919050565b634e487b7160e01b600052604160045260246000fd5b805180151581146200063157600080fd5b600080600080600080600060e0888a0312156200067957600080fd5b8751965060206200068c818a0162000619565b96506200069c60408a0162000619565b9550620006ac60608a0162000619565b9450620006bc60808a0162000619565b60a08a01519094506001600160401b0380821115620006da57600080fd5b818b0191508b601f830112620006ef57600080fd5b81518181111562000704576200070462000636565b8060051b604051601f19603f830116810181811085821117156200072c576200072c62000636565b60405291825284820192508381018501918e8311156200074b57600080fd5b938501935b828510156200077457620007648562000619565b8452938501939285019262000750565b8097505050505050506200078b60c089016200064c565b905092959891949750929550565b600060208284031215620007ac57600080fd5b5051919050565b600060208284031215620007c657600080fd5b62000420826200064c565b60005b83811015620007ee578181015183820152602001620007d4565b83811115620007fe576000848401525b50505050565b6000825162000818818460208701620007d1565b9190910192915050565b602081526000825180602084015262000843816040850160208701620007d1565b601f01601f19169190910160400192915050565b6134d980620008676000396000f3fe608060405234801561001057600080fd5b50600436106103985760003560e01c80637b4717a4116101e9578063cc1a378f1161010f578063df136d65116100ad578063ebe2b12b1161007c578063ebe2b12b14610808578063edc79bac14610811578063f2fde38b1461081e578063f922412d1461083157600080fd5b8063df136d65146107c3578063dfd0c09d146107cc578063e1ad418e146107d5578063ea3cffd2146107f557600080fd5b8063d1bfb52a116100e9578063d1bfb52a1461078d578063d7f0443714610795578063db2e21bc146107a8578063dcc3e06e146107b057600080fd5b8063cc1a378f1461075f578063cd3daf9d14610772578063d1af0c7d1461077a57600080fd5b80639c4ea86911610187578063c4b24a4611610156578063c4b24a4614610720578063c8f33c9114610728578063c910103614610731578063cc0d00e21461074457600080fd5b80639c4ea869146106ad578063a694fc3a146106cd578063ada64f38146106e0578063b80a51f9146106f557600080fd5b80638471692a116101c35780638471692a146106565780638980f11f146106695780638b8763471461067c5780638da5cb5b1461069c57600080fd5b80637b4717a4146106105780637f036a901461063b57806380faa57d1461064e57600080fd5b80633c6b16ab116102ce5780635f5152261161026c578063715018a61161023b578063715018a6146105d957806372bca28c146105e157806372f702f3146105f45780637b0a47ee1461060757600080fd5b80635f5152261461058157806368704ece146105945780636a627d571461059d57806370a08231146105b057600080fd5b80634428b8dd116102a85780634428b8dd146105325780634641257d146105455780634bf6f9e71461054d578063560889b51461056d57600080fd5b80633c6b16ab146105045780633da5fdf4146105175780633ec80f8d1461052a57600080fd5b80632aeaa2911161033b57806331d7a2621161031557806331d7a262146104b1578063386a9525146104df5780633a98ef39146104e85780633c331537146104f157600080fd5b80632aeaa291146104595780632bfea4f9146104715780632e1a7d4d1461049c57600080fd5b806318160ddd1161037757806318160ddd146103f65780631c1f78eb146103fe578063201e417c1461040657806326749ad71461042657600080fd5b80628cc2621461039d5780630700037d146103c357806310066214146103e3575b600080fd5b6103b06103ab366004613043565b61083a565b6040519081526020015b60405180910390f35b6103b06103d1366004613043565b601a6020526000908152604090205481565b6103b06103f1366004613043565b6108b8565b601b546103b0565b6103b06109f8565b6103b0610414366004613043565b60156020526000908152604090205481565b610449610434366004613043565b60016020526000908152604090205460ff1681565b60405190151581526020016103ba565b610461610a16565b6040516103ba94939291906130b8565b61048461047f3660046130f1565b610adf565b6040516001600160a01b0390911681526020016103ba565b6104af6104aa3660046130f1565b610b09565b005b6104c46104bf366004613043565b610eb7565b604080519384526020840192909252908201526060016103ba565b6103b060065481565b6103b0600d5481565b6104af6104ff366004613043565b610ee4565b6104af6105123660046130f1565b610f80565b6104af610525366004613043565b611205565b6012546103b0565b6104af610540366004613118565b61132b565b6104af6113be565b6103b061055b366004613043565b60146020526000908152604090205481565b60005461044990600160a01b900460ff1681565b6103b061058f366004613043565b6114c7565b6103b0600f5481565b6103b06105ab366004613043565b611542565b6103b06105be366004613043565b6001600160a01b03166000908152601c602052604090205490565b6104af61156d565b6104af6105ef366004613181565b6115d3565b600354610484906001600160a01b031681565b6103b060055481565b6103b061061e3660046131ed565b601660209081526000928352604080842090915290825290205481565b6104af610649366004613118565b61171a565b6103b0611787565b600b54610484906001600160a01b031681565b6104af610677366004613226565b611795565b6103b061068a366004613043565b60196020526000908152604090205481565b6000546001600160a01b0316610484565b6103b06106bb366004613043565b60186020526000908152604090205481565b6104af6106db3660046130f1565b61185b565b6106e8611be5565b6040516103ba9190613252565b6103b06107033660046131ed565b601760209081526000928352604080842090915290825290205481565b6103b0611c47565b6103b060075481565b6104af61073f3660046130f1565b611d00565b61048473188bed1968b795d5c9022f6a0bb5931ac4c18f0081565b6104af61076d3660046130f1565b611d5f565b6103b0611e91565b600254610484906001600160a01b031681565b6103b0611edd565b600c54610484906001600160a01b031681565b6104af611f2b565b600a54610484906001600160a01b031681565b6103b060085481565b6103b060105481565b6103b06107e3366004613043565b60136020526000908152604090205481565b600954610484906001600160a01b031681565b6103b060045481565b6011546104499060ff1681565b6104af61082c366004613043565b612081565b6103b0600e5481565b6001600160a01b0381166000908152601a602090815260408083205460199092528220546108b291906108ac90670de0b6b3a7640000906108a69061088790610881611e91565b9061233b565b6001600160a01b0388166000908152601c602052604090205490612347565b90612353565b9061235f565b92915050565b60115460009060ff16156109f0576001600160a01b0382166000908152601360205260408120546012805491929182906108f4576108f461329f565b60009182526020822001546001600160a01b03169150610912611edd565b6001600160a01b038087166000908152601660209081526040808320938716835292815282822054601590915291902054600d5492935090911561097c57600d54610965670de0b6b3a7640000856132cb565b61096f91906132ea565b610979908261330c565b90505b6000670de0b6b3a764000061099183886132cb565b61099b91906132ea565b905060008382116109ad5760006109b7565b6109b78483613324565b905060006127106010546127106109ce9190613324565b6109d890846132cb565b6109e291906132ea565b9a9950505050505050505050565b506000919050565b6000610a1160065460055461234790919063ffffffff16565b905090565b6000806060600080600080600073188bed1968b795d5c9022f6a0bb5931ac4c18f006001600160a01b031663ffcd4263600f54306040518363ffffffff1660e01b8152600401610a799291909182526001600160a01b0316602082015260400190565b60006040518083038186803b158015610a9157600080fd5b505afa158015610aa5573d6000803e3d6000fd5b505050506040513d6000823e601f3d908101601f19168201604052610acd9190810190613351565b929b919a509850909650945050505050565b60128181548110610aef57600080fd5b6000918252602090912001546001600160a01b0316905081565b600054600160a01b900460ff1615610ba15732331480610b3857503360009081526001602052604090205460ff165b610ba15760405162461bcd60e51b815260206004820152602f60248201527f5374616b696e67446f75626c65526577617264733a3a6f6e6c79417070726f7660448201526e6564436f6e74726163744f72454f4160881b60648201526084015b60405180910390fd5b33610baa611e91565b600855610bb5611787565b6007556001600160a01b03811615610bfc57610bd08161083a565b6001600160a01b0382166000908152601a60209081526040808320939093556008546019909152919020555b33600090815260136020526040902054821115610c5b5760405162461bcd60e51b815260206004820152601260248201527f77697468647261773a206e6f7420676f6f6400000000000000000000000000006044820152606401610b98565b8115610eb3576000670de0b6b3a7640000600e5484610c7a91906132cb565b610c8491906132ea565b9050610c8e61236b565b610c966125ff565b610c9e612a12565b8015610d2c57600f54604051630441a3e760e41b815260048101919091526024810182905273188bed1968b795d5c9022f6a0bb5931ac4c18f009063441a3e7090604401600060405180830381600087803b158015610cfc57600080fd5b505af1158015610d10573d6000803e3d6000fd5b5050600354610d2c92506001600160a01b031690503383612a89565b8215610da857600c54610d4a9033906001600160a01b031685612ad2565b60115460ff1615610da85760005b601254811015610da657610d943360128381548110610d7957610d7961329f565b6000918252602090912001546001600160a01b031686612ad2565b80610d9e81613423565b915050610d58565b505b601b54610db5908461233b565b601b55336000908152601c6020526040902054610dd2908461233b565b336000908152601c6020908152604080832093909355601390522054610df9908490613324565b33600090815260136020526040812091909155600854670de0b6b3a764000090610e2390866132cb565b610e2d91906132ea565b3360009081526014602052604090205490915081811015610e4f576000610e59565b610e598282613324565b33600090815260146020526040902055600d54610e77908690613324565b600d5560405185815233907f7084f5476618d8e60b11ef0d7d3f06914655adb8793e28ff7f018d4c76d505d59060200160405180910390a25050505b5050565b6000806000610ec58461083a565b610ece85611542565b610ed7866108b8565b9250925092509193909250565b6000546001600160a01b03163314610f3e5760405162461bcd60e51b815260206004820181905260248201527f4f776e61626c653a2063616c6c6572206973206e6f7420746865206f776e65726044820152606401610b98565b6001600160a01b038116610f5157600080fd5b600b805473ffffffffffffffffffffffffffffffffffffffff19166001600160a01b0392909216919091179055565b6000610f8a611e91565b600855610f95611787565b6007556001600160a01b03811615610fdc57610fb08161083a565b6001600160a01b0382166000908152601a60209081526040808320939093556008546019909152919020555b6000546001600160a01b0316331480610fff57506009546001600160a01b031633145b6110715760405162461bcd60e51b815260206004820152602760248201527f4c6971706f6c6c204d616e61676572206f72204f776e65722063616e2063616c60448201527f6c20746869732e000000000000000000000000000000000000000000000000006064820152608401610b98565b600454421061109057600654611088908390612353565b6005556110d3565b6004546000906110a0904261233b565b905060006110b96005548361234790919063ffffffff16565b6006549091506110cd906108a6868461235f565b60055550505b6002546040516370a0823160e01b81523060048201526000916001600160a01b0316906370a082319060240160206040518083038186803b15801561111757600080fd5b505afa15801561112b573d6000803e3d6000fd5b505050506040513d601f19601f8201168201806040525081019061114f919061343e565b90506111666006548261235390919063ffffffff16565b60055411156111b75760405162461bcd60e51b815260206004820152601860248201527f50726f76696465642072657761726420746f6f206869676800000000000000006044820152606401610b98565b4260078190556006546111ca919061235f565b6004556040518381527fde88a922e0d3b88b24e9623efeb464919c6bf9f66857a65e2bfcf2ce87a9433d9060200160405180910390a1505050565b6000546001600160a01b0316331461125f5760405162461bcd60e51b815260206004820181905260248201527f4f776e61626c653a2063616c6c6572206973206e6f7420746865206f776e65726044820152606401610b98565b60045442116112fc5760405162461bcd60e51b815260206004820152605e60248201527f50726576696f7573207265776172647320706572696f64206d7573742062652060448201527f636f6d706c657465206265666f7265206368616e67696e6720746865206c697160648201527f506f6f6c4d616e6167657220666f7220746865206e657720706572696f640000608482015260a401610b98565b6009805473ffffffffffffffffffffffffffffffffffffffff19166001600160a01b0392909216919091179055565b6000546001600160a01b031633146113855760405162461bcd60e51b815260206004820181905260248201527f4f776e61626c653a2063616c6c6572206973206e6f7420746865206f776e65726044820152606401610b98565b60008054911515600160a01b027fffffffffffffffffffffff00ffffffffffffffffffffffffffffffffffffffff909216919091179055565b600054600160a01b900460ff161561145157323314806113ed57503360009081526001602052604090205460ff165b6114515760405162461bcd60e51b815260206004820152602f60248201527f5374616b696e67446f75626c65526577617264733a3a6f6e6c79417070726f7660448201526e6564436f6e74726163744f72454f4160881b6064820152608401610b98565b3361145a611e91565b600855611465611787565b6007556001600160a01b038116156114ac576114808161083a565b6001600160a01b0382166000908152601a60209081526040808320939093556008546019909152919020555b6114b461236b565b6114bc6125ff565b6114c4612a12565b50565b6040516370a0823160e01b81523060048201526000906001600160a01b038316906370a08231906024015b60206040518083038186803b15801561150a57600080fd5b505afa15801561151e573d6000803e3d6000fd5b505050506040513d601f19601f820116820180604052508101906108b2919061343e565b6001600160a01b03808216600090815260136020526040812054600c54919290911682610912611c47565b6000546001600160a01b031633146115c75760405162461bcd60e51b815260206004820181905260248201527f4f776e61626c653a2063616c6c6572206973206e6f7420746865206f776e65726044820152606401610b98565b6115d16000612b4b565b565b6000546001600160a01b0316331461162d5760405162461bcd60e51b815260206004820181905260248201527f4f776e61626c653a2063616c6c6572206973206e6f7420746865206f776e65726044820152606401610b98565b82811461167c5760405162461bcd60e51b815260206004820152601560248201527f696e707574206c656e677468206d69736d6174636800000000000000000000006044820152606401610b98565b60005b83811015611713578282828181106116995761169961329f565b90506020020160208101906116ae9190613118565b600160008787858181106116c4576116c461329f565b90506020020160208101906116d99190613043565b6001600160a01b031681526020810191909152604001600020805460ff19169115159190911790558061170b81613423565b91505061167f565b5050505050565b6000546001600160a01b031633146117745760405162461bcd60e51b815260206004820181905260248201527f4f776e61626c653a2063616c6c6572206973206e6f7420746865206f776e65726044820152606401610b98565b6011805460ff1916911515919091179055565b6000610a1142600454612ba8565b6000546001600160a01b031633146117ef5760405162461bcd60e51b815260206004820181905260248201527f4f776e61626c653a2063616c6c6572206973206e6f7420746865206f776e65726044820152606401610b98565b6118156118046000546001600160a01b031690565b6001600160a01b0384169083612a89565b604080516001600160a01b0384168152602081018390527f8c1256b8896378cd5044f80c202f9772b9d77dc85c8a6eb51967210b09bfaa28910160405180910390a15050565b600054600160a01b900460ff16156118ee573233148061188a57503360009081526001602052604090205460ff165b6118ee5760405162461bcd60e51b815260206004820152602f60248201527f5374616b696e67446f75626c65526577617264733a3a6f6e6c79417070726f7660448201526e6564436f6e74726163744f72454f4160881b6064820152608401610b98565b336118f7611e91565b600855611902611787565b6007556001600160a01b038116156119495761191d8161083a565b6001600160a01b0382166000908152601a60209081526040808320939093556008546019909152919020555b600082116119995760405162461bcd60e51b815260206004820152600e60248201527f43616e6e6f74207374616b6520300000000000000000000000000000000000006044820152606401610b98565b600e546000906119b1670de0b6b3a7640000856132cb565b6119bb91906132ea565b6003549091506119d6906001600160a01b0316333086612bbe565b6119de61236b565b6119e66125ff565b6119ee612a12565b8215611a6557600f54604051631c57762b60e31b815260048101919091526024810184905273188bed1968b795d5c9022f6a0bb5931ac4c18f009063e2bbb15890604401600060405180830381600087803b158015611a4c57600080fd5b505af1158015611a60573d6000803e3d6000fd5b505050505b8015611ae157600c54611a839033906001600160a01b031683612c15565b60115460ff1615611ae15760005b601254811015611adf57611acd3360128381548110611ab257611ab261329f565b6000918252602090912001546001600160a01b031684612c15565b80611ad781613423565b915050611a91565b505b601b54611aee908461235f565b601b55336000908152601c6020526040902054611b0b908461235f565b336000908152601c6020526040902055600d54611b2990829061330c565b600d5533600090815260136020526040902054611b4790829061330c565b33600090815260136020526040902055600854670de0b6b3a764000090611b6e90836132cb565b611b7891906132ea565b33600090815260146020526040902054611b92919061330c565b33600081815260146020526040908190209290925590517f9e71bc8eea02a63969f509818f2dafb9254532904319f9dbda79b67bd34a5f3d90611bd89086815260200190565b60405180910390a2505050565b60606012805480602002602001604051908101604052809291908181526020018280548015611c3d57602002820191906000526020600020905b81546001600160a01b03168152600190910190602001808311611c1f575b5050505050905090565b600f546040517fffcd42630000000000000000000000000000000000000000000000000000000081526004810191909152306024820152600090819073188bed1968b795d5c9022f6a0bb5931ac4c18f009063ffcd42639060440160006040518083038186803b158015611cba57600080fd5b505afa158015611cce573d6000803e3d6000fd5b505050506040513d6000823e601f3d908101601f19168201604052611cf69190810190613351565b5091949350505050565b6000546001600160a01b03163314611d5a5760405162461bcd60e51b815260206004820181905260248201527f4f776e61626c653a2063616c6c6572206973206e6f7420746865206f776e65726044820152606401610b98565b601055565b6000546001600160a01b03163314611db95760405162461bcd60e51b815260206004820181905260248201527f4f776e61626c653a2063616c6c6572206973206e6f7420746865206f776e65726044820152606401610b98565b6004544211611e565760405162461bcd60e51b815260206004820152605860248201527f50726576696f7573207265776172647320706572696f64206d7573742062652060448201527f636f6d706c657465206265666f7265206368616e67696e67207468652064757260648201527f6174696f6e20666f7220746865206e657720706572696f640000000000000000608482015260a401610b98565b60068190556040518181527ffb46ca5a5e06d4540d6387b930a7c978bce0db5f449ec6b3f5d07c6e1d44f2d39060200160405180910390a150565b6000601b5460001415611ea5575060085490565b610a11611ed4601b546108a6670de0b6b3a7640000611ece600554611ece600754610881611787565b90612347565b6008549061235f565b600a546040517fc031a66f00000000000000000000000000000000000000000000000000000000815230600482015260009182916001600160a01b039091169063c031a66f906024016114f2565b600f543360009081526013602052604090819020549051630441a3e760e41b815273188bed1968b795d5c9022f6a0bb5931ac4c18f009263441a3e7092611f7d92600401918252602082015260400190565b600060405180830381600087803b158015611f9757600080fd5b505af1158015611fab573d6000803e3d6000fd5b505033600081815260136020526040902054600354611fd594506001600160a01b03169250612a89565b336000818152601360209081526040918290205491519182527f5fafa99d0643513820be26656b45130b01e1c03062e1266bf36f88cbd3bd9695910160405180910390a233600090815260136020526040902054600d546120369190613324565b600d5533600090815260136020526040902054601b546120559161233b565b601b5533600090815260136020908152604080832083905560148252808320839055601c909152812055565b6000546001600160a01b031633146120db5760405162461bcd60e51b815260206004820181905260248201527f4f776e61626c653a2063616c6c6572206973206e6f7420746865206f776e65726044820152606401610b98565b6001600160a01b0381166121575760405162461bcd60e51b815260206004820152602660248201527f4f776e61626c653a206e6577206f776e657220697320746865207a65726f206160448201527f64647265737300000000000000000000000000000000000000000000000000006064820152608401610b98565b6114c481612b4b565b80158061220257506040517fdd62ed3e0000000000000000000000000000000000000000000000000000000081523060048201526001600160a01b03838116602483015284169063dd62ed3e9060440160206040518083038186803b1580156121c857600080fd5b505afa1580156121dc573d6000803e3d6000fd5b505050506040513d601f19601f82011682018060405250810190612200919061343e565b155b6122745760405162461bcd60e51b815260206004820152603660248201527f5361666545524332303a20617070726f76652066726f6d206e6f6e2d7a65726f60448201527f20746f206e6f6e2d7a65726f20616c6c6f77616e6365000000000000000000006064820152608401610b98565b6040516001600160a01b03831660248201526044810182905261231d9084907f095ea7b300000000000000000000000000000000000000000000000000000000906064015b60408051601f198184030181529190526020810180517bffffffffffffffffffffffffffffffffffffffffffffffffffffffff167fffffffff0000000000000000000000000000000000000000000000000000000090931692909217909152612c84565b505050565b60606123318484600085612d69565b90505b9392505050565b60006123348284613324565b600061233482846132cb565b600061233482846132ea565b6000612334828461330c565b600080612376611c47565b91508115612382575060015b80801561239157506000600d54115b15610eb357601254600090819067ffffffffffffffff8111156123b6576123b661333b565b6040519080825280602002602001820160405280156123df578160200160208202803683370190505b50600c549091506123f8906001600160a01b03166114c7565b60115490925060ff16156124745760005b60125481101561247257612443601282815481106124295761242961329f565b6000918252602090912001546001600160a01b03166114c7565b8282815181106124555761245561329f565b60209081029190910101528061246a81613423565b915050612409565b505b600f54604051631c57762b60e31b815260048101919091526000602482015273188bed1968b795d5c9022f6a0bb5931ac4c18f009063e2bbb15890604401600060405180830381600087803b1580156124cc57600080fd5b505af11580156124e0573d6000803e3d6000fd5b5050600c54600092508491506124fe906001600160a01b03166114c7565b6125089190613324565b9050801561254557600c54600d54612545916001600160a01b031690612536670de0b6b3a7640000856132cb565b61254091906132ea565b612ea8565b60115460ff16156117135760005b6012548110156125f75760008382815181106125715761257161329f565b602002602001015161258f601284815481106124295761242961329f565b6125999190613324565b905080156125e4576125e4601283815481106125b7576125b761329f565b600091825260209091200154600d546001600160a01b0390911690612536670de0b6b3a7640000856132cb565b50806125ef81613423565b915050612553565b505050505050565b33600090815260136020908152604080832054600c546001600160a01b0316808552601590935290832054909290670de0b6b3a76400009061264190856132cb565b61264b91906132ea565b3360009081526016602090815260408083206001600160a01b038716845290915281205491925081831161268057600061268a565b61268a8284613324565b9050612697338587612ed9565b8015612792576001600160a01b038416600090815260186020526040812080548392906126c590849061330c565b909155505060105415612718576000612710601054836126e591906132cb565b6126ef91906132ea565b600b5490915061270a9086906001600160a01b031683612f42565b6127148183613324565b9150505b3360009081526017602090815260408083206001600160a01b03881684529091528120805483929061274b90849061330c565b9091555061275c9050843383612f42565b60405181815233907fc9695243a805adb74c91f28311176c65b417e842d5699893cef56d18bfa48cba9060200160405180910390a25b60115460ff16156117135760005b6012548110156125f7576000670de0b6b3a764000060156000601285815481106127cc576127cc61329f565b60009182526020808320909101546001600160a01b031683528201929092526040019020546127fb90896132cb565b61280591906132ea565b33600090815260166020526040812060128054939450919290918391869081106128315761283161329f565b60009182526020808320909101546001600160a01b031683528201929092526040018120549150818311612866576000612870565b6128708284613324565b90506128a433601286815481106128895761288961329f565b6000918252602090912001546001600160a01b03168b612ed9565b80156129fc578060186000601287815481106128c2576128c261329f565b60009182526020808320909101546001600160a01b03168352820192909252604001812080549091906128f690849061330c565b9091555050601054156129685760006127106010548361291691906132cb565b61292091906132ea565b905061295a601286815481106129385761293861329f565b600091825260209091200154600b546001600160a01b03918216911683612f42565b6129648183613324565b9150505b33600090815260176020526040812060128054849391908890811061298f5761298f61329f565b60009182526020808320909101546001600160a01b03168352820192909252604001812080549091906129c390849061330c565b925050819055506129fc601285815481106129e0576129e061329f565b6000918252602090912001546001600160a01b03163383612f42565b5050508080612a0a90613423565b9150506127a0565b336000908152601a602052604090205480156114c457336000818152601a6020526040812055600254612a51916001600160a01b039091169083612a89565b60405181815233907fe2403640ba68fed3a2f88b7557551d1993f84b99bb10ff833f0cf8db0c5e04869060200160405180910390a250565b6040516001600160a01b03831660248201526044810182905261231d9084907fa9059cbb00000000000000000000000000000000000000000000000000000000906064016122b9565b6001600160a01b038216600090815260156020526040902054670de0b6b3a764000090612b009083906132cb565b612b0a91906132ea565b6001600160a01b03808516600090815260166020908152604080832093871683529290529081208054909190612b41908490613324565b9091555050505050565b600080546001600160a01b0383811673ffffffffffffffffffffffffffffffffffffffff19831681178455604051919092169283917f8be0079c531659141344cd1fd0a4f28419497f9722a3daafe3b4186f6b6457e09190a35050565b6000818310612bb75781612334565b5090919050565b6040516001600160a01b0380851660248301528316604482015260648101829052612c0f9085907f23b872dd00000000000000000000000000000000000000000000000000000000906084016122b9565b50505050565b6001600160a01b038216600090815260156020526040902054670de0b6b3a764000090612c439083906132cb565b612c4d91906132ea565b6001600160a01b03808516600090815260166020908152604080832093871683529290529081208054909190612b4190849061330c565b6000612cd9826040518060400160405280602081526020017f5361666545524332303a206c6f772d6c6576656c2063616c6c206661696c6564815250856001600160a01b03166123229092919063ffffffff16565b80519091501561231d5780806020019051810190612cf79190613457565b61231d5760405162461bcd60e51b815260206004820152602a60248201527f5361666545524332303a204552433230206f7065726174696f6e20646964206e60448201527f6f742073756363656564000000000000000000000000000000000000000000006064820152608401610b98565b606082471015612de15760405162461bcd60e51b815260206004820152602660248201527f416464726573733a20696e73756666696369656e742062616c616e636520666f60448201527f722063616c6c00000000000000000000000000000000000000000000000000006064820152608401610b98565b843b612e2f5760405162461bcd60e51b815260206004820152601d60248201527f416464726573733a2063616c6c20746f206e6f6e2d636f6e74726163740000006044820152606401610b98565b600080866001600160a01b03168587604051612e4b9190613474565b60006040518083038185875af1925050503d8060008114612e88576040519150601f19603f3d011682016040523d82523d6000602084013e612e8d565b606091505b5091509150612e9d828286612ff5565b979650505050505050565b6001600160a01b03821660009081526015602052604081208054839290612ed090849061330c565b90915550505050565b6001600160a01b038216600090815260156020526040902054670de0b6b3a764000090612f079083906132cb565b612f1191906132ea565b6001600160a01b03938416600090815260166020908152604080832095909616825293909352929091209190915550565b6040516370a0823160e01b815230600482015283906000906001600160a01b038316906370a082319060240160206040518083038186803b158015612f8657600080fd5b505afa158015612f9a573d6000803e3d6000fd5b505050506040513d601f19601f82011682018060405250810190612fbe919061343e565b905080831115612fe157612fdc6001600160a01b0383168583612a89565b611713565b6117136001600160a01b0383168585612a89565b60608315613004575081612334565b8251156130145782518084602001fd5b8160405162461bcd60e51b8152600401610b989190613490565b6001600160a01b03811681146114c457600080fd5b60006020828403121561305557600080fd5b81356123348161302e565b60005b8381101561307b578181015183820152602001613063565b83811115612c0f5750506000910152565b600081518084526130a4816020860160208601613060565b601f01601f19169290920160200192915050565b8481526001600160a01b03841660208201526080604082015260006130e0608083018561308c565b905082606083015295945050505050565b60006020828403121561310357600080fd5b5035919050565b80151581146114c457600080fd5b60006020828403121561312a57600080fd5b81356123348161310a565b60008083601f84011261314757600080fd5b50813567ffffffffffffffff81111561315f57600080fd5b6020830191508360208260051b850101111561317a57600080fd5b9250929050565b6000806000806040858703121561319757600080fd5b843567ffffffffffffffff808211156131af57600080fd5b6131bb88838901613135565b909650945060208701359150808211156131d457600080fd5b506131e187828801613135565b95989497509550505050565b6000806040838503121561320057600080fd5b823561320b8161302e565b9150602083013561321b8161302e565b809150509250929050565b6000806040838503121561323957600080fd5b82356132448161302e565b946020939093013593505050565b6020808252825182820181905260009190848201906040850190845b818110156132935783516001600160a01b03168352928401929184019160010161326e565b50909695505050505050565b634e487b7160e01b600052603260045260246000fd5b634e487b7160e01b600052601160045260246000fd5b60008160001904831182151516156132e5576132e56132b5565b500290565b60008261330757634e487b7160e01b600052601260045260246000fd5b500490565b6000821982111561331f5761331f6132b5565b500190565b600082821015613336576133366132b5565b500390565b634e487b7160e01b600052604160045260246000fd5b6000806000806080858703121561336757600080fd5b8451935060208501516133798161302e565b604086015190935067ffffffffffffffff8082111561339757600080fd5b818701915087601f8301126133ab57600080fd5b8151818111156133bd576133bd61333b565b604051601f8201601f19908116603f011681019083821181831017156133e5576133e561333b565b816040528281528a60208487010111156133fe57600080fd5b61340f836020830160208801613060565b60609990990151979a969950505050505050565b6000600019821415613437576134376132b5565b5060010190565b60006020828403121561345057600080fd5b5051919050565b60006020828403121561346957600080fd5b81516123348161310a565b60008251613486818460208701613060565b9190910192915050565b602081526000612334602083018461308c56fea264697066735822122070fe0b369780f25b473753053c3a8102157060c76d6bdd3a80bf12310869c31a64736f6c63430008090033",
  "linkReferences": {},
  "deployedLinkReferences": {}
}