{
  "_format": "hh-sol-artifact-1",
  "contractName": "StrNFTBridge",
  "sourceName": "contracts/StrNFTBridge.sol",
  "abi": [
    {
      "inputs": [
        {
          "internalType": "address",
          "name": "_rewardsToken",
          "type": "address"
        },
        {
          "internalType": "address",
          "name": "_stakingToken",
          "type": "address"
        },
        {
          "internalType": "address",
          "name": "_liqPoolManager",
          "type": "address"
        }
      ],
      "stateMutability": "nonpayable",
      "type": "constructor"
    },
    {
      "anonymous": false,
      "inputs": [
        {
          "indexed": false,
          "internalType": "address",
          "name": "StrAddress",
          "type": "address"
        },
        {
          "indexed": false,
          "internalType": "uint256",
          "name": "balance",
          "type": "uint256"
        }
      ],
      "name": "Bridged",
      "type": "event"
    },
    {
      "anonymous": false,
      "inputs": [
        {
          "indexed": true,
          "internalType": "address",
          "name": "previousOwner",
          "type": "address"
        },
        {
          "indexed": true,
          "internalType": "address",
          "name": "newOwner",
          "type": "address"
        }
      ],
      "name": "OwnershipTransferred",
      "type": "event"
    },
    {
      "anonymous": false,
      "inputs": [
        {
          "indexed": false,
          "internalType": "address",
          "name": "token",
          "type": "address"
        },
        {
          "indexed": false,
          "internalType": "uint256",
          "name": "amount",
          "type": "uint256"
        }
      ],
      "name": "Recovered",
      "type": "event"
    },
    {
      "inputs": [],
      "name": "cnr",
      "outputs": [
        {
          "internalType": "address",
          "name": "",
          "type": "address"
        }
      ],
      "stateMutability": "view",
      "type": "function"
    },
    {
      "inputs": [],
      "name": "liqPoolManager",
      "outputs": [
        {
          "internalType": "address",
          "name": "",
          "type": "address"
        }
      ],
      "stateMutability": "view",
      "type": "function"
    },
    {
      "inputs": [
        {
          "internalType": "uint256",
          "name": "reward",
          "type": "uint256"
        }
      ],
      "name": "notifyRewardAmount",
      "outputs": [],
      "stateMutability": "nonpayable",
      "type": "function"
    },
    {
      "inputs": [],
      "name": "owner",
      "outputs": [
        {
          "internalType": "address",
          "name": "",
          "type": "address"
        }
      ],
      "stateMutability": "view",
      "type": "function"
    },
    {
      "inputs": [
        {
          "internalType": "address",
          "name": "tokenAddress",
          "type": "address"
        },
        {
          "internalType": "uint256",
          "name": "tokenAmount",
          "type": "uint256"
        }
      ],
      "name": "recoverERC20",
      "outputs": [],
      "stateMutability": "nonpayable",
      "type": "function"
    },
    {
      "inputs": [],
      "name": "renounceOwnership",
      "outputs": [],
      "stateMutability": "nonpayable",
      "type": "function"
    },
    {
      "inputs": [],
      "name": "rewardsToken",
      "outputs": [
        {
          "internalType": "contract IERC20",
          "name": "",
          "type": "address"
        }
      ],
      "stateMutability": "view",
      "type": "function"
    },
    {
      "inputs": [
        {
          "internalType": "address",
          "name": "_liqPoolManager",
          "type": "address"
        }
      ],
      "name": "setLiqPoolManager",
      "outputs": [],
      "stateMutability": "nonpayable",
      "type": "function"
    },
    {
      "inputs": [
        {
          "internalType": "address",
          "name": "_newStrAddress",
          "type": "address"
        }
      ],
      "name": "setStrAddress",
      "outputs": [],
      "stateMutability": "nonpayable",
      "type": "function"
    },
    {
      "inputs": [],
      "name": "stakingRewardsAddress",
      "outputs": [
        {
          "internalType": "address",
          "name": "",
          "type": "address"
        }
      ],
      "stateMutability": "view",
      "type": "function"
    },
    {
      "inputs": [],
      "name": "stakingToken",
      "outputs": [
        {
          "internalType": "contract IERC20",
          "name": "",
          "type": "address"
        }
      ],
      "stateMutability": "view",
      "type": "function"
    },
    {
      "inputs": [
        {
          "internalType": "address",
          "name": "newOwner",
          "type": "address"
        }
      ],
      "name": "transferOwnership",
      "outputs": [],
      "stateMutability": "nonpayable",
      "type": "function"
    }
  ],
  "bytecode": "0x608060405234801561001057600080fd5b50604051610e90380380610e908339818101604052606081101561003357600080fd5b5080516020820151604090920151600160009081559192916100536100f0565b600180546001600160a01b0319166001600160a01b038316908117909155604051919250906000907f8be0079c531659141344cd1fd0a4f28419497f9722a3daafe3b4186f6b6457e0908290a350600280546001600160a01b039485166001600160a01b031991821681179092556004805482169092179091556003805493851693821693909317909255600680549190931691161790556100f4565b3390565b610d8d806101036000396000f3fe608060405234801561001057600080fd5b50600436106100d45760003560e01c8063788bff6811610081578063d1af0c7d1161005b578063d1af0c7d146101b4578063ea3cffd2146101bc578063f2fde38b146101c4576100d4565b8063788bff68146101785780638980f11f146101805780638da5cb5b146101ac576100d4565b80633da5fdf4116100b25780633da5fdf414610142578063715018a61461016857806372f702f314610170576100d4565b8063275264f8146100d957806327568f3b146101015780633c6b16ab14610125575b600080fd5b6100ff600480360360208110156100ef57600080fd5b50356001600160a01b03166101ea565b005b61010961028d565b604080516001600160a01b039092168252519081900360200190f35b6100ff6004803603602081101561013b57600080fd5b503561029c565b6100ff6004803603602081101561015857600080fd5b50356001600160a01b0316610523565b6100ff6105c6565b610109610691565b6101096106a0565b6100ff6004803603604081101561019657600080fd5b506001600160a01b0381351690602001356106af565b6101096107d4565b6101096107e3565b6101096107f2565b6100ff600480360360208110156101da57600080fd5b50356001600160a01b0316610801565b6101f2610923565b6001600160a01b03166102036107d4565b6001600160a01b03161461025e576040805162461bcd60e51b815260206004820181905260248201527f4f776e61626c653a2063616c6c6572206973206e6f7420746865206f776e6572604482015290519081900360640190fd5b6005805473ffffffffffffffffffffffffffffffffffffffff19166001600160a01b0392909216919091179055565b6004546001600160a01b031681565b6102a46107d4565b6001600160a01b0316336001600160a01b031614806102cd57506006546001600160a01b031633145b6103085760405162461bcd60e51b8152600401808060200182810382526027815260200180610caf6027913960400191505060405180910390fd5b600254604080517f70a0823100000000000000000000000000000000000000000000000000000000815230600482015290516000926001600160a01b0316916370a08231916024808301926020929190829003018186803b15801561036c57600080fd5b505afa158015610380573d6000803e3d6000fd5b505050506040513d602081101561039657600080fd5b5051600480546005546040805163a9059cbb60e01b81526001600160a01b03928316948101949094526024840185905251939450169163a9059cbb916044808201926020929091908290030181600087803b1580156103f457600080fd5b505af1158015610408573d6000803e3d6000fd5b505050506040513d602081101561041e57600080fd5b505161045b5760405162461bcd60e51b8152600401808060200182810382526037815260200180610cd66037913960400191505060405180910390fd5b600554604080517f3c6b16ab0000000000000000000000000000000000000000000000000000000081526004810184905290516001600160a01b0390921691633c6b16ab9160248082019260009290919082900301818387803b1580156104c157600080fd5b505af11580156104d5573d6000803e3d6000fd5b5050600554604080516001600160a01b0390921682526020820185905280517f48b87fc02925b37a6aefac60c14fa9d8e9988d7dfadf262d4bd845872ca40730945091829003019150a15050565b61052b610923565b6001600160a01b031661053c6107d4565b6001600160a01b031614610597576040805162461bcd60e51b815260206004820181905260248201527f4f776e61626c653a2063616c6c6572206973206e6f7420746865206f776e6572604482015290519081900360640190fd5b6006805473ffffffffffffffffffffffffffffffffffffffff19166001600160a01b0392909216919091179055565b6105ce610923565b6001600160a01b03166105df6107d4565b6001600160a01b03161461063a576040805162461bcd60e51b815260206004820181905260248201527f4f776e61626c653a2063616c6c6572206973206e6f7420746865206f776e6572604482015290519081900360640190fd5b6001546040516000916001600160a01b0316907f8be0079c531659141344cd1fd0a4f28419497f9722a3daafe3b4186f6b6457e0908390a36001805473ffffffffffffffffffffffffffffffffffffffff19169055565b6003546001600160a01b031681565b6005546001600160a01b031681565b6106b7610923565b6001600160a01b03166106c86107d4565b6001600160a01b031614610723576040805162461bcd60e51b815260206004820181905260248201527f4f776e61626c653a2063616c6c6572206973206e6f7420746865206f776e6572604482015290519081900360640190fd5b6003546001600160a01b03838116911614156107705760405162461bcd60e51b8152600401808060200182810382526021815260200180610d376021913960400191505060405180910390fd5b61078c61077b6107d4565b6001600160a01b0384169083610927565b604080516001600160a01b03841681526020810183905281517f8c1256b8896378cd5044f80c202f9772b9d77dc85c8a6eb51967210b09bfaa28929181900390910190a15050565b6001546001600160a01b031690565b6002546001600160a01b031681565b6006546001600160a01b031681565b610809610923565b6001600160a01b031661081a6107d4565b6001600160a01b031614610875576040805162461bcd60e51b815260206004820181905260248201527f4f776e61626c653a2063616c6c6572206973206e6f7420746865206f776e6572604482015290519081900360640190fd5b6001600160a01b0381166108ba5760405162461bcd60e51b8152600401808060200182810382526026815260200180610c636026913960400191505060405180910390fd5b6001546040516001600160a01b038084169216907f8be0079c531659141344cd1fd0a4f28419497f9722a3daafe3b4186f6b6457e090600090a36001805473ffffffffffffffffffffffffffffffffffffffff19166001600160a01b0392909216919091179055565b3390565b604080516001600160a01b038416602482015260448082018490528251808303909101815260649091019091526020810180517bffffffffffffffffffffffffffffffffffffffffffffffffffffffff1663a9059cbb60e01b17905261098e908490610993565b505050565b60006109e8826040518060400160405280602081526020017f5361666545524332303a206c6f772d6c6576656c2063616c6c206661696c6564815250856001600160a01b0316610a449092919063ffffffff16565b80519091501561098e57808060200190516020811015610a0757600080fd5b505161098e5760405162461bcd60e51b815260040180806020018281038252602a815260200180610d0d602a913960400191505060405180910390fd5b6060610a538484600085610a5d565b90505b9392505050565b606082471015610a9e5760405162461bcd60e51b8152600401808060200182810382526026815260200180610c896026913960400191505060405180910390fd5b610aa785610bb8565b610af8576040805162461bcd60e51b815260206004820152601d60248201527f416464726573733a2063616c6c20746f206e6f6e2d636f6e7472616374000000604482015290519081900360640190fd5b600080866001600160a01b031685876040518082805190602001908083835b60208310610b365780518252601f199092019160209182019101610b17565b6001836020036101000a03801982511681845116808217855250505050505090500191505060006040518083038185875af1925050503d8060008114610b98576040519150601f19603f3d011682016040523d82523d6000602084013e610b9d565b606091505b5091509150610bad828286610bbe565b979650505050505050565b3b151590565b60608315610bcd575081610a56565b825115610bdd5782518084602001fd5b8160405162461bcd60e51b81526004018080602001828103825283818151815260200191508051906020019080838360005b83811015610c27578181015183820152602001610c0f565b50505050905090810190601f168015610c545780820380516001836020036101000a031916815260200191505b509250505060405180910390fdfe4f776e61626c653a206e6577206f776e657220697320746865207a65726f2061646472657373416464726573733a20696e73756666696369656e742062616c616e636520666f722063616c6c4c6971706f6f6c204d616e61676572206f72204f776e65722063616e2063616c6c20746869732e4c6971756964697479506f6f6c4d616e616765723a3a64697374726962757465546f6b656e733a205472616e73666572206661696c65645361666545524332303a204552433230206f7065726174696f6e20646964206e6f74207375636365656443616e6e6f7420776974686472617720746865207374616b696e6720746f6b656ea26469706673582212203eeee5db648c2cbb3051f875da35a61bbedcd0e959cc93904e0be947ff2425ca64736f6c63430007060033",
  "linkReferences": {},
  "deployedLinkReferences": {}
}