{
  "_format": "hh-sol-artifact-1",
  "contractName": "MerkleAirdrop",
  "sourceName": "contracts/MerkleAirdrop.sol",
  "abi": [
    {
      "inputs": [
        {
          "internalType": "address",
          "name": "token_",
          "type": "address"
        },
        {
          "internalType": "bytes32",
          "name": "merkleRoot_",
          "type": "bytes32"
        },
        {
          "internalType": "address",
          "name": "airdropTreasury_",
          "type": "address"
        }
      ],
      "stateMutability": "nonpayable",
      "type": "constructor"
    },
    {
      "anonymous": false,
      "inputs": [
        {
          "indexed": false,
          "internalType": "uint256",
          "name": "index",
          "type": "uint256"
        },
        {
          "indexed": false,
          "internalType": "address",
          "name": "account",
          "type": "address"
        },
        {
          "indexed": false,
          "internalType": "uint256",
          "name": "amount",
          "type": "uint256"
        }
      ],
      "name": "Claimed",
      "type": "event"
    },
    {
      "inputs": [],
      "name": "airdropTreasury",
      "outputs": [
        {
          "internalType": "address",
          "name": "",
          "type": "address"
        }
      ],
      "stateMutability": "view",
      "type": "function"
    },
    {
      "inputs": [
        {
          "internalType": "uint256",
          "name": "index",
          "type": "uint256"
        },
        {
          "internalType": "address",
          "name": "account",
          "type": "address"
        },
        {
          "internalType": "uint256",
          "name": "amount",
          "type": "uint256"
        },
        {
          "internalType": "bytes32[]",
          "name": "merkleProof",
          "type": "bytes32[]"
        }
      ],
      "name": "claim",
      "outputs": [],
      "stateMutability": "nonpayable",
      "type": "function"
    },
    {
      "inputs": [],
      "name": "endAirdrop",
      "outputs": [],
      "stateMutability": "nonpayable",
      "type": "function"
    },
    {
      "inputs": [],
      "name": "governor",
      "outputs": [
        {
          "internalType": "address",
          "name": "",
          "type": "address"
        }
      ],
      "stateMutability": "view",
      "type": "function"
    },
    {
      "inputs": [
        {
          "internalType": "uint256",
          "name": "index",
          "type": "uint256"
        }
      ],
      "name": "isClaimed",
      "outputs": [
        {
          "internalType": "bool",
          "name": "",
          "type": "bool"
        }
      ],
      "stateMutability": "view",
      "type": "function"
    },
    {
      "inputs": [],
      "name": "merkleRoot",
      "outputs": [
        {
          "internalType": "bytes32",
          "name": "",
          "type": "bytes32"
        }
      ],
      "stateMutability": "view",
      "type": "function"
    },
    {
      "inputs": [],
      "name": "token",
      "outputs": [
        {
          "internalType": "address",
          "name": "",
          "type": "address"
        }
      ],
      "stateMutability": "view",
      "type": "function"
    }
  ],
  "bytecode": "0x60c060405234801561001057600080fd5b506040516108db3803806108db8339818101604052606081101561003357600080fd5b5080516020820151604090920151606082901b6001600160601b03191660805260a0839052600080546001600160a01b0319166001600160a01b03831617815591929161007e6100a8565b600180546001600160a01b0319166001600160a01b0392909216919091179055506100ac92505050565b3390565b60805160601c60a0516107f56100e66000398061026752806104325250806102ee52806104c252806105a252806106a552506107f56000f3fe608060405234801561001057600080fd5b506004361061007d5760003560e01c8063726b5bad1161005b578063726b5bad1461014e5780639e34070f14610156578063b114c09814610187578063fc0c546a1461018f5761007d565b80630c340a24146100825780632e7ba6ef146100a65780632eb4a7ab14610134575b600080fd5b61008a610197565b604080516001600160a01b039092168252519081900360200190f35b610132600480360360808110156100bc57600080fd5b8135916001600160a01b0360208201351691604082013591908101906080810160608201356401000000008111156100f357600080fd5b82018360208201111561010557600080fd5b8035906020019184602083028401116401000000008311171561012757600080fd5b5090925090506101a6565b005b61013c610430565b60408051918252519081900360200190f35b610132610454565b6101736004803603602081101561016c57600080fd5b503561066e565b604080519115158252519081900360200190f35b61008a610694565b61008a6106a3565b6001546001600160a01b031681565b6101af8561066e565b156101eb5760405162461bcd60e51b815260040180806020018281038252602481526020018061079c6024913960400191505060405180910390fd5b600085858560405160200180848152602001836001600160a01b031660601b815260140182815260200193505050506040516020818303038152906040528051906020012090506102928383808060200260200160405190810160405280939291908181526020018383602002808284376000920191909152507f000000000000000000000000000000000000000000000000000000000000000092508591506106c79050565b6102e3576040805162461bcd60e51b815260206004820152601d60248201527f4d65726b6c6541697264726f703a20496e76616c69642070726f6f662e000000604482015290519081900360640190fd5b6102ec86610770565b7f00000000000000000000000000000000000000000000000000000000000000006001600160a01b031663a9059cbb86866040518363ffffffff1660e01b815260040180836001600160a01b0316815260200182815260200192505050602060405180830381600087803b15801561036357600080fd5b505af1158015610377573d6000803e3d6000fd5b505050506040513d602081101561038d57600080fd5b50516103e0576040805162461bcd60e51b815260206004820152601f60248201527f4d65726b6c6541697264726f703a205472616e73666572206661696c65642e00604482015290519081900360640190fd5b604080518781526001600160a01b038716602082015280820186905290517f4ec90e965519d92681267467f775ada5bd214aa92c0dc93d90a5e880ce9ed0269181900360600190a1505050505050565b7f000000000000000000000000000000000000000000000000000000000000000081565b61045c610797565b6001546001600160a01b039081169116146104be576040805162461bcd60e51b815260206004820152601560248201527f596f75206d75737420626520676f7665726e6f722e0000000000000000000000604482015290519081900360640190fd5b60007f00000000000000000000000000000000000000000000000000000000000000006001600160a01b03166370a08231306040518263ffffffff1660e01b815260040180826001600160a01b0316815260200191505060206040518083038186803b15801561052d57600080fd5b505afa158015610541573d6000803e3d6000fd5b505050506040513d602081101561055757600080fd5b505160008054604080517fa9059cbb0000000000000000000000000000000000000000000000000000000081526001600160a01b0392831660048201526024810185905290519394507f00000000000000000000000000000000000000000000000000000000000000009091169263a9059cbb92604480840193602093929083900390910190829087803b1580156105ee57600080fd5b505af1158015610602573d6000803e3d6000fd5b505050506040513d602081101561061857600080fd5b505161066b576040805162461bcd60e51b815260206004820152601f60248201527f4d65726b6c6541697264726f703a205472616e73666572206661696c65642e00604482015290519081900360640190fd5b50565b6101008104600090815260026020526040902054600160ff9092169190911b9081161490565b6000546001600160a01b031681565b7f000000000000000000000000000000000000000000000000000000000000000081565b600081815b85518110156107655760008682815181106106e357fe5b6020026020010151905080831161072a578281604051602001808381526020018281526020019250505060405160208183030381529060405280519060200120925061075c565b808360405160200180838152602001828152602001925050506040516020818303038152906040528051906020012092505b506001016106cc565b509092149392505050565b610100810460009081526002602052604090208054600160ff9093169290921b9091179055565b339056fe4d65726b6c6541697264726f703a2044726f7020616c726561647920636c61696d65642ea2646970667358221220c2f7d96ef105cc3948a14c24425bb993f548a0ff21048e6efd13ffb852d8c3e164736f6c63430007060033",
  "linkReferences": {},
  "deployedLinkReferences": {}
}