{
  "_format": "hh-sol-artifact-1",
  "contractName": "StakingRewardsLm",
  "sourceName": "contracts/StakingRewardsLm.sol",
  "abi": [
    {
      "inputs": [
        {
          "internalType": "address",
          "name": "_rewardsToken",
          "type": "address"
        },
        {
          "internalType": "address",
          "name": "_stakingToken",
          "type": "address"
        },
        {
          "internalType": "address",
          "name": "_liqPoolManager",
          "type": "address"
        }
      ],
      "stateMutability": "nonpayable",
      "type": "constructor"
    },
    {
      "anonymous": false,
      "inputs": [
        {
          "indexed": true,
          "internalType": "address",
          "name": "previousOwner",
          "type": "address"
        },
        {
          "indexed": true,
          "internalType": "address",
          "name": "newOwner",
          "type": "address"
        }
      ],
      "name": "OwnershipTransferred",
      "type": "event"
    },
    {
      "anonymous": false,
      "inputs": [
        {
          "indexed": false,
          "internalType": "address",
          "name": "token",
          "type": "address"
        },
        {
          "indexed": false,
          "internalType": "uint256",
          "name": "amount",
          "type": "uint256"
        }
      ],
      "name": "Recovered",
      "type": "event"
    },
    {
      "anonymous": false,
      "inputs": [
        {
          "indexed": false,
          "internalType": "uint256",
          "name": "reward",
          "type": "uint256"
        }
      ],
      "name": "RewardAdded",
      "type": "event"
    },
    {
      "anonymous": false,
      "inputs": [
        {
          "indexed": true,
          "internalType": "address",
          "name": "user",
          "type": "address"
        },
        {
          "indexed": false,
          "internalType": "uint256",
          "name": "reward",
          "type": "uint256"
        }
      ],
      "name": "RewardPaid",
      "type": "event"
    },
    {
      "anonymous": false,
      "inputs": [
        {
          "indexed": false,
          "internalType": "uint256",
          "name": "newDuration",
          "type": "uint256"
        }
      ],
      "name": "RewardsDurationUpdated",
      "type": "event"
    },
    {
      "anonymous": false,
      "inputs": [
        {
          "indexed": true,
          "internalType": "address",
          "name": "user",
          "type": "address"
        },
        {
          "indexed": false,
          "internalType": "uint256",
          "name": "amount",
          "type": "uint256"
        }
      ],
      "name": "Staked",
      "type": "event"
    },
    {
      "anonymous": false,
      "inputs": [
        {
          "indexed": true,
          "internalType": "address",
          "name": "user",
          "type": "address"
        },
        {
          "indexed": false,
          "internalType": "uint256",
          "name": "amount",
          "type": "uint256"
        }
      ],
      "name": "Withdrawn",
      "type": "event"
    },
    {
      "inputs": [
        {
          "internalType": "address",
          "name": "account",
          "type": "address"
        }
      ],
      "name": "balanceOf",
      "outputs": [
        {
          "internalType": "uint256",
          "name": "",
          "type": "uint256"
        }
      ],
      "stateMutability": "view",
      "type": "function"
    },
    {
      "inputs": [],
      "name": "compoundReward",
      "outputs": [],
      "stateMutability": "nonpayable",
      "type": "function"
    },
    {
      "inputs": [
        {
          "internalType": "address",
          "name": "account",
          "type": "address"
        }
      ],
      "name": "earned",
      "outputs": [
        {
          "internalType": "uint256",
          "name": "",
          "type": "uint256"
        }
      ],
      "stateMutability": "view",
      "type": "function"
    },
    {
      "inputs": [],
      "name": "exit",
      "outputs": [],
      "stateMutability": "nonpayable",
      "type": "function"
    },
    {
      "inputs": [],
      "name": "getReward",
      "outputs": [],
      "stateMutability": "nonpayable",
      "type": "function"
    },
    {
      "inputs": [],
      "name": "getRewardForDuration",
      "outputs": [
        {
          "internalType": "uint256",
          "name": "",
          "type": "uint256"
        }
      ],
      "stateMutability": "view",
      "type": "function"
    },
    {
      "inputs": [],
      "name": "lastTimeRewardApplicable",
      "outputs": [
        {
          "internalType": "uint256",
          "name": "",
          "type": "uint256"
        }
      ],
      "stateMutability": "view",
      "type": "function"
    },
    {
      "inputs": [],
      "name": "lastUpdateTime",
      "outputs": [
        {
          "internalType": "uint256",
          "name": "",
          "type": "uint256"
        }
      ],
      "stateMutability": "view",
      "type": "function"
    },
    {
      "inputs": [],
      "name": "liqPoolManager",
      "outputs": [
        {
          "internalType": "address",
          "name": "",
          "type": "address"
        }
      ],
      "stateMutability": "view",
      "type": "function"
    },
    {
      "inputs": [
        {
          "internalType": "uint256",
          "name": "reward",
          "type": "uint256"
        }
      ],
      "name": "notifyRewardAmount",
      "outputs": [],
      "stateMutability": "nonpayable",
      "type": "function"
    },
    {
      "inputs": [],
      "name": "owner",
      "outputs": [
        {
          "internalType": "address",
          "name": "",
          "type": "address"
        }
      ],
      "stateMutability": "view",
      "type": "function"
    },
    {
      "inputs": [],
      "name": "periodFinish",
      "outputs": [
        {
          "internalType": "uint256",
          "name": "",
          "type": "uint256"
        }
      ],
      "stateMutability": "view",
      "type": "function"
    },
    {
      "inputs": [
        {
          "internalType": "address",
          "name": "tokenAddress",
          "type": "address"
        },
        {
          "internalType": "uint256",
          "name": "tokenAmount",
          "type": "uint256"
        }
      ],
      "name": "recoverERC20",
      "outputs": [],
      "stateMutability": "nonpayable",
      "type": "function"
    },
    {
      "inputs": [],
      "name": "renounceOwnership",
      "outputs": [],
      "stateMutability": "nonpayable",
      "type": "function"
    },
    {
      "inputs": [],
      "name": "rewardPerToken",
      "outputs": [
        {
          "internalType": "uint256",
          "name": "",
          "type": "uint256"
        }
      ],
      "stateMutability": "view",
      "type": "function"
    },
    {
      "inputs": [],
      "name": "rewardPerTokenStored",
      "outputs": [
        {
          "internalType": "uint256",
          "name": "",
          "type": "uint256"
        }
      ],
      "stateMutability": "view",
      "type": "function"
    },
    {
      "inputs": [],
      "name": "rewardRate",
      "outputs": [
        {
          "internalType": "uint256",
          "name": "",
          "type": "uint256"
        }
      ],
      "stateMutability": "view",
      "type": "function"
    },
    {
      "inputs": [
        {
          "internalType": "address",
          "name": "",
          "type": "address"
        }
      ],
      "name": "rewards",
      "outputs": [
        {
          "internalType": "uint256",
          "name": "",
          "type": "uint256"
        }
      ],
      "stateMutability": "view",
      "type": "function"
    },
    {
      "inputs": [],
      "name": "rewardsDuration",
      "outputs": [
        {
          "internalType": "uint256",
          "name": "",
          "type": "uint256"
        }
      ],
      "stateMutability": "view",
      "type": "function"
    },
    {
      "inputs": [],
      "name": "rewardsToken",
      "outputs": [
        {
          "internalType": "contract IERC20",
          "name": "",
          "type": "address"
        }
      ],
      "stateMutability": "view",
      "type": "function"
    },
    {
      "inputs": [
        {
          "internalType": "address",
          "name": "_liqPoolManager",
          "type": "address"
        }
      ],
      "name": "setLiqPoolManager",
      "outputs": [],
      "stateMutability": "nonpayable",
      "type": "function"
    },
    {
      "inputs": [
        {
          "internalType": "uint256",
          "name": "_rewardsDuration",
          "type": "uint256"
        }
      ],
      "name": "setRewardsDuration",
      "outputs": [],
      "stateMutability": "nonpayable",
      "type": "function"
    },
    {
      "inputs": [
        {
          "internalType": "uint256",
          "name": "amount",
          "type": "uint256"
        }
      ],
      "name": "stake",
      "outputs": [],
      "stateMutability": "nonpayable",
      "type": "function"
    },
    {
      "inputs": [
        {
          "internalType": "uint256",
          "name": "amount",
          "type": "uint256"
        },
        {
          "internalType": "uint256",
          "name": "deadline",
          "type": "uint256"
        },
        {
          "internalType": "uint8",
          "name": "v",
          "type": "uint8"
        },
        {
          "internalType": "bytes32",
          "name": "r",
          "type": "bytes32"
        },
        {
          "internalType": "bytes32",
          "name": "s",
          "type": "bytes32"
        }
      ],
      "name": "stakeWithPermit",
      "outputs": [],
      "stateMutability": "nonpayable",
      "type": "function"
    },
    {
      "inputs": [],
      "name": "stakingToken",
      "outputs": [
        {
          "internalType": "contract IERC20",
          "name": "",
          "type": "address"
        }
      ],
      "stateMutability": "view",
      "type": "function"
    },
    {
      "inputs": [],
      "name": "totalSupply",
      "outputs": [
        {
          "internalType": "uint256",
          "name": "",
          "type": "uint256"
        }
      ],
      "stateMutability": "view",
      "type": "function"
    },
    {
      "inputs": [
        {
          "internalType": "address",
          "name": "newOwner",
          "type": "address"
        }
      ],
      "name": "transferOwnership",
      "outputs": [],
      "stateMutability": "nonpayable",
      "type": "function"
    },
    {
      "inputs": [
        {
          "internalType": "address",
          "name": "",
          "type": "address"
        }
      ],
      "name": "userRewardPerTokenPaid",
      "outputs": [
        {
          "internalType": "uint256",
          "name": "",
          "type": "uint256"
        }
      ],
      "stateMutability": "view",
      "type": "function"
    },
    {
      "inputs": [
        {
          "internalType": "uint256",
          "name": "amount",
          "type": "uint256"
        }
      ],
      "name": "withdraw",
      "outputs": [],
      "stateMutability": "nonpayable",
      "type": "function"
    }
  ],
  "bytecode": "0x60806040526000600455600060055562093a8060065534801561002157600080fd5b50604051611e35380380611e358339818101604052606081101561004457600080fd5b5080516020820151604090920151600160009081559192916100646100f4565b600180546001600160a01b0319166001600160a01b038316908117909155604051919250906000907f8be0079c531659141344cd1fd0a4f28419497f9722a3daafe3b4186f6b6457e0908290a350600280546001600160a01b039485166001600160a01b0319918216179091556003805493851693821693909317909255600980549190931691161790556100f8565b3390565b611d2e806101076000396000f3fe608060405234801561001057600080fd5b50600436106101ce5760003560e01c806380faa57d11610104578063cd3daf9d116100a2578063ea3cffd211610071578063ea3cffd2146103d9578063ebe2b12b146103e1578063ecd9ba82146103e9578063f2fde38b14610421576101ce565b8063cd3daf9d146103b9578063d1af0c7d146103c1578063df136d65146103c9578063e9fad8ee146103d1576101ce565b80638da5cb5b116100de5780638da5cb5b1461036f578063a694fc3a14610377578063c8f33c9114610394578063cc1a378f1461039c576101ce565b806380faa57d146103155780638980f11f1461031d5780638b87634714610349576101ce565b80633d18b9121161017157806370a082311161014b57806370a08231146102bb578063715018a6146102e157806372f702f3146102e95780637b0a47ee1461030d576101ce565b80633d18b912146102855780633da5fdf41461028d5780636d971a10146102b3576101ce565b80631c1f78eb116101ad5780631c1f78eb146102395780632e1a7d4d14610241578063386a9525146102605780633c6b16ab14610268576101ce565b80628cc262146101d35780630700037d1461020b57806318160ddd14610231575b600080fd5b6101f9600480360360208110156101e957600080fd5b50356001600160a01b0316610447565b60408051918252519081900360200190f35b6101f96004803603602081101561022157600080fd5b50356001600160a01b03166104c5565b6101f96104d7565b6101f96104de565b61025e6004803603602081101561025757600080fd5b50356104fc565b005b6101f961069e565b61025e6004803603602081101561027e57600080fd5b50356106a4565b61025e610913565b61025e600480360360208110156102a357600080fd5b50356001600160a01b0316610a4a565b61025e610b2d565b6101f9600480360360208110156102d157600080fd5b50356001600160a01b0316610cd2565b61025e610ced565b6102f1610db8565b604080516001600160a01b039092168252519081900360200190f35b6101f9610dc7565b6101f9610dcd565b61025e6004803603604081101561033357600080fd5b506001600160a01b038135169060200135610ddb565b6101f96004803603602081101561035f57600080fd5b50356001600160a01b0316610f00565b6102f1610f12565b61025e6004803603602081101561038d57600080fd5b5035610f21565b6101f96110c4565b61025e600480360360208110156103b257600080fd5b50356110ca565b6101f96111b9565b6102f1611207565b6101f9611216565b61025e61121c565b6102f161123f565b6101f961124e565b61025e600480360360a08110156103ff57600080fd5b5080359060208101359060ff6040820135169060608101359060800135611254565b61025e6004803603602081101561043757600080fd5b50356001600160a01b031661149f565b6001600160a01b0381166000908152600b6020908152604080832054600a9092528220546104bf91906104b990670de0b6b3a7640000906104b3906104949061048e6111b9565b906115c1565b6001600160a01b0388166000908152600d60205260409020549061161e565b9061167e565b906116e5565b92915050565b600b6020526000908152604090205481565b600c545b90565b60006104f760065460055461161e90919063ffffffff16565b905090565b60026000541415610554576040805162461bcd60e51b815260206004820152601f60248201527f5265656e7472616e637947756172643a207265656e7472616e742063616c6c00604482015290519081900360640190fd5b6002600055336105626111b9565b60085561056d610dcd565b6007556001600160a01b038116156105b45761058881610447565b6001600160a01b0382166000908152600b6020908152604080832093909355600854600a909152919020555b60008211610609576040805162461bcd60e51b815260206004820152601160248201527f43616e6e6f742077697468647261772030000000000000000000000000000000604482015290519081900360640190fd5b600c5461061690836115c1565b600c55336000908152600d602052604090205461063390836115c1565b336000818152600d602052604090209190915560035461065f916001600160a01b03909116908461173f565b60408051838152905133917f7084f5476618d8e60b11ef0d7d3f06914655adb8793e28ff7f018d4c76d505d5919081900360200190a250506001600055565b60065481565b60006106ae6111b9565b6008556106b9610dcd565b6007556001600160a01b03811615610700576106d481610447565b6001600160a01b0382166000908152600b6020908152604080832093909355600854600a909152919020555b610708610f12565b6001600160a01b0316336001600160a01b0316148061073157506009546001600160a01b031633145b61076c5760405162461bcd60e51b8152600401808060200182810382526027815260200180611bb86027913960400191505060405180910390fd5b600454421061078b5760065461078390839061167e565b6005556107ce565b60045460009061079b90426115c1565b905060006107b46005548361161e90919063ffffffff16565b6006549091506107c8906104b386846116e5565b60055550505b600254604080517f70a0823100000000000000000000000000000000000000000000000000000000815230600482015290516000926001600160a01b0316916370a08231916024808301926020929190829003018186803b15801561083257600080fd5b505afa158015610846573d6000803e3d6000fd5b505050506040513d602081101561085c57600080fd5b505160065490915061086f90829061167e565b60055411156108c5576040805162461bcd60e51b815260206004820152601860248201527f50726f76696465642072657761726420746f6f20686967680000000000000000604482015290519081900360640190fd5b4260078190556006546108d891906116e5565b6004556040805184815290517fde88a922e0d3b88b24e9623efeb464919c6bf9f66857a65e2bfcf2ce87a9433d9181900360200190a1505050565b6002600054141561096b576040805162461bcd60e51b815260206004820152601f60248201527f5265656e7472616e637947756172643a207265656e7472616e742063616c6c00604482015290519081900360640190fd5b6002600055336109796111b9565b600855610984610dcd565b6007556001600160a01b038116156109cb5761099f81610447565b6001600160a01b0382166000908152600b6020908152604080832093909355600854600a909152919020555b336000908152600b60205260409020548015610a4157336000818152600b6020526040812055600254610a0a916001600160a01b03909116908361173f565b60408051828152905133917fe2403640ba68fed3a2f88b7557551d1993f84b99bb10ff833f0cf8db0c5e0486919081900360200190a25b50506001600055565b610a526117c4565b6001600160a01b0316610a63610f12565b6001600160a01b031614610abe576040805162461bcd60e51b815260206004820181905260248201527f4f776e61626c653a2063616c6c6572206973206e6f7420746865206f776e6572604482015290519081900360640190fd5b6004544211610afe5760405162461bcd60e51b815260040180806020018281038252605e815260200180611c05605e913960600191505060405180910390fd5b6009805473ffffffffffffffffffffffffffffffffffffffff19166001600160a01b0392909216919091179055565b60026000541415610b85576040805162461bcd60e51b815260206004820152601f60248201527f5265656e7472616e637947756172643a207265656e7472616e742063616c6c00604482015290519081900360640190fd5b600260005533610b936111b9565b600855610b9e610dcd565b6007556001600160a01b03811615610be557610bb981610447565b6001600160a01b0382166000908152600b6020908152604080832093909355600854600a909152919020555b6002546003546001600160a01b03908116911614610c345760405162461bcd60e51b815260040180806020018281038252602a815260200180611c84602a913960400191505060405180910390fd5b336000908152600b60205260409020548015610a4157600c54610c5790826116e5565b600c55336000908152600d6020526040902054610c7490826116e5565b336000818152600d6020908152604080832094909455600b8152838220919091558251848152925191927f9e71bc8eea02a63969f509818f2dafb9254532904319f9dbda79b67bd34a5f3d929081900390910190a250506001600055565b6001600160a01b03166000908152600d602052604090205490565b610cf56117c4565b6001600160a01b0316610d06610f12565b6001600160a01b031614610d61576040805162461bcd60e51b815260206004820181905260248201527f4f776e61626c653a2063616c6c6572206973206e6f7420746865206f776e6572604482015290519081900360640190fd5b6001546040516000916001600160a01b0316907f8be0079c531659141344cd1fd0a4f28419497f9722a3daafe3b4186f6b6457e0908390a36001805473ffffffffffffffffffffffffffffffffffffffff19169055565b6003546001600160a01b031681565b60055481565b60006104f7426004546117c8565b610de36117c4565b6001600160a01b0316610df4610f12565b6001600160a01b031614610e4f576040805162461bcd60e51b815260206004820181905260248201527f4f776e61626c653a2063616c6c6572206973206e6f7420746865206f776e6572604482015290519081900360640190fd5b6003546001600160a01b0383811691161415610e9c5760405162461bcd60e51b8152600401808060200182810382526021815260200180611cd86021913960400191505060405180910390fd5b610eb8610ea7610f12565b6001600160a01b038416908361173f565b604080516001600160a01b03841681526020810183905281517f8c1256b8896378cd5044f80c202f9772b9d77dc85c8a6eb51967210b09bfaa28929181900390910190a15050565b600a6020526000908152604090205481565b6001546001600160a01b031690565b60026000541415610f79576040805162461bcd60e51b815260206004820152601f60248201527f5265656e7472616e637947756172643a207265656e7472616e742063616c6c00604482015290519081900360640190fd5b600260005533610f876111b9565b600855610f92610dcd565b6007556001600160a01b03811615610fd957610fad81610447565b6001600160a01b0382166000908152600b6020908152604080832093909355600854600a909152919020555b6000821161102e576040805162461bcd60e51b815260206004820152600e60248201527f43616e6e6f74207374616b652030000000000000000000000000000000000000604482015290519081900360640190fd5b600c5461103b90836116e5565b600c55336000908152600d602052604090205461105890836116e5565b336000818152600d6020526040902091909155600354611085916001600160a01b039091169030856117de565b60408051838152905133917f9e71bc8eea02a63969f509818f2dafb9254532904319f9dbda79b67bd34a5f3d919081900360200190a250506001600055565b60075481565b6110d26117c4565b6001600160a01b03166110e3610f12565b6001600160a01b03161461113e576040805162461bcd60e51b815260206004820181905260248201527f4f776e61626c653a2063616c6c6572206973206e6f7420746865206f776e6572604482015290519081900360640190fd5b600454421161117e5760405162461bcd60e51b8152600401808060200182810382526058815260200180611b3a6058913960600191505060405180910390fd5b60068190556040805182815290517ffb46ca5a5e06d4540d6387b930a7c978bce0db5f449ec6b3f5d07c6e1d44f2d39181900360200190a150565b6000600c54600014156111cf57506008546104db565b6104f76111fe600c546104b3670de0b6b3a76400006111f86005546111f860075461048e610dcd565b9061161e565b600854906116e5565b6002546001600160a01b031681565b60085481565b336000908152600d6020526040902054611235906104fc565b61123d610913565b565b6009546001600160a01b031681565b60045481565b600260005414156112ac576040805162461bcd60e51b815260206004820152601f60248201527f5265656e7472616e637947756172643a207265656e7472616e742063616c6c00604482015290519081900360640190fd5b6002600055336112ba6111b9565b6008556112c5610dcd565b6007556001600160a01b0381161561130c576112e081610447565b6001600160a01b0382166000908152600b6020908152604080832093909355600854600a909152919020555b60008611611361576040805162461bcd60e51b815260206004820152600e60248201527f43616e6e6f74207374616b652030000000000000000000000000000000000000604482015290519081900360640190fd5b600c5461136e90876116e5565b600c55336000908152600d602052604090205461138b90876116e5565b336000818152600d60205260408082209390935560035483517fd505accf0000000000000000000000000000000000000000000000000000000081526004810193909352306024840152604483018a90526064830189905260ff8816608484015260a4830187905260c4830186905292516001600160a01b039093169263d505accf9260e480820193929182900301818387803b15801561142b57600080fd5b505af115801561143f573d6000803e3d6000fd5b505060035461145c92506001600160a01b031690503330896117de565b60408051878152905133917f9e71bc8eea02a63969f509818f2dafb9254532904319f9dbda79b67bd34a5f3d919081900360200190a25050600160005550505050565b6114a76117c4565b6001600160a01b03166114b8610f12565b6001600160a01b031614611513576040805162461bcd60e51b815260206004820181905260248201527f4f776e61626c653a2063616c6c6572206973206e6f7420746865206f776e6572604482015290519081900360640190fd5b6001600160a01b0381166115585760405162461bcd60e51b8152600401808060200182810382526026815260200180611b926026913960400191505060405180910390fd5b6001546040516001600160a01b038084169216907f8be0079c531659141344cd1fd0a4f28419497f9722a3daafe3b4186f6b6457e090600090a36001805473ffffffffffffffffffffffffffffffffffffffff19166001600160a01b0392909216919091179055565b600082821115611618576040805162461bcd60e51b815260206004820152601e60248201527f536166654d6174683a207375627472616374696f6e206f766572666c6f770000604482015290519081900360640190fd5b50900390565b60008261162d575060006104bf565b8282028284828161163a57fe5b04146116775760405162461bcd60e51b8152600401808060200182810382526021815260200180611c636021913960400191505060405180910390fd5b9392505050565b60008082116116d4576040805162461bcd60e51b815260206004820152601a60248201527f536166654d6174683a206469766973696f6e206279207a65726f000000000000604482015290519081900360640190fd5b8183816116dd57fe5b049392505050565b600082820183811015611677576040805162461bcd60e51b815260206004820152601b60248201527f536166654d6174683a206164646974696f6e206f766572666c6f770000000000604482015290519081900360640190fd5b604080516001600160a01b038416602482015260448082018490528251808303909101815260649091019091526020810180517bffffffffffffffffffffffffffffffffffffffffffffffffffffffff167fa9059cbb000000000000000000000000000000000000000000000000000000001790526117bf90849061186c565b505050565b3390565b60008183106117d75781611677565b5090919050565b604080516001600160a01b0380861660248301528416604482015260648082018490528251808303909101815260849091019091526020810180517bffffffffffffffffffffffffffffffffffffffffffffffffffffffff167f23b872dd0000000000000000000000000000000000000000000000000000000017905261186690859061186c565b50505050565b60006118c1826040518060400160405280602081526020017f5361666545524332303a206c6f772d6c6576656c2063616c6c206661696c6564815250856001600160a01b031661191d9092919063ffffffff16565b8051909150156117bf578080602001905160208110156118e057600080fd5b50516117bf5760405162461bcd60e51b815260040180806020018281038252602a815260200180611cae602a913960400191505060405180910390fd5b606061192c8484600085611934565b949350505050565b6060824710156119755760405162461bcd60e51b8152600401808060200182810382526026815260200180611bdf6026913960400191505060405180910390fd5b61197e85611a8f565b6119cf576040805162461bcd60e51b815260206004820152601d60248201527f416464726573733a2063616c6c20746f206e6f6e2d636f6e7472616374000000604482015290519081900360640190fd5b600080866001600160a01b031685876040518082805190602001908083835b60208310611a0d5780518252601f1990920191602091820191016119ee565b6001836020036101000a03801982511681845116808217855250505050505090500191505060006040518083038185875af1925050503d8060008114611a6f576040519150601f19603f3d011682016040523d82523d6000602084013e611a74565b606091505b5091509150611a84828286611a95565b979650505050505050565b3b151590565b60608315611aa4575081611677565b825115611ab45782518084602001fd5b8160405162461bcd60e51b81526004018080602001828103825283818151815260200191508051906020019080838360005b83811015611afe578181015183820152602001611ae6565b50505050905090810190601f168015611b2b5780820380516001836020036101000a031916815260200191505b509250505060405180910390fdfe50726576696f7573207265776172647320706572696f64206d75737420626520636f6d706c657465206265666f7265206368616e67696e6720746865206475726174696f6e20666f7220746865206e657720706572696f644f776e61626c653a206e6577206f776e657220697320746865207a65726f20616464726573734c6971706f6c6c204d616e61676572206f72204f776e65722063616e2063616c6c20746869732e416464726573733a20696e73756666696369656e742062616c616e636520666f722063616c6c50726576696f7573207265776172647320706572696f64206d75737420626520636f6d706c657465206265666f7265206368616e67696e6720746865206c6971506f6f6c4d616e6167657220666f7220746865206e657720706572696f64536166654d6174683a206d756c7469706c69636174696f6e206f766572666c6f775374616b696e6720616e64207265776172647320746f6b656e206d757374206265207468652073616d655361666545524332303a204552433230206f7065726174696f6e20646964206e6f74207375636365656443616e6e6f7420776974686472617720746865207374616b696e6720746f6b656ea2646970667358221220e77465db21b139d2c0c586ebc0afc0c636769fe0caa95eaea59a854722508f3c64736f6c63430007060033",
  "linkReferences": {},
  "deployedLinkReferences": {}
}