{
  "_format": "hh-sol-artifact-1",
  "contractName": "Autocompound",
  "sourceName": "contracts/Autocompound.sol",
  "abi": [
    {
      "inputs": [
        {
          "internalType": "string",
          "name": "_pairName",
          "type": "string"
        },
        {
          "internalType": "address",
          "name": "_depositToken",
          "type": "address"
        },
        {
          "internalType": "address",
          "name": "_rewardToken",
          "type": "address"
        },
        {
          "internalType": "address",
          "name": "_stakingContract",
          "type": "address"
        },
        {
          "internalType": "address",
          "name": "_swapPairToken0",
          "type": "address"
        },
        {
          "internalType": "address",
          "name": "_swapPairToken1",
          "type": "address"
        },
        {
          "internalType": "uint256",
          "name": "_reinvestMinValue",
          "type": "uint256"
        },
        {
          "internalType": "uint256",
          "name": "_reinvestRewardPerc",
          "type": "uint256"
        },
        {
          "internalType": "uint256",
          "name": "_systemFeePerc",
          "type": "uint256"
        }
      ],
      "stateMutability": "nonpayable",
      "type": "constructor"
    },
    {
      "anonymous": false,
      "inputs": [
        {
          "indexed": true,
          "internalType": "address",
          "name": "account",
          "type": "address"
        },
        {
          "indexed": false,
          "internalType": "uint256",
          "name": "amount",
          "type": "uint256"
        }
      ],
      "name": "Deposit",
      "type": "event"
    },
    {
      "anonymous": false,
      "inputs": [
        {
          "indexed": true,
          "internalType": "address",
          "name": "previousOwner",
          "type": "address"
        },
        {
          "indexed": true,
          "internalType": "address",
          "name": "newOwner",
          "type": "address"
        }
      ],
      "name": "OwnershipTransferred",
      "type": "event"
    },
    {
      "anonymous": false,
      "inputs": [
        {
          "indexed": false,
          "internalType": "uint256",
          "name": "newTotalDeposits",
          "type": "uint256"
        },
        {
          "indexed": false,
          "internalType": "uint256",
          "name": "newTotalSupply",
          "type": "uint256"
        }
      ],
      "name": "Reinvest",
      "type": "event"
    },
    {
      "anonymous": false,
      "inputs": [
        {
          "indexed": true,
          "internalType": "address",
          "name": "account",
          "type": "address"
        },
        {
          "indexed": false,
          "internalType": "uint256",
          "name": "amount",
          "type": "uint256"
        }
      ],
      "name": "Withdraw",
      "type": "event"
    },
    {
      "inputs": [],
      "name": "ReinvestMinValue",
      "outputs": [
        {
          "internalType": "uint256",
          "name": "",
          "type": "uint256"
        }
      ],
      "stateMutability": "view",
      "type": "function"
    },
    {
      "inputs": [],
      "name": "ReinvestRewardPerc",
      "outputs": [
        {
          "internalType": "uint256",
          "name": "",
          "type": "uint256"
        }
      ],
      "stateMutability": "view",
      "type": "function"
    },
    {
      "inputs": [],
      "name": "SystemFeePerc",
      "outputs": [
        {
          "internalType": "uint256",
          "name": "",
          "type": "uint256"
        }
      ],
      "stateMutability": "view",
      "type": "function"
    },
    {
      "inputs": [],
      "name": "checkReward",
      "outputs": [
        {
          "internalType": "uint256",
          "name": "",
          "type": "uint256"
        }
      ],
      "stateMutability": "view",
      "type": "function"
    },
    {
      "inputs": [
        {
          "internalType": "uint256",
          "name": "amount",
          "type": "uint256"
        }
      ],
      "name": "deposit",
      "outputs": [],
      "stateMutability": "nonpayable",
      "type": "function"
    },
    {
      "inputs": [
        {
          "internalType": "address",
          "name": "account",
          "type": "address"
        },
        {
          "internalType": "uint256",
          "name": "amount",
          "type": "uint256"
        }
      ],
      "name": "depositFor",
      "outputs": [],
      "stateMutability": "nonpayable",
      "type": "function"
    },
    {
      "inputs": [],
      "name": "depositToken",
      "outputs": [
        {
          "internalType": "contract IERC20",
          "name": "",
          "type": "address"
        }
      ],
      "stateMutability": "view",
      "type": "function"
    },
    {
      "inputs": [
        {
          "internalType": "uint256",
          "name": "amount",
          "type": "uint256"
        },
        {
          "internalType": "uint256",
          "name": "deadline",
          "type": "uint256"
        },
        {
          "internalType": "uint8",
          "name": "v",
          "type": "uint8"
        },
        {
          "internalType": "bytes32",
          "name": "r",
          "type": "bytes32"
        },
        {
          "internalType": "bytes32",
          "name": "s",
          "type": "bytes32"
        }
      ],
      "name": "depositWithPermit",
      "outputs": [],
      "stateMutability": "nonpayable",
      "type": "function"
    },
    {
      "inputs": [],
      "name": "depositsEnabled",
      "outputs": [
        {
          "internalType": "bool",
          "name": "",
          "type": "bool"
        }
      ],
      "stateMutability": "view",
      "type": "function"
    },
    {
      "inputs": [],
      "name": "exit",
      "outputs": [],
      "stateMutability": "nonpayable",
      "type": "function"
    },
    {
      "inputs": [
        {
          "internalType": "address",
          "name": "account",
          "type": "address"
        }
      ],
      "name": "getBalance",
      "outputs": [
        {
          "internalType": "uint256",
          "name": "",
          "type": "uint256"
        }
      ],
      "stateMutability": "view",
      "type": "function"
    },
    {
      "inputs": [
        {
          "internalType": "uint256",
          "name": "amount",
          "type": "uint256"
        }
      ],
      "name": "getDepositTokensForShares",
      "outputs": [
        {
          "internalType": "uint256",
          "name": "",
          "type": "uint256"
        }
      ],
      "stateMutability": "view",
      "type": "function"
    },
    {
      "inputs": [
        {
          "internalType": "uint256",
          "name": "amount",
          "type": "uint256"
        }
      ],
      "name": "getSharesForDepositTokens",
      "outputs": [
        {
          "internalType": "uint256",
          "name": "",
          "type": "uint256"
        }
      ],
      "stateMutability": "view",
      "type": "function"
    },
    {
      "inputs": [],
      "name": "owner",
      "outputs": [
        {
          "internalType": "address",
          "name": "",
          "type": "address"
        }
      ],
      "stateMutability": "view",
      "type": "function"
    },
    {
      "inputs": [],
      "name": "pairName",
      "outputs": [
        {
          "internalType": "string",
          "name": "",
          "type": "string"
        }
      ],
      "stateMutability": "view",
      "type": "function"
    },
    {
      "inputs": [],
      "name": "reinvest",
      "outputs": [],
      "stateMutability": "nonpayable",
      "type": "function"
    },
    {
      "inputs": [],
      "name": "renounceOwnership",
      "outputs": [],
      "stateMutability": "nonpayable",
      "type": "function"
    },
    {
      "inputs": [
        {
          "internalType": "uint256",
          "name": "minReturnAmountAccepted",
          "type": "uint256"
        },
        {
          "internalType": "bool",
          "name": "disableDeposits",
          "type": "bool"
        }
      ],
      "name": "rescueDeployedFunds",
      "outputs": [],
      "stateMutability": "nonpayable",
      "type": "function"
    },
    {
      "inputs": [],
      "name": "rewardToken",
      "outputs": [
        {
          "internalType": "contract IERC20",
          "name": "",
          "type": "address"
        }
      ],
      "stateMutability": "view",
      "type": "function"
    },
    {
      "inputs": [],
      "name": "setAllowances",
      "outputs": [],
      "stateMutability": "nonpayable",
      "type": "function"
    },
    {
      "inputs": [
        {
          "internalType": "bool",
          "name": "value",
          "type": "bool"
        }
      ],
      "name": "setDepositsEnabled",
      "outputs": [],
      "stateMutability": "nonpayable",
      "type": "function"
    },
    {
      "inputs": [
        {
          "internalType": "uint256",
          "name": "value",
          "type": "uint256"
        }
      ],
      "name": "setReinvestMinValue",
      "outputs": [],
      "stateMutability": "nonpayable",
      "type": "function"
    },
    {
      "inputs": [
        {
          "internalType": "uint256",
          "name": "value",
          "type": "uint256"
        }
      ],
      "name": "setReinvestReward",
      "outputs": [],
      "stateMutability": "nonpayable",
      "type": "function"
    },
    {
      "inputs": [
        {
          "internalType": "address",
          "name": "value",
          "type": "address"
        }
      ],
      "name": "setSysAddr",
      "outputs": [],
      "stateMutability": "nonpayable",
      "type": "function"
    },
    {
      "inputs": [
        {
          "internalType": "uint256",
          "name": "value",
          "type": "uint256"
        }
      ],
      "name": "setSystemFee",
      "outputs": [],
      "stateMutability": "nonpayable",
      "type": "function"
    },
    {
      "inputs": [],
      "name": "stakingContract",
      "outputs": [
        {
          "internalType": "contract IStakingRewards",
          "name": "",
          "type": "address"
        }
      ],
      "stateMutability": "view",
      "type": "function"
    },
    {
      "inputs": [],
      "name": "sysAddr",
      "outputs": [
        {
          "internalType": "address",
          "name": "",
          "type": "address"
        }
      ],
      "stateMutability": "view",
      "type": "function"
    },
    {
      "inputs": [],
      "name": "totalDeposits",
      "outputs": [
        {
          "internalType": "uint256",
          "name": "",
          "type": "uint256"
        }
      ],
      "stateMutability": "view",
      "type": "function"
    },
    {
      "inputs": [],
      "name": "totalSupply",
      "outputs": [
        {
          "internalType": "uint256",
          "name": "",
          "type": "uint256"
        }
      ],
      "stateMutability": "view",
      "type": "function"
    },
    {
      "inputs": [
        {
          "internalType": "address",
          "name": "newOwner",
          "type": "address"
        }
      ],
      "name": "transferOwnership",
      "outputs": [],
      "stateMutability": "nonpayable",
      "type": "function"
    },
    {
      "inputs": [
        {
          "internalType": "uint256",
          "name": "amount",
          "type": "uint256"
        }
      ],
      "name": "withdraw",
      "outputs": [],
      "stateMutability": "nonpayable",
      "type": "function"
    }
  ],
  "bytecode": "0x60806040523480156200001157600080fd5b506040516200311d3803806200311d83398181016040526101208110156200003857600080fd5b81019080805160405193929190846401000000008211156200005957600080fd5b9083019060208201858111156200006f57600080fd5b82516401000000008111828201881017156200008a57600080fd5b82525081516020918201929091019080838360005b83811015620000b95781810151838201526020016200009f565b50505050905090810190601f168015620000e75780820380516001836020036101000a031916815260200191505b5060409081526020820151908201516060830151608084015160a085015160c086015160e0870151610100909701519598509396509194909391929160006200012f62000234565b600080546001600160a01b0319166001600160a01b0383169081178255604051929350917f8be0079c531659141344cd1fd0a4f28419497f9722a3daafe3b4186f6b6457e0908290a35088516200018e9060079060208c019062000c6a565b50600180546001600160a01b03808b166001600160a01b0319928316178355600280548b831690841617905560048054918a1691909216179055600a849055600c839055600d829055600b805460ff19169091179055620001ee62000234565b600380546001600160a01b0319166001600160a01b03929092169190911790556200021b85858962000238565b6200022562000b56565b50505050505050505062000d16565b3390565b600160009054906101000a90046001600160a01b03166001600160a01b0316630dfe16816040518163ffffffff1660e01b815260040160206040518083038186803b1580156200028757600080fd5b505afa1580156200029c573d6000803e3d6000fd5b505050506040513d6020811015620002b357600080fd5b50516001600160a01b03828116911614801590620003595750600160009054906101000a90046001600160a01b03166001600160a01b031663d21220a76040518163ffffffff1660e01b815260040160206040518083038186803b1580156200031b57600080fd5b505afa15801562000330573d6000803e3d6000fd5b505050506040513d60208110156200034757600080fd5b50516001600160a01b03828116911614155b15620009e4576001600160a01b038316620003a65760405162461bcd60e51b81526004018080602001828103825260298152602001806200305b6029913960400191505060405180910390fd5b6001600160a01b038216620003ed5760405162461bcd60e51b8152600401808060200182810382526029815260200180620030bc6029913960400191505060405180910390fd5b600580546001600160a01b038086166001600160a01b031992831617928390556006805486831693169290921790915560408051630dfe168160e01b815290518483169390921691630dfe168191600480820192602092909190829003018186803b1580156200045c57600080fd5b505afa15801562000471573d6000803e3d6000fd5b505050506040513d60208110156200048857600080fd5b50516001600160a01b031614806200051b57506005546040805163d21220a760e01b815290516001600160a01b0380851693169163d21220a7916004808301926020929190829003018186803b158015620004e257600080fd5b505afa158015620004f7573d6000803e3d6000fd5b505050506040513d60208110156200050e57600080fd5b50516001600160a01b0316145b620005585760405162461bcd60e51b8152600401808060200182810382526045815260200180620030166045913960600191505060405180910390fd5b600160009054906101000a90046001600160a01b03166001600160a01b0316630dfe16816040518163ffffffff1660e01b815260040160206040518083038186803b158015620005a757600080fd5b505afa158015620005bc573d6000803e3d6000fd5b505050506040513d6020811015620005d357600080fd5b505160055460408051630dfe168160e01b815290516001600160a01b039384169390921691630dfe168191600480820192602092909190829003018186803b1580156200061f57600080fd5b505afa15801562000634573d6000803e3d6000fd5b505050506040513d60208110156200064b57600080fd5b50516001600160a01b031614806200075e5750600160009054906101000a90046001600160a01b03166001600160a01b0316630dfe16816040518163ffffffff1660e01b815260040160206040518083038186803b158015620006ad57600080fd5b505afa158015620006c2573d6000803e3d6000fd5b505050506040513d6020811015620006d957600080fd5b50516005546040805163d21220a760e01b815290516001600160a01b03938416939092169163d21220a791600480820192602092909190829003018186803b1580156200072557600080fd5b505afa1580156200073a573d6000803e3d6000fd5b505050506040513d60208110156200075157600080fd5b50516001600160a01b0316145b6200079b5760405162461bcd60e51b8152600401808060200182810382526038815260200180620030846038913960400191505060405180910390fd5b600160009054906101000a90046001600160a01b03166001600160a01b031663d21220a76040518163ffffffff1660e01b815260040160206040518083038186803b158015620007ea57600080fd5b505afa158015620007ff573d6000803e3d6000fd5b505050506040513d60208110156200081657600080fd5b505160065460408051630dfe168160e01b815290516001600160a01b039384169390921691630dfe168191600480820192602092909190829003018186803b1580156200086257600080fd5b505afa15801562000877573d6000803e3d6000fd5b505050506040513d60208110156200088e57600080fd5b50516001600160a01b03161480620009a15750600160009054906101000a90046001600160a01b03166001600160a01b031663d21220a76040518163ffffffff1660e01b815260040160206040518083038186803b158015620008f057600080fd5b505afa15801562000905573d6000803e3d6000fd5b505050506040513d60208110156200091c57600080fd5b50516006546040805163d21220a760e01b815290516001600160a01b03938416939092169163d21220a791600480820192602092909190829003018186803b1580156200096857600080fd5b505afa1580156200097d573d6000803e3d6000fd5b505050506040513d60208110156200099457600080fd5b50516001600160a01b0316145b620009de5760405162461bcd60e51b8152600401808060200182810382526038815260200180620030e56038913960400191505060405180910390fd5b62000b51565b600160009054906101000a90046001600160a01b03166001600160a01b0316630dfe16816040518163ffffffff1660e01b815260040160206040518083038186803b15801562000a3357600080fd5b505afa15801562000a48573d6000803e3d6000fd5b505050506040513d602081101562000a5f57600080fd5b50516001600160a01b038281169116141562000a9d57600154600680546001600160a01b0319166001600160a01b0390921691909117905562000b51565b600160009054906101000a90046001600160a01b03166001600160a01b031663d21220a76040518163ffffffff1660e01b815260040160206040518083038186803b15801562000aec57600080fd5b505afa15801562000b01573d6000803e3d6000fd5b505050506040513d602081101562000b1857600080fd5b50516001600160a01b038281169116141562000b5157600154600580546001600160a01b0319166001600160a01b039092169190911790555b505050565b62000b6062000234565b6001600160a01b031662000b7362000c5b565b6001600160a01b03161462000bcf576040805162461bcd60e51b815260206004820181905260248201527f4f776e61626c653a2063616c6c6572206973206e6f7420746865206f776e6572604482015290519081900360640190fd5b600154600480546040805163095ea7b360e01b81526001600160a01b039283169381019390935260001960248401525192169163095ea7b3916044808201926020929091908290030181600087803b15801562000c2b57600080fd5b505af115801562000c40573d6000803e3d6000fd5b505050506040513d602081101562000c5757600080fd5b5050565b6000546001600160a01b031690565b828054600181600116156101000203166002900490600052602060002090601f01602090048101928262000ca2576000855562000ced565b82601f1062000cbd57805160ff191683800117855562000ced565b8280016001018555821562000ced579182015b8281111562000ced57825182559160200191906001019062000cd0565b5062000cfb92915062000cff565b5090565b5b8082111562000cfb576000815560010162000d00565b6122f08062000d266000396000f3fe608060405234801561001057600080fd5b50600436106101e55760003560e01c8063ac0d31ff1161010f578063e6199df4116100a2578063f2fde38b11610071578063f2fde38b146104b4578063f7c618c1146104da578063f8b2cb4f146104e2578063fdb5a03e14610508576101e5565b8063e6199df41461046a578063e9fad8ee14610487578063eab89a5a1461048f578063ee99205c146104ac576101e5565b8063d995f24b116100de578063d995f24b14610435578063dbd9a4d41461043d578063dd8ce4d614610445578063e53798d214610462576101e5565b8063ac0d31ff146103e3578063b6b55f2514610408578063c4b24a4614610425578063c89039c51461042d576101e5565b80634a970be7116101875780637d882097116101565780637d882097146103ac5780638da5cb5b146103b45780639ab7fa1c146103bc5780639f04586c146103c4576101e5565b80634a970be71461032a5780635392fd1c14610362578063647abe2e1461037e578063715018a6146103a4576101e5565b806318160ddd116101c357806318160ddd1461024a5780632e1a7d4d146102645780632f4f21e21461028157806340794c3b146102ad576101e5565b8063030c2bbf146101ea57806314b0452b1461020e57806316da82231461022d575b600080fd5b6101f2610510565b604080516001600160a01b039092168252519081900360200190f35b61022b6004803603602081101561022457600080fd5b503561051f565b005b61022b6004803603602081101561024357600080fd5b5035610598565b610252610611565b60408051918252519081900360200190f35b61022b6004803603602081101561027a57600080fd5b5035610617565b61022b6004803603604081101561029757600080fd5b506001600160a01b038135169060200135610829565b6102b5610833565b6040805160208082528351818301528351919283929083019185019080838360005b838110156102ef5781810151838201526020016102d7565b50505050905090810190601f16801561031c5780820380516001836020036101000a031916815260200191505b509250505060405180910390f35b61022b600480360360a081101561034057600080fd5b5080359060208101359060ff60408201351690606081013590608001356108c1565b61036a61097a565b604080519115158252519081900360200190f35b61022b6004803603602081101561039457600080fd5b50356001600160a01b0316610983565b61022b610a26565b610252610af1565b6101f2610af7565b610252610b06565b61022b600480360360208110156103da57600080fd5b50351515610b0c565b61022b600480360360408110156103f957600080fd5b50803590602001351515610ba9565b61022b6004803603602081101561041e57600080fd5b5035610e40565b610252610e4d565b6101f2610ee4565b610252610ef3565b61022b610ef9565b6102526004803603602081101561045b57600080fd5b503561100b565b610252611058565b61022b6004803603602081101561048057600080fd5b503561105e565b61022b6110d7565b610252600480360360208110156104a557600080fd5b50356110f2565b6101f2611132565b61022b600480360360208110156104ca57600080fd5b50356001600160a01b0316611141565b6101f2611262565b610252600480360360208110156104f857600080fd5b50356001600160a01b0316611271565b61022b61128c565b6003546001600160a01b031681565b6105276112f8565b6001600160a01b0316610538610af7565b6001600160a01b031614610593576040805162461bcd60e51b815260206004820181905260248201527f4f776e61626c653a2063616c6c6572206973206e6f7420746865206f776e6572604482015290519081900360640190fd5b600d55565b6105a06112f8565b6001600160a01b03166105b1610af7565b6001600160a01b03161461060c576040805162461bcd60e51b815260206004820181905260248201527f4f776e61626c653a2063616c6c6572206973206e6f7420746865206f776e6572604482015290519081900360640190fd5b600c55565b60095481565b806106535760405162461bcd60e51b815260040180806020018281038252602381526020018061221e6023913960400191505060405180910390fd5b336000908152600e60205260409020548111156106b7576040805162461bcd60e51b815260206004820152601d60248201527f434e524175746f3a3a77697468647261773a206e6f2062616c616e6365000000604482015290519081900360640190fd5b60006106c2826110f2565b90508015610825576106d3816112fc565b6001546040805163a9059cbb60e01b81523360048201526024810184905290516001600160a01b039092169163a9059cbb916044808201926020929091908290030181600087803b15801561072757600080fd5b505af115801561073b573d6000803e3d6000fd5b505050506040513d602081101561075157600080fd5b50516107a4576040805162461bcd60e51b815260206004820152601960248201527f434e524175746f636f6d706f756e643a3a776974686472617700000000000000604482015290519081900360640190fd5b336000908152600e60205260409020546107be90836113b3565b336000908152600e60205260409020556009546107db90836113b3565b6009556008546107eb90826113b3565b60085560408051828152905133917f884edad9ce6fa2440d8a54cc123490eb96d2768479d49ff9c7366125a9424364919081900360200190a25b5050565b6108258282611415565b6007805460408051602060026001851615610100026000190190941693909304601f810184900484028201840190925281815292918301828280156108b95780601f1061088e576101008083540402835291602001916108b9565b820191906000526020600020905b81548152906001019060200180831161089c57829003601f168201915b505050505081565b600154604080517fd505accf000000000000000000000000000000000000000000000000000000008152336004820152306024820152604481018890526064810187905260ff8616608482015260a4810185905260c4810184905290516001600160a01b039092169163d505accf9160e48082019260009290919082900301818387803b15801561095157600080fd5b505af1158015610965573d6000803e3d6000fd5b505050506109733386611415565b5050505050565b600b5460ff1681565b61098b6112f8565b6001600160a01b031661099c610af7565b6001600160a01b0316146109f7576040805162461bcd60e51b815260206004820181905260248201527f4f776e61626c653a2063616c6c6572206973206e6f7420746865206f776e6572604482015290519081900360640190fd5b6003805473ffffffffffffffffffffffffffffffffffffffff19166001600160a01b0392909216919091179055565b610a2e6112f8565b6001600160a01b0316610a3f610af7565b6001600160a01b031614610a9a576040805162461bcd60e51b815260206004820181905260248201527f4f776e61626c653a2063616c6c6572206973206e6f7420746865206f776e6572604482015290519081900360640190fd5b600080546040516001600160a01b03909116907f8be0079c531659141344cd1fd0a4f28419497f9722a3daafe3b4186f6b6457e0908390a36000805473ffffffffffffffffffffffffffffffffffffffff19169055565b60085481565b6000546001600160a01b031690565b600a5481565b610b146112f8565b6001600160a01b0316610b25610af7565b6001600160a01b031614610b80576040805162461bcd60e51b815260206004820181905260248201527f4f776e61626c653a2063616c6c6572206973206e6f7420746865206f776e6572604482015290519081900360640190fd5b600b5460ff1615158115151415610b9657600080fd5b600b805460ff1916911515919091179055565b610bb16112f8565b6001600160a01b0316610bc2610af7565b6001600160a01b031614610c1d576040805162461bcd60e51b815260206004820181905260248201527f4f776e61626c653a2063616c6c6572206973206e6f7420746865206f776e6572604482015290519081900360640190fd5b600154604080516370a0823160e01b815230600482015290516000926001600160a01b0316916370a08231916024808301926020929190829003018186803b158015610c6857600080fd5b505afa158015610c7c573d6000803e3d6000fd5b505050506040513d6020811015610c9257600080fd5b505160048054604080517fe9fad8ee00000000000000000000000000000000000000000000000000000000815290519394506001600160a01b039091169263e9fad8ee9282810192600092919082900301818387803b158015610cf457600080fd5b505af1158015610d08573d6000803e3d6000fd5b5050600154604080516370a0823160e01b81523060048201529051600094506001600160a01b0390921692506370a08231916024808301926020929190829003018186803b158015610d5957600080fd5b505afa158015610d6d573d6000803e3d6000fd5b505050506040513d6020811015610d8357600080fd5b5051905083610d9282846113b3565b1015610dcf5760405162461bcd60e51b81526004018080602001828103825260248152602001806122976024913960400191505060405180910390fd5b600881905560095460408051838152602081019290925280517fc7606d21ac05cd309191543e409f0845c016120563783d70e4f41419dc0ef2349281900390910190a1600b5460ff1615156001148015610e2b57506001831515145b15610e3a57610e3a6000610b0c565b50505050565b610e4a3382611415565b50565b60048054604080517e8cc2620000000000000000000000000000000000000000000000000000000081523093810193909352516000926001600160a01b0390921691628cc262916024808301926020929190829003018186803b158015610eb357600080fd5b505afa158015610ec7573d6000803e3d6000fd5b505050506040513d6020811015610edd57600080fd5b5051905090565b6001546001600160a01b031681565b600c5481565b610f016112f8565b6001600160a01b0316610f12610af7565b6001600160a01b031614610f6d576040805162461bcd60e51b815260206004820181905260248201527f4f776e61626c653a2063616c6c6572206973206e6f7420746865206f776e6572604482015290519081900360640190fd5b60015460048054604080517f095ea7b30000000000000000000000000000000000000000000000000000000081526001600160a01b039283169381019390935260001960248401525192169163095ea7b3916044808201926020929091908290030181600087803b158015610fe157600080fd5b505af1158015610ff5573d6000803e3d6000fd5b505050506040513d602081101561082557600080fd5b60006110246008546009546115d090919063ffffffff16565b61102f575080611053565b61105060085461104a600954856115d090919063ffffffff16565b90611630565b90505b919050565b600d5481565b6110666112f8565b6001600160a01b0316611077610af7565b6001600160a01b0316146110d2576040805162461bcd60e51b815260206004820181905260248201527f4f776e61626c653a2063616c6c6572206973206e6f7420746865206f776e6572604482015290519081900360640190fd5b600a55565b336000908152600e60205260409020546110f090610617565b565b600061110b6008546009546115d090919063ffffffff16565b61111757506000611053565b61105060095461104a600854856115d090919063ffffffff16565b6004546001600160a01b031681565b6111496112f8565b6001600160a01b031661115a610af7565b6001600160a01b0316146111b5576040805162461bcd60e51b815260206004820181905260248201527f4f776e61626c653a2063616c6c6572206973206e6f7420746865206f776e6572604482015290519081900360640190fd5b6001600160a01b0381166111fa5760405162461bcd60e51b815260040180806020018281038252602681526020018061216a6026913960400191505060405180910390fd5b600080546040516001600160a01b03808516939216917f8be0079c531659141344cd1fd0a4f28419497f9722a3daafe3b4186f6b6457e091a36000805473ffffffffffffffffffffffffffffffffffffffff19166001600160a01b0392909216919091179055565b6002546001600160a01b031681565b6001600160a01b03166000908152600e602052604090205490565b6000611296610e4d565b9050600a548110156112ef576040805162461bcd60e51b815260206004820152601960248201527f434e524175746f636f6d706f756e643a3a7265696e7665737400000000000000604482015290519081900360640190fd5b610e4a81611697565b3390565b6000811161133b5760405162461bcd60e51b81526004018080602001828103825260278152602001806121b26027913960400191505060405180910390fd5b60048054604080517f2e1a7d4d000000000000000000000000000000000000000000000000000000008152928301849052516001600160a01b0390911691632e1a7d4d91602480830192600092919082900301818387803b15801561139f57600080fd5b505af1158015610973573d6000803e3d6000fd5b60008282111561140a576040805162461bcd60e51b815260206004820152601e60248201527f536166654d6174683a207375627472616374696f6e206f766572666c6f770000604482015290519081900360640190fd5b508082035b92915050565b600b5460ff161515600114611471576040805162461bcd60e51b815260206004820152601e60248201527f434e524175746f636f6d706f756e643a3a6465706f7369742066616c73650000604482015290519081900360640190fd5b600154604080517f23b872dd0000000000000000000000000000000000000000000000000000000081523360048201523060248201526044810184905290516001600160a01b03909216916323b872dd916064808201926020929091908290030181600087803b1580156114e457600080fd5b505af11580156114f8573d6000803e3d6000fd5b505050506040513d602081101561150e57600080fd5b505161151957600080fd5b61152281611965565b600061152d8261100b565b60095490915061153d9082611a08565b6009556001600160a01b0383166000908152600e60205260409020546115639082611a08565b6001600160a01b0384166000908152600e60205260409020556008546115899083611a08565b6008556040805183815290516001600160a01b038516917fe1fffcc4923d04b559f4d29a8bfc6cda04eb5b0d3c460751c2402c5c5cc9109c919081900360200190a2505050565b6000826115df5750600061140f565b828202828482816115ec57fe5b04146116295760405162461bcd60e51b81526004018080602001828103825260218152602001806121d96021913960400191505060405180910390fd5b9392505050565b6000808211611686576040805162461bcd60e51b815260206004820152601a60248201527f536166654d6174683a206469766973696f6e206279207a65726f000000000000604482015290519081900360640190fd5b81838161168f57fe5b049392505050565b60048054604080517f3d18b91200000000000000000000000000000000000000000000000000000000815290516001600160a01b0390921692633d18b91292828201926000929082900301818387803b1580156116f357600080fd5b505af1158015611707573d6000803e3d6000fd5b50505050600061172861271061104a600d54856115d090919063ffffffff16565b90508015611806576002546003546040805163a9059cbb60e01b81526001600160a01b039283166004820152602481018590529051919092169163a9059cbb9160448083019260209291908290030181600087803b15801561178957600080fd5b505af115801561179d573d6000803e3d6000fd5b505050506040513d60208110156117b357600080fd5b5051611806576040805162461bcd60e51b815260206004820181905260248201527f434e524175746f636f6d706f756e643a3a5f73797374656d6665652c20666565604482015290519081900360640190fd5b600061182361271061104a600c54866115d090919063ffffffff16565b905080156118e6576002546040805163a9059cbb60e01b81523360048201526024810184905290516001600160a01b039092169163a9059cbb916044808201926020929091908290030181600087803b15801561187f57600080fd5b505af1158015611893573d6000803e3d6000fd5b505050506040513d60208110156118a957600080fd5b50516118e65760405162461bcd60e51b81526004018080602001828103825260228152602001806121906022913960400191505060405180910390fd5b60006119046118ff836118f987876113b3565b906113b3565b611a62565b905061190f81611965565b60085461191c9082611a08565b600881905560095460408051928352602083019190915280517fc7606d21ac05cd309191543e409f0845c016120563783d70e4f41419dc0ef2349281900390910190a150505050565b600081116119a45760405162461bcd60e51b81526004018080602001828103825260248152602001806121fa6024913960400191505060405180910390fd5b60048054604080517fa694fc3a000000000000000000000000000000000000000000000000000000008152928301849052516001600160a01b039091169163a694fc3a91602480830192600092919082900301818387803b15801561139f57600080fd5b600082820183811015611629576040805162461bcd60e51b815260206004820152601b60248201527f536166654d6174683a206164646974696f6e206f766572666c6f770000000000604482015290519081900360640190fd5b600080611a70836002611630565b905060008111611ab15760405162461bcd60e51b81526004018080602001828103825260328152602001806122416032913960400191505060405180910390fd5b600154604080517f0dfe168100000000000000000000000000000000000000000000000000000000815290516000926001600160a01b031691630dfe1681916004808301926020929190829003018186803b158015611b0f57600080fd5b505afa158015611b23573d6000803e3d6000fd5b505050506040513d6020811015611b3957600080fd5b505160025490915082906001600160a01b03808416911614611b7857600254600554611b759185916001600160a01b0391821691869116611c56565b90505b600154604080517fd21220a700000000000000000000000000000000000000000000000000000000815290516000926001600160a01b03169163d21220a7916004808301926020929190829003018186803b158015611bd657600080fd5b505afa158015611bea573d6000803e3d6000fd5b505050506040513d6020811015611c0057600080fd5b505160025490915084906001600160a01b03808416911614611c3f57600254600654611c3c9187916001600160a01b0391821691869116611c56565b90505b611c4b84838584611e66565b979650505050505050565b600080611c63858561201a565b509050600080846001600160a01b0316630902f1ac6040518163ffffffff1660e01b815260040160606040518083038186803b158015611ca257600080fd5b505afa158015611cb6573d6000803e3d6000fd5b505050506040513d6060811015611ccc57600080fd5b50805160209091015190925090506001600160a01b0383811690881614611cef57905b600080611d1d8a856dffffffffffffffffffffffffffff16856dffffffffffffffffffffffffffff1661204b565b9050886001600160a01b0316856001600160a01b031614611d3a57905b611d4589888c61208e565b60408051600080825260208201928390527f022c0d9f00000000000000000000000000000000000000000000000000000000835260248201858152604483018590523060648401819052608060848501908152845160a486018190526001600160a01b038e169663022c0d9f968a968a9691949193919260c486019290918190849084905b83811015611de2578181015183820152602001611dca565b50505050905090810190601f168015611e0f5780820380516001836020036101000a031916815260200191505b5095505050505050600060405180830381600087803b158015611e3157600080fd5b505af1158015611e45573d6000803e3d6000fd5b50505050818111611e565781611e58565b805b9a9950505050505050505050565b6000806000600160009054906101000a90046001600160a01b03166001600160a01b0316630902f1ac6040518163ffffffff1660e01b815260040160606040518083038186803b158015611eb957600080fd5b505afa158015611ecd573d6000803e3d6000fd5b505050506040513d6060811015611ee357600080fd5b50805160209091015190925090506000611f11866dffffffffffffffffffffffffffff808616908516612151565b905084811115611f4c57849050611f4985836dffffffffffffffffffffffffffff16856dffffffffffffffffffffffffffff16612151565b95505b600154611f649089906001600160a01b03168861208e565b600154611f7c9088906001600160a01b03168361208e565b600154604080517f6a62784200000000000000000000000000000000000000000000000000000000815230600482015290516001600160a01b0390921691636a627842916024808201926020929091908290030181600087803b158015611fe257600080fd5b505af1158015611ff6573d6000803e3d6000fd5b505050506040513d602081101561200c57600080fd5b505198975050505050505050565b600080826001600160a01b0316846001600160a01b03161061203d578284612040565b83835b915091509250929050565b60008061205a856103e56115d0565b9050600061206882856115d0565b905060006120828361207c886103e86115d0565b90611a08565b9050611c4b8282611630565b826001600160a01b031663a9059cbb83836040518363ffffffff1660e01b815260040180836001600160a01b0316815260200182815260200192505050602060405180830381600087803b1580156120e557600080fd5b505af11580156120f9573d6000803e3d6000fd5b505050506040513d602081101561210f57600080fd5b505161214c5760405162461bcd60e51b81526004018080602001828103825260248152602001806122736024913960400191505060405180910390fd5b505050565b60006121618361104a86856115d0565b94935050505056fe4f776e61626c653a206e6577206f776e657220697320746865207a65726f2061646472657373434e524175746f636f6d706f756e643a3a5f7265696e766573742c20726577617264434e524175746f636f6d706f756e643a3a5f77697468647261774465706f736974546f6b656e73536166654d6174683a206d756c7469706c69636174696f6e206f766572666c6f77434e524175746f636f6d706f756e643a3a5f7374616b654465706f736974546f6b656e73434e524175746f3a3a77697468647261773a20616d6f756e742063616e742062652030446578537472617465677956353a3a5f636f6e76657274526577617264546f6b656e73546f4465706f736974546f6b656e735472616e7366657248656c7065723a205452414e534645525f46524f4d5f4641494c4544434e524175746f636f6d706f756e643a3a7265736375654465706c6f79656446756e6473a264697066735822122077b36689241ed3df93f6b30ec26b9a4aea25f2a2bc7c999fd5422fb558a2924b64736f6c6343000706003353776170207061697220737570706c69656420646f6573206e6f742068617665207468652072657761726420746f6b656e206173206f6e65206f66206974277320706169725377617020706169722030206973206e656365737361727920627574206e6f7420737570706c696564537761702070616972203020737570706c69656420646f6573206e6f74206d6174636820746865207061697220696e207175657374696f6e5377617020706169722031206973206e656365737361727920627574206e6f7420737570706c696564537761702070616972203120737570706c69656420646f6573206e6f74206d6174636820746865207061697220696e207175657374696f6e",
  "linkReferences": {},
  "deployedLinkReferences": {}
}