{
  "_format": "hh-sol-artifact-1",
  "contractName": "PRDC",
  "sourceName": "contracts/PRDC.sol",
  "abi": [
    {
      "inputs": [
        {
          "internalType": "contract AggregatorV3Interface",
          "name": "_oracle",
          "type": "address"
        },
        {
          "internalType": "address",
          "name": "_adminAddress",
          "type": "address"
        },
        {
          "internalType": "address",
          "name": "_operatorAddress",
          "type": "address"
        },
        {
          "internalType": "uint256",
          "name": "_intervalTime",
          "type": "uint256"
        },
        {
          "internalType": "uint256",
          "name": "_bufferTime",
          "type": "uint256"
        },
        {
          "internalType": "uint256",
          "name": "_minBetAmount",
          "type": "uint256"
        },
        {
          "internalType": "uint256",
          "name": "_oracleUpdateAllowance",
          "type": "uint256"
        }
      ],
      "stateMutability": "nonpayable",
      "type": "constructor"
    },
    {
      "anonymous": false,
      "inputs": [
        {
          "indexed": true,
          "internalType": "address",
          "name": "sender",
          "type": "address"
        },
        {
          "indexed": true,
          "internalType": "uint256",
          "name": "currentEpoch",
          "type": "uint256"
        },
        {
          "indexed": false,
          "internalType": "uint256",
          "name": "amount",
          "type": "uint256"
        }
      ],
      "name": "BetBear",
      "type": "event"
    },
    {
      "anonymous": false,
      "inputs": [
        {
          "indexed": true,
          "internalType": "address",
          "name": "sender",
          "type": "address"
        },
        {
          "indexed": true,
          "internalType": "uint256",
          "name": "currentEpoch",
          "type": "uint256"
        },
        {
          "indexed": false,
          "internalType": "uint256",
          "name": "amount",
          "type": "uint256"
        }
      ],
      "name": "BetBull",
      "type": "event"
    },
    {
      "anonymous": false,
      "inputs": [
        {
          "indexed": true,
          "internalType": "address",
          "name": "sender",
          "type": "address"
        },
        {
          "indexed": true,
          "internalType": "uint256",
          "name": "currentEpoch",
          "type": "uint256"
        },
        {
          "indexed": false,
          "internalType": "uint256",
          "name": "amount",
          "type": "uint256"
        }
      ],
      "name": "Claim",
      "type": "event"
    },
    {
      "anonymous": false,
      "inputs": [
        {
          "indexed": false,
          "internalType": "uint256",
          "name": "amount",
          "type": "uint256"
        }
      ],
      "name": "ClaimTreasury",
      "type": "event"
    },
    {
      "anonymous": false,
      "inputs": [
        {
          "indexed": true,
          "internalType": "uint256",
          "name": "epoch",
          "type": "uint256"
        },
        {
          "indexed": false,
          "internalType": "uint256",
          "name": "blockNumber",
          "type": "uint256"
        },
        {
          "indexed": false,
          "internalType": "int256",
          "name": "price",
          "type": "int256"
        }
      ],
      "name": "EndRound",
      "type": "event"
    },
    {
      "anonymous": false,
      "inputs": [
        {
          "indexed": true,
          "internalType": "uint256",
          "name": "epoch",
          "type": "uint256"
        },
        {
          "indexed": false,
          "internalType": "uint256",
          "name": "blockNumber",
          "type": "uint256"
        },
        {
          "indexed": false,
          "internalType": "int256",
          "name": "price",
          "type": "int256"
        }
      ],
      "name": "LockRound",
      "type": "event"
    },
    {
      "anonymous": false,
      "inputs": [
        {
          "indexed": true,
          "internalType": "uint256",
          "name": "epoch",
          "type": "uint256"
        },
        {
          "indexed": false,
          "internalType": "uint256",
          "name": "minBetAmount",
          "type": "uint256"
        }
      ],
      "name": "MinBetAmountUpdated",
      "type": "event"
    },
    {
      "anonymous": false,
      "inputs": [
        {
          "indexed": true,
          "internalType": "address",
          "name": "previousOwner",
          "type": "address"
        },
        {
          "indexed": true,
          "internalType": "address",
          "name": "newOwner",
          "type": "address"
        }
      ],
      "name": "OwnershipTransferred",
      "type": "event"
    },
    {
      "anonymous": false,
      "inputs": [
        {
          "indexed": false,
          "internalType": "uint256",
          "name": "epoch",
          "type": "uint256"
        }
      ],
      "name": "Pause",
      "type": "event"
    },
    {
      "anonymous": false,
      "inputs": [
        {
          "indexed": false,
          "internalType": "address",
          "name": "account",
          "type": "address"
        }
      ],
      "name": "Paused",
      "type": "event"
    },
    {
      "anonymous": false,
      "inputs": [
        {
          "indexed": true,
          "internalType": "uint256",
          "name": "epoch",
          "type": "uint256"
        },
        {
          "indexed": false,
          "internalType": "uint256",
          "name": "rewardRate",
          "type": "uint256"
        },
        {
          "indexed": false,
          "internalType": "uint256",
          "name": "treasuryRate",
          "type": "uint256"
        }
      ],
      "name": "RatesUpdated",
      "type": "event"
    },
    {
      "anonymous": false,
      "inputs": [
        {
          "indexed": false,
          "internalType": "address",
          "name": "token",
          "type": "address"
        },
        {
          "indexed": false,
          "internalType": "uint256",
          "name": "amount",
          "type": "uint256"
        }
      ],
      "name": "Recovered",
      "type": "event"
    },
    {
      "anonymous": false,
      "inputs": [
        {
          "indexed": true,
          "internalType": "uint256",
          "name": "epoch",
          "type": "uint256"
        },
        {
          "indexed": false,
          "internalType": "uint256",
          "name": "rewardBaseCalAmount",
          "type": "uint256"
        },
        {
          "indexed": false,
          "internalType": "uint256",
          "name": "rewardAmount",
          "type": "uint256"
        },
        {
          "indexed": false,
          "internalType": "uint256",
          "name": "treasuryAmount",
          "type": "uint256"
        }
      ],
      "name": "RewardsCalculated",
      "type": "event"
    },
    {
      "anonymous": false,
      "inputs": [
        {
          "indexed": true,
          "internalType": "uint256",
          "name": "epoch",
          "type": "uint256"
        },
        {
          "indexed": false,
          "internalType": "uint256",
          "name": "blockNumber",
          "type": "uint256"
        }
      ],
      "name": "StartRound",
      "type": "event"
    },
    {
      "anonymous": false,
      "inputs": [
        {
          "indexed": false,
          "internalType": "uint256",
          "name": "epoch",
          "type": "uint256"
        }
      ],
      "name": "Unpause",
      "type": "event"
    },
    {
      "anonymous": false,
      "inputs": [
        {
          "indexed": false,
          "internalType": "address",
          "name": "account",
          "type": "address"
        }
      ],
      "name": "Unpaused",
      "type": "event"
    },
    {
      "inputs": [],
      "name": "TOTAL_RATE",
      "outputs": [
        {
          "internalType": "uint256",
          "name": "",
          "type": "uint256"
        }
      ],
      "stateMutability": "view",
      "type": "function"
    },
    {
      "inputs": [],
      "name": "adminAddress",
      "outputs": [
        {
          "internalType": "address",
          "name": "",
          "type": "address"
        }
      ],
      "stateMutability": "view",
      "type": "function"
    },
    {
      "inputs": [],
      "name": "betBear",
      "outputs": [],
      "stateMutability": "payable",
      "type": "function"
    },
    {
      "inputs": [],
      "name": "betBull",
      "outputs": [],
      "stateMutability": "payable",
      "type": "function"
    },
    {
      "inputs": [],
      "name": "bufferTime",
      "outputs": [
        {
          "internalType": "uint256",
          "name": "",
          "type": "uint256"
        }
      ],
      "stateMutability": "view",
      "type": "function"
    },
    {
      "inputs": [
        {
          "internalType": "uint256",
          "name": "epoch",
          "type": "uint256"
        }
      ],
      "name": "claim",
      "outputs": [],
      "stateMutability": "nonpayable",
      "type": "function"
    },
    {
      "inputs": [],
      "name": "claimTreasury",
      "outputs": [],
      "stateMutability": "nonpayable",
      "type": "function"
    },
    {
      "inputs": [
        {
          "internalType": "uint256",
          "name": "epoch",
          "type": "uint256"
        },
        {
          "internalType": "address",
          "name": "user",
          "type": "address"
        }
      ],
      "name": "claimable",
      "outputs": [
        {
          "internalType": "bool",
          "name": "",
          "type": "bool"
        }
      ],
      "stateMutability": "view",
      "type": "function"
    },
    {
      "inputs": [],
      "name": "currentEpoch",
      "outputs": [
        {
          "internalType": "uint256",
          "name": "",
          "type": "uint256"
        }
      ],
      "stateMutability": "view",
      "type": "function"
    },
    {
      "inputs": [],
      "name": "executeRound",
      "outputs": [],
      "stateMutability": "nonpayable",
      "type": "function"
    },
    {
      "inputs": [],
      "name": "genesisLockOnce",
      "outputs": [
        {
          "internalType": "bool",
          "name": "",
          "type": "bool"
        }
      ],
      "stateMutability": "view",
      "type": "function"
    },
    {
      "inputs": [],
      "name": "genesisLockRound",
      "outputs": [],
      "stateMutability": "nonpayable",
      "type": "function"
    },
    {
      "inputs": [],
      "name": "genesisStartOnce",
      "outputs": [
        {
          "internalType": "bool",
          "name": "",
          "type": "bool"
        }
      ],
      "stateMutability": "view",
      "type": "function"
    },
    {
      "inputs": [],
      "name": "genesisStartRound",
      "outputs": [],
      "stateMutability": "nonpayable",
      "type": "function"
    },
    {
      "inputs": [
        {
          "internalType": "address",
          "name": "user",
          "type": "address"
        },
        {
          "internalType": "uint256",
          "name": "cursor",
          "type": "uint256"
        },
        {
          "internalType": "uint256",
          "name": "size",
          "type": "uint256"
        }
      ],
      "name": "getUserRounds",
      "outputs": [
        {
          "internalType": "uint256[]",
          "name": "",
          "type": "uint256[]"
        },
        {
          "internalType": "uint256",
          "name": "",
          "type": "uint256"
        }
      ],
      "stateMutability": "view",
      "type": "function"
    },
    {
      "inputs": [],
      "name": "intervalTime",
      "outputs": [
        {
          "internalType": "uint256",
          "name": "",
          "type": "uint256"
        }
      ],
      "stateMutability": "view",
      "type": "function"
    },
    {
      "inputs": [
        {
          "internalType": "uint256",
          "name": "",
          "type": "uint256"
        },
        {
          "internalType": "address",
          "name": "",
          "type": "address"
        }
      ],
      "name": "ledger",
      "outputs": [
        {
          "internalType": "enum PRDC.Position",
          "name": "position",
          "type": "uint8"
        },
        {
          "internalType": "uint256",
          "name": "amount",
          "type": "uint256"
        },
        {
          "internalType": "bool",
          "name": "claimed",
          "type": "bool"
        }
      ],
      "stateMutability": "view",
      "type": "function"
    },
    {
      "inputs": [],
      "name": "minBetAmount",
      "outputs": [
        {
          "internalType": "uint256",
          "name": "",
          "type": "uint256"
        }
      ],
      "stateMutability": "view",
      "type": "function"
    },
    {
      "inputs": [],
      "name": "operatorAddress",
      "outputs": [
        {
          "internalType": "address",
          "name": "",
          "type": "address"
        }
      ],
      "stateMutability": "view",
      "type": "function"
    },
    {
      "inputs": [],
      "name": "oracleLatestRoundId",
      "outputs": [
        {
          "internalType": "uint256",
          "name": "",
          "type": "uint256"
        }
      ],
      "stateMutability": "view",
      "type": "function"
    },
    {
      "inputs": [],
      "name": "oracleUpdateAllowance",
      "outputs": [
        {
          "internalType": "uint256",
          "name": "",
          "type": "uint256"
        }
      ],
      "stateMutability": "view",
      "type": "function"
    },
    {
      "inputs": [],
      "name": "owner",
      "outputs": [
        {
          "internalType": "address",
          "name": "",
          "type": "address"
        }
      ],
      "stateMutability": "view",
      "type": "function"
    },
    {
      "inputs": [],
      "name": "pause",
      "outputs": [],
      "stateMutability": "nonpayable",
      "type": "function"
    },
    {
      "inputs": [],
      "name": "paused",
      "outputs": [
        {
          "internalType": "bool",
          "name": "",
          "type": "bool"
        }
      ],
      "stateMutability": "view",
      "type": "function"
    },
    {
      "inputs": [
        {
          "internalType": "uint256",
          "name": "amount",
          "type": "uint256"
        }
      ],
      "name": "recoverAVAX",
      "outputs": [],
      "stateMutability": "nonpayable",
      "type": "function"
    },
    {
      "inputs": [
        {
          "internalType": "uint256",
          "name": "epoch",
          "type": "uint256"
        },
        {
          "internalType": "address",
          "name": "user",
          "type": "address"
        }
      ],
      "name": "refundable",
      "outputs": [
        {
          "internalType": "bool",
          "name": "",
          "type": "bool"
        }
      ],
      "stateMutability": "view",
      "type": "function"
    },
    {
      "inputs": [],
      "name": "renounceOwnership",
      "outputs": [],
      "stateMutability": "nonpayable",
      "type": "function"
    },
    {
      "inputs": [],
      "name": "rewardRate",
      "outputs": [
        {
          "internalType": "uint256",
          "name": "",
          "type": "uint256"
        }
      ],
      "stateMutability": "view",
      "type": "function"
    },
    {
      "inputs": [
        {
          "internalType": "uint256",
          "name": "",
          "type": "uint256"
        }
      ],
      "name": "rounds",
      "outputs": [
        {
          "internalType": "uint256",
          "name": "epoch",
          "type": "uint256"
        },
        {
          "internalType": "uint256",
          "name": "startTime",
          "type": "uint256"
        },
        {
          "internalType": "uint256",
          "name": "lockTime",
          "type": "uint256"
        },
        {
          "internalType": "uint256",
          "name": "endTime",
          "type": "uint256"
        },
        {
          "internalType": "int256",
          "name": "lockPrice",
          "type": "int256"
        },
        {
          "internalType": "int256",
          "name": "closePrice",
          "type": "int256"
        },
        {
          "internalType": "uint256",
          "name": "totalAmount",
          "type": "uint256"
        },
        {
          "internalType": "uint256",
          "name": "bullAmount",
          "type": "uint256"
        },
        {
          "internalType": "uint256",
          "name": "bearAmount",
          "type": "uint256"
        },
        {
          "internalType": "uint256",
          "name": "rewardBaseCalAmount",
          "type": "uint256"
        },
        {
          "internalType": "uint256",
          "name": "rewardAmount",
          "type": "uint256"
        },
        {
          "internalType": "bool",
          "name": "oracleCalled",
          "type": "bool"
        }
      ],
      "stateMutability": "view",
      "type": "function"
    },
    {
      "inputs": [
        {
          "internalType": "address",
          "name": "_adminAddress",
          "type": "address"
        }
      ],
      "name": "setAdmin",
      "outputs": [],
      "stateMutability": "nonpayable",
      "type": "function"
    },
    {
      "inputs": [
        {
          "internalType": "uint256",
          "name": "_bufferTime",
          "type": "uint256"
        }
      ],
      "name": "setBufferTime",
      "outputs": [],
      "stateMutability": "nonpayable",
      "type": "function"
    },
    {
      "inputs": [
        {
          "internalType": "uint256",
          "name": "_intervalTime",
          "type": "uint256"
        }
      ],
      "name": "setIntervalTime",
      "outputs": [],
      "stateMutability": "nonpayable",
      "type": "function"
    },
    {
      "inputs": [
        {
          "internalType": "uint256",
          "name": "_minBetAmount",
          "type": "uint256"
        }
      ],
      "name": "setMinBetAmount",
      "outputs": [],
      "stateMutability": "nonpayable",
      "type": "function"
    },
    {
      "inputs": [
        {
          "internalType": "address",
          "name": "_operatorAddress",
          "type": "address"
        }
      ],
      "name": "setOperator",
      "outputs": [],
      "stateMutability": "nonpayable",
      "type": "function"
    },
    {
      "inputs": [
        {
          "internalType": "address",
          "name": "_oracle",
          "type": "address"
        }
      ],
      "name": "setOracle",
      "outputs": [],
      "stateMutability": "nonpayable",
      "type": "function"
    },
    {
      "inputs": [
        {
          "internalType": "uint256",
          "name": "_oracleUpdateAllowance",
          "type": "uint256"
        }
      ],
      "name": "setOracleUpdateAllowance",
      "outputs": [],
      "stateMutability": "nonpayable",
      "type": "function"
    },
    {
      "inputs": [
        {
          "internalType": "uint256",
          "name": "_rewardRate",
          "type": "uint256"
        }
      ],
      "name": "setRewardRate",
      "outputs": [],
      "stateMutability": "nonpayable",
      "type": "function"
    },
    {
      "inputs": [
        {
          "internalType": "uint256",
          "name": "_treasuryRate",
          "type": "uint256"
        }
      ],
      "name": "setTreasuryRate",
      "outputs": [],
      "stateMutability": "nonpayable",
      "type": "function"
    },
    {
      "inputs": [
        {
          "internalType": "address",
          "name": "newOwner",
          "type": "address"
        }
      ],
      "name": "transferOwnership",
      "outputs": [],
      "stateMutability": "nonpayable",
      "type": "function"
    },
    {
      "inputs": [],
      "name": "treasuryAmount",
      "outputs": [
        {
          "internalType": "uint256",
          "name": "",
          "type": "uint256"
        }
      ],
      "stateMutability": "view",
      "type": "function"
    },
    {
      "inputs": [],
      "name": "treasuryRate",
      "outputs": [
        {
          "internalType": "uint256",
          "name": "",
          "type": "uint256"
        }
      ],
      "stateMutability": "view",
      "type": "function"
    },
    {
      "inputs": [],
      "name": "unpause",
      "outputs": [],
      "stateMutability": "nonpayable",
      "type": "function"
    },
    {
      "inputs": [
        {
          "internalType": "address",
          "name": "",
          "type": "address"
        },
        {
          "internalType": "uint256",
          "name": "",
          "type": "uint256"
        }
      ],
      "name": "userRounds",
      "outputs": [
        {
          "internalType": "uint256",
          "name": "",
          "type": "uint256"
        }
      ],
      "stateMutability": "view",
      "type": "function"
    }
  ],
  "bytecode": "0x6080604052605a600c55600a600d556010805461ffff191690553480156200002657600080fd5b506040516200316538038062003165833981810160405260e08110156200004c57600080fd5b508051602082015160408301516060840151608085015160a086015160c090960151949593949293919290919060006200008562000132565b600080546001600160a01b0319166001600160a01b0383169081178255604051929350917f8be0079c531659141344cd1fd0a4f28419497f9722a3daafe3b4186f6b6457e0908290a3506000805460ff60a01b19169055600a80546001600160a01b03199081166001600160a01b03998a161790915560078054821697891697909717909655600880549096169490961693909317909355600555600691909155600e55600f5562000136565b3390565b61301f80620001466000396000f3fe6080604052600436106102da5760003560e01c80637bf4125411610184578063cf2f5039116100d6578063ec3247031161008a578063fa968eea11610064578063fa968eea1461092d578063fc6f946814610942578063fd3c914414610957576102da565b8063ec324703146108d0578063f2fde38b146108e5578063f7fdec2814610918576102da565b8063d9d55eac116100bb578063d9d55eac1461086d578063dd1f759614610882578063e4b72516146108bb576102da565b8063cf2f503914610819578063d0bf9c5414610843576102da565b8063951fd60011610138578063b29c299b11610112578063b29c299b146107bc578063b3ab15fb146107d1578063ba7b670314610804576102da565b8063951fd600146106bf5780639e447fc614610759578063a0c7f71c14610783576102da565b80638456cb59116101695780638456cb591461060a5780638c65c81f1461061f5780638da5cb5b146106aa576102da565b80637bf41254146105c9578063821daba114610602576102da565b80634ebb79161161023d578063715018a6116101f15780637adbf973116101cb5780637adbf9731461056c5780637b0a47ee1461059f5780637b3205f5146105b4576102da565b8063715018a6146104d85780637285c58b146104ed5780637667180814610557576102da565b8063605540111161022257806360554011146104665780636c1885931461047b578063704b6c02146104a5576102da565b80634ebb7916146104275780635c975abb14610451576102da565b80631aac030c11610294578063379607f511610279578063379607f5146103d35780633f4ba83a146103fd578063452fd75a14610412576102da565b80631aac030c14610382578063368acb09146103ac576102da565b80630d63e87d116102c55780630d63e87d146102fe5780630f74174f14610328578063127effb214610351576102da565b80623bdc74146102df57806288160f146102f6575b600080fd5b3480156102eb57600080fd5b506102f461096c565b005b6102f4610a0e565b34801561030a57600080fd5b506102f46004803603602081101561032157600080fd5b5035610cdf565b34801561033457600080fd5b5061033d610d31565b604080519115158252519081900360200190f35b34801561035d57600080fd5b50610366610d3f565b604080516001600160a01b039092168252519081900360200190f35b34801561038e57600080fd5b506102f4600480360360208110156103a557600080fd5b5035610d4e565b3480156103b857600080fd5b506103c1610df7565b60408051918252519081900360200190f35b3480156103df57600080fd5b506102f4600480360360208110156103f657600080fd5b5035610dfd565b34801561040957600080fd5b506102f46111ab565b34801561041e57600080fd5b506102f461129b565b34801561043357600080fd5b506102f46004803603602081101561044a57600080fd5b503561139d565b34801561045d57600080fd5b5061033d611464565b34801561047257600080fd5b506103c1611474565b34801561048757600080fd5b506102f46004803603602081101561049e57600080fd5b503561147a565b3480156104b157600080fd5b506102f4600480360360208110156104c857600080fd5b50356001600160a01b0316611505565b3480156104e457600080fd5b506102f46115f6565b3480156104f957600080fd5b506105266004803603604081101561051057600080fd5b50803590602001356001600160a01b03166116b4565b6040518084600181111561053657fe5b81526020018381526020018215158152602001935050505060405180910390f35b34801561056357600080fd5b506103c16116e3565b34801561057857600080fd5b506102f46004803603602081101561058f57600080fd5b50356001600160a01b03166116e9565b3480156105ab57600080fd5b506103c16117b3565b3480156105c057600080fd5b506102f46117b9565b3480156105d557600080fd5b5061033d600480360360408110156105ec57600080fd5b50803590602001356001600160a01b03166118f6565b6102f4611a19565b34801561061657600080fd5b506102f4611ce7565b34801561062b57600080fd5b506106496004803603602081101561064257600080fd5b5035611de7565b604080519c8d5260208d019b909b528b8b019990995260608b019790975260808a019590955260a089019390935260c088019190915260e0870152610100860152610120850152610140840152151561016083015251908190036101800190f35b3480156106b657600080fd5b50610366611e4a565b3480156106cb57600080fd5b506106fe600480360360608110156106e257600080fd5b506001600160a01b038135169060208101359060400135611e59565b6040518080602001838152602001828103825284818151815260200191508051906020019060200280838360005b8381101561074457818101518382015260200161072c565b50505050905001935050505060405180910390f35b34801561076557600080fd5b506102f46004803603602081101561077c57600080fd5b5035611f4c565b34801561078f57600080fd5b5061033d600480360360408110156107a657600080fd5b50803590602001356001600160a01b0316612033565b3480156107c857600080fd5b506103c16121af565b3480156107dd57600080fd5b506102f4600480360360208110156107f457600080fd5b50356001600160a01b03166121b4565b34801561081057600080fd5b506103c161227e565b34801561082557600080fd5b506102f46004803603602081101561083c57600080fd5b5035612284565b34801561084f57600080fd5b506102f46004803603602081101561086657600080fd5b50356122d6565b34801561087957600080fd5b506102f46123bb565b34801561088e57600080fd5b506103c1600480360360408110156108a557600080fd5b506001600160a01b03813516906020013561251e565b3480156108c757600080fd5b506103c161254f565b3480156108dc57600080fd5b506103c1612555565b3480156108f157600080fd5b506102f46004803603602081101561090857600080fd5b50356001600160a01b031661255b565b34801561092457600080fd5b5061033d61266f565b34801561093957600080fd5b506103c1612678565b34801561094e57600080fd5b5061036661267e565b34801561096357600080fd5b506103c161268d565b6007546001600160a01b031633146109b9576040805162461bcd60e51b815260206004820152600b60248201526a61646d696e3a207775743f60a81b604482015290519081900360640190fd5b6009805460009091556007546109d8906001600160a01b031682612693565b6040805182815290517f609175abb7f12481e4f200d1ef4fc834e6caac3d9eadba42d664352f6d0932ca9181900360200190a150565b610a16611464565b15610a5b576040805162461bcd60e51b815260206004820152601060248201526f14185d5cd8589b194e881c185d5cd95960821b604482015290519081900360640190fd5b610a643361272d565b15610ab6576040805162461bcd60e51b815260206004820152601460248201527f636f6e7472616374206e6f7420616c6c6f776564000000000000000000000000604482015290519081900360640190fd5b333214610b0a576040805162461bcd60e51b815260206004820152601a60248201527f70726f787920636f6e7472616374206e6f7420616c6c6f776564000000000000604482015290519081900360640190fd5b610b15600454612733565b610b66576040805162461bcd60e51b815260206004820152601260248201527f526f756e64206e6f74206265747461626c650000000000000000000000000000604482015290519081900360640190fd5b600e54341015610ba75760405162461bcd60e51b815260040180806020018281038252602c815260200180612e94602c913960400191505060405180910390fd5b600454600090815260026020908152604080832033845290915290206001015415610c19576040805162461bcd60e51b815260206004820152601b60248201527f43616e206f6e6c7920626574206f6e63652070657220726f756e640000000000604482015290519081900360640190fd5b60045460009081526001602052604090206006810154349190610c3c908361279f565b60068201556008810154610c50908361279f565b600882015560048054600090815260026020908152604080832033808552908352818420805460ff191660019081178255808201899055600385528386208754815492830182559087529585902001949094559354815187815291519394909390927f0d8c1fe3e67ab767116a81f122b83c2557a8c2564019cb7c4f83de1aeb1f1f0d928290030190a3505050565b6007546001600160a01b03163314610d2c576040805162461bcd60e51b815260206004820152600b60248201526a61646d696e3a207775743f60a81b604482015290519081900360640190fd5b600555565b601054610100900460ff1681565b6008546001600160a01b031681565b6007546001600160a01b03163314610d9b576040805162461bcd60e51b815260206004820152600b60248201526a61646d696e3a207775743f60a81b604482015290519081900360640190fd5b600554811115610df2576040805162461bcd60e51b815260206004820181905260248201527f43616e6e6f74206265206d6f7265207468616e20696e74657276616c54696d65604482015290519081900360640190fd5b600655565b60095481565b610e063361272d565b15610e58576040805162461bcd60e51b815260206004820152601460248201527f636f6e7472616374206e6f7420616c6c6f776564000000000000000000000000604482015290519081900360640190fd5b333214610eac576040805162461bcd60e51b815260206004820152601a60248201527f70726f787920636f6e7472616374206e6f7420616c6c6f776564000000000000604482015290519081900360640190fd5b60008181526001602081905260409091200154610f10576040805162461bcd60e51b815260206004820152601560248201527f526f756e6420686173206e6f7420737461727465640000000000000000000000604482015290519081900360640190fd5b6000818152600260208181526040808420338552909152909120015460ff1615610f81576040805162461bcd60e51b815260206004820152600f60248201527f5265776172647320636c61696d65640000000000000000000000000000000000604482015290519081900360640190fd5b6000818152600160205260408120600b015460ff16156110c257610fa58233612033565b610ff6576040805162461bcd60e51b815260206004820152601660248201527f4e6f7420656c696769626c6520666f7220636c61696d00000000000000000000604482015290519081900360640190fd5b6000828152600160208181526040808420815161018081018352815481528185015481850152600280830154828501526003830154606083015260048301546080830152600583015460a0830152600683015460c0830152600783015460e0830152600883015461010083015260098301546101208301819052600a8401546101408401819052600b9094015460ff161515610160840152898852908552838720338852909452919094209092015491926110ba926110b491612800565b90612859565b91505061113c565b6110cc82336118f6565b61111d576040805162461bcd60e51b815260206004820152601760248201527f4e6f7420656c696769626c6520666f7220726566756e64000000000000000000604482015290519081900360640190fd5b5060008181526002602090815260408083203384529091529020600101545b6000828152600260208181526040808420338086529252909220908101805460ff191660011790559061116f9083612693565b604080518381529051849133917f34fcbac0073d7c3d388e51312faf357774904998eeb8fca628b9e6f65ee1cbf79181900360200190a3505050565b6007546001600160a01b031633146111f8576040805162461bcd60e51b815260206004820152600b60248201526a61646d696e3a207775743f60a81b604482015290519081900360640190fd5b611200611464565b611251576040805162461bcd60e51b815260206004820152601460248201527f5061757361626c653a206e6f7420706175736564000000000000000000000000604482015290519081900360640190fd5b6010805461ffff191690556112646128c0565b60045460408051918252517faaa520fdd7d2c83061d632fa017b0432407e798818af63ea908589fceda39ab79181900360200190a1565b6008546001600160a01b031633146112eb576040805162461bcd60e51b815260206004820152600e60248201526d6f70657261746f723a207775743f60901b604482015290519081900360640190fd5b6112f3611464565b15611338576040805162461bcd60e51b815260206004820152601060248201526f14185d5cd8589b194e881c185d5cd95960821b604482015290519081900360640190fd5b60105460ff161561137a5760405162461bcd60e51b8152600401808060200182810382526023815260200180612f166023913960400191505060405180910390fd5b600480546001019081905561138e9061296c565b6010805460ff19166001179055565b6007546001600160a01b031633146113ea576040805162461bcd60e51b815260206004820152600b60248201526a61646d696e3a207775743f60a81b604482015290519081900360640190fd5b600081116113f757600080fd5b604051339082156108fc029083906000818181858888f19350505050158015611424573d6000803e3d6000fd5b5060408051600081526020810183905281517f8c1256b8896378cd5044f80c202f9772b9d77dc85c8a6eb51967210b09bfaa28929181900390910190a150565b600054600160a01b900460ff1690565b600f5481565b6007546001600160a01b031633146114c7576040805162461bcd60e51b815260206004820152600b60248201526a61646d696e3a207775743f60a81b604482015290519081900360640190fd5b600e8190556004546040805183815290517f82480e97991520549ac4b5d0e1d97edb3bfac2666202923b6903d2a953dc76089181900360200190a250565b61150d6129f3565b6001600160a01b031661151e611e4a565b6001600160a01b031614611579576040805162461bcd60e51b815260206004820181905260248201527f4f776e61626c653a2063616c6c6572206973206e6f7420746865206f776e6572604482015290519081900360640190fd5b6001600160a01b0381166115d4576040805162461bcd60e51b815260206004820152601660248201527f43616e6e6f74206265207a65726f206164647265737300000000000000000000604482015290519081900360640190fd5b600780546001600160a01b0319166001600160a01b0392909216919091179055565b6115fe6129f3565b6001600160a01b031661160f611e4a565b6001600160a01b03161461166a576040805162461bcd60e51b815260206004820181905260248201527f4f776e61626c653a2063616c6c6572206973206e6f7420746865206f776e6572604482015290519081900360640190fd5b600080546040516001600160a01b03909116907f8be0079c531659141344cd1fd0a4f28419497f9722a3daafe3b4186f6b6457e0908390a3600080546001600160a01b0319169055565b6002602081815260009384526040808520909152918352912080546001820154919092015460ff928316921683565b60045481565b6007546001600160a01b03163314611736576040805162461bcd60e51b815260206004820152600b60248201526a61646d696e3a207775743f60a81b604482015290519081900360640190fd5b6001600160a01b038116611791576040805162461bcd60e51b815260206004820152601660248201527f43616e6e6f74206265207a65726f206164647265737300000000000000000000604482015290519081900360640190fd5b600a80546001600160a01b0319166001600160a01b0392909216919091179055565b600c5481565b6008546001600160a01b03163314611809576040805162461bcd60e51b815260206004820152600e60248201526d6f70657261746f723a207775743f60901b604482015290519081900360640190fd5b611811611464565b15611856576040805162461bcd60e51b815260206004820152601060248201526f14185d5cd8589b194e881c185d5cd95960821b604482015290519081900360640190fd5b60105460ff16801561186f5750601054610100900460ff165b6118aa5760405162461bcd60e51b8152600401808060200182810382526046815260200180612f396046913960600191505060405180910390fd5b60006118b46129f7565b90506118c260045482612a82565b6118d160016004540382612adc565b6118df600160045403612b45565b60048054600101908190556118f39061296c565b50565b60008281526002602090815260408083206001600160a01b0385168452909152808220815160608101909252805483929190829060ff16600181111561193857fe5b600181111561194357fe5b815260018281015460208084019190915260029384015460ff908116151560409485015260008a815283835284902084516101808101865281548152938101549284019290925293810154928201929092526003820154606082015260048201546080820152600582015460a0820152600682015460c0820152600782015460e082015260088201546101008201526009820154610120820152600a820154610140820152600b9091015490911615801561016083018190529293509091611a0e5750602082015115155b925050505b92915050565b611a21611464565b15611a66576040805162461bcd60e51b815260206004820152601060248201526f14185d5cd8589b194e881c185d5cd95960821b604482015290519081900360640190fd5b611a6f3361272d565b15611ac1576040805162461bcd60e51b815260206004820152601460248201527f636f6e7472616374206e6f7420616c6c6f776564000000000000000000000000604482015290519081900360640190fd5b333214611b15576040805162461bcd60e51b815260206004820152601a60248201527f70726f787920636f6e7472616374206e6f7420616c6c6f776564000000000000604482015290519081900360640190fd5b611b20600454612733565b611b71576040805162461bcd60e51b815260206004820152601260248201527f526f756e64206e6f74206265747461626c650000000000000000000000000000604482015290519081900360640190fd5b600e54341015611bb25760405162461bcd60e51b815260040180806020018281038252602c815260200180612e94602c913960400191505060405180910390fd5b600454600090815260026020908152604080832033845290915290206001015415611c24576040805162461bcd60e51b815260206004820152601b60248201527f43616e206f6e6c7920626574206f6e63652070657220726f756e640000000000604482015290519081900360640190fd5b60045460009081526001602052604090206006810154349190611c47908361279f565b60068201556007810154611c5b908361279f565b600782015560048054600090815260026020908152604080832033808552908352818420805460ff191681556001808201899055600385528386208754815492830182559087529585902001949094559354815187815291519394909390927f438122d8cff518d18388099a5181f0d17a12b4f1b55faedf6e4a6acee0060c12928290030190a3505050565b6007546001600160a01b0316331480611d0a57506008546001600160a01b031633145b611d5b576040805162461bcd60e51b815260206004820152601660248201527f61646d696e207c206f70657261746f723a207775743f00000000000000000000604482015290519081900360640190fd5b611d63611464565b15611da8576040805162461bcd60e51b815260206004820152601060248201526f14185d5cd8589b194e881c185d5cd95960821b604482015290519081900360640190fd5b611db0612d34565b60045460408051918252517f68b095021b1f40fe513109f513c66692f0b3219aee674a69f4efc57badb8201d9181900360200190a1565b600160208190526000918252604090912080549181015460028201546003830154600484015460058501546006860154600787015460088801546009890154600a8a0154600b909a01549899979896979596949593949293919290919060ff168c565b6000546001600160a01b031690565b6001600160a01b038316600090815260036020526040812054606091908390859003811115611ea057506001600160a01b0385166000908152600360205260409020548490035b60008167ffffffffffffffff81118015611eb957600080fd5b50604051908082528060200260200182016040528015611ee3578160200160208202803683370190505b50905060005b82811015611f41576001600160a01b03881660009081526003602052604090208054888301908110611f1757fe5b9060005260206000200154828281518110611f2e57fe5b6020908102919091010152600101611ee9565b509694019450505050565b6007546001600160a01b03163314611f99576040805162461bcd60e51b815260206004820152600b60248201526a61646d696e3a207775743f60a81b604482015290519081900360640190fd5b6064811115611fd95760405162461bcd60e51b8152600401808060200182810382526023815260200180612fa26023913960400191505060405180910390fd5b600c819055611fe9606482612dbd565b600d819055600454600c54604080519182526020820193909352825191927f023010bc68e7f4c0be9887f513c570c7a0f5f511b9716abccd42bf3b8943532b92918290030190a250565b60008281526002602090815260408083206001600160a01b0385168452909152808220815160608101909252805483929190829060ff16600181111561207557fe5b600181111561208057fe5b815260018281015460208084019190915260029384015460ff908116151560409485015260008a8152838352849020845161018081018652815481529381015492840192909252938101549282019290925260038201546060820152600482015460808201819052600583015460a08301819052600684015460c0840152600784015460e084015260088401546101008401526009840154610120840152600a840154610140840152600b909301549093161515610160820152929350141561214e57600092505050611a13565b8061016001518015611a0e575080608001518160a0015113801561217e575060008251600181111561217c57fe5b145b80611a0e575080608001518160a00151128015611a0e57506001825160018111156121a557fe5b1495945050505050565b606481565b6007546001600160a01b03163314612201576040805162461bcd60e51b815260206004820152600b60248201526a61646d696e3a207775743f60a81b604482015290519081900360640190fd5b6001600160a01b03811661225c576040805162461bcd60e51b815260206004820152601660248201527f43616e6e6f74206265207a65726f206164647265737300000000000000000000604482015290519081900360640190fd5b600880546001600160a01b0319166001600160a01b0392909216919091179055565b60065481565b6007546001600160a01b031633146122d1576040805162461bcd60e51b815260206004820152600b60248201526a61646d696e3a207775743f60a81b604482015290519081900360640190fd5b600f55565b6007546001600160a01b03163314612323576040805162461bcd60e51b815260206004820152600b60248201526a61646d696e3a207775743f60a81b604482015290519081900360640190fd5b60648111156123635760405162461bcd60e51b8152600401808060200182810382526025815260200180612fc56025913960400191505060405180910390fd5b61236e606482612dbd565b600c819055600d8290556004546040805192835260208301849052805191927f023010bc68e7f4c0be9887f513c570c7a0f5f511b9716abccd42bf3b8943532b929081900390910190a250565b6008546001600160a01b0316331461240b576040805162461bcd60e51b815260206004820152600e60248201526d6f70657261746f723a207775743f60901b604482015290519081900360640190fd5b612413611464565b15612458576040805162461bcd60e51b815260206004820152601060248201526f14185d5cd8589b194e881c185d5cd95960821b604482015290519081900360640190fd5b60105460ff166124995760405162461bcd60e51b8152600401808060200182810382526031815260200180612e1b6031913960400191505060405180910390fd5b601054610100900460ff16156124e05760405162461bcd60e51b8152600401808060200182810382526022815260200180612e726022913960400191505060405180910390fd5b60006124ea6129f7565b90506124f860045482612a82565b600480546001019081905561250c9061296c565b506010805461ff001916610100179055565b6003602052816000526040600020818154811061253a57600080fd5b90600052602060002001600091509150505481565b600d5481565b600b5481565b6125636129f3565b6001600160a01b0316612574611e4a565b6001600160a01b0316146125cf576040805162461bcd60e51b815260206004820181905260248201527f4f776e61626c653a2063616c6c6572206973206e6f7420746865206f776e6572604482015290519081900360640190fd5b6001600160a01b0381166126145760405162461bcd60e51b8152600401808060200182810382526026815260200180612e4c6026913960400191505060405180910390fd5b600080546040516001600160a01b03808516939216917f8be0079c531659141344cd1fd0a4f28419497f9722a3daafe3b4186f6b6457e091a3600080546001600160a01b0319166001600160a01b0392909216919091179055565b60105460ff1681565b600e5481565b6007546001600160a01b031681565b60055481565b6040516000906001600160a01b038416906159d890849084818181858888f193505050503d80600081146126e3576040519150601f19603f3d011682016040523d82523d6000602084013e6126e8565b606091505b50509050806127285760405162461bcd60e51b8152600401808060200182810382526023815260200180612f7f6023913960400191505060405180910390fd5b505050565b3b151590565b60008181526001602081905260408220015415801590612763575060008281526001602052604090206002015415155b801561278057506000828152600160208190526040909120015442115b8015611a13575050600090815260016020526040902060020154421090565b6000828201838110156127f9576040805162461bcd60e51b815260206004820152601b60248201527f536166654d6174683a206164646974696f6e206f766572666c6f770000000000604482015290519081900360640190fd5b9392505050565b60008261280f57506000611a13565b8282028284828161281c57fe5b04146127f95760405162461bcd60e51b8152600401808060200182810382526021815260200180612ef56021913960400191505060405180910390fd5b60008082116128af576040805162461bcd60e51b815260206004820152601a60248201527f536166654d6174683a206469766973696f6e206279207a65726f000000000000604482015290519081900360640190fd5b8183816128b857fe5b049392505050565b6128c8611464565b612919576040805162461bcd60e51b815260206004820152601460248201527f5061757361626c653a206e6f7420706175736564000000000000000000000000604482015290519081900360640190fd5b6000805460ff60a01b191690557f5db9ee0a495bf2e6ff9c91a7834c1ba4fdd244a5e8aa4e537bd38aeae4b073aa61294f6129f3565b604080516001600160a01b039092168252519081900360200190a1565b60008181526001602081905260409091204291810182905560055490916129929161279f565b6002808301919091556005546129aa9142910261279f565b60038201558181556000600682015560408051428152905183917f0e5543feb86a4cd302f2b88b26c42be2d1673013a34e1f98bd6d524dd3b4ab41919081900360200190a25050565b3390565b600080600080600a60009054906101000a90046001600160a01b03166001600160a01b031663feaf968c6040518163ffffffff1660e01b815260040160a06040518083038186803b158015612a4b57600080fd5b505afa158015612a5f573d6000803e3d6000fd5b505050506040513d60a0811015612a7557600080fd5b5060200151935050505090565b6000828152600160209081526040918290206004810184905582514281529182018490528251909285927f482e76a65b448a42deef26e99e58fb20c85e26f075defff8df6aa80459b39006929081900390910190a2505050565b60008281526001602081815260409283902060058101859055600b8101805460ff191690931790925582514281529081018490528251919285927fb6ff1fe915db84788cbbbc017f0d2bef9485fad9fd0bd8ce9340fde0d8410dd89281900390910190a2505050565b6064612b5e600d54600c5461279f90919063ffffffff16565b14612b9a5760405162461bcd60e51b8152600401808060200182810382526035815260200180612ec06035913960400191505060405180910390fd5b600081815260016020526040902060090154158015612bc857506000818152600160205260409020600a0154155b612c19576040805162461bcd60e51b815260206004820152601260248201527f526577617264732063616c63756c617465640000000000000000000000000000604482015290519081900360640190fd5b600081815260016020526040812060048101546005820154919291829182911315612c8a5783600701549250612c6360646110b4600c54876006015461280090919063ffffffff16565b9150612c8360646110b4600d54876006015461280090919063ffffffff16565b9050612ccd565b836004015484600501541215612cbf5783600801549250612c6360646110b4600c54876006015461280090919063ffffffff16565b505050600681015460009081905b6009808501849055600a850183905554612ce7908261279f565b6009556040805184815260208101849052808201839052905186917f6dfdfcb09c8804d0058826cd2539f1acfbe3cb887c9be03d928035bce0f1a58d919081900360600190a25050505050565b612d3c611464565b15612d81576040805162461bcd60e51b815260206004820152601060248201526f14185d5cd8589b194e881c185d5cd95960821b604482015290519081900360640190fd5b6000805460ff60a01b1916600160a01b1790557f62e78cea01bee320cd4e420270b5ea74000d11b0c9f74754ebdbfc544b05a25861294f6129f3565b600082821115612e14576040805162461bcd60e51b815260206004820152601e60248201527f536166654d6174683a207375627472616374696f6e206f766572666c6f770000604482015290519081900360640190fd5b5090039056fe43616e206f6e6c792072756e2061667465722067656e657369735374617274526f756e64206973207472696767657265644f776e61626c653a206e6577206f776e657220697320746865207a65726f206164647265737343616e206f6e6c792072756e2067656e657369734c6f636b526f756e64206f6e636542657420616d6f756e74206d7573742062652067726561746572207468616e206d696e426574416d6f756e747265776172645261746520616e6420747265617375727952617465206d7573742061646420757020746f20544f54414c5f52415445536166654d6174683a206d756c7469706c69636174696f6e206f766572666c6f7743616e206f6e6c792072756e2067656e657369735374617274526f756e64206f6e636543616e206f6e6c792072756e2061667465722067656e657369735374617274526f756e6420616e642067656e657369734c6f636b526f756e64206973207472696767657265645472616e7366657248656c7065723a20424e425f5452414e534645525f4641494c4544726577617264526174652063616e6e6f74206265206d6f7265207468616e20313030257472656173757279526174652063616e6e6f74206265206d6f7265207468616e2031303025a2646970667358221220ccefa347ffd4210637d71083766389e60b8a461300625698f69fa0a432e9e12f64736f6c63430007060033",
  "linkReferences": {},
  "deployedLinkReferences": {}
}