{
  "_format": "hh-sol-artifact-1",
  "contractName": "StakingRewardsNFT",
  "sourceName": "contracts/StakingRewardsNFT.sol",
  "abi": [
    {
      "inputs": [
        {
          "internalType": "address",
          "name": "_rewardsToken",
          "type": "address"
        },
        {
          "internalType": "address",
          "name": "_stakingToken",
          "type": "address"
        },
        {
          "internalType": "address",
          "name": "_liqPoolManager",
          "type": "address"
        }
      ],
      "stateMutability": "nonpayable",
      "type": "constructor"
    },
    {
      "anonymous": false,
      "inputs": [
        {
          "indexed": true,
          "internalType": "address",
          "name": "previousOwner",
          "type": "address"
        },
        {
          "indexed": true,
          "internalType": "address",
          "name": "newOwner",
          "type": "address"
        }
      ],
      "name": "OwnershipTransferred",
      "type": "event"
    },
    {
      "anonymous": false,
      "inputs": [
        {
          "indexed": false,
          "internalType": "address",
          "name": "token",
          "type": "address"
        },
        {
          "indexed": false,
          "internalType": "uint256",
          "name": "amount",
          "type": "uint256"
        }
      ],
      "name": "Recovered",
      "type": "event"
    },
    {
      "anonymous": false,
      "inputs": [
        {
          "indexed": false,
          "internalType": "uint256",
          "name": "reward",
          "type": "uint256"
        }
      ],
      "name": "RewardAdded",
      "type": "event"
    },
    {
      "anonymous": false,
      "inputs": [
        {
          "indexed": true,
          "internalType": "address",
          "name": "user",
          "type": "address"
        },
        {
          "indexed": false,
          "internalType": "uint256",
          "name": "reward",
          "type": "uint256"
        }
      ],
      "name": "RewardPaid",
      "type": "event"
    },
    {
      "anonymous": false,
      "inputs": [
        {
          "indexed": false,
          "internalType": "uint256",
          "name": "newDuration",
          "type": "uint256"
        }
      ],
      "name": "RewardsDurationUpdated",
      "type": "event"
    },
    {
      "anonymous": false,
      "inputs": [
        {
          "indexed": true,
          "internalType": "address",
          "name": "user",
          "type": "address"
        },
        {
          "indexed": false,
          "internalType": "uint256[]",
          "name": "tokenId",
          "type": "uint256[]"
        }
      ],
      "name": "Staked",
      "type": "event"
    },
    {
      "anonymous": false,
      "inputs": [
        {
          "indexed": true,
          "internalType": "address",
          "name": "user",
          "type": "address"
        },
        {
          "indexed": false,
          "internalType": "uint256[]",
          "name": "tokenId",
          "type": "uint256[]"
        }
      ],
      "name": "Withdrawn",
      "type": "event"
    },
    {
      "inputs": [
        {
          "internalType": "address",
          "name": "account",
          "type": "address"
        }
      ],
      "name": "balanceOf",
      "outputs": [
        {
          "internalType": "uint256",
          "name": "",
          "type": "uint256"
        }
      ],
      "stateMutability": "view",
      "type": "function"
    },
    {
      "inputs": [
        {
          "internalType": "address",
          "name": "account",
          "type": "address"
        }
      ],
      "name": "earned",
      "outputs": [
        {
          "internalType": "uint256",
          "name": "",
          "type": "uint256"
        }
      ],
      "stateMutability": "view",
      "type": "function"
    },
    {
      "inputs": [],
      "name": "getReward",
      "outputs": [],
      "stateMutability": "nonpayable",
      "type": "function"
    },
    {
      "inputs": [],
      "name": "getRewardForDuration",
      "outputs": [
        {
          "internalType": "uint256",
          "name": "",
          "type": "uint256"
        }
      ],
      "stateMutability": "view",
      "type": "function"
    },
    {
      "inputs": [],
      "name": "lastTimeRewardApplicable",
      "outputs": [
        {
          "internalType": "uint256",
          "name": "",
          "type": "uint256"
        }
      ],
      "stateMutability": "view",
      "type": "function"
    },
    {
      "inputs": [],
      "name": "lastUpdateTime",
      "outputs": [
        {
          "internalType": "uint256",
          "name": "",
          "type": "uint256"
        }
      ],
      "stateMutability": "view",
      "type": "function"
    },
    {
      "inputs": [],
      "name": "liqPoolManager",
      "outputs": [
        {
          "internalType": "address",
          "name": "",
          "type": "address"
        }
      ],
      "stateMutability": "view",
      "type": "function"
    },
    {
      "inputs": [
        {
          "internalType": "uint256",
          "name": "reward",
          "type": "uint256"
        }
      ],
      "name": "notifyRewardAmount",
      "outputs": [],
      "stateMutability": "nonpayable",
      "type": "function"
    },
    {
      "inputs": [],
      "name": "owner",
      "outputs": [
        {
          "internalType": "address",
          "name": "",
          "type": "address"
        }
      ],
      "stateMutability": "view",
      "type": "function"
    },
    {
      "inputs": [],
      "name": "periodFinish",
      "outputs": [
        {
          "internalType": "uint256",
          "name": "",
          "type": "uint256"
        }
      ],
      "stateMutability": "view",
      "type": "function"
    },
    {
      "inputs": [
        {
          "internalType": "address",
          "name": "tokenAddress",
          "type": "address"
        },
        {
          "internalType": "uint256",
          "name": "tokenAmount",
          "type": "uint256"
        }
      ],
      "name": "recoverERC20",
      "outputs": [],
      "stateMutability": "nonpayable",
      "type": "function"
    },
    {
      "inputs": [
        {
          "internalType": "uint256",
          "name": "tokenId",
          "type": "uint256"
        }
      ],
      "name": "recoverERC721",
      "outputs": [],
      "stateMutability": "nonpayable",
      "type": "function"
    },
    {
      "inputs": [],
      "name": "renounceOwnership",
      "outputs": [],
      "stateMutability": "nonpayable",
      "type": "function"
    },
    {
      "inputs": [],
      "name": "rewardPerToken",
      "outputs": [
        {
          "internalType": "uint256",
          "name": "",
          "type": "uint256"
        }
      ],
      "stateMutability": "view",
      "type": "function"
    },
    {
      "inputs": [],
      "name": "rewardPerTokenStored",
      "outputs": [
        {
          "internalType": "uint256",
          "name": "",
          "type": "uint256"
        }
      ],
      "stateMutability": "view",
      "type": "function"
    },
    {
      "inputs": [],
      "name": "rewardRate",
      "outputs": [
        {
          "internalType": "uint256",
          "name": "",
          "type": "uint256"
        }
      ],
      "stateMutability": "view",
      "type": "function"
    },
    {
      "inputs": [
        {
          "internalType": "address",
          "name": "",
          "type": "address"
        }
      ],
      "name": "rewards",
      "outputs": [
        {
          "internalType": "uint256",
          "name": "",
          "type": "uint256"
        }
      ],
      "stateMutability": "view",
      "type": "function"
    },
    {
      "inputs": [],
      "name": "rewardsDuration",
      "outputs": [
        {
          "internalType": "uint256",
          "name": "",
          "type": "uint256"
        }
      ],
      "stateMutability": "view",
      "type": "function"
    },
    {
      "inputs": [],
      "name": "rewardsToken",
      "outputs": [
        {
          "internalType": "contract IERC20",
          "name": "",
          "type": "address"
        }
      ],
      "stateMutability": "view",
      "type": "function"
    },
    {
      "inputs": [
        {
          "internalType": "address",
          "name": "_liqPoolManager",
          "type": "address"
        }
      ],
      "name": "setLiqPoolManager",
      "outputs": [],
      "stateMutability": "nonpayable",
      "type": "function"
    },
    {
      "inputs": [
        {
          "internalType": "uint256",
          "name": "_rewardsDuration",
          "type": "uint256"
        }
      ],
      "name": "setRewardsDuration",
      "outputs": [],
      "stateMutability": "nonpayable",
      "type": "function"
    },
    {
      "inputs": [
        {
          "internalType": "uint256[]",
          "name": "tokenId",
          "type": "uint256[]"
        }
      ],
      "name": "stake",
      "outputs": [],
      "stateMutability": "nonpayable",
      "type": "function"
    },
    {
      "inputs": [],
      "name": "stakingToken",
      "outputs": [
        {
          "internalType": "contract IERC721",
          "name": "",
          "type": "address"
        }
      ],
      "stateMutability": "view",
      "type": "function"
    },
    {
      "inputs": [],
      "name": "totalSupply",
      "outputs": [
        {
          "internalType": "uint256",
          "name": "",
          "type": "uint256"
        }
      ],
      "stateMutability": "view",
      "type": "function"
    },
    {
      "inputs": [
        {
          "internalType": "address",
          "name": "newOwner",
          "type": "address"
        }
      ],
      "name": "transferOwnership",
      "outputs": [],
      "stateMutability": "nonpayable",
      "type": "function"
    },
    {
      "inputs": [
        {
          "internalType": "uint256",
          "name": "timestamp",
          "type": "uint256"
        }
      ],
      "name": "updatePeriodFinish",
      "outputs": [],
      "stateMutability": "nonpayable",
      "type": "function"
    },
    {
      "inputs": [
        {
          "internalType": "address",
          "name": "",
          "type": "address"
        }
      ],
      "name": "userRewardPerTokenPaid",
      "outputs": [
        {
          "internalType": "uint256",
          "name": "",
          "type": "uint256"
        }
      ],
      "stateMutability": "view",
      "type": "function"
    },
    {
      "inputs": [
        {
          "internalType": "uint256[]",
          "name": "tokenId",
          "type": "uint256[]"
        }
      ],
      "name": "withdraw",
      "outputs": [],
      "stateMutability": "nonpayable",
      "type": "function"
    }
  ],
  "bytecode": "0x6080604052600060045560006005556206978060065534801561002157600080fd5b50604051611ddb380380611ddb8339818101604052606081101561004457600080fd5b5080516020820151604090920151600160009081559192916100646100f4565b600180546001600160a01b0319166001600160a01b038316908117909155604051919250906000907f8be0079c531659141344cd1fd0a4f28419497f9722a3daafe3b4186f6b6457e0908290a350600280546001600160a01b039485166001600160a01b0319918216179091556003805493851693821693909317909255600980549190931691161790556100f8565b3390565b611cd4806101076000396000f3fe608060405234801561001057600080fd5b50600436106101c35760003560e01c80637b0a47ee116100f9578063cc1a378f11610097578063df136d6511610071578063df136d65146104c9578063ea3cffd2146104d1578063ebe2b12b146104d9578063f2fde38b146104e1576101c3565b8063cc1a378f1461049c578063cd3daf9d146104b9578063d1af0c7d146104c1576101c3565b80638b876347116100d35780638b876347146103c35780638da5cb5b146103e9578063983d95ce146103f1578063c8f33c9114610494576101c3565b80637b0a47ee1461038757806380faa57d1461038f5780638980f11f14610397576101c3565b80633c6b16ab11610166578063556f6e6b11610140578063556f6e6b1461031857806370a0823114610335578063715018a61461035b57806372f702f314610363576101c3565b80633c6b16ab146102cd5780633d18b912146102ea5780633da5fdf4146102f2576101c3565b80630fbf0a93116101a25780630fbf0a931461024557806318160ddd146102b55780631c1f78eb146102bd578063386a9525146102c5576101c3565b80628cc262146101c85780630700037d146102005780630d4d2b6414610226575b600080fd5b6101ee600480360360208110156101de57600080fd5b50356001600160a01b0316610507565b60408051918252519081900360200190f35b6101ee6004803603602081101561021657600080fd5b50356001600160a01b0316610585565b6102436004803603602081101561023c57600080fd5b5035610597565b005b6102436004803603602081101561025b57600080fd5b81019060208101813564010000000081111561027657600080fd5b82018360208201111561028857600080fd5b803590602001918460208302840111640100000000831117156102aa57600080fd5b509092509050610698565b6101ee6108f9565b6101ee610900565b6101ee61091e565b610243600480360360208110156102e357600080fd5b5035610924565b610243610b93565b6102436004803603602081101561030857600080fd5b50356001600160a01b0316610cca565b6102436004803603602081101561032e57600080fd5b5035610dad565b6101ee6004803603602081101561034b57600080fd5b50356001600160a01b0316610e83565b610243610e9e565b61036b610f69565b604080516001600160a01b039092168252519081900360200190f35b6101ee610f78565b6101ee610f7e565b610243600480360360408110156103ad57600080fd5b506001600160a01b038135169060200135610f8c565b6101ee600480360360208110156103d957600080fd5b50356001600160a01b03166110b1565b61036b6110c3565b6102436004803603602081101561040757600080fd5b81019060208101813564010000000081111561042257600080fd5b82018360208201111561043457600080fd5b8035906020019184602083028401116401000000008311171561045657600080fd5b9190808060200260200160405190810160405280939291908181526020018383602002808284376000920191909152509295506110d2945050505050565b6101ee611390565b610243600480360360208110156104b257600080fd5b5035611396565b6101ee611485565b61036b6114d3565b6101ee6114e2565b61036b6114e8565b6101ee6114f7565b610243600480360360208110156104f757600080fd5b50356001600160a01b03166114fd565b6001600160a01b0381166000908152600b6020908152604080832054600a90925282205461057f919061057990670de0b6b3a764000090610573906105549061054e611485565b9061161f565b6001600160a01b0388166000908152600d60205260409020549061167c565b906116dc565b90611743565b92915050565b600b6020526000908152604090205481565b61059f61179d565b6001600160a01b03166105b06110c3565b6001600160a01b03161461060b576040805162461bcd60e51b815260206004820181905260248201527f4f776e61626c653a2063616c6c6572206973206e6f7420746865206f776e6572604482015290519081900360640190fd5b600354604080517f23b872dd0000000000000000000000000000000000000000000000000000000081523060048201523360248201526044810184905290516001600160a01b03909216916323b872dd9160648082019260009290919082900301818387803b15801561067d57600080fd5b505af1158015610691573d6000803e3d6000fd5b5050505050565b600260005414156106f0576040805162461bcd60e51b815260206004820152601f60248201527f5265656e7472616e637947756172643a207265656e7472616e742063616c6c00604482015290519081900360640190fd5b6002600055336106fe611485565b600855610709610f7e565b6007556001600160a01b038116156107505761072481610507565b6001600160a01b0382166000908152600b6020908152604080832093909355600854600a909152919020555b60005b8281101561084c576003546001600160a01b03166323b872dd333087878681811061077a57fe5b905060200201356040518463ffffffff1660e01b815260040180846001600160a01b03168152602001836001600160a01b031681526020018281526020019350505050600060405180830381600087803b1580156107d757600080fd5b505af11580156107eb573d6000803e3d6000fd5b5050505033600e600086868581811061080057fe5b60209081029290920135835250810191909152604001600020805473ffffffffffffffffffffffffffffffffffffffff19166001600160a01b0392909216919091179055600101610753565b50600c5461085a9083611743565b600c55336000908152600d60205260409020546108779083611743565b336000818152600d602090815260409182902093909355805183815280840186905291927f134b166c6094cc1ccbf1e3353ce5c3cd9fd29869051bdb999895854d77cc5ef6928792879282918201908590850280828437600083820152604051601f909101601f19169092018290039550909350505050a25050600160005550565b600c545b90565b600061091960065460055461167c90919063ffffffff16565b905090565b60065481565b600061092e611485565b600855610939610f7e565b6007556001600160a01b038116156109805761095481610507565b6001600160a01b0382166000908152600b6020908152604080832093909355600854600a909152919020555b6109886110c3565b6001600160a01b0316336001600160a01b031614806109b157506009546001600160a01b031633145b6109ec5760405162461bcd60e51b8152600401808060200182810382526027815260200180611b886027913960400191505060405180910390fd5b6004544210610a0b57600654610a039083906116dc565b600555610a4e565b600454600090610a1b904261161f565b90506000610a346005548361167c90919063ffffffff16565b600654909150610a48906105738684611743565b60055550505b600254604080517f70a0823100000000000000000000000000000000000000000000000000000000815230600482015290516000926001600160a01b0316916370a08231916024808301926020929190829003018186803b158015610ab257600080fd5b505afa158015610ac6573d6000803e3d6000fd5b505050506040513d6020811015610adc57600080fd5b5051600654909150610aef9082906116dc565b6005541115610b45576040805162461bcd60e51b815260206004820152601860248201527f50726f76696465642072657761726420746f6f20686967680000000000000000604482015290519081900360640190fd5b426007819055600654610b589190611743565b6004556040805184815290517fde88a922e0d3b88b24e9623efeb464919c6bf9f66857a65e2bfcf2ce87a9433d9181900360200190a1505050565b60026000541415610beb576040805162461bcd60e51b815260206004820152601f60248201527f5265656e7472616e637947756172643a207265656e7472616e742063616c6c00604482015290519081900360640190fd5b600260005533610bf9611485565b600855610c04610f7e565b6007556001600160a01b03811615610c4b57610c1f81610507565b6001600160a01b0382166000908152600b6020908152604080832093909355600854600a909152919020555b336000908152600b60205260409020548015610cc157336000818152600b6020526040812055600254610c8a916001600160a01b0390911690836117a1565b60408051828152905133917fe2403640ba68fed3a2f88b7557551d1993f84b99bb10ff833f0cf8db0c5e0486919081900360200190a25b50506001600055565b610cd261179d565b6001600160a01b0316610ce36110c3565b6001600160a01b031614610d3e576040805162461bcd60e51b815260206004820181905260248201527f4f776e61626c653a2063616c6c6572206973206e6f7420746865206f776e6572604482015290519081900360640190fd5b6004544211610d7e5760405162461bcd60e51b815260040180806020018281038252605e815260200180611bd5605e913960600191505060405180910390fd5b6009805473ffffffffffffffffffffffffffffffffffffffff19166001600160a01b0392909216919091179055565b610db561179d565b6001600160a01b0316610dc66110c3565b6001600160a01b031614610e21576040805162461bcd60e51b815260206004820181905260248201527f4f776e61626c653a2063616c6c6572206973206e6f7420746865206f776e6572604482015290519081900360640190fd5b6000610e2b611485565b600855610e36610f7e565b6007556001600160a01b03811615610e7d57610e5181610507565b6001600160a01b0382166000908152600b6020908152604080832093909355600854600a909152919020555b50600455565b6001600160a01b03166000908152600d602052604090205490565b610ea661179d565b6001600160a01b0316610eb76110c3565b6001600160a01b031614610f12576040805162461bcd60e51b815260206004820181905260248201527f4f776e61626c653a2063616c6c6572206973206e6f7420746865206f776e6572604482015290519081900360640190fd5b6001546040516000916001600160a01b0316907f8be0079c531659141344cd1fd0a4f28419497f9722a3daafe3b4186f6b6457e0908390a36001805473ffffffffffffffffffffffffffffffffffffffff19169055565b6003546001600160a01b031681565b60055481565b600061091942600454611826565b610f9461179d565b6001600160a01b0316610fa56110c3565b6001600160a01b031614611000576040805162461bcd60e51b815260206004820181905260248201527f4f776e61626c653a2063616c6c6572206973206e6f7420746865206f776e6572604482015290519081900360640190fd5b6003546001600160a01b038381169116141561104d5760405162461bcd60e51b8152600401808060200182810382526021815260200180611c7e6021913960400191505060405180910390fd5b6110696110586110c3565b6001600160a01b03841690836117a1565b604080516001600160a01b03841681526020810183905281517f8c1256b8896378cd5044f80c202f9772b9d77dc85c8a6eb51967210b09bfaa28929181900390910190a15050565b600a6020526000908152604090205481565b6001546001600160a01b031690565b6002600054141561112a576040805162461bcd60e51b815260206004820152601f60248201527f5265656e7472616e637947756172643a207265656e7472616e742063616c6c00604482015290519081900360640190fd5b600260005533611138611485565b600855611143610f7e565b6007556001600160a01b0381161561118a5761115e81610507565b6001600160a01b0382166000908152600b6020908152604080832093909355600854600a909152919020555b60005b82518110156112cf57336001600160a01b0316600e60008584815181106111b057fe5b6020908102919091018101518252810191909152604001600020546001600160a01b031614611226576040805162461bcd60e51b815260206004820152601160248201527f5065726d697373696f6e2064656e696564000000000000000000000000000000604482015290519081900360640190fd5b60035483516001600160a01b03909116906323b872dd903090339087908690811061124d57fe5b60200260200101516040518463ffffffff1660e01b815260040180846001600160a01b03168152602001836001600160a01b031681526020018281526020019350505050600060405180830381600087803b1580156112ab57600080fd5b505af11580156112bf573d6000803e3d6000fd5b50506001909201915061118d9050565b508151600c546112de9161161f565b600c558151336000908152600d60205260409020546112fc9161161f565b336000818152600d60209081526040808320949094558351818152865181830152865193947ff35c46796392b0deae18b1c5ac3cc50df76b67ef9bcf256df595a3607aab6258948894929384939284019286820192909102908190849084905b8381101561137457818101518382015260200161135c565b505050509050019250505060405180910390a250506001600055565b60075481565b61139e61179d565b6001600160a01b03166113af6110c3565b6001600160a01b03161461140a576040805162461bcd60e51b815260206004820181905260248201527f4f776e61626c653a2063616c6c6572206973206e6f7420746865206f776e6572604482015290519081900360640190fd5b600454421161144a5760405162461bcd60e51b8152600401808060200182810382526058815260200180611b0a6058913960600191505060405180910390fd5b60068190556040805182815290517ffb46ca5a5e06d4540d6387b930a7c978bce0db5f449ec6b3f5d07c6e1d44f2d39181900360200190a150565b6000600c546000141561149b57506008546108fd565b6109196114ca600c54610573670de0b6b3a76400006114c46005546114c460075461054e610f7e565b9061167c565b60085490611743565b6002546001600160a01b031681565b60085481565b6009546001600160a01b031681565b60045481565b61150561179d565b6001600160a01b03166115166110c3565b6001600160a01b031614611571576040805162461bcd60e51b815260206004820181905260248201527f4f776e61626c653a2063616c6c6572206973206e6f7420746865206f776e6572604482015290519081900360640190fd5b6001600160a01b0381166115b65760405162461bcd60e51b8152600401808060200182810382526026815260200180611b626026913960400191505060405180910390fd5b6001546040516001600160a01b038084169216907f8be0079c531659141344cd1fd0a4f28419497f9722a3daafe3b4186f6b6457e090600090a36001805473ffffffffffffffffffffffffffffffffffffffff19166001600160a01b0392909216919091179055565b600082821115611676576040805162461bcd60e51b815260206004820152601e60248201527f536166654d6174683a207375627472616374696f6e206f766572666c6f770000604482015290519081900360640190fd5b50900390565b60008261168b5750600061057f565b8282028284828161169857fe5b04146116d55760405162461bcd60e51b8152600401808060200182810382526021815260200180611c336021913960400191505060405180910390fd5b9392505050565b6000808211611732576040805162461bcd60e51b815260206004820152601a60248201527f536166654d6174683a206469766973696f6e206279207a65726f000000000000604482015290519081900360640190fd5b81838161173b57fe5b049392505050565b6000828201838110156116d5576040805162461bcd60e51b815260206004820152601b60248201527f536166654d6174683a206164646974696f6e206f766572666c6f770000000000604482015290519081900360640190fd5b3390565b604080516001600160a01b038416602482015260448082018490528251808303909101815260649091019091526020810180517bffffffffffffffffffffffffffffffffffffffffffffffffffffffff167fa9059cbb0000000000000000000000000000000000000000000000000000000017905261182190849061183c565b505050565b600081831061183557816116d5565b5090919050565b6000611891826040518060400160405280602081526020017f5361666545524332303a206c6f772d6c6576656c2063616c6c206661696c6564815250856001600160a01b03166118ed9092919063ffffffff16565b805190915015611821578080602001905160208110156118b057600080fd5b50516118215760405162461bcd60e51b815260040180806020018281038252602a815260200180611c54602a913960400191505060405180910390fd5b60606118fc8484600085611904565b949350505050565b6060824710156119455760405162461bcd60e51b8152600401808060200182810382526026815260200180611baf6026913960400191505060405180910390fd5b61194e85611a5f565b61199f576040805162461bcd60e51b815260206004820152601d60248201527f416464726573733a2063616c6c20746f206e6f6e2d636f6e7472616374000000604482015290519081900360640190fd5b600080866001600160a01b031685876040518082805190602001908083835b602083106119dd5780518252601f1990920191602091820191016119be565b6001836020036101000a03801982511681845116808217855250505050505090500191505060006040518083038185875af1925050503d8060008114611a3f576040519150601f19603f3d011682016040523d82523d6000602084013e611a44565b606091505b5091509150611a54828286611a65565b979650505050505050565b3b151590565b60608315611a745750816116d5565b825115611a845782518084602001fd5b8160405162461bcd60e51b81526004018080602001828103825283818151815260200191508051906020019080838360005b83811015611ace578181015183820152602001611ab6565b50505050905090810190601f168015611afb5780820380516001836020036101000a031916815260200191505b509250505060405180910390fdfe50726576696f7573207265776172647320706572696f64206d75737420626520636f6d706c657465206265666f7265206368616e67696e6720746865206475726174696f6e20666f7220746865206e657720706572696f644f776e61626c653a206e6577206f776e657220697320746865207a65726f20616464726573734c6971706f6c6c204d616e61676572206f72204f776e65722063616e2063616c6c20746869732e416464726573733a20696e73756666696369656e742062616c616e636520666f722063616c6c50726576696f7573207265776172647320706572696f64206d75737420626520636f6d706c657465206265666f7265206368616e67696e6720746865206c6971506f6f6c4d616e6167657220666f7220746865206e657720706572696f64536166654d6174683a206d756c7469706c69636174696f6e206f766572666c6f775361666545524332303a204552433230206f7065726174696f6e20646964206e6f74207375636365656443616e6e6f7420776974686472617720746865207374616b696e6720746f6b656ea2646970667358221220952281eee4a7facd5884ba557d76f291886e67d211c57fbc7783ff352deb5a6764736f6c63430007060033",
  "linkReferences": {},
  "deployedLinkReferences": {}
}